{"contracts/Crowdfunding.sol":{"Crowdfunding":{"abi":[{"inputs":[],"stateMutability":"payable","type":"constructor"},{"anonymous":false,"inputs":[{"indexed":false,"internalType":"uint256","name":"ID","type":"uint256"},{"indexed":false,"internalType":"string","name":"title","type":"string"},{"indexed":false,"internalType":"string","name":"description","type":"string"},{"indexed":false,"internalType":"string","name":"location","type":"string"},{"indexed":false,"internalType":"string","name":"category","type":"string"},{"indexed":false,"internalType":"uint256","name":"minContribution","type":"uint256"},{"indexed":false,"internalType":"uint256","name":"goal","type":"uint256"},{"indexed":false,"internalType":"uint256","name":"campaignDeadline","type":"uint256"},{"indexed":false,"internalType":"uint256","name":"noOfContributions","type":"uint256"},{"indexed":false,"internalType":"bool","name":"claimed","type":"bool"}],"name":"CampaignUploaded","type":"event"},{"anonymous":false,"inputs":[{"indexed":false,"internalType":"uint256","name":"id_","type":"uint256"},{"indexed":false,"internalType":"address","name":"contributor_","type":"address"},{"indexed":false,"internalType":"uint256","name":"amount_","type":"uint256"}],"name":"paidCampaign","type":"event"},{"inputs":[{"internalType":"uint256","name":"","type":"uint256"},{"internalType":"uint256","name":"","type":"uint256"}],"name":"campaignContributions","outputs":[{"internalType":"address","name":"contributorAddress","type":"address"},{"internalType":"uint256","name":"amtContributed","type":"uint256"}],"stateMutability":"view","type":"function"},{"inputs":[{"internalType":"uint256","name":"id_","type":"uint256"}],"name":"campaignSuccess","outputs":[],"stateMutability":"nonpayable","type":"function"},{"inputs":[{"internalType":"uint256","name":"","type":"uint256"}],"name":"campaigns","outputs":[{"internalType":"uint256","name":"ID","type":"uint256"},{"internalType":"string","name":"title","type":"string"},{"internalType":"string","name":"description","type":"string"},{"internalType":"string","name":"location","type":"string"},{"internalType":"string","name":"category","type":"string"},{"internalType":"uint256","name":"minContribution","type":"uint256"},{"internalType":"uint256","name":"goal","type":"uint256"},{"internalType":"uint256","name":"pledgedAmt","type":"uint256"},{"internalType":"uint256","name":"campaignDeadline","type":"uint256"},{"internalType":"uint256","name":"noOfContributions","type":"uint256"},{"internalType":"bool","name":"claimed","type":"bool"}],"stateMutability":"view","type":"function"},{"inputs":[{"internalType":"address","name":"","type":"address"},{"internalType":"uint256","name":"","type":"uint256"}],"name":"contributorContributions","outputs":[{"internalType":"uint256","name":"","type":"uint256"}],"stateMutability":"view","type":"function"},{"inputs":[],"name":"manager","outputs":[{"internalType":"address payable","name":"","type":"address"}],"stateMutability":"view","type":"function"},{"inputs":[],"name":"noOfCampaigns","outputs":[{"internalType":"uint256","name":"","type":"uint256"}],"stateMutability":"view","type":"function"},{"inputs":[{"internalType":"uint256","name":"id_","type":"uint256"}],"name":"payCampaign","outputs":[],"stateMutability":"payable","type":"function"},{"inputs":[{"internalType":"uint256","name":"id_","type":"uint256"}],"name":"refundAmt","outputs":[],"stateMutability":"nonpayable","type":"function"},{"inputs":[],"name":"totalContributions","outputs":[{"internalType":"uint256","name":"","type":"uint256"}],"stateMutability":"view","type":"function"},{"inputs":[],"name":"totalTrustCoins","outputs":[{"internalType":"uint256","name":"","type":"uint256"}],"stateMutability":"view","type":"function"},{"inputs":[{"internalType":"uint256","name":"id_","type":"uint256"},{"internalType":"string","name":"title_","type":"string"},{"internalType":"string","name":"description_","type":"string"},{"internalType":"string","name":"location_","type":"string"},{"internalType":"string","name":"category_","type":"string"},{"internalType":"uint256","name":"minContribution_","type":"uint256"},{"internalType":"uint256","name":"goal_","type":"uint256"},{"internalType":"uint256","name":"deadline_","type":"uint256"}],"name":"uploadCampaign","outputs":[],"stateMutability":"nonpayable","type":"function"}],"evm":{"bytecode":{"linkReferences":{},"object":"608060409081526001600081815560028190556003819055620f4240600490815582546001600160a01b0319163390811790935591815260056020529182206101f4908190558154909290610055908490610076565b9091555061008f9050565b634e487b7160e01b600052601160045260246000fd5b8181038181111561008957610089610060565b92915050565b6113d98061009e6000396000f3fe6080604052600436106100bc5760003560e01c8063481c6a75116100745780636897c1371161004e5780636897c1371461022f578063bef0cdaf1461024f578063f6f219a51461026557600080fd5b8063481c6a751461016f578063539157bd146101a957806362b68dc41461020f57600080fd5b806317818e59116100a557806317818e591461012357806337c089231461014657806342a4ed951461015c57600080fd5b8063141961bc146100c15780631655963214610101575b600080fd5b3480156100cd57600080fd5b506100e16100dc366004610b0b565b61029d565b6040516100f89b9a99989796959493929190610b9a565b60405180910390f35b34801561010d57600080fd5b5061012161011c366004610b0b565b610516565b005b34801561012f57600080fd5b5061013960025481565b6040516100f89190610c5a565b34801561015257600080fd5b5061013960035481565b61012161016a366004610b0b565b610657565b34801561017b57600080fd5b5060015461019c9073ffffffffffffffffffffffffffffffffffffffff1681565b6040516100f89190610c8f565b3480156101b557600080fd5b506102016101c4366004610c9d565b60076020908152600092835260408084209091529082529020805460019091015473ffffffffffffffffffffffffffffffffffffffff9091169082565b6040516100f8929190610cda565b34801561021b57600080fd5b5061012161022a366004610b0b565b61083c565b34801561023b57600080fd5b5061012161024a366004610df7565b61091c565b34801561025b57600080fd5b5061013960045481565b34801561027157600080fd5b50610139610280366004610f2a565b600860209081526000928352604080842090915290825290205481565b600660205260009081526040902080546001820180549192916102bf90610f62565b80601f01602080910402602001604051908101604052809291908181526020018280546102eb90610f62565b80156103385780601f1061030d57610100808354040283529160200191610338565b820191906000526020600020905b81548152906001019060200180831161031b57829003601f168201915b50505050509080600201805461034d90610f62565b80601f016020809104026020016040519081016040528092919081815260200182805461037990610f62565b80156103c65780601f1061039b576101008083540402835291602001916103c6565b820191906000526020600020905b8154815290600101906020018083116103a957829003601f168201915b5050505050908060030180546103db90610f62565b80601f016020809104026020016040519081016040528092919081815260200182805461040790610f62565b80156104545780601f1061042957610100808354040283529160200191610454565b820191906000526020600020905b81548152906001019060200180831161043757829003601f168201915b50505050509080600401805461046990610f62565b80601f016020809104026020016040519081016040528092919081815260200182805461049590610f62565b80156104e25780601f106104b7576101008083540402835291602001916104e2565b820191906000526020600020905b8154815290600101906020018083116104c557829003601f168201915b50505060058401546006850154600786015460088701546009880154600a9098015496979396929550909350919060ff168b565b600081815260066020819052604090912090810154600790910154106105575760405162461bcd60e51b815260040161054e90610feb565b60405180910390fd5b60005b6000828152600660205260409020600901548110156106535760008281526007602090815260408083208484529091528082208054600190910154915173ffffffffffffffffffffffffffffffffffffffff9091169290839083906105be90610ffe565b60006040518083038185875af1925050503d80600081146105fb576040519150601f19603f3d011682016040523d82523d6000602084013e610600565b606091505b50509050806106215760405162461bcd60e51b815260040161054e90611060565b50505060008281526007602090815260408083208484529091528120600101558061064b81611086565b91505061055a565b5050565b60008181526006602052604090206008015442106106875760405162461bcd60e51b815260040161054e906110d7565b6000818152600660205260409020600501543410156106b85760405162461bcd60e51b815260040161054e90611119565b600060405180604001604052803373ffffffffffffffffffffffffffffffffffffffff168152602001600054346106ef9190611129565b90526000549091506107019034611129565b3360009081526008602090815260408083208684529091528120805490919061072b908490611148565b909155505060008281526007602090815260408083206006835281842060090154845282528220835181547fffffffffffffffffffffffff00000000000000000000000000000000000000001673ffffffffffffffffffffffffffffffffffffffff90911617815590830151600190910155546107a89034611129565b600083815260066020526040812060070180549091906107c9908490611148565b909155505060008281526006602052604081206009018054916107eb83611086565b91905055507f9de0a6dd1dfd3e6eda5e87572f845b6183a171debc4a266cf5c5eddc775409838233600054346108219190611129565b6040516108309392919061115b565b60405180910390a15050565b60015473ffffffffffffffffffffffffffffffffffffffff16331461086057600080fd5b600081815260066020819052604090912090810154600790910154116108985760405162461bcd60e51b815260040161054e90610feb565b6000818152600660205260408082206007015490513391906108b990610ffe565b60006040518083038185875af1925050503d80600081146108f6576040519150601f19603f3d011682016040523d82523d6000602084013e6108fb565b606091505b50509050806106535760405162461bcd60e51b815260040161054e90611060565b60015473ffffffffffffffffffffffffffffffffffffffff16331461094057600080fd5b60006040518061016001604052808a81526020018981526020018881526020018781526020018681526020016000548661097a9190611129565b815260208101859052600060408201526060016109978442611148565b81526000602080830182905260409283018290528c8252600681529190208251815590820151919250829160018201906109d19082611225565b50604082015160028201906109e69082611225565b50606082015160038201906109fb9082611225565b5060808201516004820190610a109082611225565b5060a0820151600582015560c0820151600682015560e082015160078201556101008201516008820155610120820151600982015561014090910151600a90910180547fffffffffffffffffffffffffffffffffffffffffffffffffffffffffffffff00169115159190911790556002546040517f8a9ac69da6c9624863cc5677f1ffe445079deb65237ccf9adc3fa4b410b0426891610ac2918b908b908b908b908b908b908b9060009081906112f2565b60405180910390a160028054906000610ada83611086565b9190505550505050505050505050565b805b8114610af757600080fd5b50565b8035610b0581610aea565b92915050565b600060208284031215610b2057610b20600080fd5b6000610b2c8484610afa565b949350505050565b805b82525050565b60005b83811015610b57578181015183820152602001610b3f565b50506000910152565b6000610b6a825190565b808452602084019350610b81818560208601610b3c565b601f01601f19169290920192915050565b801515610b36565b6101608101610ba9828e610b34565b8181036020830152610bbb818d610b60565b90508181036040830152610bcf818c610b60565b90508181036060830152610be3818b610b60565b90508181036080830152610bf7818a610b60565b9050610c0660a0830189610b34565b610c1360c0830188610b34565b610c2060e0830187610b34565b610c2e610100830186610b34565b610c3c610120830185610b34565b610c4a610140830184610b92565b9c9b505050505050505050505050565b60208101610b058284610b34565b600073ffffffffffffffffffffffffffffffffffffffff8216610b05565b610b3681610c68565b60208101610b058284610c86565b60008060408385031215610cb357610cb3600080fd5b6000610cbf8585610afa565b9250506020610cd085828601610afa565b9150509250929050565b60408101610ce88285610c86565b610cf56020830184610b34565b9392505050565b634e487b7160e01b600052604160045260246000fd5b601f19601f830116810181811067ffffffffffffffff82111715610d3857610d38610cfc565b6040525050565b6000610d4a60405190565b9050610d568282610d12565b919050565b600067ffffffffffffffff821115610d7557610d75610cfc565b601f19601f83011660200192915050565b82818337506000910152565b6000610da5610da084610d5b565b610d3f565b905082815260208101848484011115610dc057610dc0600080fd5b610dcb848285610d86565b509392505050565b600082601f830112610de757610de7600080fd5b8135610b2c848260208601610d92565b600080600080600080600080610100898b031215610e1757610e17600080fd5b6000610e238b8b610afa565b985050602089013567ffffffffffffffff811115610e4357610e43600080fd5b610e4f8b828c01610dd3565b975050604089013567ffffffffffffffff811115610e6f57610e6f600080fd5b610e7b8b828c01610dd3565b965050606089013567ffffffffffffffff811115610e9b57610e9b600080fd5b610ea78b828c01610dd3565b955050608089013567ffffffffffffffff811115610ec757610ec7600080fd5b610ed38b828c01610dd3565b94505060a0610ee48b828c01610afa565b93505060c0610ef58b828c01610afa565b92505060e0610f068b828c01610afa565b9150509295985092959890939650565b610aec81610c68565b8035610b0581610f16565b60008060408385031215610f4057610f40600080fd5b6000610cbf8585610f1f565b634e487b7160e01b600052602260045260246000fd5b600281046001821680610f7657607f821691505b602082108103610f8857610f88610f4c565b50919050565b602c81526000602082017f596f7520617265206e6f7420656c696769626c6520746f20676574207265667581527f6e64207269676874206e6f770000000000000000000000000000000000000000602082015291505b5060400190565b60208082528101610b0581610f8e565b90565b600081610b05565b602c81526000602082017f4661696c656420746f2073656e6420757365722062616c616e6365206261636b81527f20746f207468652075736572000000000000000000000000000000000000000060208201529150610fe4565b60208082528101610b0581611006565b634e487b7160e01b600052601160045260246000fd5b6000600019820361109957611099611070565b5060010190565b601381526000602082017f446561646c696e65206861732070617373656400000000000000000000000000815291505b5060200190565b60208082528101610b05816110a0565b60208082527f4d696e696d756d20636f6e747269627574696f6e20686173206e6f74206d6574910190815260006110d0565b60208082528101610b05816110e7565b81810280821583820485141761114157611141611070565b5092915050565b80820180821115610b0557610b05611070565b606081016111698286610b34565b6111766020830185610c86565b610b2c6040830184610b34565b6000610b05610ffb8381565b61119883611183565b81546008840282811b60001990911b908116901990911617825550505050565b60006111c581848461118f565b505050565b81811015610653576111dd6000826111b8565b6001016111ca565b601f8211156111c5576000818152602090206020601f8501048101602085101561120c5750805b61121e6020601f8601048301826111ca565b5050505050565b815167ffffffffffffffff81111561123f5761123f610cfc565b6112498254610f62565b6112548282856111e5565b6020601f83116001811461128857600084156112705750858201515b600019600886021c19811660028602178655506112e1565b600085815260208120601f198616915b828110156112b85788850151825560209485019460019092019101611298565b868310156112d45784890151600019601f89166008021c191682555b6001600288020188555050505b505050505050565b610b3681611183565b6101408101611301828d610b34565b8181036020830152611313818c610b60565b90508181036040830152611327818b610b60565b9050818103606083015261133b818a610b60565b9050818103608083015261134f8189610b60565b905061135e60a0830188610b34565b61136b60c0830187610b34565b61137860e0830186610b34565b6113866101008301856112e9565b611394610120830184610b92565b9b9a505050505050505050505056fea26469706673582212202815a0ab36f7e52cb31c9c1635d642d9b9a2e367b3518c206e7343611a3551ed64736f6c63430008110033","opcodes":"PUSH1 0x80 PUSH1 0x40 SWAP1 DUP2 MSTORE PUSH1 0x1 PUSH1 0x0 DUP2 DUP2 SSTORE PUSH1 0x2 DUP2 SWAP1 SSTORE PUSH1 0x3 DUP2 SWAP1 SSTORE PUSH3 0xF4240 PUSH1 0x4 SWAP1 DUP2 SSTORE DUP3 SLOAD PUSH1 0x1 PUSH1 0x1 PUSH1 0xA0 SHL SUB NOT AND CALLER SWAP1 DUP2 OR SWAP1 SWAP4 SSTORE SWAP2 DUP2 MSTORE PUSH1 0x5 PUSH1 0x20 MSTORE SWAP2 DUP3 KECCAK256 PUSH2 0x1F4 SWAP1 DUP2 SWAP1 SSTORE DUP2 SLOAD SWAP1 SWAP3 SWAP1 PUSH2 0x55 SWAP1 DUP5 SWAP1 PUSH2 0x76 JUMP JUMPDEST SWAP1 SWAP2 SSTORE POP PUSH2 0x8F SWAP1 POP JUMP JUMPDEST PUSH4 0x4E487B71 PUSH1 0xE0 SHL PUSH1 0x0 MSTORE PUSH1 0x11 PUSH1 0x4 MSTORE PUSH1 0x24 PUSH1 0x0 REVERT JUMPDEST DUP2 DUP2 SUB DUP2 DUP2 GT ISZERO PUSH2 0x89 JUMPI PUSH2 0x89 PUSH2 0x60 JUMP JUMPDEST SWAP3 SWAP2 POP POP JUMP JUMPDEST PUSH2 0x13D9 DUP1 PUSH2 0x9E PUSH1 0x0 CODECOPY PUSH1 0x0 RETURN INVALID PUSH1 0x80 PUSH1 0x40 MSTORE PUSH1 0x4 CALLDATASIZE LT PUSH2 0xBC JUMPI PUSH1 0x0 CALLDATALOAD PUSH1 0xE0 SHR DUP1 PUSH4 0x481C6A75 GT PUSH2 0x74 JUMPI DUP1 PUSH4 0x6897C137 GT PUSH2 0x4E JUMPI DUP1 PUSH4 0x6897C137 EQ PUSH2 0x22F JUMPI DUP1 PUSH4 0xBEF0CDAF EQ PUSH2 0x24F JUMPI DUP1 PUSH4 0xF6F219A5 EQ PUSH2 0x265 JUMPI PUSH1 0x0 DUP1 REVERT JUMPDEST DUP1 PUSH4 0x481C6A75 EQ PUSH2 0x16F JUMPI DUP1 PUSH4 0x539157BD EQ PUSH2 0x1A9 JUMPI DUP1 PUSH4 0x62B68DC4 EQ PUSH2 0x20F JUMPI PUSH1 0x0 DUP1 REVERT JUMPDEST DUP1 PUSH4 0x17818E59 GT PUSH2 0xA5 JUMPI DUP1 PUSH4 0x17818E59 EQ PUSH2 0x123 JUMPI DUP1 PUSH4 0x37C08923 EQ PUSH2 0x146 JUMPI DUP1 PUSH4 0x42A4ED95 EQ PUSH2 0x15C JUMPI PUSH1 0x0 DUP1 REVERT JUMPDEST DUP1 PUSH4 0x141961BC EQ PUSH2 0xC1 JUMPI DUP1 PUSH4 0x16559632 EQ PUSH2 0x101 JUMPI JUMPDEST PUSH1 0x0 DUP1 REVERT JUMPDEST CALLVALUE DUP1 ISZERO PUSH2 0xCD JUMPI PUSH1 0x0 DUP1 REVERT JUMPDEST POP PUSH2 0xE1 PUSH2 0xDC CALLDATASIZE PUSH1 0x4 PUSH2 0xB0B JUMP JUMPDEST PUSH2 0x29D JUMP JUMPDEST PUSH1 0x40 MLOAD PUSH2 0xF8 SWAP12 SWAP11 SWAP10 SWAP9 SWAP8 SWAP7 SWAP6 SWAP5 SWAP4 SWAP3 SWAP2 SWAP1 PUSH2 0xB9A JUMP JUMPDEST PUSH1 0x40 MLOAD DUP1 SWAP2 SUB SWAP1 RETURN JUMPDEST CALLVALUE DUP1 ISZERO PUSH2 0x10D JUMPI PUSH1 0x0 DUP1 REVERT JUMPDEST POP PUSH2 0x121 PUSH2 0x11C CALLDATASIZE PUSH1 0x4 PUSH2 0xB0B JUMP JUMPDEST PUSH2 0x516 JUMP JUMPDEST STOP JUMPDEST CALLVALUE DUP1 ISZERO PUSH2 0x12F JUMPI PUSH1 0x0 DUP1 REVERT JUMPDEST POP PUSH2 0x139 PUSH1 0x2 SLOAD DUP2 JUMP JUMPDEST PUSH1 0x40 MLOAD PUSH2 0xF8 SWAP2 SWAP1 PUSH2 0xC5A JUMP JUMPDEST CALLVALUE DUP1 ISZERO PUSH2 0x152 JUMPI PUSH1 0x0 DUP1 REVERT JUMPDEST POP PUSH2 0x139 PUSH1 0x3 SLOAD DUP2 JUMP JUMPDEST PUSH2 0x121 PUSH2 0x16A CALLDATASIZE PUSH1 0x4 PUSH2 0xB0B JUMP JUMPDEST PUSH2 0x657 JUMP JUMPDEST CALLVALUE DUP1 ISZERO PUSH2 0x17B JUMPI PUSH1 0x0 DUP1 REVERT JUMPDEST POP PUSH1 0x1 SLOAD PUSH2 0x19C SWAP1 PUSH20 0xFFFFFFFFFFFFFFFFFFFFFFFFFFFFFFFFFFFFFFFF AND DUP2 JUMP JUMPDEST PUSH1 0x40 MLOAD PUSH2 0xF8 SWAP2 SWAP1 PUSH2 0xC8F JUMP JUMPDEST CALLVALUE DUP1 ISZERO PUSH2 0x1B5 JUMPI PUSH1 0x0 DUP1 REVERT JUMPDEST POP PUSH2 0x201 PUSH2 0x1C4 CALLDATASIZE PUSH1 0x4 PUSH2 0xC9D JUMP JUMPDEST PUSH1 0x7 PUSH1 0x20 SWAP1 DUP2 MSTORE PUSH1 0x0 SWAP3 DUP4 MSTORE PUSH1 0x40 DUP1 DUP5 KECCAK256 SWAP1 SWAP2 MSTORE SWAP1 DUP3 MSTORE SWAP1 KECCAK256 DUP1 SLOAD PUSH1 0x1 SWAP1 SWAP2 ADD SLOAD PUSH20 0xFFFFFFFFFFFFFFFFFFFFFFFFFFFFFFFFFFFFFFFF SWAP1 SWAP2 AND SWAP1 DUP3 JUMP JUMPDEST PUSH1 0x40 MLOAD PUSH2 0xF8 SWAP3 SWAP2 SWAP1 PUSH2 0xCDA JUMP JUMPDEST CALLVALUE DUP1 ISZERO PUSH2 0x21B JUMPI PUSH1 0x0 DUP1 REVERT JUMPDEST POP PUSH2 0x121 PUSH2 0x22A CALLDATASIZE PUSH1 0x4 PUSH2 0xB0B JUMP JUMPDEST PUSH2 0x83C JUMP JUMPDEST CALLVALUE DUP1 ISZERO PUSH2 0x23B JUMPI PUSH1 0x0 DUP1 REVERT JUMPDEST POP PUSH2 0x121 PUSH2 0x24A CALLDATASIZE PUSH1 0x4 PUSH2 0xDF7 JUMP JUMPDEST PUSH2 0x91C JUMP JUMPDEST CALLVALUE DUP1 ISZERO PUSH2 0x25B JUMPI PUSH1 0x0 DUP1 REVERT JUMPDEST POP PUSH2 0x139 PUSH1 0x4 SLOAD DUP2 JUMP JUMPDEST CALLVALUE DUP1 ISZERO PUSH2 0x271 JUMPI PUSH1 0x0 DUP1 REVERT JUMPDEST POP PUSH2 0x139 PUSH2 0x280 CALLDATASIZE PUSH1 0x4 PUSH2 0xF2A JUMP JUMPDEST PUSH1 0x8 PUSH1 0x20 SWAP1 DUP2 MSTORE PUSH1 0x0 SWAP3 DUP4 MSTORE PUSH1 0x40 DUP1 DUP5 KECCAK256 SWAP1 SWAP2 MSTORE SWAP1 DUP3 MSTORE SWAP1 KECCAK256 SLOAD DUP2 JUMP JUMPDEST PUSH1 0x6 PUSH1 0x20 MSTORE PUSH1 0x0 SWAP1 DUP2 MSTORE PUSH1 0x40 SWAP1 KECCAK256 DUP1 SLOAD PUSH1 0x1 DUP3 ADD DUP1 SLOAD SWAP2 SWAP3 SWAP2 PUSH2 0x2BF SWAP1 PUSH2 0xF62 JUMP JUMPDEST DUP1 PUSH1 0x1F ADD PUSH1 0x20 DUP1 SWAP2 DIV MUL PUSH1 0x20 ADD PUSH1 0x40 MLOAD SWAP1 DUP2 ADD PUSH1 0x40 MSTORE DUP1 SWAP3 SWAP2 SWAP1 DUP2 DUP2 MSTORE PUSH1 0x20 ADD DUP3 DUP1 SLOAD PUSH2 0x2EB SWAP1 PUSH2 0xF62 JUMP JUMPDEST DUP1 ISZERO PUSH2 0x338 JUMPI DUP1 PUSH1 0x1F LT PUSH2 0x30D JUMPI PUSH2 0x100 DUP1 DUP4 SLOAD DIV MUL DUP4 MSTORE SWAP2 PUSH1 0x20 ADD SWAP2 PUSH2 0x338 JUMP JUMPDEST DUP3 ADD SWAP2 SWAP1 PUSH1 0x0 MSTORE PUSH1 0x20 PUSH1 0x0 KECCAK256 SWAP1 JUMPDEST DUP2 SLOAD DUP2 MSTORE SWAP1 PUSH1 0x1 ADD SWAP1 PUSH1 0x20 ADD DUP1 DUP4 GT PUSH2 0x31B JUMPI DUP3 SWAP1 SUB PUSH1 0x1F AND DUP3 ADD SWAP2 JUMPDEST POP POP POP POP POP SWAP1 DUP1 PUSH1 0x2 ADD DUP1 SLOAD PUSH2 0x34D SWAP1 PUSH2 0xF62 JUMP JUMPDEST DUP1 PUSH1 0x1F ADD PUSH1 0x20 DUP1 SWAP2 DIV MUL PUSH1 0x20 ADD PUSH1 0x40 MLOAD SWAP1 DUP2 ADD PUSH1 0x40 MSTORE DUP1 SWAP3 SWAP2 SWAP1 DUP2 DUP2 MSTORE PUSH1 0x20 ADD DUP3 DUP1 SLOAD PUSH2 0x379 SWAP1 PUSH2 0xF62 JUMP JUMPDEST DUP1 ISZERO PUSH2 0x3C6 JUMPI DUP1 PUSH1 0x1F LT PUSH2 0x39B JUMPI PUSH2 0x100 DUP1 DUP4 SLOAD DIV MUL DUP4 MSTORE SWAP2 PUSH1 0x20 ADD SWAP2 PUSH2 0x3C6 JUMP JUMPDEST DUP3 ADD SWAP2 SWAP1 PUSH1 0x0 MSTORE PUSH1 0x20 PUSH1 0x0 KECCAK256 SWAP1 JUMPDEST DUP2 SLOAD DUP2 MSTORE SWAP1 PUSH1 0x1 ADD SWAP1 PUSH1 0x20 ADD DUP1 DUP4 GT PUSH2 0x3A9 JUMPI DUP3 SWAP1 SUB PUSH1 0x1F AND DUP3 ADD SWAP2 JUMPDEST POP POP POP POP POP SWAP1 DUP1 PUSH1 0x3 ADD DUP1 SLOAD PUSH2 0x3DB SWAP1 PUSH2 0xF62 JUMP JUMPDEST DUP1 PUSH1 0x1F ADD PUSH1 0x20 DUP1 SWAP2 DIV MUL PUSH1 0x20 ADD PUSH1 0x40 MLOAD SWAP1 DUP2 ADD PUSH1 0x40 MSTORE DUP1 SWAP3 SWAP2 SWAP1 DUP2 DUP2 MSTORE PUSH1 0x20 ADD DUP3 DUP1 SLOAD PUSH2 0x407 SWAP1 PUSH2 0xF62 JUMP JUMPDEST DUP1 ISZERO PUSH2 0x454 JUMPI DUP1 PUSH1 0x1F LT PUSH2 0x429 JUMPI PUSH2 0x100 DUP1 DUP4 SLOAD DIV MUL DUP4 MSTORE SWAP2 PUSH1 0x20 ADD SWAP2 PUSH2 0x454 JUMP JUMPDEST DUP3 ADD SWAP2 SWAP1 PUSH1 0x0 MSTORE PUSH1 0x20 PUSH1 0x0 KECCAK256 SWAP1 JUMPDEST DUP2 SLOAD DUP2 MSTORE SWAP1 PUSH1 0x1 ADD SWAP1 PUSH1 0x20 ADD DUP1 DUP4 GT PUSH2 0x437 JUMPI DUP3 SWAP1 SUB PUSH1 0x1F AND DUP3 ADD SWAP2 JUMPDEST POP POP POP POP POP SWAP1 DUP1 PUSH1 0x4 ADD DUP1 SLOAD PUSH2 0x469 SWAP1 PUSH2 0xF62 JUMP JUMPDEST DUP1 PUSH1 0x1F ADD PUSH1 0x20 DUP1 SWAP2 DIV MUL PUSH1 0x20 ADD PUSH1 0x40 MLOAD SWAP1 DUP2 ADD PUSH1 0x40 MSTORE DUP1 SWAP3 SWAP2 SWAP1 DUP2 DUP2 MSTORE PUSH1 0x20 ADD DUP3 DUP1 SLOAD PUSH2 0x495 SWAP1 PUSH2 0xF62 JUMP JUMPDEST DUP1 ISZERO PUSH2 0x4E2 JUMPI DUP1 PUSH1 0x1F LT PUSH2 0x4B7 JUMPI PUSH2 0x100 DUP1 DUP4 SLOAD DIV MUL DUP4 MSTORE SWAP2 PUSH1 0x20 ADD SWAP2 PUSH2 0x4E2 JUMP JUMPDEST DUP3 ADD SWAP2 SWAP1 PUSH1 0x0 MSTORE PUSH1 0x20 PUSH1 0x0 KECCAK256 SWAP1 JUMPDEST DUP2 SLOAD DUP2 MSTORE SWAP1 PUSH1 0x1 ADD SWAP1 PUSH1 0x20 ADD DUP1 DUP4 GT PUSH2 0x4C5 JUMPI DUP3 SWAP1 SUB PUSH1 0x1F AND DUP3 ADD SWAP2 JUMPDEST POP POP POP PUSH1 0x5 DUP5 ADD SLOAD PUSH1 0x6 DUP6 ADD SLOAD PUSH1 0x7 DUP7 ADD SLOAD PUSH1 0x8 DUP8 ADD SLOAD PUSH1 0x9 DUP9 ADD SLOAD PUSH1 0xA SWAP1 SWAP9 ADD SLOAD SWAP7 SWAP8 SWAP4 SWAP7 SWAP3 SWAP6 POP SWAP1 SWAP4 POP SWAP2 SWAP1 PUSH1 0xFF AND DUP12 JUMP JUMPDEST PUSH1 0x0 DUP2 DUP2 MSTORE PUSH1 0x6 PUSH1 0x20 DUP2 SWAP1 MSTORE PUSH1 0x40 SWAP1 SWAP2 KECCAK256 SWAP1 DUP2 ADD SLOAD PUSH1 0x7 SWAP1 SWAP2 ADD SLOAD LT PUSH2 0x557 JUMPI PUSH1 0x40 MLOAD PUSH3 0x461BCD PUSH1 0xE5 SHL DUP2 MSTORE PUSH1 0x4 ADD PUSH2 0x54E SWAP1 PUSH2 0xFEB JUMP JUMPDEST PUSH1 0x40 MLOAD DUP1 SWAP2 SUB SWAP1 REVERT JUMPDEST PUSH1 0x0 JUMPDEST PUSH1 0x0 DUP3 DUP2 MSTORE PUSH1 0x6 PUSH1 0x20 MSTORE PUSH1 0x40 SWAP1 KECCAK256 PUSH1 0x9 ADD SLOAD DUP2 LT ISZERO PUSH2 0x653 JUMPI PUSH1 0x0 DUP3 DUP2 MSTORE PUSH1 0x7 PUSH1 0x20 SWAP1 DUP2 MSTORE PUSH1 0x40 DUP1 DUP4 KECCAK256 DUP5 DUP5 MSTORE SWAP1 SWAP2 MSTORE DUP1 DUP3 KECCAK256 DUP1 SLOAD PUSH1 0x1 SWAP1 SWAP2 ADD SLOAD SWAP2 MLOAD PUSH20 0xFFFFFFFFFFFFFFFFFFFFFFFFFFFFFFFFFFFFFFFF SWAP1 SWAP2 AND SWAP3 SWAP1 DUP4 SWAP1 DUP4 SWAP1 PUSH2 0x5BE SWAP1 PUSH2 0xFFE JUMP JUMPDEST PUSH1 0x0 PUSH1 0x40 MLOAD DUP1 DUP4 SUB DUP2 DUP6 DUP8 GAS CALL SWAP3 POP POP POP RETURNDATASIZE DUP1 PUSH1 0x0 DUP2 EQ PUSH2 0x5FB JUMPI PUSH1 0x40 MLOAD SWAP2 POP PUSH1 0x1F NOT PUSH1 0x3F RETURNDATASIZE ADD AND DUP3 ADD PUSH1 0x40 MSTORE RETURNDATASIZE DUP3 MSTORE RETURNDATASIZE PUSH1 0x0 PUSH1 0x20 DUP5 ADD RETURNDATACOPY PUSH2 0x600 JUMP JUMPDEST PUSH1 0x60 SWAP2 POP JUMPDEST POP POP SWAP1 POP DUP1 PUSH2 0x621 JUMPI PUSH1 0x40 MLOAD PUSH3 0x461BCD PUSH1 0xE5 SHL DUP2 MSTORE PUSH1 0x4 ADD PUSH2 0x54E SWAP1 PUSH2 0x1060 JUMP JUMPDEST POP POP POP PUSH1 0x0 DUP3 DUP2 MSTORE PUSH1 0x7 PUSH1 0x20 SWAP1 DUP2 MSTORE PUSH1 0x40 DUP1 DUP4 KECCAK256 DUP5 DUP5 MSTORE SWAP1 SWAP2 MSTORE DUP2 KECCAK256 PUSH1 0x1 ADD SSTORE DUP1 PUSH2 0x64B DUP2 PUSH2 0x1086 JUMP JUMPDEST SWAP2 POP POP PUSH2 0x55A JUMP JUMPDEST POP POP JUMP JUMPDEST PUSH1 0x0 DUP2 DUP2 MSTORE PUSH1 0x6 PUSH1 0x20 MSTORE PUSH1 0x40 SWAP1 KECCAK256 PUSH1 0x8 ADD SLOAD TIMESTAMP LT PUSH2 0x687 JUMPI PUSH1 0x40 MLOAD PUSH3 0x461BCD PUSH1 0xE5 SHL DUP2 MSTORE PUSH1 0x4 ADD PUSH2 0x54E SWAP1 PUSH2 0x10D7 JUMP JUMPDEST PUSH1 0x0 DUP2 DUP2 MSTORE PUSH1 0x6 PUSH1 0x20 MSTORE PUSH1 0x40 SWAP1 KECCAK256 PUSH1 0x5 ADD SLOAD CALLVALUE LT ISZERO PUSH2 0x6B8 JUMPI PUSH1 0x40 MLOAD PUSH3 0x461BCD PUSH1 0xE5 SHL DUP2 MSTORE PUSH1 0x4 ADD PUSH2 0x54E SWAP1 PUSH2 0x1119 JUMP JUMPDEST PUSH1 0x0 PUSH1 0x40 MLOAD DUP1 PUSH1 0x40 ADD PUSH1 0x40 MSTORE DUP1 CALLER PUSH20 0xFFFFFFFFFFFFFFFFFFFFFFFFFFFFFFFFFFFFFFFF AND DUP2 MSTORE PUSH1 0x20 ADD PUSH1 0x0 SLOAD CALLVALUE PUSH2 0x6EF SWAP2 SWAP1 PUSH2 0x1129 JUMP JUMPDEST SWAP1 MSTORE PUSH1 0x0 SLOAD SWAP1 SWAP2 POP PUSH2 0x701 SWAP1 CALLVALUE PUSH2 0x1129 JUMP JUMPDEST CALLER PUSH1 0x0 SWAP1 DUP2 MSTORE PUSH1 0x8 PUSH1 0x20 SWAP1 DUP2 MSTORE PUSH1 0x40 DUP1 DUP4 KECCAK256 DUP7 DUP5 MSTORE SWAP1 SWAP2 MSTORE DUP2 KECCAK256 DUP1 SLOAD SWAP1 SWAP2 SWAP1 PUSH2 0x72B SWAP1 DUP5 SWAP1 PUSH2 0x1148 JUMP JUMPDEST SWAP1 SWAP2 SSTORE POP POP PUSH1 0x0 DUP3 DUP2 MSTORE PUSH1 0x7 PUSH1 0x20 SWAP1 DUP2 MSTORE PUSH1 0x40 DUP1 DUP4 KECCAK256 PUSH1 0x6 DUP4 MSTORE DUP2 DUP5 KECCAK256 PUSH1 0x9 ADD SLOAD DUP5 MSTORE DUP3 MSTORE DUP3 KECCAK256 DUP4 MLOAD DUP2 SLOAD PUSH32 0xFFFFFFFFFFFFFFFFFFFFFFFF0000000000000000000000000000000000000000 AND PUSH20 0xFFFFFFFFFFFFFFFFFFFFFFFFFFFFFFFFFFFFFFFF SWAP1 SWAP2 AND OR DUP2 SSTORE SWAP1 DUP4 ADD MLOAD PUSH1 0x1 SWAP1 SWAP2 ADD SSTORE SLOAD PUSH2 0x7A8 SWAP1 CALLVALUE PUSH2 0x1129 JUMP JUMPDEST PUSH1 0x0 DUP4 DUP2 MSTORE PUSH1 0x6 PUSH1 0x20 MSTORE PUSH1 0x40 DUP2 KECCAK256 PUSH1 0x7 ADD DUP1 SLOAD SWAP1 SWAP2 SWAP1 PUSH2 0x7C9 SWAP1 DUP5 SWAP1 PUSH2 0x1148 JUMP JUMPDEST SWAP1 SWAP2 SSTORE POP POP PUSH1 0x0 DUP3 DUP2 MSTORE PUSH1 0x6 PUSH1 0x20 MSTORE PUSH1 0x40 DUP2 KECCAK256 PUSH1 0x9 ADD DUP1 SLOAD SWAP2 PUSH2 0x7EB DUP4 PUSH2 0x1086 JUMP JUMPDEST SWAP2 SWAP1 POP SSTORE POP PUSH32 0x9DE0A6DD1DFD3E6EDA5E87572F845B6183A171DEBC4A266CF5C5EDDC77540983 DUP3 CALLER PUSH1 0x0 SLOAD CALLVALUE PUSH2 0x821 SWAP2 SWAP1 PUSH2 0x1129 JUMP JUMPDEST PUSH1 0x40 MLOAD PUSH2 0x830 SWAP4 SWAP3 SWAP2 SWAP1 PUSH2 0x115B JUMP JUMPDEST PUSH1 0x40 MLOAD DUP1 SWAP2 SUB SWAP1 LOG1 POP POP JUMP JUMPDEST PUSH1 0x1 SLOAD PUSH20 0xFFFFFFFFFFFFFFFFFFFFFFFFFFFFFFFFFFFFFFFF AND CALLER EQ PUSH2 0x860 JUMPI PUSH1 0x0 DUP1 REVERT JUMPDEST PUSH1 0x0 DUP2 DUP2 MSTORE PUSH1 0x6 PUSH1 0x20 DUP2 SWAP1 MSTORE PUSH1 0x40 SWAP1 SWAP2 KECCAK256 SWAP1 DUP2 ADD SLOAD PUSH1 0x7 SWAP1 SWAP2 ADD SLOAD GT PUSH2 0x898 JUMPI PUSH1 0x40 MLOAD PUSH3 0x461BCD PUSH1 0xE5 SHL DUP2 MSTORE PUSH1 0x4 ADD PUSH2 0x54E SWAP1 PUSH2 0xFEB JUMP JUMPDEST PUSH1 0x0 DUP2 DUP2 MSTORE PUSH1 0x6 PUSH1 0x20 MSTORE PUSH1 0x40 DUP1 DUP3 KECCAK256 PUSH1 0x7 ADD SLOAD SWAP1 MLOAD CALLER SWAP2 SWAP1 PUSH2 0x8B9 SWAP1 PUSH2 0xFFE JUMP JUMPDEST PUSH1 0x0 PUSH1 0x40 MLOAD DUP1 DUP4 SUB DUP2 DUP6 DUP8 GAS CALL SWAP3 POP POP POP RETURNDATASIZE DUP1 PUSH1 0x0 DUP2 EQ PUSH2 0x8F6 JUMPI PUSH1 0x40 MLOAD SWAP2 POP PUSH1 0x1F NOT PUSH1 0x3F RETURNDATASIZE ADD AND DUP3 ADD PUSH1 0x40 MSTORE RETURNDATASIZE DUP3 MSTORE RETURNDATASIZE PUSH1 0x0 PUSH1 0x20 DUP5 ADD RETURNDATACOPY PUSH2 0x8FB JUMP JUMPDEST PUSH1 0x60 SWAP2 POP JUMPDEST POP POP SWAP1 POP DUP1 PUSH2 0x653 JUMPI PUSH1 0x40 MLOAD PUSH3 0x461BCD PUSH1 0xE5 SHL DUP2 MSTORE PUSH1 0x4 ADD PUSH2 0x54E SWAP1 PUSH2 0x1060 JUMP JUMPDEST PUSH1 0x1 SLOAD PUSH20 0xFFFFFFFFFFFFFFFFFFFFFFFFFFFFFFFFFFFFFFFF AND CALLER EQ PUSH2 0x940 JUMPI PUSH1 0x0 DUP1 REVERT JUMPDEST PUSH1 0x0 PUSH1 0x40 MLOAD DUP1 PUSH2 0x160 ADD PUSH1 0x40 MSTORE DUP1 DUP11 DUP2 MSTORE PUSH1 0x20 ADD DUP10 DUP2 MSTORE PUSH1 0x20 ADD DUP9 DUP2 MSTORE PUSH1 0x20 ADD DUP8 DUP2 MSTORE PUSH1 0x20 ADD DUP7 DUP2 MSTORE PUSH1 0x20 ADD PUSH1 0x0 SLOAD DUP7 PUSH2 0x97A SWAP2 SWAP1 PUSH2 0x1129 JUMP JUMPDEST DUP2 MSTORE PUSH1 0x20 DUP2 ADD DUP6 SWAP1 MSTORE PUSH1 0x0 PUSH1 0x40 DUP3 ADD MSTORE PUSH1 0x60 ADD PUSH2 0x997 DUP5 TIMESTAMP PUSH2 0x1148 JUMP JUMPDEST DUP2 MSTORE PUSH1 0x0 PUSH1 0x20 DUP1 DUP4 ADD DUP3 SWAP1 MSTORE PUSH1 0x40 SWAP3 DUP4 ADD DUP3 SWAP1 MSTORE DUP13 DUP3 MSTORE PUSH1 0x6 DUP2 MSTORE SWAP2 SWAP1 KECCAK256 DUP3 MLOAD DUP2 SSTORE SWAP1 DUP3 ADD MLOAD SWAP2 SWAP3 POP DUP3 SWAP2 PUSH1 0x1 DUP3 ADD SWAP1 PUSH2 0x9D1 SWAP1 DUP3 PUSH2 0x1225 JUMP JUMPDEST POP PUSH1 0x40 DUP3 ADD MLOAD PUSH1 0x2 DUP3 ADD SWAP1 PUSH2 0x9E6 SWAP1 DUP3 PUSH2 0x1225 JUMP JUMPDEST POP PUSH1 0x60 DUP3 ADD MLOAD PUSH1 0x3 DUP3 ADD SWAP1 PUSH2 0x9FB SWAP1 DUP3 PUSH2 0x1225 JUMP JUMPDEST POP PUSH1 0x80 DUP3 ADD MLOAD PUSH1 0x4 DUP3 ADD SWAP1 PUSH2 0xA10 SWAP1 DUP3 PUSH2 0x1225 JUMP JUMPDEST POP PUSH1 0xA0 DUP3 ADD MLOAD PUSH1 0x5 DUP3 ADD SSTORE PUSH1 0xC0 DUP3 ADD MLOAD PUSH1 0x6 DUP3 ADD SSTORE PUSH1 0xE0 DUP3 ADD MLOAD PUSH1 0x7 DUP3 ADD SSTORE PUSH2 0x100 DUP3 ADD MLOAD PUSH1 0x8 DUP3 ADD SSTORE PUSH2 0x120 DUP3 ADD MLOAD PUSH1 0x9 DUP3 ADD SSTORE PUSH2 0x140 SWAP1 SWAP2 ADD MLOAD PUSH1 0xA SWAP1 SWAP2 ADD DUP1 SLOAD PUSH32 0xFFFFFFFFFFFFFFFFFFFFFFFFFFFFFFFFFFFFFFFFFFFFFFFFFFFFFFFFFFFFFF00 AND SWAP2 ISZERO ISZERO SWAP2 SWAP1 SWAP2 OR SWAP1 SSTORE PUSH1 0x2 SLOAD PUSH1 0x40 MLOAD PUSH32 0x8A9AC69DA6C9624863CC5677F1FFE445079DEB65237CCF9ADC3FA4B410B04268 SWAP2 PUSH2 0xAC2 SWAP2 DUP12 SWAP1 DUP12 SWAP1 DUP12 SWAP1 DUP12 SWAP1 DUP12 SWAP1 DUP12 SWAP1 DUP12 SWAP1 PUSH1 0x0 SWAP1 DUP2 SWAP1 PUSH2 0x12F2 JUMP JUMPDEST PUSH1 0x40 MLOAD DUP1 SWAP2 SUB SWAP1 LOG1 PUSH1 0x2 DUP1 SLOAD SWAP1 PUSH1 0x0 PUSH2 0xADA DUP4 PUSH2 0x1086 JUMP JUMPDEST SWAP2 SWAP1 POP SSTORE POP POP POP POP POP POP POP POP POP POP JUMP JUMPDEST DUP1 JUMPDEST DUP2 EQ PUSH2 0xAF7 JUMPI PUSH1 0x0 DUP1 REVERT JUMPDEST POP JUMP JUMPDEST DUP1 CALLDATALOAD PUSH2 0xB05 DUP2 PUSH2 0xAEA JUMP JUMPDEST SWAP3 SWAP2 POP POP JUMP JUMPDEST PUSH1 0x0 PUSH1 0x20 DUP3 DUP5 SUB SLT ISZERO PUSH2 0xB20 JUMPI PUSH2 0xB20 PUSH1 0x0 DUP1 REVERT JUMPDEST PUSH1 0x0 PUSH2 0xB2C DUP5 DUP5 PUSH2 0xAFA JUMP JUMPDEST SWAP5 SWAP4 POP POP POP POP JUMP JUMPDEST DUP1 JUMPDEST DUP3 MSTORE POP POP JUMP JUMPDEST PUSH1 0x0 JUMPDEST DUP4 DUP2 LT ISZERO PUSH2 0xB57 JUMPI DUP2 DUP2 ADD MLOAD DUP4 DUP3 ADD MSTORE PUSH1 0x20 ADD PUSH2 0xB3F JUMP JUMPDEST POP POP PUSH1 0x0 SWAP2 ADD MSTORE JUMP JUMPDEST PUSH1 0x0 PUSH2 0xB6A DUP3 MLOAD SWAP1 JUMP JUMPDEST DUP1 DUP5 MSTORE PUSH1 0x20 DUP5 ADD SWAP4 POP PUSH2 0xB81 DUP2 DUP6 PUSH1 0x20 DUP7 ADD PUSH2 0xB3C JUMP JUMPDEST PUSH1 0x1F ADD PUSH1 0x1F NOT AND SWAP3 SWAP1 SWAP3 ADD SWAP3 SWAP2 POP POP JUMP JUMPDEST DUP1 ISZERO ISZERO PUSH2 0xB36 JUMP JUMPDEST PUSH2 0x160 DUP2 ADD PUSH2 0xBA9 DUP3 DUP15 PUSH2 0xB34 JUMP JUMPDEST DUP2 DUP2 SUB PUSH1 0x20 DUP4 ADD MSTORE PUSH2 0xBBB DUP2 DUP14 PUSH2 0xB60 JUMP JUMPDEST SWAP1 POP DUP2 DUP2 SUB PUSH1 0x40 DUP4 ADD MSTORE PUSH2 0xBCF DUP2 DUP13 PUSH2 0xB60 JUMP JUMPDEST SWAP1 POP DUP2 DUP2 SUB PUSH1 0x60 DUP4 ADD MSTORE PUSH2 0xBE3 DUP2 DUP12 PUSH2 0xB60 JUMP JUMPDEST SWAP1 POP DUP2 DUP2 SUB PUSH1 0x80 DUP4 ADD MSTORE PUSH2 0xBF7 DUP2 DUP11 PUSH2 0xB60 JUMP JUMPDEST SWAP1 POP PUSH2 0xC06 PUSH1 0xA0 DUP4 ADD DUP10 PUSH2 0xB34 JUMP JUMPDEST PUSH2 0xC13 PUSH1 0xC0 DUP4 ADD DUP9 PUSH2 0xB34 JUMP JUMPDEST PUSH2 0xC20 PUSH1 0xE0 DUP4 ADD DUP8 PUSH2 0xB34 JUMP JUMPDEST PUSH2 0xC2E PUSH2 0x100 DUP4 ADD DUP7 PUSH2 0xB34 JUMP JUMPDEST PUSH2 0xC3C PUSH2 0x120 DUP4 ADD DUP6 PUSH2 0xB34 JUMP JUMPDEST PUSH2 0xC4A PUSH2 0x140 DUP4 ADD DUP5 PUSH2 0xB92 JUMP JUMPDEST SWAP13 SWAP12 POP POP POP POP POP POP POP POP POP POP POP POP JUMP JUMPDEST PUSH1 0x20 DUP2 ADD PUSH2 0xB05 DUP3 DUP5 PUSH2 0xB34 JUMP JUMPDEST PUSH1 0x0 PUSH20 0xFFFFFFFFFFFFFFFFFFFFFFFFFFFFFFFFFFFFFFFF DUP3 AND PUSH2 0xB05 JUMP JUMPDEST PUSH2 0xB36 DUP2 PUSH2 0xC68 JUMP JUMPDEST PUSH1 0x20 DUP2 ADD PUSH2 0xB05 DUP3 DUP5 PUSH2 0xC86 JUMP JUMPDEST PUSH1 0x0 DUP1 PUSH1 0x40 DUP4 DUP6 SUB SLT ISZERO PUSH2 0xCB3 JUMPI PUSH2 0xCB3 PUSH1 0x0 DUP1 REVERT JUMPDEST PUSH1 0x0 PUSH2 0xCBF DUP6 DUP6 PUSH2 0xAFA JUMP JUMPDEST SWAP3 POP POP PUSH1 0x20 PUSH2 0xCD0 DUP6 DUP3 DUP7 ADD PUSH2 0xAFA JUMP JUMPDEST SWAP2 POP POP SWAP3 POP SWAP3 SWAP1 POP JUMP JUMPDEST PUSH1 0x40 DUP2 ADD PUSH2 0xCE8 DUP3 DUP6 PUSH2 0xC86 JUMP JUMPDEST PUSH2 0xCF5 PUSH1 0x20 DUP4 ADD DUP5 PUSH2 0xB34 JUMP JUMPDEST SWAP4 SWAP3 POP POP POP JUMP JUMPDEST PUSH4 0x4E487B71 PUSH1 0xE0 SHL PUSH1 0x0 MSTORE PUSH1 0x41 PUSH1 0x4 MSTORE PUSH1 0x24 PUSH1 0x0 REVERT JUMPDEST PUSH1 0x1F NOT PUSH1 0x1F DUP4 ADD AND DUP2 ADD DUP2 DUP2 LT PUSH8 0xFFFFFFFFFFFFFFFF DUP3 GT OR ISZERO PUSH2 0xD38 JUMPI PUSH2 0xD38 PUSH2 0xCFC JUMP JUMPDEST PUSH1 0x40 MSTORE POP POP JUMP JUMPDEST PUSH1 0x0 PUSH2 0xD4A PUSH1 0x40 MLOAD SWAP1 JUMP JUMPDEST SWAP1 POP PUSH2 0xD56 DUP3 DUP3 PUSH2 0xD12 JUMP JUMPDEST SWAP2 SWAP1 POP JUMP JUMPDEST PUSH1 0x0 PUSH8 0xFFFFFFFFFFFFFFFF DUP3 GT ISZERO PUSH2 0xD75 JUMPI PUSH2 0xD75 PUSH2 0xCFC JUMP JUMPDEST PUSH1 0x1F NOT PUSH1 0x1F DUP4 ADD AND PUSH1 0x20 ADD SWAP3 SWAP2 POP POP JUMP JUMPDEST DUP3 DUP2 DUP4 CALLDATACOPY POP PUSH1 0x0 SWAP2 ADD MSTORE JUMP JUMPDEST PUSH1 0x0 PUSH2 0xDA5 PUSH2 0xDA0 DUP5 PUSH2 0xD5B JUMP JUMPDEST PUSH2 0xD3F JUMP JUMPDEST SWAP1 POP DUP3 DUP2 MSTORE PUSH1 0x20 DUP2 ADD DUP5 DUP5 DUP5 ADD GT ISZERO PUSH2 0xDC0 JUMPI PUSH2 0xDC0 PUSH1 0x0 DUP1 REVERT JUMPDEST PUSH2 0xDCB DUP5 DUP3 DUP6 PUSH2 0xD86 JUMP JUMPDEST POP SWAP4 SWAP3 POP POP POP JUMP JUMPDEST PUSH1 0x0 DUP3 PUSH1 0x1F DUP4 ADD SLT PUSH2 0xDE7 JUMPI PUSH2 0xDE7 PUSH1 0x0 DUP1 REVERT JUMPDEST DUP2 CALLDATALOAD PUSH2 0xB2C DUP5 DUP3 PUSH1 0x20 DUP7 ADD PUSH2 0xD92 JUMP JUMPDEST PUSH1 0x0 DUP1 PUSH1 0x0 DUP1 PUSH1 0x0 DUP1 PUSH1 0x0 DUP1 PUSH2 0x100 DUP10 DUP12 SUB SLT ISZERO PUSH2 0xE17 JUMPI PUSH2 0xE17 PUSH1 0x0 DUP1 REVERT JUMPDEST PUSH1 0x0 PUSH2 0xE23 DUP12 DUP12 PUSH2 0xAFA JUMP JUMPDEST SWAP9 POP POP PUSH1 0x20 DUP10 ADD CALLDATALOAD PUSH8 0xFFFFFFFFFFFFFFFF DUP2 GT ISZERO PUSH2 0xE43 JUMPI PUSH2 0xE43 PUSH1 0x0 DUP1 REVERT JUMPDEST PUSH2 0xE4F DUP12 DUP3 DUP13 ADD PUSH2 0xDD3 JUMP JUMPDEST SWAP8 POP POP PUSH1 0x40 DUP10 ADD CALLDATALOAD PUSH8 0xFFFFFFFFFFFFFFFF DUP2 GT ISZERO PUSH2 0xE6F JUMPI PUSH2 0xE6F PUSH1 0x0 DUP1 REVERT JUMPDEST PUSH2 0xE7B DUP12 DUP3 DUP13 ADD PUSH2 0xDD3 JUMP JUMPDEST SWAP7 POP POP PUSH1 0x60 DUP10 ADD CALLDATALOAD PUSH8 0xFFFFFFFFFFFFFFFF DUP2 GT ISZERO PUSH2 0xE9B JUMPI PUSH2 0xE9B PUSH1 0x0 DUP1 REVERT JUMPDEST PUSH2 0xEA7 DUP12 DUP3 DUP13 ADD PUSH2 0xDD3 JUMP JUMPDEST SWAP6 POP POP PUSH1 0x80 DUP10 ADD CALLDATALOAD PUSH8 0xFFFFFFFFFFFFFFFF DUP2 GT ISZERO PUSH2 0xEC7 JUMPI PUSH2 0xEC7 PUSH1 0x0 DUP1 REVERT JUMPDEST PUSH2 0xED3 DUP12 DUP3 DUP13 ADD PUSH2 0xDD3 JUMP JUMPDEST SWAP5 POP POP PUSH1 0xA0 PUSH2 0xEE4 DUP12 DUP3 DUP13 ADD PUSH2 0xAFA JUMP JUMPDEST SWAP4 POP POP PUSH1 0xC0 PUSH2 0xEF5 DUP12 DUP3 DUP13 ADD PUSH2 0xAFA JUMP JUMPDEST SWAP3 POP POP PUSH1 0xE0 PUSH2 0xF06 DUP12 DUP3 DUP13 ADD PUSH2 0xAFA JUMP JUMPDEST SWAP2 POP POP SWAP3 SWAP6 SWAP9 POP SWAP3 SWAP6 SWAP9 SWAP1 SWAP4 SWAP7 POP JUMP JUMPDEST PUSH2 0xAEC DUP2 PUSH2 0xC68 JUMP JUMPDEST DUP1 CALLDATALOAD PUSH2 0xB05 DUP2 PUSH2 0xF16 JUMP JUMPDEST PUSH1 0x0 DUP1 PUSH1 0x40 DUP4 DUP6 SUB SLT ISZERO PUSH2 0xF40 JUMPI PUSH2 0xF40 PUSH1 0x0 DUP1 REVERT JUMPDEST PUSH1 0x0 PUSH2 0xCBF DUP6 DUP6 PUSH2 0xF1F JUMP JUMPDEST PUSH4 0x4E487B71 PUSH1 0xE0 SHL PUSH1 0x0 MSTORE PUSH1 0x22 PUSH1 0x4 MSTORE PUSH1 0x24 PUSH1 0x0 REVERT JUMPDEST PUSH1 0x2 DUP2 DIV PUSH1 0x1 DUP3 AND DUP1 PUSH2 0xF76 JUMPI PUSH1 0x7F DUP3 AND SWAP2 POP JUMPDEST PUSH1 0x20 DUP3 LT DUP2 SUB PUSH2 0xF88 JUMPI PUSH2 0xF88 PUSH2 0xF4C JUMP JUMPDEST POP SWAP2 SWAP1 POP JUMP JUMPDEST PUSH1 0x2C DUP2 MSTORE PUSH1 0x0 PUSH1 0x20 DUP3 ADD PUSH32 0x596F7520617265206E6F7420656C696769626C6520746F206765742072656675 DUP2 MSTORE PUSH32 0x6E64207269676874206E6F770000000000000000000000000000000000000000 PUSH1 0x20 DUP3 ADD MSTORE SWAP2 POP JUMPDEST POP PUSH1 0x40 ADD SWAP1 JUMP JUMPDEST PUSH1 0x20 DUP1 DUP3 MSTORE DUP2 ADD PUSH2 0xB05 DUP2 PUSH2 0xF8E JUMP JUMPDEST SWAP1 JUMP JUMPDEST PUSH1 0x0 DUP2 PUSH2 0xB05 JUMP JUMPDEST PUSH1 0x2C DUP2 MSTORE PUSH1 0x0 PUSH1 0x20 DUP3 ADD PUSH32 0x4661696C656420746F2073656E6420757365722062616C616E6365206261636B DUP2 MSTORE PUSH32 0x20746F2074686520757365720000000000000000000000000000000000000000 PUSH1 0x20 DUP3 ADD MSTORE SWAP2 POP PUSH2 0xFE4 JUMP JUMPDEST PUSH1 0x20 DUP1 DUP3 MSTORE DUP2 ADD PUSH2 0xB05 DUP2 PUSH2 0x1006 JUMP JUMPDEST PUSH4 0x4E487B71 PUSH1 0xE0 SHL PUSH1 0x0 MSTORE PUSH1 0x11 PUSH1 0x4 MSTORE PUSH1 0x24 PUSH1 0x0 REVERT JUMPDEST PUSH1 0x0 PUSH1 0x0 NOT DUP3 SUB PUSH2 0x1099 JUMPI PUSH2 0x1099 PUSH2 0x1070 JUMP JUMPDEST POP PUSH1 0x1 ADD SWAP1 JUMP JUMPDEST PUSH1 0x13 DUP2 MSTORE PUSH1 0x0 PUSH1 0x20 DUP3 ADD PUSH32 0x446561646C696E65206861732070617373656400000000000000000000000000 DUP2 MSTORE SWAP2 POP JUMPDEST POP PUSH1 0x20 ADD SWAP1 JUMP JUMPDEST PUSH1 0x20 DUP1 DUP3 MSTORE DUP2 ADD PUSH2 0xB05 DUP2 PUSH2 0x10A0 JUMP JUMPDEST PUSH1 0x20 DUP1 DUP3 MSTORE PUSH32 0x4D696E696D756D20636F6E747269627574696F6E20686173206E6F74206D6574 SWAP2 ADD SWAP1 DUP2 MSTORE PUSH1 0x0 PUSH2 0x10D0 JUMP JUMPDEST PUSH1 0x20 DUP1 DUP3 MSTORE DUP2 ADD PUSH2 0xB05 DUP2 PUSH2 0x10E7 JUMP JUMPDEST DUP2 DUP2 MUL DUP1 DUP3 ISZERO DUP4 DUP3 DIV DUP6 EQ OR PUSH2 0x1141 JUMPI PUSH2 0x1141 PUSH2 0x1070 JUMP JUMPDEST POP SWAP3 SWAP2 POP POP JUMP JUMPDEST DUP1 DUP3 ADD DUP1 DUP3 GT ISZERO PUSH2 0xB05 JUMPI PUSH2 0xB05 PUSH2 0x1070 JUMP JUMPDEST PUSH1 0x60 DUP2 ADD PUSH2 0x1169 DUP3 DUP7 PUSH2 0xB34 JUMP JUMPDEST PUSH2 0x1176 PUSH1 0x20 DUP4 ADD DUP6 PUSH2 0xC86 JUMP JUMPDEST PUSH2 0xB2C PUSH1 0x40 DUP4 ADD DUP5 PUSH2 0xB34 JUMP JUMPDEST PUSH1 0x0 PUSH2 0xB05 PUSH2 0xFFB DUP4 DUP2 JUMP JUMPDEST PUSH2 0x1198 DUP4 PUSH2 0x1183 JUMP JUMPDEST DUP2 SLOAD PUSH1 0x8 DUP5 MUL DUP3 DUP2 SHL PUSH1 0x0 NOT SWAP1 SWAP2 SHL SWAP1 DUP2 AND SWAP1 NOT SWAP1 SWAP2 AND OR DUP3 SSTORE POP POP POP POP JUMP JUMPDEST PUSH1 0x0 PUSH2 0x11C5 DUP2 DUP5 DUP5 PUSH2 0x118F JUMP JUMPDEST POP POP POP JUMP JUMPDEST DUP2 DUP2 LT ISZERO PUSH2 0x653 JUMPI PUSH2 0x11DD PUSH1 0x0 DUP3 PUSH2 0x11B8 JUMP JUMPDEST PUSH1 0x1 ADD PUSH2 0x11CA JUMP JUMPDEST PUSH1 0x1F DUP3 GT ISZERO PUSH2 0x11C5 JUMPI PUSH1 0x0 DUP2 DUP2 MSTORE PUSH1 0x20 SWAP1 KECCAK256 PUSH1 0x20 PUSH1 0x1F DUP6 ADD DIV DUP2 ADD PUSH1 0x20 DUP6 LT ISZERO PUSH2 0x120C JUMPI POP DUP1 JUMPDEST PUSH2 0x121E PUSH1 0x20 PUSH1 0x1F DUP7 ADD DIV DUP4 ADD DUP3 PUSH2 0x11CA JUMP JUMPDEST POP POP POP POP POP JUMP JUMPDEST DUP2 MLOAD PUSH8 0xFFFFFFFFFFFFFFFF DUP2 GT ISZERO PUSH2 0x123F JUMPI PUSH2 0x123F PUSH2 0xCFC JUMP JUMPDEST PUSH2 0x1249 DUP3 SLOAD PUSH2 0xF62 JUMP JUMPDEST PUSH2 0x1254 DUP3 DUP3 DUP6 PUSH2 0x11E5 JUMP JUMPDEST PUSH1 0x20 PUSH1 0x1F DUP4 GT PUSH1 0x1 DUP2 EQ PUSH2 0x1288 JUMPI PUSH1 0x0 DUP5 ISZERO PUSH2 0x1270 JUMPI POP DUP6 DUP3 ADD MLOAD JUMPDEST PUSH1 0x0 NOT PUSH1 0x8 DUP7 MUL SHR NOT DUP2 AND PUSH1 0x2 DUP7 MUL OR DUP7 SSTORE POP PUSH2 0x12E1 JUMP JUMPDEST PUSH1 0x0 DUP6 DUP2 MSTORE PUSH1 0x20 DUP2 KECCAK256 PUSH1 0x1F NOT DUP7 AND SWAP2 JUMPDEST DUP3 DUP2 LT ISZERO PUSH2 0x12B8 JUMPI DUP9 DUP6 ADD MLOAD DUP3 SSTORE PUSH1 0x20 SWAP5 DUP6 ADD SWAP5 PUSH1 0x1 SWAP1 SWAP3 ADD SWAP2 ADD PUSH2 0x1298 JUMP JUMPDEST DUP7 DUP4 LT ISZERO PUSH2 0x12D4 JUMPI DUP5 DUP10 ADD MLOAD PUSH1 0x0 NOT PUSH1 0x1F DUP10 AND PUSH1 0x8 MUL SHR NOT AND DUP3 SSTORE JUMPDEST PUSH1 0x1 PUSH1 0x2 DUP9 MUL ADD DUP9 SSTORE POP POP POP JUMPDEST POP POP POP POP POP POP JUMP JUMPDEST PUSH2 0xB36 DUP2 PUSH2 0x1183 JUMP JUMPDEST PUSH2 0x140 DUP2 ADD PUSH2 0x1301 DUP3 DUP14 PUSH2 0xB34 JUMP JUMPDEST DUP2 DUP2 SUB PUSH1 0x20 DUP4 ADD MSTORE PUSH2 0x1313 DUP2 DUP13 PUSH2 0xB60 JUMP JUMPDEST SWAP1 POP DUP2 DUP2 SUB PUSH1 0x40 DUP4 ADD MSTORE PUSH2 0x1327 DUP2 DUP12 PUSH2 0xB60 JUMP JUMPDEST SWAP1 POP DUP2 DUP2 SUB PUSH1 0x60 DUP4 ADD MSTORE PUSH2 0x133B DUP2 DUP11 PUSH2 0xB60 JUMP JUMPDEST SWAP1 POP DUP2 DUP2 SUB PUSH1 0x80 DUP4 ADD MSTORE PUSH2 0x134F DUP2 DUP10 PUSH2 0xB60 JUMP JUMPDEST SWAP1 POP PUSH2 0x135E PUSH1 0xA0 DUP4 ADD DUP9 PUSH2 0xB34 JUMP JUMPDEST PUSH2 0x136B PUSH1 0xC0 DUP4 ADD DUP8 PUSH2 0xB34 JUMP JUMPDEST PUSH2 0x1378 PUSH1 0xE0 DUP4 ADD DUP7 PUSH2 0xB34 JUMP JUMPDEST PUSH2 0x1386 PUSH2 0x100 DUP4 ADD DUP6 PUSH2 0x12E9 JUMP JUMPDEST PUSH2 0x1394 PUSH2 0x120 DUP4 ADD DUP5 PUSH2 0xB92 JUMP JUMPDEST SWAP12 SWAP11 POP POP POP POP POP POP POP POP POP POP POP JUMP INVALID LOG2 PUSH5 0x6970667358 0x22 SLT KECCAK256 0x28 ISZERO LOG0 0xAB CALLDATASIZE 0xF7 0xE5 0x2C 0xB3 SHR SWAP13 AND CALLDATALOAD 0xD6 TIMESTAMP 0xD9 0xB9 LOG2 0xE3 PUSH8 0xB3518C206E734361 BYTE CALLDATALOAD MLOAD 0xED PUSH5 0x736F6C6343 STOP ADDMOD GT STOP CALLER "},"methodIdentifiers":{"campaignContributions(uint256,uint256)":"539157bd","campaignSuccess(uint256)":"62b68dc4","campaigns(uint256)":"141961bc","contributorContributions(address,uint256)":"f6f219a5","manager()":"481c6a75","noOfCampaigns()":"17818e59","payCampaign(uint256)":"42a4ed95","refundAmt(uint256)":"16559632","totalContributions()":"37c08923","totalTrustCoins()":"bef0cdaf","uploadCampaign(uint256,string,string,string,string,uint256,uint256,uint256)":"6897c137"}}}}}