{
  "_format": "hh-sol-artifact-1",
  "contractName": "Crowdfunding",
  "sourceName": "contracts/Crowdfunding.sol",
  "abi": [
    {
      "inputs": [],
      "stateMutability": "payable",
      "type": "constructor"
    },
    {
      "anonymous": false,
      "inputs": [
        {
          "indexed": false,
          "internalType": "uint256",
          "name": "ID",
          "type": "uint256"
        },
        {
          "indexed": false,
          "internalType": "string",
          "name": "title",
          "type": "string"
        },
        {
          "indexed": false,
          "internalType": "string",
          "name": "description",
          "type": "string"
        },
        {
          "indexed": false,
          "internalType": "string",
          "name": "location",
          "type": "string"
        },
        {
          "indexed": false,
          "internalType": "string",
          "name": "category",
          "type": "string"
        },
        {
          "indexed": false,
          "internalType": "uint256",
          "name": "minContribution",
          "type": "uint256"
        },
        {
          "indexed": false,
          "internalType": "uint256",
          "name": "goal",
          "type": "uint256"
        },
        {
          "indexed": false,
          "internalType": "uint256",
          "name": "campaignDeadline",
          "type": "uint256"
        },
        {
          "indexed": false,
          "internalType": "uint256",
          "name": "noOfContributions",
          "type": "uint256"
        },
        {
          "indexed": false,
          "internalType": "bool",
          "name": "claimed",
          "type": "bool"
        }
      ],
      "name": "CampaignUploaded",
      "type": "event"
    },
    {
      "anonymous": false,
      "inputs": [
        {
          "indexed": false,
          "internalType": "uint256",
          "name": "id_",
          "type": "uint256"
        },
        {
          "indexed": false,
          "internalType": "address",
          "name": "contributor_",
          "type": "address"
        },
        {
          "indexed": false,
          "internalType": "uint256",
          "name": "amount_",
          "type": "uint256"
        }
      ],
      "name": "paidCampaign",
      "type": "event"
    },
    {
      "inputs": [
        {
          "internalType": "uint256",
          "name": "",
          "type": "uint256"
        },
        {
          "internalType": "uint256",
          "name": "",
          "type": "uint256"
        }
      ],
      "name": "campaignContributions",
      "outputs": [
        {
          "internalType": "address",
          "name": "contributorAddress",
          "type": "address"
        },
        {
          "internalType": "uint256",
          "name": "amtContributed",
          "type": "uint256"
        }
      ],
      "stateMutability": "view",
      "type": "function"
    },
    {
      "inputs": [
        {
          "internalType": "uint256",
          "name": "id_",
          "type": "uint256"
        }
      ],
      "name": "campaignSuccess",
      "outputs": [],
      "stateMutability": "nonpayable",
      "type": "function"
    },
    {
      "inputs": [
        {
          "internalType": "uint256",
          "name": "",
          "type": "uint256"
        }
      ],
      "name": "campaigns",
      "outputs": [
        {
          "internalType": "uint256",
          "name": "ID",
          "type": "uint256"
        },
        {
          "internalType": "string",
          "name": "title",
          "type": "string"
        },
        {
          "internalType": "string",
          "name": "description",
          "type": "string"
        },
        {
          "internalType": "string",
          "name": "location",
          "type": "string"
        },
        {
          "internalType": "string",
          "name": "category",
          "type": "string"
        },
        {
          "internalType": "uint256",
          "name": "minContribution",
          "type": "uint256"
        },
        {
          "internalType": "uint256",
          "name": "goal",
          "type": "uint256"
        },
        {
          "internalType": "uint256",
          "name": "pledgedAmt",
          "type": "uint256"
        },
        {
          "internalType": "uint256",
          "name": "campaignDeadline",
          "type": "uint256"
        },
        {
          "internalType": "uint256",
          "name": "noOfContributions",
          "type": "uint256"
        },
        {
          "internalType": "bool",
          "name": "claimed",
          "type": "bool"
        }
      ],
      "stateMutability": "view",
      "type": "function"
    },
    {
      "inputs": [
        {
          "internalType": "address",
          "name": "",
          "type": "address"
        },
        {
          "internalType": "uint256",
          "name": "",
          "type": "uint256"
        }
      ],
      "name": "contributorContributions",
      "outputs": [
        {
          "internalType": "uint256",
          "name": "",
          "type": "uint256"
        }
      ],
      "stateMutability": "view",
      "type": "function"
    },
    {
      "inputs": [],
      "name": "manager",
      "outputs": [
        {
          "internalType": "address payable",
          "name": "",
          "type": "address"
        }
      ],
      "stateMutability": "view",
      "type": "function"
    },
    {
      "inputs": [],
      "name": "noOfCampaigns",
      "outputs": [
        {
          "internalType": "uint256",
          "name": "",
          "type": "uint256"
        }
      ],
      "stateMutability": "view",
      "type": "function"
    },
    {
      "inputs": [
        {
          "internalType": "uint256",
          "name": "id_",
          "type": "uint256"
        }
      ],
      "name": "payCampaign",
      "outputs": [],
      "stateMutability": "payable",
      "type": "function"
    },
    {
      "inputs": [
        {
          "internalType": "uint256",
          "name": "id_",
          "type": "uint256"
        }
      ],
      "name": "refundAmt",
      "outputs": [],
      "stateMutability": "nonpayable",
      "type": "function"
    },
    {
      "inputs": [],
      "name": "totalContributions",
      "outputs": [
        {
          "internalType": "uint256",
          "name": "",
          "type": "uint256"
        }
      ],
      "stateMutability": "view",
      "type": "function"
    },
    {
      "inputs": [],
      "name": "totalTrustCoins",
      "outputs": [
        {
          "internalType": "uint256",
          "name": "",
          "type": "uint256"
        }
      ],
      "stateMutability": "view",
      "type": "function"
    },
    {
      "inputs": [
        {
          "internalType": "uint256",
          "name": "id_",
          "type": "uint256"
        },
        {
          "internalType": "string",
          "name": "title_",
          "type": "string"
        },
        {
          "internalType": "string",
          "name": "description_",
          "type": "string"
        },
        {
          "internalType": "string",
          "name": "location_",
          "type": "string"
        },
        {
          "internalType": "string",
          "name": "category_",
          "type": "string"
        },
        {
          "internalType": "uint256",
          "name": "minContribution_",
          "type": "uint256"
        },
        {
          "internalType": "uint256",
          "name": "goal_",
          "type": "uint256"
        },
        {
          "internalType": "uint256",
          "name": "deadline_",
          "type": "uint256"
        }
      ],
      "name": "uploadCampaign",
      "outputs": [],
      "stateMutability": "nonpayable",
      "type": "function"
    }
  ],
  "bytecode": "0x608060409081526001600081815560028190556003819055620f4240600490815582546001600160a01b0319163390811790935591815260056020529182206101f4908190558154909290610055908490610076565b9091555061008f9050565b634e487b7160e01b600052601160045260246000fd5b8181038181111561008957610089610060565b92915050565b6113d98061009e6000396000f3fe6080604052600436106100bc5760003560e01c8063481c6a75116100745780636897c1371161004e5780636897c1371461022f578063bef0cdaf1461024f578063f6f219a51461026557600080fd5b8063481c6a751461016f578063539157bd146101a957806362b68dc41461020f57600080fd5b806317818e59116100a557806317818e591461012357806337c089231461014657806342a4ed951461015c57600080fd5b8063141961bc146100c15780631655963214610101575b600080fd5b3480156100cd57600080fd5b506100e16100dc366004610b0b565b61029d565b6040516100f89b9a99989796959493929190610b9a565b60405180910390f35b34801561010d57600080fd5b5061012161011c366004610b0b565b610516565b005b34801561012f57600080fd5b5061013960025481565b6040516100f89190610c5a565b34801561015257600080fd5b5061013960035481565b61012161016a366004610b0b565b610657565b34801561017b57600080fd5b5060015461019c9073ffffffffffffffffffffffffffffffffffffffff1681565b6040516100f89190610c8f565b3480156101b557600080fd5b506102016101c4366004610c9d565b60076020908152600092835260408084209091529082529020805460019091015473ffffffffffffffffffffffffffffffffffffffff9091169082565b6040516100f8929190610cda565b34801561021b57600080fd5b5061012161022a366004610b0b565b61083c565b34801561023b57600080fd5b5061012161024a366004610df7565b61091c565b34801561025b57600080fd5b5061013960045481565b34801561027157600080fd5b50610139610280366004610f2a565b600860209081526000928352604080842090915290825290205481565b600660205260009081526040902080546001820180549192916102bf90610f62565b80601f01602080910402602001604051908101604052809291908181526020018280546102eb90610f62565b80156103385780601f1061030d57610100808354040283529160200191610338565b820191906000526020600020905b81548152906001019060200180831161031b57829003601f168201915b50505050509080600201805461034d90610f62565b80601f016020809104026020016040519081016040528092919081815260200182805461037990610f62565b80156103c65780601f1061039b576101008083540402835291602001916103c6565b820191906000526020600020905b8154815290600101906020018083116103a957829003601f168201915b5050505050908060030180546103db90610f62565b80601f016020809104026020016040519081016040528092919081815260200182805461040790610f62565b80156104545780601f1061042957610100808354040283529160200191610454565b820191906000526020600020905b81548152906001019060200180831161043757829003601f168201915b50505050509080600401805461046990610f62565b80601f016020809104026020016040519081016040528092919081815260200182805461049590610f62565b80156104e25780601f106104b7576101008083540402835291602001916104e2565b820191906000526020600020905b8154815290600101906020018083116104c557829003601f168201915b50505060058401546006850154600786015460088701546009880154600a9098015496979396929550909350919060ff168b565b600081815260066020819052604090912090810154600790910154106105575760405162461bcd60e51b815260040161054e90610feb565b60405180910390fd5b60005b6000828152600660205260409020600901548110156106535760008281526007602090815260408083208484529091528082208054600190910154915173ffffffffffffffffffffffffffffffffffffffff9091169290839083906105be90610ffe565b60006040518083038185875af1925050503d80600081146105fb576040519150601f19603f3d011682016040523d82523d6000602084013e610600565b606091505b50509050806106215760405162461bcd60e51b815260040161054e90611060565b50505060008281526007602090815260408083208484529091528120600101558061064b81611086565b91505061055a565b5050565b60008181526006602052604090206008015442106106875760405162461bcd60e51b815260040161054e906110d7565b6000818152600660205260409020600501543410156106b85760405162461bcd60e51b815260040161054e90611119565b600060405180604001604052803373ffffffffffffffffffffffffffffffffffffffff168152602001600054346106ef9190611129565b90526000549091506107019034611129565b3360009081526008602090815260408083208684529091528120805490919061072b908490611148565b909155505060008281526007602090815260408083206006835281842060090154845282528220835181547fffffffffffffffffffffffff00000000000000000000000000000000000000001673ffffffffffffffffffffffffffffffffffffffff90911617815590830151600190910155546107a89034611129565b600083815260066020526040812060070180549091906107c9908490611148565b909155505060008281526006602052604081206009018054916107eb83611086565b91905055507f9de0a6dd1dfd3e6eda5e87572f845b6183a171debc4a266cf5c5eddc775409838233600054346108219190611129565b6040516108309392919061115b565b60405180910390a15050565b60015473ffffffffffffffffffffffffffffffffffffffff16331461086057600080fd5b600081815260066020819052604090912090810154600790910154116108985760405162461bcd60e51b815260040161054e90610feb565b6000818152600660205260408082206007015490513391906108b990610ffe565b60006040518083038185875af1925050503d80600081146108f6576040519150601f19603f3d011682016040523d82523d6000602084013e6108fb565b606091505b50509050806106535760405162461bcd60e51b815260040161054e90611060565b60015473ffffffffffffffffffffffffffffffffffffffff16331461094057600080fd5b60006040518061016001604052808a81526020018981526020018881526020018781526020018681526020016000548661097a9190611129565b815260208101859052600060408201526060016109978442611148565b81526000602080830182905260409283018290528c8252600681529190208251815590820151919250829160018201906109d19082611225565b50604082015160028201906109e69082611225565b50606082015160038201906109fb9082611225565b5060808201516004820190610a109082611225565b5060a0820151600582015560c0820151600682015560e082015160078201556101008201516008820155610120820151600982015561014090910151600a90910180547fffffffffffffffffffffffffffffffffffffffffffffffffffffffffffffff00169115159190911790556002546040517f8a9ac69da6c9624863cc5677f1ffe445079deb65237ccf9adc3fa4b410b0426891610ac2918b908b908b908b908b908b908b9060009081906112f2565b60405180910390a160028054906000610ada83611086565b9190505550505050505050505050565b805b8114610af757600080fd5b50565b8035610b0581610aea565b92915050565b600060208284031215610b2057610b20600080fd5b6000610b2c8484610afa565b949350505050565b805b82525050565b60005b83811015610b57578181015183820152602001610b3f565b50506000910152565b6000610b6a825190565b808452602084019350610b81818560208601610b3c565b601f01601f19169290920192915050565b801515610b36565b6101608101610ba9828e610b34565b8181036020830152610bbb818d610b60565b90508181036040830152610bcf818c610b60565b90508181036060830152610be3818b610b60565b90508181036080830152610bf7818a610b60565b9050610c0660a0830189610b34565b610c1360c0830188610b34565b610c2060e0830187610b34565b610c2e610100830186610b34565b610c3c610120830185610b34565b610c4a610140830184610b92565b9c9b505050505050505050505050565b60208101610b058284610b34565b600073ffffffffffffffffffffffffffffffffffffffff8216610b05565b610b3681610c68565b60208101610b058284610c86565b60008060408385031215610cb357610cb3600080fd5b6000610cbf8585610afa565b9250506020610cd085828601610afa565b9150509250929050565b60408101610ce88285610c86565b610cf56020830184610b34565b9392505050565b634e487b7160e01b600052604160045260246000fd5b601f19601f830116810181811067ffffffffffffffff82111715610d3857610d38610cfc565b6040525050565b6000610d4a60405190565b9050610d568282610d12565b919050565b600067ffffffffffffffff821115610d7557610d75610cfc565b601f19601f83011660200192915050565b82818337506000910152565b6000610da5610da084610d5b565b610d3f565b905082815260208101848484011115610dc057610dc0600080fd5b610dcb848285610d86565b509392505050565b600082601f830112610de757610de7600080fd5b8135610b2c848260208601610d92565b600080600080600080600080610100898b031215610e1757610e17600080fd5b6000610e238b8b610afa565b985050602089013567ffffffffffffffff811115610e4357610e43600080fd5b610e4f8b828c01610dd3565b975050604089013567ffffffffffffffff811115610e6f57610e6f600080fd5b610e7b8b828c01610dd3565b965050606089013567ffffffffffffffff811115610e9b57610e9b600080fd5b610ea78b828c01610dd3565b955050608089013567ffffffffffffffff811115610ec757610ec7600080fd5b610ed38b828c01610dd3565b94505060a0610ee48b828c01610afa565b93505060c0610ef58b828c01610afa565b92505060e0610f068b828c01610afa565b9150509295985092959890939650565b610aec81610c68565b8035610b0581610f16565b60008060408385031215610f4057610f40600080fd5b6000610cbf8585610f1f565b634e487b7160e01b600052602260045260246000fd5b600281046001821680610f7657607f821691505b602082108103610f8857610f88610f4c565b50919050565b602c81526000602082017f596f7520617265206e6f7420656c696769626c6520746f20676574207265667581527f6e64207269676874206e6f770000000000000000000000000000000000000000602082015291505b5060400190565b60208082528101610b0581610f8e565b90565b600081610b05565b602c81526000602082017f4661696c656420746f2073656e6420757365722062616c616e6365206261636b81527f20746f207468652075736572000000000000000000000000000000000000000060208201529150610fe4565b60208082528101610b0581611006565b634e487b7160e01b600052601160045260246000fd5b6000600019820361109957611099611070565b5060010190565b601381526000602082017f446561646c696e65206861732070617373656400000000000000000000000000815291505b5060200190565b60208082528101610b05816110a0565b60208082527f4d696e696d756d20636f6e747269627574696f6e20686173206e6f74206d6574910190815260006110d0565b60208082528101610b05816110e7565b81810280821583820485141761114157611141611070565b5092915050565b80820180821115610b0557610b05611070565b606081016111698286610b34565b6111766020830185610c86565b610b2c6040830184610b34565b6000610b05610ffb8381565b61119883611183565b81546008840282811b60001990911b908116901990911617825550505050565b60006111c581848461118f565b505050565b81811015610653576111dd6000826111b8565b6001016111ca565b601f8211156111c5576000818152602090206020601f8501048101602085101561120c5750805b61121e6020601f8601048301826111ca565b5050505050565b815167ffffffffffffffff81111561123f5761123f610cfc565b6112498254610f62565b6112548282856111e5565b6020601f83116001811461128857600084156112705750858201515b600019600886021c19811660028602178655506112e1565b600085815260208120601f198616915b828110156112b85788850151825560209485019460019092019101611298565b868310156112d45784890151600019601f89166008021c191682555b6001600288020188555050505b505050505050565b610b3681611183565b6101408101611301828d610b34565b8181036020830152611313818c610b60565b90508181036040830152611327818b610b60565b9050818103606083015261133b818a610b60565b9050818103608083015261134f8189610b60565b905061135e60a0830188610b34565b61136b60c0830187610b34565b61137860e0830186610b34565b6113866101008301856112e9565b611394610120830184610b92565b9b9a505050505050505050505056fea26469706673582212202815a0ab36f7e52cb31c9c1635d642d9b9a2e367b3518c206e7343611a3551ed64736f6c63430008110033",
  "linkReferences": {},
  "deployedLinkReferences": {}
}