{"contracts/Crowdfunding.sol":{"Crowdfunding":{"abi":[{"inputs":[],"stateMutability":"payable","type":"constructor"},{"anonymous":false,"inputs":[{"indexed":false,"internalType":"uint256","name":"ID","type":"uint256"},{"indexed":false,"internalType":"string","name":"title","type":"string"},{"indexed":false,"internalType":"string","name":"description","type":"string"},{"indexed":false,"internalType":"string","name":"location","type":"string"},{"indexed":false,"internalType":"string","name":"category","type":"string"},{"indexed":false,"internalType":"uint256","name":"minContribution","type":"uint256"},{"indexed":false,"internalType":"uint256","name":"goal","type":"uint256"},{"indexed":false,"internalType":"uint256","name":"campaignDeadline","type":"uint256"},{"indexed":false,"internalType":"uint256","name":"noOfContributions","type":"uint256"},{"indexed":false,"internalType":"bool","name":"claimed","type":"bool"}],"name":"CampaignUploaded","type":"event"},{"anonymous":false,"inputs":[{"indexed":false,"internalType":"uint256","name":"id_","type":"uint256"},{"indexed":false,"internalType":"address","name":"contributor_","type":"address"},{"indexed":false,"internalType":"uint256","name":"amount_","type":"uint256"}],"name":"paidCampaign","type":"event"},{"inputs":[{"internalType":"uint256","name":"","type":"uint256"},{"internalType":"uint256","name":"","type":"uint256"}],"name":"campaignContributions","outputs":[{"internalType":"address","name":"contributorAddress","type":"address"},{"internalType":"uint256","name":"amtContributed","type":"uint256"}],"stateMutability":"view","type":"function"},{"inputs":[{"internalType":"uint256","name":"id_","type":"uint256"}],"name":"campaignSuccess","outputs":[],"stateMutability":"nonpayable","type":"function"},{"inputs":[{"internalType":"uint256","name":"","type":"uint256"}],"name":"campaigns","outputs":[{"internalType":"uint256","name":"ID","type":"uint256"},{"internalType":"string","name":"title","type":"string"},{"internalType":"string","name":"description","type":"string"},{"internalType":"string","name":"location","type":"string"},{"internalType":"string","name":"category","type":"string"},{"internalType":"uint256","name":"minContribution","type":"uint256"},{"internalType":"uint256","name":"goal","type":"uint256"},{"internalType":"uint256","name":"pledgedAmt","type":"uint256"},{"internalType":"uint256","name":"campaignDeadline","type":"uint256"},{"internalType":"uint256","name":"noOfContributions","type":"uint256"},{"internalType":"bool","name":"claimed","type":"bool"}],"stateMutability":"view","type":"function"},{"inputs":[{"internalType":"address","name":"","type":"address"},{"internalType":"uint256","name":"","type":"uint256"}],"name":"contributorContributions","outputs":[{"internalType":"uint256","name":"","type":"uint256"}],"stateMutability":"view","type":"function"},{"inputs":[{"internalType":"uint256","name":"id_","type":"uint256"}],"name":"getCampaignContributions","outputs":[{"internalType":"address[]","name":"","type":"address[]"},{"internalType":"uint256[]","name":"","type":"uint256[]"}],"stateMutability":"view","type":"function"},{"inputs":[{"internalType":"address","name":"contributorAddress_","type":"address"}],"name":"getContributorContributions","outputs":[{"internalType":"uint256[]","name":"","type":"uint256[]"}],"stateMutability":"view","type":"function"},{"inputs":[],"name":"manager","outputs":[{"internalType":"address payable","name":"","type":"address"}],"stateMutability":"view","type":"function"},{"inputs":[],"name":"noOfCampaigns","outputs":[{"internalType":"uint256","name":"","type":"uint256"}],"stateMutability":"view","type":"function"},{"inputs":[{"internalType":"uint256","name":"id_","type":"uint256"}],"name":"payCampaign","outputs":[],"stateMutability":"payable","type":"function"},{"inputs":[{"internalType":"uint256","name":"id_","type":"uint256"}],"name":"refundAmt","outputs":[],"stateMutability":"nonpayable","type":"function"},{"inputs":[],"name":"totalContributions","outputs":[{"internalType":"uint256","name":"","type":"uint256"}],"stateMutability":"view","type":"function"},{"inputs":[],"name":"totalTrustCoins","outputs":[{"internalType":"uint256","name":"","type":"uint256"}],"stateMutability":"view","type":"function"},{"inputs":[{"internalType":"uint256","name":"id_","type":"uint256"},{"internalType":"string","name":"title_","type":"string"},{"internalType":"string","name":"description_","type":"string"},{"internalType":"string","name":"location_","type":"string"},{"internalType":"string","name":"category_","type":"string"},{"internalType":"uint256","name":"minContribution_","type":"uint256"},{"internalType":"uint256","name":"goal_","type":"uint256"},{"internalType":"uint256","name":"deadline_","type":"uint256"}],"name":"uploadCampaign","outputs":[],"stateMutability":"nonpayable","type":"function"}],"devdoc":{"kind":"dev","methods":{},"version":1},"evm":{"bytecode":{"linkReferences":{},"object":"608060409081526001600081815560028190556003819055620f4240600490815582546001600160a01b0319163390811790935591815260056020529182206101f4908190558154909290610055908490610076565b9091555061008f9050565b634e487b7160e01b600052601160045260246000fd5b8181038181111561008957610089610060565b92915050565b6116dc8061009e6000396000f3fe6080604052600436106100d25760003560e01c8063539157bd1161007f5780639f43f729116100595780639f43f7291461024b578063bef0cdaf14610278578063d3b0c32c1461028e578063f6f219a5146102bc57600080fd5b8063539157bd146101b257806362b68dc41461020b5780636897c1371461022b57600080fd5b806337c08923116100b057806337c089231461015c57806342a4ed9514610172578063481c6a751461018557600080fd5b8063141961bc146100d7578063165596321461011757806317818e5914610139575b600080fd5b3480156100e357600080fd5b506100f76100f2366004610d26565b6102f4565b60405161010e9b9a99989796959493929190610db5565b60405180910390f35b34801561012357600080fd5b50610137610132366004610d26565b61056d565b005b34801561014557600080fd5b5061014f60025481565b60405161010e9190610e75565b34801561016857600080fd5b5061014f60035481565b610137610180366004610d26565b6106bd565b34801561019157600080fd5b506001546101a5906001600160a01b031681565b60405161010e9190610e9d565b3480156101be57600080fd5b506101fd6101cd366004610eab565b6007602090815260009283526040808420909152908252902080546001909101546001600160a01b039091169082565b60405161010e929190610ee8565b34801561021757600080fd5b50610137610226366004610d26565b610840565b34801561023757600080fd5b50610137610246366004611005565b61092f565b34801561025757600080fd5b5061026b610266366004611138565b610adc565b60405161010e91906111b6565b34801561028457600080fd5b5061014f60045481565b34801561029a57600080fd5b506102ae6102a9366004610d26565b610b90565b60405161010e929190611211565b3480156102c857600080fd5b5061014f6102d7366004611236565b600860209081526000928352604080842090915290825290205481565b600660205260009081526040902080546001820180549192916103169061126e565b80601f01602080910402602001604051908101604052809291908181526020018280546103429061126e565b801561038f5780601f106103645761010080835404028352916020019161038f565b820191906000526020600020905b81548152906001019060200180831161037257829003601f168201915b5050505050908060020180546103a49061126e565b80601f01602080910402602001604051908101604052809291908181526020018280546103d09061126e565b801561041d5780601f106103f25761010080835404028352916020019161041d565b820191906000526020600020905b81548152906001019060200180831161040057829003601f168201915b5050505050908060030180546104329061126e565b80601f016020809104026020016040519081016040528092919081815260200182805461045e9061126e565b80156104ab5780601f10610480576101008083540402835291602001916104ab565b820191906000526020600020905b81548152906001019060200180831161048e57829003601f168201915b5050505050908060040180546104c09061126e565b80601f01602080910402602001604051908101604052809291908181526020018280546104ec9061126e565b80156105395780601f1061050e57610100808354040283529160200191610539565b820191906000526020600020905b81548152906001019060200180831161051c57829003601f168201915b50505060058401546006850154600786015460088701546009880154600a9098015496979396929550909350919060ff168b565b600081815260066020526040902060080154421180156105a55750600081815260066020819052604090912090810154600790910154105b6105ca5760405162461bcd60e51b81526004016105c1906112f7565b60405180910390fd5b60005b6000828152600660205260409020600901548110156106b9576000828152600760209081526040808320848452909152808220805460019091015491516001600160a01b039091169290839083906106249061130a565b60006040518083038185875af1925050503d8060008114610661576040519150601f19603f3d011682016040523d82523d6000602084013e610666565b606091505b50509050806106875760405162461bcd60e51b81526004016105c19061136c565b5050506000828152600760209081526040808320848452909152812060010155806106b181611392565b9150506105cd565b5050565b60008181526006602052604090206008015442106106ed5760405162461bcd60e51b81526004016105c1906113e3565b60008181526006602052604090206005015434101561071e5760405162461bcd60e51b81526004016105c190611425565b604080518082018252338082523460208084018290526000928352600881528483208684529052928120805492939290919061075b908490611435565b90915550506000828152600760208181526040808420600680845282862060098101548752918452918520865181547fffffffffffffffffffffffff0000000000000000000000000000000000000000166001600160a01b039091161781558684015160019091015586855291520180543492906107da908490611435565b909155505060008281526006602052604081206009018054916107fc83611392565b91905055507f9de0a6dd1dfd3e6eda5e87572f845b6183a171debc4a266cf5c5eddc7754098382333460405161083493929190611448565b60405180910390a15050565b6001546001600160a01b0316331461085757600080fd5b6000818152600660205260409020600801544211801561088f5750600081815260066020819052604090912090810154600790910154115b6108ab5760405162461bcd60e51b81526004016105c1906112f7565b6000818152600660205260408082206007015490513391906108cc9061130a565b60006040518083038185875af1925050503d8060008114610909576040519150601f19603f3d011682016040523d82523d6000602084013e61090e565b606091505b50509050806106b95760405162461bcd60e51b81526004016105c19061136c565b6001546001600160a01b0316331461094657600080fd5b604080516101608101825289815260208082018a81528284018a9052606083018990526080830188905260a0830187905260c08301869052600060e084018190526101008401869052610120840181905261014084018190528c815260069092529290208151815591519091829160018201906109c39082611512565b50604082015160028201906109d89082611512565b50606082015160038201906109ed9082611512565b5060808201516004820190610a029082611512565b5060a0820151600582015560c0820151600682015560e082015160078201556101008201516008820155610120820151600982015561014090910151600a90910180547fffffffffffffffffffffffffffffffffffffffffffffffffffffffffffffff00169115159190911790556002546040517f8a9ac69da6c9624863cc5677f1ffe445079deb65237ccf9adc3fa4b410b0426891610ab4918b908b908b908b908b908b908b9060009081906115df565b60405180910390a160028054906000610acc83611392565b9190505550505050505050505050565b6060600060025467ffffffffffffffff811115610afb57610afb610f0a565b604051908082528060200260200182016040528015610b24578160200160208202803683370190505b50905060005b600254811015610b89576001600160a01b03841660009081526008602090815260408083208484529091529020548251839083908110610b6c57610b6c611690565b602090810291909101015280610b8181611392565b915050610b2a565b5092915050565b600081815260066020526040812060090154606091829167ffffffffffffffff811115610bbf57610bbf610f0a565b604051908082528060200260200182016040528015610be8578160200160208202803683370190505b506000858152600660205260408120600901549192509067ffffffffffffffff811115610c1757610c17610f0a565b604051908082528060200260200182016040528015610c40578160200160208202803683370190505b50905060005b600086815260066020526040902060090154811015610cfa57600086815260076020908152604080832084845290915290205483516001600160a01b0390911690849083908110610c9957610c99611690565b6001600160a01b03909216602092830291909101820152600087815260078252604080822084835290925220600101548251839083908110610cdd57610cdd611690565b602090810291909101015280610cf281611392565b915050610c46565b509094909350915050565b805b8114610d1257600080fd5b50565b8035610d2081610d05565b92915050565b600060208284031215610d3b57610d3b600080fd5b6000610d478484610d15565b949350505050565b805b82525050565b60005b83811015610d72578181015183820152602001610d5a565b50506000910152565b6000610d85825190565b808452602084019350610d9c818560208601610d57565b601f01601f19169290920192915050565b801515610d51565b6101608101610dc4828e610d4f565b8181036020830152610dd6818d610d7b565b90508181036040830152610dea818c610d7b565b90508181036060830152610dfe818b610d7b565b90508181036080830152610e12818a610d7b565b9050610e2160a0830189610d4f565b610e2e60c0830188610d4f565b610e3b60e0830187610d4f565b610e49610100830186610d4f565b610e57610120830185610d4f565b610e65610140830184610dad565b9c9b505050505050505050505050565b60208101610d208284610d4f565b60006001600160a01b038216610d20565b610d5181610e83565b60208101610d208284610e94565b60008060408385031215610ec157610ec1600080fd5b6000610ecd8585610d15565b9250506020610ede85828601610d15565b9150509250929050565b60408101610ef68285610e94565b610f036020830184610d4f565b9392505050565b634e487b7160e01b600052604160045260246000fd5b601f19601f830116810181811067ffffffffffffffff82111715610f4657610f46610f0a565b6040525050565b6000610f5860405190565b9050610f648282610f20565b919050565b600067ffffffffffffffff821115610f8357610f83610f0a565b601f19601f83011660200192915050565b82818337506000910152565b6000610fb3610fae84610f69565b610f4d565b905082815260208101848484011115610fce57610fce600080fd5b610fd9848285610f94565b509392505050565b600082601f830112610ff557610ff5600080fd5b8135610d47848260208601610fa0565b600080600080600080600080610100898b03121561102557611025600080fd5b60006110318b8b610d15565b985050602089013567ffffffffffffffff81111561105157611051600080fd5b61105d8b828c01610fe1565b975050604089013567ffffffffffffffff81111561107d5761107d600080fd5b6110898b828c01610fe1565b965050606089013567ffffffffffffffff8111156110a9576110a9600080fd5b6110b58b828c01610fe1565b955050608089013567ffffffffffffffff8111156110d5576110d5600080fd5b6110e18b828c01610fe1565b94505060a06110f28b828c01610d15565b93505060c06111038b828c01610d15565b92505060e06111148b828c01610d15565b9150509295985092959890939650565b610d0781610e83565b8035610d2081611124565b60006020828403121561114d5761114d600080fd5b6000610d47848461112d565b60006111658383610d4f565b505060200190565b6000611177825190565b80845260209384019383018060005b838110156111ab57815161119a8882611159565b975060208301925050600101611186565b509495945050505050565b60208082528101610f03818461116d565b60006111658383610e94565b60006111dd825190565b80845260209384019383018060005b838110156111ab57815161120088826111c7565b9750602083019250506001016111ec565b6040808252810161122281856111d3565b90508181036020830152610d47818461116d565b6000806040838503121561124c5761124c600080fd5b6000610ecd858561112d565b634e487b7160e01b600052602260045260246000fd5b60028104600182168061128257607f821691505b60208210810361129457611294611258565b50919050565b602c81526000602082017f596f7520617265206e6f7420656c696769626c6520746f20676574207265667581527f6e64207269676874206e6f770000000000000000000000000000000000000000602082015291505b5060400190565b60208082528101610d208161129a565b90565b600081610d20565b602c81526000602082017f4661696c656420746f2073656e6420757365722062616c616e6365206261636b81527f20746f2074686520757365720000000000000000000000000000000000000000602082015291506112f0565b60208082528101610d2081611312565b634e487b7160e01b600052601160045260246000fd5b600060001982036113a5576113a561137c565b5060010190565b601381526000602082017f446561646c696e65206861732070617373656400000000000000000000000000815291505b5060200190565b60208082528101610d20816113ac565b60208082527f4d696e696d756d20636f6e747269627574696f6e20686173206e6f74206d6574910190815260006113dc565b60208082528101610d20816113f3565b80820180821115610d2057610d2061137c565b606081016114568286610d4f565b6114636020830185610e94565b610d476040830184610d4f565b6000610d206113078381565b61148583611470565b81546008840282811b60001990911b908116901990911617825550505050565b60006114b281848461147c565b505050565b818110156106b9576114ca6000826114a5565b6001016114b7565b601f8211156114b2576000818152602090206020601f850104810160208510156114f95750805b61150b6020601f8601048301826114b7565b5050505050565b815167ffffffffffffffff81111561152c5761152c610f0a565b611536825461126e565b6115418282856114d2565b6020601f831160018114611575576000841561155d5750858201515b600019600886021c19811660028602178655506115ce565b600085815260208120601f198616915b828110156115a55788850151825560209485019460019092019101611585565b868310156115c15784890151600019601f89166008021c191682555b6001600288020188555050505b505050505050565b610d5181611470565b61014081016115ee828d610d4f565b8181036020830152611600818c610d7b565b90508181036040830152611614818b610d7b565b90508181036060830152611628818a610d7b565b9050818103608083015261163c8189610d7b565b905061164b60a0830188610d4f565b61165860c0830187610d4f565b61166560e0830186610d4f565b6116736101008301856115d6565b611681610120830184610dad565b9b9a5050505050505050505050565b634e487b7160e01b600052603260045260246000fdfea2646970667358221220976f7c5429d1ffd82aee2e9772e0aa42294dbf9449fddcce599d510d7febb23564736f6c63430008110033","opcodes":"PUSH1 0x80 PUSH1 0x40 SWAP1 DUP2 MSTORE PUSH1 0x1 PUSH1 0x0 DUP2 DUP2 SSTORE PUSH1 0x2 DUP2 SWAP1 SSTORE PUSH1 0x3 DUP2 SWAP1 SSTORE PUSH3 0xF4240 PUSH1 0x4 SWAP1 DUP2 SSTORE DUP3 SLOAD PUSH1 0x1 PUSH1 0x1 PUSH1 0xA0 SHL SUB NOT AND CALLER SWAP1 DUP2 OR SWAP1 SWAP4 SSTORE SWAP2 DUP2 MSTORE PUSH1 0x5 PUSH1 0x20 MSTORE SWAP2 DUP3 KECCAK256 PUSH2 0x1F4 SWAP1 DUP2 SWAP1 SSTORE DUP2 SLOAD SWAP1 SWAP3 SWAP1 PUSH2 0x55 SWAP1 DUP5 SWAP1 PUSH2 0x76 JUMP JUMPDEST SWAP1 SWAP2 SSTORE POP PUSH2 0x8F SWAP1 POP JUMP JUMPDEST PUSH4 0x4E487B71 PUSH1 0xE0 SHL PUSH1 0x0 MSTORE PUSH1 0x11 PUSH1 0x4 MSTORE PUSH1 0x24 PUSH1 0x0 REVERT JUMPDEST DUP2 DUP2 SUB DUP2 DUP2 GT ISZERO PUSH2 0x89 JUMPI PUSH2 0x89 PUSH2 0x60 JUMP JUMPDEST SWAP3 SWAP2 POP POP JUMP JUMPDEST PUSH2 0x16DC DUP1 PUSH2 0x9E PUSH1 0x0 CODECOPY PUSH1 0x0 RETURN INVALID PUSH1 0x80 PUSH1 0x40 MSTORE PUSH1 0x4 CALLDATASIZE LT PUSH2 0xD2 JUMPI PUSH1 0x0 CALLDATALOAD PUSH1 0xE0 SHR DUP1 PUSH4 0x539157BD GT PUSH2 0x7F JUMPI DUP1 PUSH4 0x9F43F729 GT PUSH2 0x59 JUMPI DUP1 PUSH4 0x9F43F729 EQ PUSH2 0x24B JUMPI DUP1 PUSH4 0xBEF0CDAF EQ PUSH2 0x278 JUMPI DUP1 PUSH4 0xD3B0C32C EQ PUSH2 0x28E JUMPI DUP1 PUSH4 0xF6F219A5 EQ PUSH2 0x2BC JUMPI PUSH1 0x0 DUP1 REVERT JUMPDEST DUP1 PUSH4 0x539157BD EQ PUSH2 0x1B2 JUMPI DUP1 PUSH4 0x62B68DC4 EQ PUSH2 0x20B JUMPI DUP1 PUSH4 0x6897C137 EQ PUSH2 0x22B JUMPI PUSH1 0x0 DUP1 REVERT JUMPDEST DUP1 PUSH4 0x37C08923 GT PUSH2 0xB0 JUMPI DUP1 PUSH4 0x37C08923 EQ PUSH2 0x15C JUMPI DUP1 PUSH4 0x42A4ED95 EQ PUSH2 0x172 JUMPI DUP1 PUSH4 0x481C6A75 EQ PUSH2 0x185 JUMPI PUSH1 0x0 DUP1 REVERT JUMPDEST DUP1 PUSH4 0x141961BC EQ PUSH2 0xD7 JUMPI DUP1 PUSH4 0x16559632 EQ PUSH2 0x117 JUMPI DUP1 PUSH4 0x17818E59 EQ PUSH2 0x139 JUMPI JUMPDEST PUSH1 0x0 DUP1 REVERT JUMPDEST CALLVALUE DUP1 ISZERO PUSH2 0xE3 JUMPI PUSH1 0x0 DUP1 REVERT JUMPDEST POP PUSH2 0xF7 PUSH2 0xF2 CALLDATASIZE PUSH1 0x4 PUSH2 0xD26 JUMP JUMPDEST PUSH2 0x2F4 JUMP JUMPDEST PUSH1 0x40 MLOAD PUSH2 0x10E SWAP12 SWAP11 SWAP10 SWAP9 SWAP8 SWAP7 SWAP6 SWAP5 SWAP4 SWAP3 SWAP2 SWAP1 PUSH2 0xDB5 JUMP JUMPDEST PUSH1 0x40 MLOAD DUP1 SWAP2 SUB SWAP1 RETURN JUMPDEST CALLVALUE DUP1 ISZERO PUSH2 0x123 JUMPI PUSH1 0x0 DUP1 REVERT JUMPDEST POP PUSH2 0x137 PUSH2 0x132 CALLDATASIZE PUSH1 0x4 PUSH2 0xD26 JUMP JUMPDEST PUSH2 0x56D JUMP JUMPDEST STOP JUMPDEST CALLVALUE DUP1 ISZERO PUSH2 0x145 JUMPI PUSH1 0x0 DUP1 REVERT JUMPDEST POP PUSH2 0x14F PUSH1 0x2 SLOAD DUP2 JUMP JUMPDEST PUSH1 0x40 MLOAD PUSH2 0x10E SWAP2 SWAP1 PUSH2 0xE75 JUMP JUMPDEST CALLVALUE DUP1 ISZERO PUSH2 0x168 JUMPI PUSH1 0x0 DUP1 REVERT JUMPDEST POP PUSH2 0x14F PUSH1 0x3 SLOAD DUP2 JUMP JUMPDEST PUSH2 0x137 PUSH2 0x180 CALLDATASIZE PUSH1 0x4 PUSH2 0xD26 JUMP JUMPDEST PUSH2 0x6BD JUMP JUMPDEST CALLVALUE DUP1 ISZERO PUSH2 0x191 JUMPI PUSH1 0x0 DUP1 REVERT JUMPDEST POP PUSH1 0x1 SLOAD PUSH2 0x1A5 SWAP1 PUSH1 0x1 PUSH1 0x1 PUSH1 0xA0 SHL SUB AND DUP2 JUMP JUMPDEST PUSH1 0x40 MLOAD PUSH2 0x10E SWAP2 SWAP1 PUSH2 0xE9D JUMP JUMPDEST CALLVALUE DUP1 ISZERO PUSH2 0x1BE JUMPI PUSH1 0x0 DUP1 REVERT JUMPDEST POP PUSH2 0x1FD PUSH2 0x1CD CALLDATASIZE PUSH1 0x4 PUSH2 0xEAB JUMP JUMPDEST PUSH1 0x7 PUSH1 0x20 SWAP1 DUP2 MSTORE PUSH1 0x0 SWAP3 DUP4 MSTORE PUSH1 0x40 DUP1 DUP5 KECCAK256 SWAP1 SWAP2 MSTORE SWAP1 DUP3 MSTORE SWAP1 KECCAK256 DUP1 SLOAD PUSH1 0x1 SWAP1 SWAP2 ADD SLOAD PUSH1 0x1 PUSH1 0x1 PUSH1 0xA0 SHL SUB SWAP1 SWAP2 AND SWAP1 DUP3 JUMP JUMPDEST PUSH1 0x40 MLOAD PUSH2 0x10E SWAP3 SWAP2 SWAP1 PUSH2 0xEE8 JUMP JUMPDEST CALLVALUE DUP1 ISZERO PUSH2 0x217 JUMPI PUSH1 0x0 DUP1 REVERT JUMPDEST POP PUSH2 0x137 PUSH2 0x226 CALLDATASIZE PUSH1 0x4 PUSH2 0xD26 JUMP JUMPDEST PUSH2 0x840 JUMP JUMPDEST CALLVALUE DUP1 ISZERO PUSH2 0x237 JUMPI PUSH1 0x0 DUP1 REVERT JUMPDEST POP PUSH2 0x137 PUSH2 0x246 CALLDATASIZE PUSH1 0x4 PUSH2 0x1005 JUMP JUMPDEST PUSH2 0x92F JUMP JUMPDEST CALLVALUE DUP1 ISZERO PUSH2 0x257 JUMPI PUSH1 0x0 DUP1 REVERT JUMPDEST POP PUSH2 0x26B PUSH2 0x266 CALLDATASIZE PUSH1 0x4 PUSH2 0x1138 JUMP JUMPDEST PUSH2 0xADC JUMP JUMPDEST PUSH1 0x40 MLOAD PUSH2 0x10E SWAP2 SWAP1 PUSH2 0x11B6 JUMP JUMPDEST CALLVALUE DUP1 ISZERO PUSH2 0x284 JUMPI PUSH1 0x0 DUP1 REVERT JUMPDEST POP PUSH2 0x14F PUSH1 0x4 SLOAD DUP2 JUMP JUMPDEST CALLVALUE DUP1 ISZERO PUSH2 0x29A JUMPI PUSH1 0x0 DUP1 REVERT JUMPDEST POP PUSH2 0x2AE PUSH2 0x2A9 CALLDATASIZE PUSH1 0x4 PUSH2 0xD26 JUMP JUMPDEST PUSH2 0xB90 JUMP JUMPDEST PUSH1 0x40 MLOAD PUSH2 0x10E SWAP3 SWAP2 SWAP1 PUSH2 0x1211 JUMP JUMPDEST CALLVALUE DUP1 ISZERO PUSH2 0x2C8 JUMPI PUSH1 0x0 DUP1 REVERT JUMPDEST POP PUSH2 0x14F PUSH2 0x2D7 CALLDATASIZE PUSH1 0x4 PUSH2 0x1236 JUMP JUMPDEST PUSH1 0x8 PUSH1 0x20 SWAP1 DUP2 MSTORE PUSH1 0x0 SWAP3 DUP4 MSTORE PUSH1 0x40 DUP1 DUP5 KECCAK256 SWAP1 SWAP2 MSTORE SWAP1 DUP3 MSTORE SWAP1 KECCAK256 SLOAD DUP2 JUMP JUMPDEST PUSH1 0x6 PUSH1 0x20 MSTORE PUSH1 0x0 SWAP1 DUP2 MSTORE PUSH1 0x40 SWAP1 KECCAK256 DUP1 SLOAD PUSH1 0x1 DUP3 ADD DUP1 SLOAD SWAP2 SWAP3 SWAP2 PUSH2 0x316 SWAP1 PUSH2 0x126E JUMP JUMPDEST DUP1 PUSH1 0x1F ADD PUSH1 0x20 DUP1 SWAP2 DIV MUL PUSH1 0x20 ADD PUSH1 0x40 MLOAD SWAP1 DUP2 ADD PUSH1 0x40 MSTORE DUP1 SWAP3 SWAP2 SWAP1 DUP2 DUP2 MSTORE PUSH1 0x20 ADD DUP3 DUP1 SLOAD PUSH2 0x342 SWAP1 PUSH2 0x126E JUMP JUMPDEST DUP1 ISZERO PUSH2 0x38F JUMPI DUP1 PUSH1 0x1F LT PUSH2 0x364 JUMPI PUSH2 0x100 DUP1 DUP4 SLOAD DIV MUL DUP4 MSTORE SWAP2 PUSH1 0x20 ADD SWAP2 PUSH2 0x38F JUMP JUMPDEST DUP3 ADD SWAP2 SWAP1 PUSH1 0x0 MSTORE PUSH1 0x20 PUSH1 0x0 KECCAK256 SWAP1 JUMPDEST DUP2 SLOAD DUP2 MSTORE SWAP1 PUSH1 0x1 ADD SWAP1 PUSH1 0x20 ADD DUP1 DUP4 GT PUSH2 0x372 JUMPI DUP3 SWAP1 SUB PUSH1 0x1F AND DUP3 ADD SWAP2 JUMPDEST POP POP POP POP POP SWAP1 DUP1 PUSH1 0x2 ADD DUP1 SLOAD PUSH2 0x3A4 SWAP1 PUSH2 0x126E JUMP JUMPDEST DUP1 PUSH1 0x1F ADD PUSH1 0x20 DUP1 SWAP2 DIV MUL PUSH1 0x20 ADD PUSH1 0x40 MLOAD SWAP1 DUP2 ADD PUSH1 0x40 MSTORE DUP1 SWAP3 SWAP2 SWAP1 DUP2 DUP2 MSTORE PUSH1 0x20 ADD DUP3 DUP1 SLOAD PUSH2 0x3D0 SWAP1 PUSH2 0x126E JUMP JUMPDEST DUP1 ISZERO PUSH2 0x41D JUMPI DUP1 PUSH1 0x1F LT PUSH2 0x3F2 JUMPI PUSH2 0x100 DUP1 DUP4 SLOAD DIV MUL DUP4 MSTORE SWAP2 PUSH1 0x20 ADD SWAP2 PUSH2 0x41D JUMP JUMPDEST DUP3 ADD SWAP2 SWAP1 PUSH1 0x0 MSTORE PUSH1 0x20 PUSH1 0x0 KECCAK256 SWAP1 JUMPDEST DUP2 SLOAD DUP2 MSTORE SWAP1 PUSH1 0x1 ADD SWAP1 PUSH1 0x20 ADD DUP1 DUP4 GT PUSH2 0x400 JUMPI DUP3 SWAP1 SUB PUSH1 0x1F AND DUP3 ADD SWAP2 JUMPDEST POP POP POP POP POP SWAP1 DUP1 PUSH1 0x3 ADD DUP1 SLOAD PUSH2 0x432 SWAP1 PUSH2 0x126E JUMP JUMPDEST DUP1 PUSH1 0x1F ADD PUSH1 0x20 DUP1 SWAP2 DIV MUL PUSH1 0x20 ADD PUSH1 0x40 MLOAD SWAP1 DUP2 ADD PUSH1 0x40 MSTORE DUP1 SWAP3 SWAP2 SWAP1 DUP2 DUP2 MSTORE PUSH1 0x20 ADD DUP3 DUP1 SLOAD PUSH2 0x45E SWAP1 PUSH2 0x126E JUMP JUMPDEST DUP1 ISZERO PUSH2 0x4AB JUMPI DUP1 PUSH1 0x1F LT PUSH2 0x480 JUMPI PUSH2 0x100 DUP1 DUP4 SLOAD DIV MUL DUP4 MSTORE SWAP2 PUSH1 0x20 ADD SWAP2 PUSH2 0x4AB JUMP JUMPDEST DUP3 ADD SWAP2 SWAP1 PUSH1 0x0 MSTORE PUSH1 0x20 PUSH1 0x0 KECCAK256 SWAP1 JUMPDEST DUP2 SLOAD DUP2 MSTORE SWAP1 PUSH1 0x1 ADD SWAP1 PUSH1 0x20 ADD DUP1 DUP4 GT PUSH2 0x48E JUMPI DUP3 SWAP1 SUB PUSH1 0x1F AND DUP3 ADD SWAP2 JUMPDEST POP POP POP POP POP SWAP1 DUP1 PUSH1 0x4 ADD DUP1 SLOAD PUSH2 0x4C0 SWAP1 PUSH2 0x126E JUMP JUMPDEST DUP1 PUSH1 0x1F ADD PUSH1 0x20 DUP1 SWAP2 DIV MUL PUSH1 0x20 ADD PUSH1 0x40 MLOAD SWAP1 DUP2 ADD PUSH1 0x40 MSTORE DUP1 SWAP3 SWAP2 SWAP1 DUP2 DUP2 MSTORE PUSH1 0x20 ADD DUP3 DUP1 SLOAD PUSH2 0x4EC SWAP1 PUSH2 0x126E JUMP JUMPDEST DUP1 ISZERO PUSH2 0x539 JUMPI DUP1 PUSH1 0x1F LT PUSH2 0x50E JUMPI PUSH2 0x100 DUP1 DUP4 SLOAD DIV MUL DUP4 MSTORE SWAP2 PUSH1 0x20 ADD SWAP2 PUSH2 0x539 JUMP JUMPDEST DUP3 ADD SWAP2 SWAP1 PUSH1 0x0 MSTORE PUSH1 0x20 PUSH1 0x0 KECCAK256 SWAP1 JUMPDEST DUP2 SLOAD DUP2 MSTORE SWAP1 PUSH1 0x1 ADD SWAP1 PUSH1 0x20 ADD DUP1 DUP4 GT PUSH2 0x51C JUMPI DUP3 SWAP1 SUB PUSH1 0x1F AND DUP3 ADD SWAP2 JUMPDEST POP POP POP PUSH1 0x5 DUP5 ADD SLOAD PUSH1 0x6 DUP6 ADD SLOAD PUSH1 0x7 DUP7 ADD SLOAD PUSH1 0x8 DUP8 ADD SLOAD PUSH1 0x9 DUP9 ADD SLOAD PUSH1 0xA SWAP1 SWAP9 ADD SLOAD SWAP7 SWAP8 SWAP4 SWAP7 SWAP3 SWAP6 POP SWAP1 SWAP4 POP SWAP2 SWAP1 PUSH1 0xFF AND DUP12 JUMP JUMPDEST PUSH1 0x0 DUP2 DUP2 MSTORE PUSH1 0x6 PUSH1 0x20 MSTORE PUSH1 0x40 SWAP1 KECCAK256 PUSH1 0x8 ADD SLOAD TIMESTAMP GT DUP1 ISZERO PUSH2 0x5A5 JUMPI POP PUSH1 0x0 DUP2 DUP2 MSTORE PUSH1 0x6 PUSH1 0x20 DUP2 SWAP1 MSTORE PUSH1 0x40 SWAP1 SWAP2 KECCAK256 SWAP1 DUP2 ADD SLOAD PUSH1 0x7 SWAP1 SWAP2 ADD SLOAD LT JUMPDEST PUSH2 0x5CA JUMPI PUSH1 0x40 MLOAD PUSH3 0x461BCD PUSH1 0xE5 SHL DUP2 MSTORE PUSH1 0x4 ADD PUSH2 0x5C1 SWAP1 PUSH2 0x12F7 JUMP JUMPDEST PUSH1 0x40 MLOAD DUP1 SWAP2 SUB SWAP1 REVERT JUMPDEST PUSH1 0x0 JUMPDEST PUSH1 0x0 DUP3 DUP2 MSTORE PUSH1 0x6 PUSH1 0x20 MSTORE PUSH1 0x40 SWAP1 KECCAK256 PUSH1 0x9 ADD SLOAD DUP2 LT ISZERO PUSH2 0x6B9 JUMPI PUSH1 0x0 DUP3 DUP2 MSTORE PUSH1 0x7 PUSH1 0x20 SWAP1 DUP2 MSTORE PUSH1 0x40 DUP1 DUP4 KECCAK256 DUP5 DUP5 MSTORE SWAP1 SWAP2 MSTORE DUP1 DUP3 KECCAK256 DUP1 SLOAD PUSH1 0x1 SWAP1 SWAP2 ADD SLOAD SWAP2 MLOAD PUSH1 0x1 PUSH1 0x1 PUSH1 0xA0 SHL SUB SWAP1 SWAP2 AND SWAP3 SWAP1 DUP4 SWAP1 DUP4 SWAP1 PUSH2 0x624 SWAP1 PUSH2 0x130A JUMP JUMPDEST PUSH1 0x0 PUSH1 0x40 MLOAD DUP1 DUP4 SUB DUP2 DUP6 DUP8 GAS CALL SWAP3 POP POP POP RETURNDATASIZE DUP1 PUSH1 0x0 DUP2 EQ PUSH2 0x661 JUMPI PUSH1 0x40 MLOAD SWAP2 POP PUSH1 0x1F NOT PUSH1 0x3F RETURNDATASIZE ADD AND DUP3 ADD PUSH1 0x40 MSTORE RETURNDATASIZE DUP3 MSTORE RETURNDATASIZE PUSH1 0x0 PUSH1 0x20 DUP5 ADD RETURNDATACOPY PUSH2 0x666 JUMP JUMPDEST PUSH1 0x60 SWAP2 POP JUMPDEST POP POP SWAP1 POP DUP1 PUSH2 0x687 JUMPI PUSH1 0x40 MLOAD PUSH3 0x461BCD PUSH1 0xE5 SHL DUP2 MSTORE PUSH1 0x4 ADD PUSH2 0x5C1 SWAP1 PUSH2 0x136C JUMP JUMPDEST POP POP POP PUSH1 0x0 DUP3 DUP2 MSTORE PUSH1 0x7 PUSH1 0x20 SWAP1 DUP2 MSTORE PUSH1 0x40 DUP1 DUP4 KECCAK256 DUP5 DUP5 MSTORE SWAP1 SWAP2 MSTORE DUP2 KECCAK256 PUSH1 0x1 ADD SSTORE DUP1 PUSH2 0x6B1 DUP2 PUSH2 0x1392 JUMP JUMPDEST SWAP2 POP POP PUSH2 0x5CD JUMP JUMPDEST POP POP JUMP JUMPDEST PUSH1 0x0 DUP2 DUP2 MSTORE PUSH1 0x6 PUSH1 0x20 MSTORE PUSH1 0x40 SWAP1 KECCAK256 PUSH1 0x8 ADD SLOAD TIMESTAMP LT PUSH2 0x6ED JUMPI PUSH1 0x40 MLOAD PUSH3 0x461BCD PUSH1 0xE5 SHL DUP2 MSTORE PUSH1 0x4 ADD PUSH2 0x5C1 SWAP1 PUSH2 0x13E3 JUMP JUMPDEST PUSH1 0x0 DUP2 DUP2 MSTORE PUSH1 0x6 PUSH1 0x20 MSTORE PUSH1 0x40 SWAP1 KECCAK256 PUSH1 0x5 ADD SLOAD CALLVALUE LT ISZERO PUSH2 0x71E JUMPI PUSH1 0x40 MLOAD PUSH3 0x461BCD PUSH1 0xE5 SHL DUP2 MSTORE PUSH1 0x4 ADD PUSH2 0x5C1 SWAP1 PUSH2 0x1425 JUMP JUMPDEST PUSH1 0x40 DUP1 MLOAD DUP1 DUP3 ADD DUP3 MSTORE CALLER DUP1 DUP3 MSTORE CALLVALUE PUSH1 0x20 DUP1 DUP5 ADD DUP3 SWAP1 MSTORE PUSH1 0x0 SWAP3 DUP4 MSTORE PUSH1 0x8 DUP2 MSTORE DUP5 DUP4 KECCAK256 DUP7 DUP5 MSTORE SWAP1 MSTORE SWAP3 DUP2 KECCAK256 DUP1 SLOAD SWAP3 SWAP4 SWAP3 SWAP1 SWAP2 SWAP1 PUSH2 0x75B SWAP1 DUP5 SWAP1 PUSH2 0x1435 JUMP JUMPDEST SWAP1 SWAP2 SSTORE POP POP PUSH1 0x0 DUP3 DUP2 MSTORE PUSH1 0x7 PUSH1 0x20 DUP2 DUP2 MSTORE PUSH1 0x40 DUP1 DUP5 KECCAK256 PUSH1 0x6 DUP1 DUP5 MSTORE DUP3 DUP7 KECCAK256 PUSH1 0x9 DUP2 ADD SLOAD DUP8 MSTORE SWAP2 DUP5 MSTORE SWAP2 DUP6 KECCAK256 DUP7 MLOAD DUP2 SLOAD PUSH32 0xFFFFFFFFFFFFFFFFFFFFFFFF0000000000000000000000000000000000000000 AND PUSH1 0x1 PUSH1 0x1 PUSH1 0xA0 SHL SUB SWAP1 SWAP2 AND OR DUP2 SSTORE DUP7 DUP5 ADD MLOAD PUSH1 0x1 SWAP1 SWAP2 ADD SSTORE DUP7 DUP6 MSTORE SWAP2 MSTORE ADD DUP1 SLOAD CALLVALUE SWAP3 SWAP1 PUSH2 0x7DA SWAP1 DUP5 SWAP1 PUSH2 0x1435 JUMP JUMPDEST SWAP1 SWAP2 SSTORE POP POP PUSH1 0x0 DUP3 DUP2 MSTORE PUSH1 0x6 PUSH1 0x20 MSTORE PUSH1 0x40 DUP2 KECCAK256 PUSH1 0x9 ADD DUP1 SLOAD SWAP2 PUSH2 0x7FC DUP4 PUSH2 0x1392 JUMP JUMPDEST SWAP2 SWAP1 POP SSTORE POP PUSH32 0x9DE0A6DD1DFD3E6EDA5E87572F845B6183A171DEBC4A266CF5C5EDDC77540983 DUP3 CALLER CALLVALUE PUSH1 0x40 MLOAD PUSH2 0x834 SWAP4 SWAP3 SWAP2 SWAP1 PUSH2 0x1448 JUMP JUMPDEST PUSH1 0x40 MLOAD DUP1 SWAP2 SUB SWAP1 LOG1 POP POP JUMP JUMPDEST PUSH1 0x1 SLOAD PUSH1 0x1 PUSH1 0x1 PUSH1 0xA0 SHL SUB AND CALLER EQ PUSH2 0x857 JUMPI PUSH1 0x0 DUP1 REVERT JUMPDEST PUSH1 0x0 DUP2 DUP2 MSTORE PUSH1 0x6 PUSH1 0x20 MSTORE PUSH1 0x40 SWAP1 KECCAK256 PUSH1 0x8 ADD SLOAD TIMESTAMP GT DUP1 ISZERO PUSH2 0x88F JUMPI POP PUSH1 0x0 DUP2 DUP2 MSTORE PUSH1 0x6 PUSH1 0x20 DUP2 SWAP1 MSTORE PUSH1 0x40 SWAP1 SWAP2 KECCAK256 SWAP1 DUP2 ADD SLOAD PUSH1 0x7 SWAP1 SWAP2 ADD SLOAD GT JUMPDEST PUSH2 0x8AB JUMPI PUSH1 0x40 MLOAD PUSH3 0x461BCD PUSH1 0xE5 SHL DUP2 MSTORE PUSH1 0x4 ADD PUSH2 0x5C1 SWAP1 PUSH2 0x12F7 JUMP JUMPDEST PUSH1 0x0 DUP2 DUP2 MSTORE PUSH1 0x6 PUSH1 0x20 MSTORE PUSH1 0x40 DUP1 DUP3 KECCAK256 PUSH1 0x7 ADD SLOAD SWAP1 MLOAD CALLER SWAP2 SWAP1 PUSH2 0x8CC SWAP1 PUSH2 0x130A JUMP JUMPDEST PUSH1 0x0 PUSH1 0x40 MLOAD DUP1 DUP4 SUB DUP2 DUP6 DUP8 GAS CALL SWAP3 POP POP POP RETURNDATASIZE DUP1 PUSH1 0x0 DUP2 EQ PUSH2 0x909 JUMPI PUSH1 0x40 MLOAD SWAP2 POP PUSH1 0x1F NOT PUSH1 0x3F RETURNDATASIZE ADD AND DUP3 ADD PUSH1 0x40 MSTORE RETURNDATASIZE DUP3 MSTORE RETURNDATASIZE PUSH1 0x0 PUSH1 0x20 DUP5 ADD RETURNDATACOPY PUSH2 0x90E JUMP JUMPDEST PUSH1 0x60 SWAP2 POP JUMPDEST POP POP SWAP1 POP DUP1 PUSH2 0x6B9 JUMPI PUSH1 0x40 MLOAD PUSH3 0x461BCD PUSH1 0xE5 SHL DUP2 MSTORE PUSH1 0x4 ADD PUSH2 0x5C1 SWAP1 PUSH2 0x136C JUMP JUMPDEST PUSH1 0x1 SLOAD PUSH1 0x1 PUSH1 0x1 PUSH1 0xA0 SHL SUB AND CALLER EQ PUSH2 0x946 JUMPI PUSH1 0x0 DUP1 REVERT JUMPDEST PUSH1 0x40 DUP1 MLOAD PUSH2 0x160 DUP2 ADD DUP3 MSTORE DUP10 DUP2 MSTORE PUSH1 0x20 DUP1 DUP3 ADD DUP11 DUP2 MSTORE DUP3 DUP5 ADD DUP11 SWAP1 MSTORE PUSH1 0x60 DUP4 ADD DUP10 SWAP1 MSTORE PUSH1 0x80 DUP4 ADD DUP9 SWAP1 MSTORE PUSH1 0xA0 DUP4 ADD DUP8 SWAP1 MSTORE PUSH1 0xC0 DUP4 ADD DUP7 SWAP1 MSTORE PUSH1 0x0 PUSH1 0xE0 DUP5 ADD DUP2 SWAP1 MSTORE PUSH2 0x100 DUP5 ADD DUP7 SWAP1 MSTORE PUSH2 0x120 DUP5 ADD DUP2 SWAP1 MSTORE PUSH2 0x140 DUP5 ADD DUP2 SWAP1 MSTORE DUP13 DUP2 MSTORE PUSH1 0x6 SWAP1 SWAP3 MSTORE SWAP3 SWAP1 KECCAK256 DUP2 MLOAD DUP2 SSTORE SWAP2 MLOAD SWAP1 SWAP2 DUP3 SWAP2 PUSH1 0x1 DUP3 ADD SWAP1 PUSH2 0x9C3 SWAP1 DUP3 PUSH2 0x1512 JUMP JUMPDEST POP PUSH1 0x40 DUP3 ADD MLOAD PUSH1 0x2 DUP3 ADD SWAP1 PUSH2 0x9D8 SWAP1 DUP3 PUSH2 0x1512 JUMP JUMPDEST POP PUSH1 0x60 DUP3 ADD MLOAD PUSH1 0x3 DUP3 ADD SWAP1 PUSH2 0x9ED SWAP1 DUP3 PUSH2 0x1512 JUMP JUMPDEST POP PUSH1 0x80 DUP3 ADD MLOAD PUSH1 0x4 DUP3 ADD SWAP1 PUSH2 0xA02 SWAP1 DUP3 PUSH2 0x1512 JUMP JUMPDEST POP PUSH1 0xA0 DUP3 ADD MLOAD PUSH1 0x5 DUP3 ADD SSTORE PUSH1 0xC0 DUP3 ADD MLOAD PUSH1 0x6 DUP3 ADD SSTORE PUSH1 0xE0 DUP3 ADD MLOAD PUSH1 0x7 DUP3 ADD SSTORE PUSH2 0x100 DUP3 ADD MLOAD PUSH1 0x8 DUP3 ADD SSTORE PUSH2 0x120 DUP3 ADD MLOAD PUSH1 0x9 DUP3 ADD SSTORE PUSH2 0x140 SWAP1 SWAP2 ADD MLOAD PUSH1 0xA SWAP1 SWAP2 ADD DUP1 SLOAD PUSH32 0xFFFFFFFFFFFFFFFFFFFFFFFFFFFFFFFFFFFFFFFFFFFFFFFFFFFFFFFFFFFFFF00 AND SWAP2 ISZERO ISZERO SWAP2 SWAP1 SWAP2 OR SWAP1 SSTORE PUSH1 0x2 SLOAD PUSH1 0x40 MLOAD PUSH32 0x8A9AC69DA6C9624863CC5677F1FFE445079DEB65237CCF9ADC3FA4B410B04268 SWAP2 PUSH2 0xAB4 SWAP2 DUP12 SWAP1 DUP12 SWAP1 DUP12 SWAP1 DUP12 SWAP1 DUP12 SWAP1 DUP12 SWAP1 DUP12 SWAP1 PUSH1 0x0 SWAP1 DUP2 SWAP1 PUSH2 0x15DF JUMP JUMPDEST PUSH1 0x40 MLOAD DUP1 SWAP2 SUB SWAP1 LOG1 PUSH1 0x2 DUP1 SLOAD SWAP1 PUSH1 0x0 PUSH2 0xACC DUP4 PUSH2 0x1392 JUMP JUMPDEST SWAP2 SWAP1 POP SSTORE POP POP POP POP POP POP POP POP POP POP JUMP JUMPDEST PUSH1 0x60 PUSH1 0x0 PUSH1 0x2 SLOAD PUSH8 0xFFFFFFFFFFFFFFFF DUP2 GT ISZERO PUSH2 0xAFB JUMPI PUSH2 0xAFB PUSH2 0xF0A JUMP JUMPDEST PUSH1 0x40 MLOAD SWAP1 DUP1 DUP3 MSTORE DUP1 PUSH1 0x20 MUL PUSH1 0x20 ADD DUP3 ADD PUSH1 0x40 MSTORE DUP1 ISZERO PUSH2 0xB24 JUMPI DUP2 PUSH1 0x20 ADD PUSH1 0x20 DUP3 MUL DUP1 CALLDATASIZE DUP4 CALLDATACOPY ADD SWAP1 POP JUMPDEST POP SWAP1 POP PUSH1 0x0 JUMPDEST PUSH1 0x2 SLOAD DUP2 LT ISZERO PUSH2 0xB89 JUMPI PUSH1 0x1 PUSH1 0x1 PUSH1 0xA0 SHL SUB DUP5 AND PUSH1 0x0 SWAP1 DUP2 MSTORE PUSH1 0x8 PUSH1 0x20 SWAP1 DUP2 MSTORE PUSH1 0x40 DUP1 DUP4 KECCAK256 DUP5 DUP5 MSTORE SWAP1 SWAP2 MSTORE SWAP1 KECCAK256 SLOAD DUP3 MLOAD DUP4 SWAP1 DUP4 SWAP1 DUP2 LT PUSH2 0xB6C JUMPI PUSH2 0xB6C PUSH2 0x1690 JUMP JUMPDEST PUSH1 0x20 SWAP1 DUP2 MUL SWAP2 SWAP1 SWAP2 ADD ADD MSTORE DUP1 PUSH2 0xB81 DUP2 PUSH2 0x1392 JUMP JUMPDEST SWAP2 POP POP PUSH2 0xB2A JUMP JUMPDEST POP SWAP3 SWAP2 POP POP JUMP JUMPDEST PUSH1 0x0 DUP2 DUP2 MSTORE PUSH1 0x6 PUSH1 0x20 MSTORE PUSH1 0x40 DUP2 KECCAK256 PUSH1 0x9 ADD SLOAD PUSH1 0x60 SWAP2 DUP3 SWAP2 PUSH8 0xFFFFFFFFFFFFFFFF DUP2 GT ISZERO PUSH2 0xBBF JUMPI PUSH2 0xBBF PUSH2 0xF0A JUMP JUMPDEST PUSH1 0x40 MLOAD SWAP1 DUP1 DUP3 MSTORE DUP1 PUSH1 0x20 MUL PUSH1 0x20 ADD DUP3 ADD PUSH1 0x40 MSTORE DUP1 ISZERO PUSH2 0xBE8 JUMPI DUP2 PUSH1 0x20 ADD PUSH1 0x20 DUP3 MUL DUP1 CALLDATASIZE DUP4 CALLDATACOPY ADD SWAP1 POP JUMPDEST POP PUSH1 0x0 DUP6 DUP2 MSTORE PUSH1 0x6 PUSH1 0x20 MSTORE PUSH1 0x40 DUP2 KECCAK256 PUSH1 0x9 ADD SLOAD SWAP2 SWAP3 POP SWAP1 PUSH8 0xFFFFFFFFFFFFFFFF DUP2 GT ISZERO PUSH2 0xC17 JUMPI PUSH2 0xC17 PUSH2 0xF0A JUMP JUMPDEST PUSH1 0x40 MLOAD SWAP1 DUP1 DUP3 MSTORE DUP1 PUSH1 0x20 MUL PUSH1 0x20 ADD DUP3 ADD PUSH1 0x40 MSTORE DUP1 ISZERO PUSH2 0xC40 JUMPI DUP2 PUSH1 0x20 ADD PUSH1 0x20 DUP3 MUL DUP1 CALLDATASIZE DUP4 CALLDATACOPY ADD SWAP1 POP JUMPDEST POP SWAP1 POP PUSH1 0x0 JUMPDEST PUSH1 0x0 DUP7 DUP2 MSTORE PUSH1 0x6 PUSH1 0x20 MSTORE PUSH1 0x40 SWAP1 KECCAK256 PUSH1 0x9 ADD SLOAD DUP2 LT ISZERO PUSH2 0xCFA JUMPI PUSH1 0x0 DUP7 DUP2 MSTORE PUSH1 0x7 PUSH1 0x20 SWAP1 DUP2 MSTORE PUSH1 0x40 DUP1 DUP4 KECCAK256 DUP5 DUP5 MSTORE SWAP1 SWAP2 MSTORE SWAP1 KECCAK256 SLOAD DUP4 MLOAD PUSH1 0x1 PUSH1 0x1 PUSH1 0xA0 SHL SUB SWAP1 SWAP2 AND SWAP1 DUP5 SWAP1 DUP4 SWAP1 DUP2 LT PUSH2 0xC99 JUMPI PUSH2 0xC99 PUSH2 0x1690 JUMP JUMPDEST PUSH1 0x1 PUSH1 0x1 PUSH1 0xA0 SHL SUB SWAP1 SWAP3 AND PUSH1 0x20 SWAP3 DUP4 MUL SWAP2 SWAP1 SWAP2 ADD DUP3 ADD MSTORE PUSH1 0x0 DUP8 DUP2 MSTORE PUSH1 0x7 DUP3 MSTORE PUSH1 0x40 DUP1 DUP3 KECCAK256 DUP5 DUP4 MSTORE SWAP1 SWAP3 MSTORE KECCAK256 PUSH1 0x1 ADD SLOAD DUP3 MLOAD DUP4 SWAP1 DUP4 SWAP1 DUP2 LT PUSH2 0xCDD JUMPI PUSH2 0xCDD PUSH2 0x1690 JUMP JUMPDEST PUSH1 0x20 SWAP1 DUP2 MUL SWAP2 SWAP1 SWAP2 ADD ADD MSTORE DUP1 PUSH2 0xCF2 DUP2 PUSH2 0x1392 JUMP JUMPDEST SWAP2 POP POP PUSH2 0xC46 JUMP JUMPDEST POP SWAP1 SWAP5 SWAP1 SWAP4 POP SWAP2 POP POP JUMP JUMPDEST DUP1 JUMPDEST DUP2 EQ PUSH2 0xD12 JUMPI PUSH1 0x0 DUP1 REVERT JUMPDEST POP JUMP JUMPDEST DUP1 CALLDATALOAD PUSH2 0xD20 DUP2 PUSH2 0xD05 JUMP JUMPDEST SWAP3 SWAP2 POP POP JUMP JUMPDEST PUSH1 0x0 PUSH1 0x20 DUP3 DUP5 SUB SLT ISZERO PUSH2 0xD3B JUMPI PUSH2 0xD3B PUSH1 0x0 DUP1 REVERT JUMPDEST PUSH1 0x0 PUSH2 0xD47 DUP5 DUP5 PUSH2 0xD15 JUMP JUMPDEST SWAP5 SWAP4 POP POP POP POP JUMP JUMPDEST DUP1 JUMPDEST DUP3 MSTORE POP POP JUMP JUMPDEST PUSH1 0x0 JUMPDEST DUP4 DUP2 LT ISZERO PUSH2 0xD72 JUMPI DUP2 DUP2 ADD MLOAD DUP4 DUP3 ADD MSTORE PUSH1 0x20 ADD PUSH2 0xD5A JUMP JUMPDEST POP POP PUSH1 0x0 SWAP2 ADD MSTORE JUMP JUMPDEST PUSH1 0x0 PUSH2 0xD85 DUP3 MLOAD SWAP1 JUMP JUMPDEST DUP1 DUP5 MSTORE PUSH1 0x20 DUP5 ADD SWAP4 POP PUSH2 0xD9C DUP2 DUP6 PUSH1 0x20 DUP7 ADD PUSH2 0xD57 JUMP JUMPDEST PUSH1 0x1F ADD PUSH1 0x1F NOT AND SWAP3 SWAP1 SWAP3 ADD SWAP3 SWAP2 POP POP JUMP JUMPDEST DUP1 ISZERO ISZERO PUSH2 0xD51 JUMP JUMPDEST PUSH2 0x160 DUP2 ADD PUSH2 0xDC4 DUP3 DUP15 PUSH2 0xD4F JUMP JUMPDEST DUP2 DUP2 SUB PUSH1 0x20 DUP4 ADD MSTORE PUSH2 0xDD6 DUP2 DUP14 PUSH2 0xD7B JUMP JUMPDEST SWAP1 POP DUP2 DUP2 SUB PUSH1 0x40 DUP4 ADD MSTORE PUSH2 0xDEA DUP2 DUP13 PUSH2 0xD7B JUMP JUMPDEST SWAP1 POP DUP2 DUP2 SUB PUSH1 0x60 DUP4 ADD MSTORE PUSH2 0xDFE DUP2 DUP12 PUSH2 0xD7B JUMP JUMPDEST SWAP1 POP DUP2 DUP2 SUB PUSH1 0x80 DUP4 ADD MSTORE PUSH2 0xE12 DUP2 DUP11 PUSH2 0xD7B JUMP JUMPDEST SWAP1 POP PUSH2 0xE21 PUSH1 0xA0 DUP4 ADD DUP10 PUSH2 0xD4F JUMP JUMPDEST PUSH2 0xE2E PUSH1 0xC0 DUP4 ADD DUP9 PUSH2 0xD4F JUMP JUMPDEST PUSH2 0xE3B PUSH1 0xE0 DUP4 ADD DUP8 PUSH2 0xD4F JUMP JUMPDEST PUSH2 0xE49 PUSH2 0x100 DUP4 ADD DUP7 PUSH2 0xD4F JUMP JUMPDEST PUSH2 0xE57 PUSH2 0x120 DUP4 ADD DUP6 PUSH2 0xD4F JUMP JUMPDEST PUSH2 0xE65 PUSH2 0x140 DUP4 ADD DUP5 PUSH2 0xDAD JUMP JUMPDEST SWAP13 SWAP12 POP POP POP POP POP POP POP POP POP POP POP POP JUMP JUMPDEST PUSH1 0x20 DUP2 ADD PUSH2 0xD20 DUP3 DUP5 PUSH2 0xD4F JUMP JUMPDEST PUSH1 0x0 PUSH1 0x1 PUSH1 0x1 PUSH1 0xA0 SHL SUB DUP3 AND PUSH2 0xD20 JUMP JUMPDEST PUSH2 0xD51 DUP2 PUSH2 0xE83 JUMP JUMPDEST PUSH1 0x20 DUP2 ADD PUSH2 0xD20 DUP3 DUP5 PUSH2 0xE94 JUMP JUMPDEST PUSH1 0x0 DUP1 PUSH1 0x40 DUP4 DUP6 SUB SLT ISZERO PUSH2 0xEC1 JUMPI PUSH2 0xEC1 PUSH1 0x0 DUP1 REVERT JUMPDEST PUSH1 0x0 PUSH2 0xECD DUP6 DUP6 PUSH2 0xD15 JUMP JUMPDEST SWAP3 POP POP PUSH1 0x20 PUSH2 0xEDE DUP6 DUP3 DUP7 ADD PUSH2 0xD15 JUMP JUMPDEST SWAP2 POP POP SWAP3 POP SWAP3 SWAP1 POP JUMP JUMPDEST PUSH1 0x40 DUP2 ADD PUSH2 0xEF6 DUP3 DUP6 PUSH2 0xE94 JUMP JUMPDEST PUSH2 0xF03 PUSH1 0x20 DUP4 ADD DUP5 PUSH2 0xD4F JUMP JUMPDEST SWAP4 SWAP3 POP POP POP JUMP JUMPDEST PUSH4 0x4E487B71 PUSH1 0xE0 SHL PUSH1 0x0 MSTORE PUSH1 0x41 PUSH1 0x4 MSTORE PUSH1 0x24 PUSH1 0x0 REVERT JUMPDEST PUSH1 0x1F NOT PUSH1 0x1F DUP4 ADD AND DUP2 ADD DUP2 DUP2 LT PUSH8 0xFFFFFFFFFFFFFFFF DUP3 GT OR ISZERO PUSH2 0xF46 JUMPI PUSH2 0xF46 PUSH2 0xF0A JUMP JUMPDEST PUSH1 0x40 MSTORE POP POP JUMP JUMPDEST PUSH1 0x0 PUSH2 0xF58 PUSH1 0x40 MLOAD SWAP1 JUMP JUMPDEST SWAP1 POP PUSH2 0xF64 DUP3 DUP3 PUSH2 0xF20 JUMP JUMPDEST SWAP2 SWAP1 POP JUMP JUMPDEST PUSH1 0x0 PUSH8 0xFFFFFFFFFFFFFFFF DUP3 GT ISZERO PUSH2 0xF83 JUMPI PUSH2 0xF83 PUSH2 0xF0A JUMP JUMPDEST PUSH1 0x1F NOT PUSH1 0x1F DUP4 ADD AND PUSH1 0x20 ADD SWAP3 SWAP2 POP POP JUMP JUMPDEST DUP3 DUP2 DUP4 CALLDATACOPY POP PUSH1 0x0 SWAP2 ADD MSTORE JUMP JUMPDEST PUSH1 0x0 PUSH2 0xFB3 PUSH2 0xFAE DUP5 PUSH2 0xF69 JUMP JUMPDEST PUSH2 0xF4D JUMP JUMPDEST SWAP1 POP DUP3 DUP2 MSTORE PUSH1 0x20 DUP2 ADD DUP5 DUP5 DUP5 ADD GT ISZERO PUSH2 0xFCE JUMPI PUSH2 0xFCE PUSH1 0x0 DUP1 REVERT JUMPDEST PUSH2 0xFD9 DUP5 DUP3 DUP6 PUSH2 0xF94 JUMP JUMPDEST POP SWAP4 SWAP3 POP POP POP JUMP JUMPDEST PUSH1 0x0 DUP3 PUSH1 0x1F DUP4 ADD SLT PUSH2 0xFF5 JUMPI PUSH2 0xFF5 PUSH1 0x0 DUP1 REVERT JUMPDEST DUP2 CALLDATALOAD PUSH2 0xD47 DUP5 DUP3 PUSH1 0x20 DUP7 ADD PUSH2 0xFA0 JUMP JUMPDEST PUSH1 0x0 DUP1 PUSH1 0x0 DUP1 PUSH1 0x0 DUP1 PUSH1 0x0 DUP1 PUSH2 0x100 DUP10 DUP12 SUB SLT ISZERO PUSH2 0x1025 JUMPI PUSH2 0x1025 PUSH1 0x0 DUP1 REVERT JUMPDEST PUSH1 0x0 PUSH2 0x1031 DUP12 DUP12 PUSH2 0xD15 JUMP JUMPDEST SWAP9 POP POP PUSH1 0x20 DUP10 ADD CALLDATALOAD PUSH8 0xFFFFFFFFFFFFFFFF DUP2 GT ISZERO PUSH2 0x1051 JUMPI PUSH2 0x1051 PUSH1 0x0 DUP1 REVERT JUMPDEST PUSH2 0x105D DUP12 DUP3 DUP13 ADD PUSH2 0xFE1 JUMP JUMPDEST SWAP8 POP POP PUSH1 0x40 DUP10 ADD CALLDATALOAD PUSH8 0xFFFFFFFFFFFFFFFF DUP2 GT ISZERO PUSH2 0x107D JUMPI PUSH2 0x107D PUSH1 0x0 DUP1 REVERT JUMPDEST PUSH2 0x1089 DUP12 DUP3 DUP13 ADD PUSH2 0xFE1 JUMP JUMPDEST SWAP7 POP POP PUSH1 0x60 DUP10 ADD CALLDATALOAD PUSH8 0xFFFFFFFFFFFFFFFF DUP2 GT ISZERO PUSH2 0x10A9 JUMPI PUSH2 0x10A9 PUSH1 0x0 DUP1 REVERT JUMPDEST PUSH2 0x10B5 DUP12 DUP3 DUP13 ADD PUSH2 0xFE1 JUMP JUMPDEST SWAP6 POP POP PUSH1 0x80 DUP10 ADD CALLDATALOAD PUSH8 0xFFFFFFFFFFFFFFFF DUP2 GT ISZERO PUSH2 0x10D5 JUMPI PUSH2 0x10D5 PUSH1 0x0 DUP1 REVERT JUMPDEST PUSH2 0x10E1 DUP12 DUP3 DUP13 ADD PUSH2 0xFE1 JUMP JUMPDEST SWAP5 POP POP PUSH1 0xA0 PUSH2 0x10F2 DUP12 DUP3 DUP13 ADD PUSH2 0xD15 JUMP JUMPDEST SWAP4 POP POP PUSH1 0xC0 PUSH2 0x1103 DUP12 DUP3 DUP13 ADD PUSH2 0xD15 JUMP JUMPDEST SWAP3 POP POP PUSH1 0xE0 PUSH2 0x1114 DUP12 DUP3 DUP13 ADD PUSH2 0xD15 JUMP JUMPDEST SWAP2 POP POP SWAP3 SWAP6 SWAP9 POP SWAP3 SWAP6 SWAP9 SWAP1 SWAP4 SWAP7 POP JUMP JUMPDEST PUSH2 0xD07 DUP2 PUSH2 0xE83 JUMP JUMPDEST DUP1 CALLDATALOAD PUSH2 0xD20 DUP2 PUSH2 0x1124 JUMP JUMPDEST PUSH1 0x0 PUSH1 0x20 DUP3 DUP5 SUB SLT ISZERO PUSH2 0x114D JUMPI PUSH2 0x114D PUSH1 0x0 DUP1 REVERT JUMPDEST PUSH1 0x0 PUSH2 0xD47 DUP5 DUP5 PUSH2 0x112D JUMP JUMPDEST PUSH1 0x0 PUSH2 0x1165 DUP4 DUP4 PUSH2 0xD4F JUMP JUMPDEST POP POP PUSH1 0x20 ADD SWAP1 JUMP JUMPDEST PUSH1 0x0 PUSH2 0x1177 DUP3 MLOAD SWAP1 JUMP JUMPDEST DUP1 DUP5 MSTORE PUSH1 0x20 SWAP4 DUP5 ADD SWAP4 DUP4 ADD DUP1 PUSH1 0x0 JUMPDEST DUP4 DUP2 LT ISZERO PUSH2 0x11AB JUMPI DUP2 MLOAD PUSH2 0x119A DUP9 DUP3 PUSH2 0x1159 JUMP JUMPDEST SWAP8 POP PUSH1 0x20 DUP4 ADD SWAP3 POP POP PUSH1 0x1 ADD PUSH2 0x1186 JUMP JUMPDEST POP SWAP5 SWAP6 SWAP5 POP POP POP POP POP JUMP JUMPDEST PUSH1 0x20 DUP1 DUP3 MSTORE DUP2 ADD PUSH2 0xF03 DUP2 DUP5 PUSH2 0x116D JUMP JUMPDEST PUSH1 0x0 PUSH2 0x1165 DUP4 DUP4 PUSH2 0xE94 JUMP JUMPDEST PUSH1 0x0 PUSH2 0x11DD DUP3 MLOAD SWAP1 JUMP JUMPDEST DUP1 DUP5 MSTORE PUSH1 0x20 SWAP4 DUP5 ADD SWAP4 DUP4 ADD DUP1 PUSH1 0x0 JUMPDEST DUP4 DUP2 LT ISZERO PUSH2 0x11AB JUMPI DUP2 MLOAD PUSH2 0x1200 DUP9 DUP3 PUSH2 0x11C7 JUMP JUMPDEST SWAP8 POP PUSH1 0x20 DUP4 ADD SWAP3 POP POP PUSH1 0x1 ADD PUSH2 0x11EC JUMP JUMPDEST PUSH1 0x40 DUP1 DUP3 MSTORE DUP2 ADD PUSH2 0x1222 DUP2 DUP6 PUSH2 0x11D3 JUMP JUMPDEST SWAP1 POP DUP2 DUP2 SUB PUSH1 0x20 DUP4 ADD MSTORE PUSH2 0xD47 DUP2 DUP5 PUSH2 0x116D JUMP JUMPDEST PUSH1 0x0 DUP1 PUSH1 0x40 DUP4 DUP6 SUB SLT ISZERO PUSH2 0x124C JUMPI PUSH2 0x124C PUSH1 0x0 DUP1 REVERT JUMPDEST PUSH1 0x0 PUSH2 0xECD DUP6 DUP6 PUSH2 0x112D JUMP JUMPDEST PUSH4 0x4E487B71 PUSH1 0xE0 SHL PUSH1 0x0 MSTORE PUSH1 0x22 PUSH1 0x4 MSTORE PUSH1 0x24 PUSH1 0x0 REVERT JUMPDEST PUSH1 0x2 DUP2 DIV PUSH1 0x1 DUP3 AND DUP1 PUSH2 0x1282 JUMPI PUSH1 0x7F DUP3 AND SWAP2 POP JUMPDEST PUSH1 0x20 DUP3 LT DUP2 SUB PUSH2 0x1294 JUMPI PUSH2 0x1294 PUSH2 0x1258 JUMP JUMPDEST POP SWAP2 SWAP1 POP JUMP JUMPDEST PUSH1 0x2C DUP2 MSTORE PUSH1 0x0 PUSH1 0x20 DUP3 ADD PUSH32 0x596F7520617265206E6F7420656C696769626C6520746F206765742072656675 DUP2 MSTORE PUSH32 0x6E64207269676874206E6F770000000000000000000000000000000000000000 PUSH1 0x20 DUP3 ADD MSTORE SWAP2 POP JUMPDEST POP PUSH1 0x40 ADD SWAP1 JUMP JUMPDEST PUSH1 0x20 DUP1 DUP3 MSTORE DUP2 ADD PUSH2 0xD20 DUP2 PUSH2 0x129A JUMP JUMPDEST SWAP1 JUMP JUMPDEST PUSH1 0x0 DUP2 PUSH2 0xD20 JUMP JUMPDEST PUSH1 0x2C DUP2 MSTORE PUSH1 0x0 PUSH1 0x20 DUP3 ADD PUSH32 0x4661696C656420746F2073656E6420757365722062616C616E6365206261636B DUP2 MSTORE PUSH32 0x20746F2074686520757365720000000000000000000000000000000000000000 PUSH1 0x20 DUP3 ADD MSTORE SWAP2 POP PUSH2 0x12F0 JUMP JUMPDEST PUSH1 0x20 DUP1 DUP3 MSTORE DUP2 ADD PUSH2 0xD20 DUP2 PUSH2 0x1312 JUMP JUMPDEST PUSH4 0x4E487B71 PUSH1 0xE0 SHL PUSH1 0x0 MSTORE PUSH1 0x11 PUSH1 0x4 MSTORE PUSH1 0x24 PUSH1 0x0 REVERT JUMPDEST PUSH1 0x0 PUSH1 0x0 NOT DUP3 SUB PUSH2 0x13A5 JUMPI PUSH2 0x13A5 PUSH2 0x137C JUMP JUMPDEST POP PUSH1 0x1 ADD SWAP1 JUMP JUMPDEST PUSH1 0x13 DUP2 MSTORE PUSH1 0x0 PUSH1 0x20 DUP3 ADD PUSH32 0x446561646C696E65206861732070617373656400000000000000000000000000 DUP2 MSTORE SWAP2 POP JUMPDEST POP PUSH1 0x20 ADD SWAP1 JUMP JUMPDEST PUSH1 0x20 DUP1 DUP3 MSTORE DUP2 ADD PUSH2 0xD20 DUP2 PUSH2 0x13AC JUMP JUMPDEST PUSH1 0x20 DUP1 DUP3 MSTORE PUSH32 0x4D696E696D756D20636F6E747269627574696F6E20686173206E6F74206D6574 SWAP2 ADD SWAP1 DUP2 MSTORE PUSH1 0x0 PUSH2 0x13DC JUMP JUMPDEST PUSH1 0x20 DUP1 DUP3 MSTORE DUP2 ADD PUSH2 0xD20 DUP2 PUSH2 0x13F3 JUMP JUMPDEST DUP1 DUP3 ADD DUP1 DUP3 GT ISZERO PUSH2 0xD20 JUMPI PUSH2 0xD20 PUSH2 0x137C JUMP JUMPDEST PUSH1 0x60 DUP2 ADD PUSH2 0x1456 DUP3 DUP7 PUSH2 0xD4F JUMP JUMPDEST PUSH2 0x1463 PUSH1 0x20 DUP4 ADD DUP6 PUSH2 0xE94 JUMP JUMPDEST PUSH2 0xD47 PUSH1 0x40 DUP4 ADD DUP5 PUSH2 0xD4F JUMP JUMPDEST PUSH1 0x0 PUSH2 0xD20 PUSH2 0x1307 DUP4 DUP2 JUMP JUMPDEST PUSH2 0x1485 DUP4 PUSH2 0x1470 JUMP JUMPDEST DUP2 SLOAD PUSH1 0x8 DUP5 MUL DUP3 DUP2 SHL PUSH1 0x0 NOT SWAP1 SWAP2 SHL SWAP1 DUP2 AND SWAP1 NOT SWAP1 SWAP2 AND OR DUP3 SSTORE POP POP POP POP JUMP JUMPDEST PUSH1 0x0 PUSH2 0x14B2 DUP2 DUP5 DUP5 PUSH2 0x147C JUMP JUMPDEST POP POP POP JUMP JUMPDEST DUP2 DUP2 LT ISZERO PUSH2 0x6B9 JUMPI PUSH2 0x14CA PUSH1 0x0 DUP3 PUSH2 0x14A5 JUMP JUMPDEST PUSH1 0x1 ADD PUSH2 0x14B7 JUMP JUMPDEST PUSH1 0x1F DUP3 GT ISZERO PUSH2 0x14B2 JUMPI PUSH1 0x0 DUP2 DUP2 MSTORE PUSH1 0x20 SWAP1 KECCAK256 PUSH1 0x20 PUSH1 0x1F DUP6 ADD DIV DUP2 ADD PUSH1 0x20 DUP6 LT ISZERO PUSH2 0x14F9 JUMPI POP DUP1 JUMPDEST PUSH2 0x150B PUSH1 0x20 PUSH1 0x1F DUP7 ADD DIV DUP4 ADD DUP3 PUSH2 0x14B7 JUMP JUMPDEST POP POP POP POP POP JUMP JUMPDEST DUP2 MLOAD PUSH8 0xFFFFFFFFFFFFFFFF DUP2 GT ISZERO PUSH2 0x152C JUMPI PUSH2 0x152C PUSH2 0xF0A JUMP JUMPDEST PUSH2 0x1536 DUP3 SLOAD PUSH2 0x126E JUMP JUMPDEST PUSH2 0x1541 DUP3 DUP3 DUP6 PUSH2 0x14D2 JUMP JUMPDEST PUSH1 0x20 PUSH1 0x1F DUP4 GT PUSH1 0x1 DUP2 EQ PUSH2 0x1575 JUMPI PUSH1 0x0 DUP5 ISZERO PUSH2 0x155D JUMPI POP DUP6 DUP3 ADD MLOAD JUMPDEST PUSH1 0x0 NOT PUSH1 0x8 DUP7 MUL SHR NOT DUP2 AND PUSH1 0x2 DUP7 MUL OR DUP7 SSTORE POP PUSH2 0x15CE JUMP JUMPDEST PUSH1 0x0 DUP6 DUP2 MSTORE PUSH1 0x20 DUP2 KECCAK256 PUSH1 0x1F NOT DUP7 AND SWAP2 JUMPDEST DUP3 DUP2 LT ISZERO PUSH2 0x15A5 JUMPI DUP9 DUP6 ADD MLOAD DUP3 SSTORE PUSH1 0x20 SWAP5 DUP6 ADD SWAP5 PUSH1 0x1 SWAP1 SWAP3 ADD SWAP2 ADD PUSH2 0x1585 JUMP JUMPDEST DUP7 DUP4 LT ISZERO PUSH2 0x15C1 JUMPI DUP5 DUP10 ADD MLOAD PUSH1 0x0 NOT PUSH1 0x1F DUP10 AND PUSH1 0x8 MUL SHR NOT AND DUP3 SSTORE JUMPDEST PUSH1 0x1 PUSH1 0x2 DUP9 MUL ADD DUP9 SSTORE POP POP POP JUMPDEST POP POP POP POP POP POP JUMP JUMPDEST PUSH2 0xD51 DUP2 PUSH2 0x1470 JUMP JUMPDEST PUSH2 0x140 DUP2 ADD PUSH2 0x15EE DUP3 DUP14 PUSH2 0xD4F JUMP JUMPDEST DUP2 DUP2 SUB PUSH1 0x20 DUP4 ADD MSTORE PUSH2 0x1600 DUP2 DUP13 PUSH2 0xD7B JUMP JUMPDEST SWAP1 POP DUP2 DUP2 SUB PUSH1 0x40 DUP4 ADD MSTORE PUSH2 0x1614 DUP2 DUP12 PUSH2 0xD7B JUMP JUMPDEST SWAP1 POP DUP2 DUP2 SUB PUSH1 0x60 DUP4 ADD MSTORE PUSH2 0x1628 DUP2 DUP11 PUSH2 0xD7B JUMP JUMPDEST SWAP1 POP DUP2 DUP2 SUB PUSH1 0x80 DUP4 ADD MSTORE PUSH2 0x163C DUP2 DUP10 PUSH2 0xD7B JUMP JUMPDEST SWAP1 POP PUSH2 0x164B PUSH1 0xA0 DUP4 ADD DUP9 PUSH2 0xD4F JUMP JUMPDEST PUSH2 0x1658 PUSH1 0xC0 DUP4 ADD DUP8 PUSH2 0xD4F JUMP JUMPDEST PUSH2 0x1665 PUSH1 0xE0 DUP4 ADD DUP7 PUSH2 0xD4F JUMP JUMPDEST PUSH2 0x1673 PUSH2 0x100 DUP4 ADD DUP6 PUSH2 0x15D6 JUMP JUMPDEST PUSH2 0x1681 PUSH2 0x120 DUP4 ADD DUP5 PUSH2 0xDAD JUMP JUMPDEST SWAP12 SWAP11 POP POP POP POP POP POP POP POP POP POP POP JUMP JUMPDEST PUSH4 0x4E487B71 PUSH1 0xE0 SHL PUSH1 0x0 MSTORE PUSH1 0x32 PUSH1 0x4 MSTORE PUSH1 0x24 PUSH1 0x0 REVERT INVALID LOG2 PUSH5 0x6970667358 0x22 SLT KECCAK256 SWAP8 PUSH16 0x7C5429D1FFD82AEE2E9772E0AA42294D 0xBF SWAP5 0x49 REVERT 0xDC 0xCE MSIZE SWAP14 MLOAD 0xD PUSH32 0xEBB23564736F6C63430008110033000000000000000000000000000000000000 "},"gasEstimates":{"creation":{"codeDepositCost":"1170400","executionCost":"126172","totalCost":"1296572"},"external":{"campaignContributions(uint256,uint256)":"infinite","campaignSuccess(uint256)":"infinite","campaigns(uint256)":"infinite","contributorContributions(address,uint256)":"infinite","getCampaignContributions(uint256)":"infinite","getContributorContributions(address)":"infinite","manager()":"infinite","noOfCampaigns()":"2429","payCampaign(uint256)":"infinite","refundAmt(uint256)":"infinite","totalContributions()":"2384","totalTrustCoins()":"2405","uploadCampaign(uint256,string,string,string,string,uint256,uint256,uint256)":"infinite"}},"methodIdentifiers":{"campaignContributions(uint256,uint256)":"539157bd","campaignSuccess(uint256)":"62b68dc4","campaigns(uint256)":"141961bc","contributorContributions(address,uint256)":"f6f219a5","getCampaignContributions(uint256)":"d3b0c32c","getContributorContributions(address)":"9f43f729","manager()":"481c6a75","noOfCampaigns()":"17818e59","payCampaign(uint256)":"42a4ed95","refundAmt(uint256)":"16559632","totalContributions()":"37c08923","totalTrustCoins()":"bef0cdaf","uploadCampaign(uint256,string,string,string,string,uint256,uint256,uint256)":"6897c137"}},"storageLayout":{"storage":[{"astId":4,"contract":"contracts/Crowdfunding.sol:Crowdfunding","label":"onewei","offset":0,"slot":"0","type":"t_uint256"},{"astId":6,"contract":"contracts/Crowdfunding.sol:Crowdfunding","label":"manager","offset":0,"slot":"1","type":"t_address_payable"},{"astId":9,"contract":"contracts/Crowdfunding.sol:Crowdfunding","label":"noOfCampaigns","offset":0,"slot":"2","type":"t_uint256"},{"astId":12,"contract":"contracts/Crowdfunding.sol:Crowdfunding","label":"totalContributions","offset":0,"slot":"3","type":"t_uint256"},{"astId":15,"contract":"contracts/Crowdfunding.sol:Crowdfunding","label":"totalTrustCoins","offset":0,"slot":"4","type":"t_uint256"},{"astId":19,"contract":"contracts/Crowdfunding.sol:Crowdfunding","label":"managerTrust","offset":0,"slot":"5","type":"t_mapping(t_address,t_uint256)"},{"astId":75,"contract":"contracts/Crowdfunding.sol:Crowdfunding","label":"campaigns","offset":0,"slot":"6","type":"t_mapping(t_uint256,t_struct(Campaign)47_storage)"},{"astId":82,"contract":"contracts/Crowdfunding.sol:Crowdfunding","label":"campaignContributions","offset":0,"slot":"7","type":"t_mapping(t_uint256,t_mapping(t_uint256,t_struct(Contributor)24_storage))"},{"astId":88,"contract":"contracts/Crowdfunding.sol:Crowdfunding","label":"contributorContributions","offset":0,"slot":"8","type":"t_mapping(t_address,t_mapping(t_uint256,t_uint256))"}],"types":{"t_address":{"encoding":"inplace","label":"address","numberOfBytes":"20"},"t_address_payable":{"encoding":"inplace","label":"address payable","numberOfBytes":"20"},"t_bool":{"encoding":"inplace","label":"bool","numberOfBytes":"1"},"t_mapping(t_address,t_mapping(t_uint256,t_uint256))":{"encoding":"mapping","key":"t_address","label":"mapping(address => mapping(uint256 => uint256))","numberOfBytes":"32","value":"t_mapping(t_uint256,t_uint256)"},"t_mapping(t_address,t_uint256)":{"encoding":"mapping","key":"t_address","label":"mapping(address => uint256)","numberOfBytes":"32","value":"t_uint256"},"t_mapping(t_uint256,t_mapping(t_uint256,t_struct(Contributor)24_storage))":{"encoding":"mapping","key":"t_uint256","label":"mapping(uint256 => mapping(uint256 => struct Crowdfunding.Contributor))","numberOfBytes":"32","value":"t_mapping(t_uint256,t_struct(Contributor)24_storage)"},"t_mapping(t_uint256,t_struct(Campaign)47_storage)":{"encoding":"mapping","key":"t_uint256","label":"mapping(uint256 => struct Crowdfunding.Campaign)","numberOfBytes":"32","value":"t_struct(Campaign)47_storage"},"t_mapping(t_uint256,t_struct(Contributor)24_storage)":{"encoding":"mapping","key":"t_uint256","label":"mapping(uint256 => struct Crowdfunding.Contributor)","numberOfBytes":"32","value":"t_struct(Contributor)24_storage"},"t_mapping(t_uint256,t_uint256)":{"encoding":"mapping","key":"t_uint256","label":"mapping(uint256 => uint256)","numberOfBytes":"32","value":"t_uint256"},"t_string_storage":{"encoding":"bytes","label":"string","numberOfBytes":"32"},"t_struct(Campaign)47_storage":{"encoding":"inplace","label":"struct Crowdfunding.Campaign","members":[{"astId":26,"contract":"contracts/Crowdfunding.sol:Crowdfunding","label":"ID","offset":0,"slot":"0","type":"t_uint256"},{"astId":28,"contract":"contracts/Crowdfunding.sol:Crowdfunding","label":"title","offset":0,"slot":"1","type":"t_string_storage"},{"astId":30,"contract":"contracts/Crowdfunding.sol:Crowdfunding","label":"description","offset":0,"slot":"2","type":"t_string_storage"},{"astId":32,"contract":"contracts/Crowdfunding.sol:Crowdfunding","label":"location","offset":0,"slot":"3","type":"t_string_storage"},{"astId":34,"contract":"contracts/Crowdfunding.sol:Crowdfunding","label":"category","offset":0,"slot":"4","type":"t_string_storage"},{"astId":36,"contract":"contracts/Crowdfunding.sol:Crowdfunding","label":"minContribution","offset":0,"slot":"5","type":"t_uint256"},{"astId":38,"contract":"contracts/Crowdfunding.sol:Crowdfunding","label":"goal","offset":0,"slot":"6","type":"t_uint256"},{"astId":40,"contract":"contracts/Crowdfunding.sol:Crowdfunding","label":"pledgedAmt","offset":0,"slot":"7","type":"t_uint256"},{"astId":42,"contract":"contracts/Crowdfunding.sol:Crowdfunding","label":"campaignDeadline","offset":0,"slot":"8","type":"t_uint256"},{"astId":44,"contract":"contracts/Crowdfunding.sol:Crowdfunding","label":"noOfContributions","offset":0,"slot":"9","type":"t_uint256"},{"astId":46,"contract":"contracts/Crowdfunding.sol:Crowdfunding","label":"claimed","offset":0,"slot":"10","type":"t_bool"}],"numberOfBytes":"352"},"t_struct(Contributor)24_storage":{"encoding":"inplace","label":"struct Crowdfunding.Contributor","members":[{"astId":21,"contract":"contracts/Crowdfunding.sol:Crowdfunding","label":"contributorAddress","offset":0,"slot":"0","type":"t_address"},{"astId":23,"contract":"contracts/Crowdfunding.sol:Crowdfunding","label":"amtContributed","offset":0,"slot":"1","type":"t_uint256"}],"numberOfBytes":"64"},"t_uint256":{"encoding":"inplace","label":"uint256","numberOfBytes":"32"}}},"userdoc":{"kind":"user","methods":{},"version":1}}}}