{"contracts/Crowdfunding.sol":{"Crowdfunding":{"abi":[{"inputs":[],"stateMutability":"payable","type":"constructor"},{"anonymous":false,"inputs":[{"indexed":false,"internalType":"uint256","name":"ID","type":"uint256"},{"indexed":false,"internalType":"string","name":"title","type":"string"},{"indexed":false,"internalType":"string","name":"description","type":"string"},{"indexed":false,"internalType":"string","name":"location","type":"string"},{"indexed":false,"internalType":"string","name":"category","type":"string"},{"indexed":false,"internalType":"uint256","name":"minContribution","type":"uint256"},{"indexed":false,"internalType":"uint256","name":"goal","type":"uint256"},{"indexed":false,"internalType":"uint256","name":"campaignDeadline","type":"uint256"},{"indexed":false,"internalType":"uint256","name":"noOfContributions","type":"uint256"},{"indexed":false,"internalType":"bool","name":"claimed","type":"bool"}],"name":"CampaignUploaded","type":"event"},{"anonymous":false,"inputs":[{"indexed":false,"internalType":"uint256","name":"id_","type":"uint256"},{"indexed":false,"internalType":"address","name":"contributor_","type":"address"},{"indexed":false,"internalType":"uint256","name":"amount_","type":"uint256"}],"name":"paidCampaign","type":"event"},{"inputs":[{"internalType":"uint256","name":"","type":"uint256"},{"internalType":"uint256","name":"","type":"uint256"}],"name":"campaignContributions","outputs":[{"internalType":"address","name":"contributorAddress","type":"address"},{"internalType":"uint256","name":"amtContributed","type":"uint256"}],"stateMutability":"view","type":"function"},{"inputs":[{"internalType":"uint256","name":"id_","type":"uint256"}],"name":"campaignSuccess","outputs":[],"stateMutability":"nonpayable","type":"function"},{"inputs":[{"internalType":"uint256","name":"","type":"uint256"}],"name":"campaigns","outputs":[{"internalType":"uint256","name":"ID","type":"uint256"},{"internalType":"string","name":"title","type":"string"},{"internalType":"string","name":"description","type":"string"},{"internalType":"string","name":"location","type":"string"},{"internalType":"string","name":"category","type":"string"},{"internalType":"uint256","name":"minContribution","type":"uint256"},{"internalType":"uint256","name":"goal","type":"uint256"},{"internalType":"uint256","name":"pledgedAmt","type":"uint256"},{"internalType":"uint256","name":"campaignDeadline","type":"uint256"},{"internalType":"uint256","name":"noOfContributions","type":"uint256"},{"internalType":"uint256","name":"voteCount","type":"uint256"},{"internalType":"bool","name":"claimed","type":"bool"}],"stateMutability":"view","type":"function"},{"inputs":[{"internalType":"address","name":"","type":"address"},{"internalType":"uint256","name":"","type":"uint256"}],"name":"contributorContributions","outputs":[{"internalType":"uint256","name":"","type":"uint256"}],"stateMutability":"view","type":"function"},{"inputs":[{"internalType":"uint256","name":"id_","type":"uint256"}],"name":"getCampaignContributions","outputs":[{"internalType":"address[]","name":"","type":"address[]"},{"internalType":"uint256[]","name":"","type":"uint256[]"}],"stateMutability":"view","type":"function"},{"inputs":[{"internalType":"address","name":"contributorAddress_","type":"address"}],"name":"getContributorContributions","outputs":[{"internalType":"uint256[]","name":"","type":"uint256[]"}],"stateMutability":"view","type":"function"},{"inputs":[],"name":"manager","outputs":[{"internalType":"address payable","name":"","type":"address"}],"stateMutability":"view","type":"function"},{"inputs":[],"name":"noOfCampaigns","outputs":[{"internalType":"uint256","name":"","type":"uint256"}],"stateMutability":"view","type":"function"},{"inputs":[{"internalType":"uint256","name":"id_","type":"uint256"}],"name":"payCampaign","outputs":[],"stateMutability":"payable","type":"function"},{"inputs":[{"internalType":"uint256","name":"id_","type":"uint256"}],"name":"refundAmt","outputs":[],"stateMutability":"nonpayable","type":"function"},{"inputs":[],"name":"totalContributions","outputs":[{"internalType":"uint256","name":"","type":"uint256"}],"stateMutability":"view","type":"function"},{"inputs":[],"name":"totalTrustCoins","outputs":[{"internalType":"uint256","name":"","type":"uint256"}],"stateMutability":"view","type":"function"},{"inputs":[{"internalType":"uint256","name":"id_","type":"uint256"},{"internalType":"string","name":"title_","type":"string"},{"internalType":"string","name":"description_","type":"string"},{"internalType":"string","name":"location_","type":"string"},{"internalType":"string","name":"category_","type":"string"},{"internalType":"uint256","name":"minContribution_","type":"uint256"},{"internalType":"uint256","name":"goal_","type":"uint256"},{"internalType":"uint256","name":"deadline_","type":"uint256"}],"name":"uploadCampaign","outputs":[],"stateMutability":"nonpayable","type":"function"},{"inputs":[{"internalType":"uint256","name":"campaignId","type":"uint256"}],"name":"vote","outputs":[],"stateMutability":"nonpayable","type":"function"},{"inputs":[{"internalType":"address","name":"","type":"address"},{"internalType":"uint256","name":"","type":"uint256"}],"name":"votes","outputs":[{"internalType":"bool","name":"","type":"bool"}],"stateMutability":"view","type":"function"}],"devdoc":{"kind":"dev","methods":{},"version":1},"evm":{"bytecode":{"linkReferences":{},"object":"608060409081526001600081815560028190556003819055620f4240600490815582546001600160a01b0319163390811790935591815260056020529182206101f4908190558154909290610055908490610076565b9091555061008f9050565b634e487b7160e01b600052601160045260246000fd5b8181038181111561008957610089610060565b92915050565b6117df8061009e6000396000f3fe6080604052600436106100e85760003560e01c8063539157bd1161008a5780639f43f729116100595780639f43f729146102ca578063bef0cdaf146102f7578063d3b0c32c1461030d578063f6f219a51461033b57600080fd5b8063539157bd146101e957806362b68dc4146102425780636897c137146102625780639f2524ee1461028257600080fd5b806317818e59116100c657806317818e591461017057806337c089231461019357806342a4ed95146101a9578063481c6a75146101bc57600080fd5b80630121b93f146100ed578063141961bc1461010f5780631655963214610150575b600080fd5b3480156100f957600080fd5b5061010d610108366004610e0c565b610373565b005b34801561011b57600080fd5b5061012f61012a366004610e0c565b6103de565b6040516101479c9b9a99989796959493929190610e9b565b60405180910390f35b34801561015c57600080fd5b5061010d61016b366004610e0c565b61065c565b34801561017c57600080fd5b5061018660025481565b6040516101479190610f6a565b34801561019f57600080fd5b5061018660035481565b61010d6101b7366004610e0c565b6107ac565b3480156101c857600080fd5b506001546101dc906001600160a01b031681565b6040516101479190610f92565b3480156101f557600080fd5b50610234610204366004610fa0565b6008602090815260009283526040808420909152908252902080546001909101546001600160a01b039091169082565b604051610147929190610fdd565b34801561024e57600080fd5b5061010d61025d366004610e0c565b610931565b34801561026e57600080fd5b5061010d61027d3660046110fa565b610a20565b34801561028e57600080fd5b506102bd61029d36600461122d565b600760209081526000928352604080842090915290825290205460ff1681565b604051610147919061124f565b3480156102d657600080fd5b506102ea6102e536600461125d565b610bc2565b60405161014791906112db565b34801561030357600080fd5b5061018660045481565b34801561031957600080fd5b5061032d610328366004610e0c565b610c76565b604051610147929190611336565b34801561034757600080fd5b5061018661035636600461122d565b600960209081526000928352604080842090915290825290205481565b33600090815260076020908152604080832084845290915290205460ff161561039b57600080fd5b3360009081526007602090815260408083208484528252808320805460ff1916600117905560069091528120600a018054916103d683611371565b919050555050565b60066020526000908152604090208054600182018054919291610400906113a1565b80601f016020809104026020016040519081016040528092919081815260200182805461042c906113a1565b80156104795780601f1061044e57610100808354040283529160200191610479565b820191906000526020600020905b81548152906001019060200180831161045c57829003601f168201915b50505050509080600201805461048e906113a1565b80601f01602080910402602001604051908101604052809291908181526020018280546104ba906113a1565b80156105075780601f106104dc57610100808354040283529160200191610507565b820191906000526020600020905b8154815290600101906020018083116104ea57829003601f168201915b50505050509080600301805461051c906113a1565b80601f0160208091040260200160405190810160405280929190818152602001828054610548906113a1565b80156105955780601f1061056a57610100808354040283529160200191610595565b820191906000526020600020905b81548152906001019060200180831161057857829003601f168201915b5050505050908060040180546105aa906113a1565b80601f01602080910402602001604051908101604052809291908181526020018280546105d6906113a1565b80156106235780601f106105f857610100808354040283529160200191610623565b820191906000526020600020905b81548152906001019060200180831161060657829003601f168201915b5050505060058301546006840154600785015460088601546009870154600a880154600b90980154969794969395509193909260ff168c565b600081815260066020526040902060080154421180156106945750600081815260066020819052604090912090810154600790910154105b6106b95760405162461bcd60e51b81526004016106b09061142a565b60405180910390fd5b60005b6000828152600660205260409020600901548110156107a8576000828152600860209081526040808320848452909152808220805460019091015491516001600160a01b039091169290839083906107139061143d565b60006040518083038185875af1925050503d8060008114610750576040519150601f19603f3d011682016040523d82523d6000602084013e610755565b606091505b50509050806107765760405162461bcd60e51b81526004016106b09061149f565b5050506000828152600860209081526040808320848452909152812060010155806107a081611371565b9150506106bc565b5050565b60008181526006602052604090206008015442106107dc5760405162461bcd60e51b81526004016106b0906114e6565b60008181526006602052604090206005015434101561080d5760405162461bcd60e51b81526004016106b090611528565b604080518082018252338082523460208084018290526000928352600981528483208684529052928120805492939290919061084a908490611538565b90915550506000828152600860209081526040808320600680845282852060098101548652918452918420855181547fffffffffffffffffffffffff0000000000000000000000000000000000000000166001600160a01b0390911617815585840151600190910155858452915260070180543492906108cb908490611538565b909155505060008281526006602052604081206009018054916108ed83611371565b91905055507f9de0a6dd1dfd3e6eda5e87572f845b6183a171debc4a266cf5c5eddc775409838233346040516109259392919061154b565b60405180910390a15050565b6001546001600160a01b0316331461094857600080fd5b600081815260066020526040902060080154421180156109805750600081815260066020819052604090912090810154600790910154115b61099c5760405162461bcd60e51b81526004016106b09061142a565b6000818152600660205260408082206007015490513391906109bd9061143d565b60006040518083038185875af1925050503d80600081146109fa576040519150601f19603f3d011682016040523d82523d6000602084013e6109ff565b606091505b50509050806107a85760405162461bcd60e51b81526004016106b09061149f565b6001546001600160a01b03163314610a3757600080fd5b604080516101808101825289815260208082018a81528284018a9052606083018990526080830188905260a0830187905260c08301869052600060e0840181905261010084018690526101208401819052610140840181905261016084018190528c81526006909252929020815181559151909182916001820190610abc9082611615565b5060408201516002820190610ad19082611615565b5060608201516003820190610ae69082611615565b5060808201516004820190610afb9082611615565b5060a0820151600582015560c0820151600682015560e0820151600782015561010082015160088201556101208201516009820155610140820151600a82015561016090910151600b909101805460ff19169115159190911790556002546040517f8a9ac69da6c9624863cc5677f1ffe445079deb65237ccf9adc3fa4b410b0426891610b9a918b908b908b908b908b908b908b9060009081906116e2565b60405180910390a160028054906000610bb283611371565b9190505550505050505050505050565b6060600060025467ffffffffffffffff811115610be157610be1610fff565b604051908082528060200260200182016040528015610c0a578160200160208202803683370190505b50905060005b600254811015610c6f576001600160a01b03841660009081526009602090815260408083208484529091529020548251839083908110610c5257610c52611793565b602090810291909101015280610c6781611371565b915050610c10565b5092915050565b600081815260066020526040812060090154606091829167ffffffffffffffff811115610ca557610ca5610fff565b604051908082528060200260200182016040528015610cce578160200160208202803683370190505b506000858152600660205260408120600901549192509067ffffffffffffffff811115610cfd57610cfd610fff565b604051908082528060200260200182016040528015610d26578160200160208202803683370190505b50905060005b600086815260066020526040902060090154811015610de057600086815260086020908152604080832084845290915290205483516001600160a01b0390911690849083908110610d7f57610d7f611793565b6001600160a01b03909216602092830291909101820152600087815260088252604080822084835290925220600101548251839083908110610dc357610dc3611793565b602090810291909101015280610dd881611371565b915050610d2c565b509094909350915050565b805b8114610df857600080fd5b50565b8035610e0681610deb565b92915050565b600060208284031215610e2157610e21600080fd5b6000610e2d8484610dfb565b949350505050565b805b82525050565b60005b83811015610e58578181015183820152602001610e40565b50506000910152565b6000610e6b825190565b808452602084019350610e82818560208601610e3d565b601f01601f19169290920192915050565b801515610e37565b6101808101610eaa828f610e35565b8181036020830152610ebc818e610e61565b90508181036040830152610ed0818d610e61565b90508181036060830152610ee4818c610e61565b90508181036080830152610ef8818b610e61565b9050610f0760a083018a610e35565b610f1460c0830189610e35565b610f2160e0830188610e35565b610f2f610100830187610e35565b610f3d610120830186610e35565b610f4b610140830185610e35565b610f59610160830184610e93565b9d9c50505050505050505050505050565b60208101610e068284610e35565b60006001600160a01b038216610e06565b610e3781610f78565b60208101610e068284610f89565b60008060408385031215610fb657610fb6600080fd5b6000610fc28585610dfb565b9250506020610fd385828601610dfb565b9150509250929050565b60408101610feb8285610f89565b610ff86020830184610e35565b9392505050565b634e487b7160e01b600052604160045260246000fd5b601f19601f830116810181811067ffffffffffffffff8211171561103b5761103b610fff565b6040525050565b600061104d60405190565b90506110598282611015565b919050565b600067ffffffffffffffff82111561107857611078610fff565b601f19601f83011660200192915050565b82818337506000910152565b60006110a86110a38461105e565b611042565b9050828152602081018484840111156110c3576110c3600080fd5b6110ce848285611089565b509392505050565b600082601f8301126110ea576110ea600080fd5b8135610e2d848260208601611095565b600080600080600080600080610100898b03121561111a5761111a600080fd5b60006111268b8b610dfb565b985050602089013567ffffffffffffffff81111561114657611146600080fd5b6111528b828c016110d6565b975050604089013567ffffffffffffffff81111561117257611172600080fd5b61117e8b828c016110d6565b965050606089013567ffffffffffffffff81111561119e5761119e600080fd5b6111aa8b828c016110d6565b955050608089013567ffffffffffffffff8111156111ca576111ca600080fd5b6111d68b828c016110d6565b94505060a06111e78b828c01610dfb565b93505060c06111f88b828c01610dfb565b92505060e06112098b828c01610dfb565b9150509295985092959890939650565b610ded81610f78565b8035610e0681611219565b6000806040838503121561124357611243600080fd5b6000610fc28585611222565b60208101610e068284610e93565b60006020828403121561127257611272600080fd5b6000610e2d8484611222565b600061128a8383610e35565b505060200190565b600061129c825190565b80845260209384019383018060005b838110156112d05781516112bf888261127e565b9750602083019250506001016112ab565b509495945050505050565b60208082528101610ff88184611292565b600061128a8383610f89565b6000611302825190565b80845260209384019383018060005b838110156112d057815161132588826112ec565b975060208301925050600101611311565b6040808252810161134781856112f8565b90508181036020830152610e2d8184611292565b634e487b7160e01b600052601160045260246000fd5b600060001982036113845761138461135b565b5060010190565b634e487b7160e01b600052602260045260246000fd5b6002810460018216806113b557607f821691505b6020821081036113c7576113c761138b565b50919050565b602c81526000602082017f596f7520617265206e6f7420656c696769626c6520746f20676574207265667581527f6e64207269676874206e6f770000000000000000000000000000000000000000602082015291505b5060400190565b60208082528101610e06816113cd565b90565b600081610e06565b602c81526000602082017f4661696c656420746f2073656e6420757365722062616c616e6365206261636b81527f20746f207468652075736572000000000000000000000000000000000000000060208201529150611423565b60208082528101610e0681611445565b601381526000602082017f446561646c696e65206861732070617373656400000000000000000000000000815291505b5060200190565b60208082528101610e06816114af565b60208082527f4d696e696d756d20636f6e747269627574696f6e20686173206e6f74206d6574910190815260006114df565b60208082528101610e06816114f6565b80820180821115610e0657610e0661135b565b606081016115598286610e35565b6115666020830185610f89565b610e2d6040830184610e35565b6000610e0661143a8381565b61158883611573565b81546008840282811b60001990911b908116901990911617825550505050565b60006115b581848461157f565b505050565b818110156107a8576115cd6000826115a8565b6001016115ba565b601f8211156115b5576000818152602090206020601f850104810160208510156115fc5750805b61160e6020601f8601048301826115ba565b5050505050565b815167ffffffffffffffff81111561162f5761162f610fff565b61163982546113a1565b6116448282856115d5565b6020601f83116001811461167857600084156116605750858201515b600019600886021c19811660028602178655506116d1565b600085815260208120601f198616915b828110156116a85788850151825560209485019460019092019101611688565b868310156116c45784890151600019601f89166008021c191682555b6001600288020188555050505b505050505050565b610e3781611573565b61014081016116f1828d610e35565b8181036020830152611703818c610e61565b90508181036040830152611717818b610e61565b9050818103606083015261172b818a610e61565b9050818103608083015261173f8189610e61565b905061174e60a0830188610e35565b61175b60c0830187610e35565b61176860e0830186610e35565b6117766101008301856116d9565b611784610120830184610e93565b9b9a5050505050505050505050565b634e487b7160e01b600052603260045260246000fdfea26469706673582212206ee03d4bdd2a3c3b6b5a02e08c33969dc5f79ee1b34a2f277ba557b03916c67764736f6c63430008110033","opcodes":"PUSH1 0x80 PUSH1 0x40 SWAP1 DUP2 MSTORE PUSH1 0x1 PUSH1 0x0 DUP2 DUP2 SSTORE PUSH1 0x2 DUP2 SWAP1 SSTORE PUSH1 0x3 DUP2 SWAP1 SSTORE PUSH3 0xF4240 PUSH1 0x4 SWAP1 DUP2 SSTORE DUP3 SLOAD PUSH1 0x1 PUSH1 0x1 PUSH1 0xA0 SHL SUB NOT AND CALLER SWAP1 DUP2 OR SWAP1 SWAP4 SSTORE SWAP2 DUP2 MSTORE PUSH1 0x5 PUSH1 0x20 MSTORE SWAP2 DUP3 KECCAK256 PUSH2 0x1F4 SWAP1 DUP2 SWAP1 SSTORE DUP2 SLOAD SWAP1 SWAP3 SWAP1 PUSH2 0x55 SWAP1 DUP5 SWAP1 PUSH2 0x76 JUMP JUMPDEST SWAP1 SWAP2 SSTORE POP PUSH2 0x8F SWAP1 POP JUMP JUMPDEST PUSH4 0x4E487B71 PUSH1 0xE0 SHL PUSH1 0x0 MSTORE PUSH1 0x11 PUSH1 0x4 MSTORE PUSH1 0x24 PUSH1 0x0 REVERT JUMPDEST DUP2 DUP2 SUB DUP2 DUP2 GT ISZERO PUSH2 0x89 JUMPI PUSH2 0x89 PUSH2 0x60 JUMP JUMPDEST SWAP3 SWAP2 POP POP JUMP JUMPDEST PUSH2 0x17DF DUP1 PUSH2 0x9E PUSH1 0x0 CODECOPY PUSH1 0x0 RETURN INVALID PUSH1 0x80 PUSH1 0x40 MSTORE PUSH1 0x4 CALLDATASIZE LT PUSH2 0xE8 JUMPI PUSH1 0x0 CALLDATALOAD PUSH1 0xE0 SHR DUP1 PUSH4 0x539157BD GT PUSH2 0x8A JUMPI DUP1 PUSH4 0x9F43F729 GT PUSH2 0x59 JUMPI DUP1 PUSH4 0x9F43F729 EQ PUSH2 0x2CA JUMPI DUP1 PUSH4 0xBEF0CDAF EQ PUSH2 0x2F7 JUMPI DUP1 PUSH4 0xD3B0C32C EQ PUSH2 0x30D JUMPI DUP1 PUSH4 0xF6F219A5 EQ PUSH2 0x33B JUMPI PUSH1 0x0 DUP1 REVERT JUMPDEST DUP1 PUSH4 0x539157BD EQ PUSH2 0x1E9 JUMPI DUP1 PUSH4 0x62B68DC4 EQ PUSH2 0x242 JUMPI DUP1 PUSH4 0x6897C137 EQ PUSH2 0x262 JUMPI DUP1 PUSH4 0x9F2524EE EQ PUSH2 0x282 JUMPI PUSH1 0x0 DUP1 REVERT JUMPDEST DUP1 PUSH4 0x17818E59 GT PUSH2 0xC6 JUMPI DUP1 PUSH4 0x17818E59 EQ PUSH2 0x170 JUMPI DUP1 PUSH4 0x37C08923 EQ PUSH2 0x193 JUMPI DUP1 PUSH4 0x42A4ED95 EQ PUSH2 0x1A9 JUMPI DUP1 PUSH4 0x481C6A75 EQ PUSH2 0x1BC JUMPI PUSH1 0x0 DUP1 REVERT JUMPDEST DUP1 PUSH4 0x121B93F EQ PUSH2 0xED JUMPI DUP1 PUSH4 0x141961BC EQ PUSH2 0x10F JUMPI DUP1 PUSH4 0x16559632 EQ PUSH2 0x150 JUMPI JUMPDEST PUSH1 0x0 DUP1 REVERT JUMPDEST CALLVALUE DUP1 ISZERO PUSH2 0xF9 JUMPI PUSH1 0x0 DUP1 REVERT JUMPDEST POP PUSH2 0x10D PUSH2 0x108 CALLDATASIZE PUSH1 0x4 PUSH2 0xE0C JUMP JUMPDEST PUSH2 0x373 JUMP JUMPDEST STOP JUMPDEST CALLVALUE DUP1 ISZERO PUSH2 0x11B JUMPI PUSH1 0x0 DUP1 REVERT JUMPDEST POP PUSH2 0x12F PUSH2 0x12A CALLDATASIZE PUSH1 0x4 PUSH2 0xE0C JUMP JUMPDEST PUSH2 0x3DE JUMP JUMPDEST PUSH1 0x40 MLOAD PUSH2 0x147 SWAP13 SWAP12 SWAP11 SWAP10 SWAP9 SWAP8 SWAP7 SWAP6 SWAP5 SWAP4 SWAP3 SWAP2 SWAP1 PUSH2 0xE9B JUMP JUMPDEST PUSH1 0x40 MLOAD DUP1 SWAP2 SUB SWAP1 RETURN JUMPDEST CALLVALUE DUP1 ISZERO PUSH2 0x15C JUMPI PUSH1 0x0 DUP1 REVERT JUMPDEST POP PUSH2 0x10D PUSH2 0x16B CALLDATASIZE PUSH1 0x4 PUSH2 0xE0C JUMP JUMPDEST PUSH2 0x65C JUMP JUMPDEST CALLVALUE DUP1 ISZERO PUSH2 0x17C JUMPI PUSH1 0x0 DUP1 REVERT JUMPDEST POP PUSH2 0x186 PUSH1 0x2 SLOAD DUP2 JUMP JUMPDEST PUSH1 0x40 MLOAD PUSH2 0x147 SWAP2 SWAP1 PUSH2 0xF6A JUMP JUMPDEST CALLVALUE DUP1 ISZERO PUSH2 0x19F JUMPI PUSH1 0x0 DUP1 REVERT JUMPDEST POP PUSH2 0x186 PUSH1 0x3 SLOAD DUP2 JUMP JUMPDEST PUSH2 0x10D PUSH2 0x1B7 CALLDATASIZE PUSH1 0x4 PUSH2 0xE0C JUMP JUMPDEST PUSH2 0x7AC JUMP JUMPDEST CALLVALUE DUP1 ISZERO PUSH2 0x1C8 JUMPI PUSH1 0x0 DUP1 REVERT JUMPDEST POP PUSH1 0x1 SLOAD PUSH2 0x1DC SWAP1 PUSH1 0x1 PUSH1 0x1 PUSH1 0xA0 SHL SUB AND DUP2 JUMP JUMPDEST PUSH1 0x40 MLOAD PUSH2 0x147 SWAP2 SWAP1 PUSH2 0xF92 JUMP JUMPDEST CALLVALUE DUP1 ISZERO PUSH2 0x1F5 JUMPI PUSH1 0x0 DUP1 REVERT JUMPDEST POP PUSH2 0x234 PUSH2 0x204 CALLDATASIZE PUSH1 0x4 PUSH2 0xFA0 JUMP JUMPDEST PUSH1 0x8 PUSH1 0x20 SWAP1 DUP2 MSTORE PUSH1 0x0 SWAP3 DUP4 MSTORE PUSH1 0x40 DUP1 DUP5 KECCAK256 SWAP1 SWAP2 MSTORE SWAP1 DUP3 MSTORE SWAP1 KECCAK256 DUP1 SLOAD PUSH1 0x1 SWAP1 SWAP2 ADD SLOAD PUSH1 0x1 PUSH1 0x1 PUSH1 0xA0 SHL SUB SWAP1 SWAP2 AND SWAP1 DUP3 JUMP JUMPDEST PUSH1 0x40 MLOAD PUSH2 0x147 SWAP3 SWAP2 SWAP1 PUSH2 0xFDD JUMP JUMPDEST CALLVALUE DUP1 ISZERO PUSH2 0x24E JUMPI PUSH1 0x0 DUP1 REVERT JUMPDEST POP PUSH2 0x10D PUSH2 0x25D CALLDATASIZE PUSH1 0x4 PUSH2 0xE0C JUMP JUMPDEST PUSH2 0x931 JUMP JUMPDEST CALLVALUE DUP1 ISZERO PUSH2 0x26E JUMPI PUSH1 0x0 DUP1 REVERT JUMPDEST POP PUSH2 0x10D PUSH2 0x27D CALLDATASIZE PUSH1 0x4 PUSH2 0x10FA JUMP JUMPDEST PUSH2 0xA20 JUMP JUMPDEST CALLVALUE DUP1 ISZERO PUSH2 0x28E JUMPI PUSH1 0x0 DUP1 REVERT JUMPDEST POP PUSH2 0x2BD PUSH2 0x29D CALLDATASIZE PUSH1 0x4 PUSH2 0x122D JUMP JUMPDEST PUSH1 0x7 PUSH1 0x20 SWAP1 DUP2 MSTORE PUSH1 0x0 SWAP3 DUP4 MSTORE PUSH1 0x40 DUP1 DUP5 KECCAK256 SWAP1 SWAP2 MSTORE SWAP1 DUP3 MSTORE SWAP1 KECCAK256 SLOAD PUSH1 0xFF AND DUP2 JUMP JUMPDEST PUSH1 0x40 MLOAD PUSH2 0x147 SWAP2 SWAP1 PUSH2 0x124F JUMP JUMPDEST CALLVALUE DUP1 ISZERO PUSH2 0x2D6 JUMPI PUSH1 0x0 DUP1 REVERT JUMPDEST POP PUSH2 0x2EA PUSH2 0x2E5 CALLDATASIZE PUSH1 0x4 PUSH2 0x125D JUMP JUMPDEST PUSH2 0xBC2 JUMP JUMPDEST PUSH1 0x40 MLOAD PUSH2 0x147 SWAP2 SWAP1 PUSH2 0x12DB JUMP JUMPDEST CALLVALUE DUP1 ISZERO PUSH2 0x303 JUMPI PUSH1 0x0 DUP1 REVERT JUMPDEST POP PUSH2 0x186 PUSH1 0x4 SLOAD DUP2 JUMP JUMPDEST CALLVALUE DUP1 ISZERO PUSH2 0x319 JUMPI PUSH1 0x0 DUP1 REVERT JUMPDEST POP PUSH2 0x32D PUSH2 0x328 CALLDATASIZE PUSH1 0x4 PUSH2 0xE0C JUMP JUMPDEST PUSH2 0xC76 JUMP JUMPDEST PUSH1 0x40 MLOAD PUSH2 0x147 SWAP3 SWAP2 SWAP1 PUSH2 0x1336 JUMP JUMPDEST CALLVALUE DUP1 ISZERO PUSH2 0x347 JUMPI PUSH1 0x0 DUP1 REVERT JUMPDEST POP PUSH2 0x186 PUSH2 0x356 CALLDATASIZE PUSH1 0x4 PUSH2 0x122D JUMP JUMPDEST PUSH1 0x9 PUSH1 0x20 SWAP1 DUP2 MSTORE PUSH1 0x0 SWAP3 DUP4 MSTORE PUSH1 0x40 DUP1 DUP5 KECCAK256 SWAP1 SWAP2 MSTORE SWAP1 DUP3 MSTORE SWAP1 KECCAK256 SLOAD DUP2 JUMP JUMPDEST CALLER PUSH1 0x0 SWAP1 DUP2 MSTORE PUSH1 0x7 PUSH1 0x20 SWAP1 DUP2 MSTORE PUSH1 0x40 DUP1 DUP4 KECCAK256 DUP5 DUP5 MSTORE SWAP1 SWAP2 MSTORE SWAP1 KECCAK256 SLOAD PUSH1 0xFF AND ISZERO PUSH2 0x39B JUMPI PUSH1 0x0 DUP1 REVERT JUMPDEST CALLER PUSH1 0x0 SWAP1 DUP2 MSTORE PUSH1 0x7 PUSH1 0x20 SWAP1 DUP2 MSTORE PUSH1 0x40 DUP1 DUP4 KECCAK256 DUP5 DUP5 MSTORE DUP3 MSTORE DUP1 DUP4 KECCAK256 DUP1 SLOAD PUSH1 0xFF NOT AND PUSH1 0x1 OR SWAP1 SSTORE PUSH1 0x6 SWAP1 SWAP2 MSTORE DUP2 KECCAK256 PUSH1 0xA ADD DUP1 SLOAD SWAP2 PUSH2 0x3D6 DUP4 PUSH2 0x1371 JUMP JUMPDEST SWAP2 SWAP1 POP SSTORE POP POP JUMP JUMPDEST PUSH1 0x6 PUSH1 0x20 MSTORE PUSH1 0x0 SWAP1 DUP2 MSTORE PUSH1 0x40 SWAP1 KECCAK256 DUP1 SLOAD PUSH1 0x1 DUP3 ADD DUP1 SLOAD SWAP2 SWAP3 SWAP2 PUSH2 0x400 SWAP1 PUSH2 0x13A1 JUMP JUMPDEST DUP1 PUSH1 0x1F ADD PUSH1 0x20 DUP1 SWAP2 DIV MUL PUSH1 0x20 ADD PUSH1 0x40 MLOAD SWAP1 DUP2 ADD PUSH1 0x40 MSTORE DUP1 SWAP3 SWAP2 SWAP1 DUP2 DUP2 MSTORE PUSH1 0x20 ADD DUP3 DUP1 SLOAD PUSH2 0x42C SWAP1 PUSH2 0x13A1 JUMP JUMPDEST DUP1 ISZERO PUSH2 0x479 JUMPI DUP1 PUSH1 0x1F LT PUSH2 0x44E JUMPI PUSH2 0x100 DUP1 DUP4 SLOAD DIV MUL DUP4 MSTORE SWAP2 PUSH1 0x20 ADD SWAP2 PUSH2 0x479 JUMP JUMPDEST DUP3 ADD SWAP2 SWAP1 PUSH1 0x0 MSTORE PUSH1 0x20 PUSH1 0x0 KECCAK256 SWAP1 JUMPDEST DUP2 SLOAD DUP2 MSTORE SWAP1 PUSH1 0x1 ADD SWAP1 PUSH1 0x20 ADD DUP1 DUP4 GT PUSH2 0x45C JUMPI DUP3 SWAP1 SUB PUSH1 0x1F AND DUP3 ADD SWAP2 JUMPDEST POP POP POP POP POP SWAP1 DUP1 PUSH1 0x2 ADD DUP1 SLOAD PUSH2 0x48E SWAP1 PUSH2 0x13A1 JUMP JUMPDEST DUP1 PUSH1 0x1F ADD PUSH1 0x20 DUP1 SWAP2 DIV MUL PUSH1 0x20 ADD PUSH1 0x40 MLOAD SWAP1 DUP2 ADD PUSH1 0x40 MSTORE DUP1 SWAP3 SWAP2 SWAP1 DUP2 DUP2 MSTORE PUSH1 0x20 ADD DUP3 DUP1 SLOAD PUSH2 0x4BA SWAP1 PUSH2 0x13A1 JUMP JUMPDEST DUP1 ISZERO PUSH2 0x507 JUMPI DUP1 PUSH1 0x1F LT PUSH2 0x4DC JUMPI PUSH2 0x100 DUP1 DUP4 SLOAD DIV MUL DUP4 MSTORE SWAP2 PUSH1 0x20 ADD SWAP2 PUSH2 0x507 JUMP JUMPDEST DUP3 ADD SWAP2 SWAP1 PUSH1 0x0 MSTORE PUSH1 0x20 PUSH1 0x0 KECCAK256 SWAP1 JUMPDEST DUP2 SLOAD DUP2 MSTORE SWAP1 PUSH1 0x1 ADD SWAP1 PUSH1 0x20 ADD DUP1 DUP4 GT PUSH2 0x4EA JUMPI DUP3 SWAP1 SUB PUSH1 0x1F AND DUP3 ADD SWAP2 JUMPDEST POP POP POP POP POP SWAP1 DUP1 PUSH1 0x3 ADD DUP1 SLOAD PUSH2 0x51C SWAP1 PUSH2 0x13A1 JUMP JUMPDEST DUP1 PUSH1 0x1F ADD PUSH1 0x20 DUP1 SWAP2 DIV MUL PUSH1 0x20 ADD PUSH1 0x40 MLOAD SWAP1 DUP2 ADD PUSH1 0x40 MSTORE DUP1 SWAP3 SWAP2 SWAP1 DUP2 DUP2 MSTORE PUSH1 0x20 ADD DUP3 DUP1 SLOAD PUSH2 0x548 SWAP1 PUSH2 0x13A1 JUMP JUMPDEST DUP1 ISZERO PUSH2 0x595 JUMPI DUP1 PUSH1 0x1F LT PUSH2 0x56A JUMPI PUSH2 0x100 DUP1 DUP4 SLOAD DIV MUL DUP4 MSTORE SWAP2 PUSH1 0x20 ADD SWAP2 PUSH2 0x595 JUMP JUMPDEST DUP3 ADD SWAP2 SWAP1 PUSH1 0x0 MSTORE PUSH1 0x20 PUSH1 0x0 KECCAK256 SWAP1 JUMPDEST DUP2 SLOAD DUP2 MSTORE SWAP1 PUSH1 0x1 ADD SWAP1 PUSH1 0x20 ADD DUP1 DUP4 GT PUSH2 0x578 JUMPI DUP3 SWAP1 SUB PUSH1 0x1F AND DUP3 ADD SWAP2 JUMPDEST POP POP POP POP POP SWAP1 DUP1 PUSH1 0x4 ADD DUP1 SLOAD PUSH2 0x5AA SWAP1 PUSH2 0x13A1 JUMP JUMPDEST DUP1 PUSH1 0x1F ADD PUSH1 0x20 DUP1 SWAP2 DIV MUL PUSH1 0x20 ADD PUSH1 0x40 MLOAD SWAP1 DUP2 ADD PUSH1 0x40 MSTORE DUP1 SWAP3 SWAP2 SWAP1 DUP2 DUP2 MSTORE PUSH1 0x20 ADD DUP3 DUP1 SLOAD PUSH2 0x5D6 SWAP1 PUSH2 0x13A1 JUMP JUMPDEST DUP1 ISZERO PUSH2 0x623 JUMPI DUP1 PUSH1 0x1F LT PUSH2 0x5F8 JUMPI PUSH2 0x100 DUP1 DUP4 SLOAD DIV MUL DUP4 MSTORE SWAP2 PUSH1 0x20 ADD SWAP2 PUSH2 0x623 JUMP JUMPDEST DUP3 ADD SWAP2 SWAP1 PUSH1 0x0 MSTORE PUSH1 0x20 PUSH1 0x0 KECCAK256 SWAP1 JUMPDEST DUP2 SLOAD DUP2 MSTORE SWAP1 PUSH1 0x1 ADD SWAP1 PUSH1 0x20 ADD DUP1 DUP4 GT PUSH2 0x606 JUMPI DUP3 SWAP1 SUB PUSH1 0x1F AND DUP3 ADD SWAP2 JUMPDEST POP POP POP POP PUSH1 0x5 DUP4 ADD SLOAD PUSH1 0x6 DUP5 ADD SLOAD PUSH1 0x7 DUP6 ADD SLOAD PUSH1 0x8 DUP7 ADD SLOAD PUSH1 0x9 DUP8 ADD SLOAD PUSH1 0xA DUP9 ADD SLOAD PUSH1 0xB SWAP1 SWAP9 ADD SLOAD SWAP7 SWAP8 SWAP5 SWAP7 SWAP4 SWAP6 POP SWAP2 SWAP4 SWAP1 SWAP3 PUSH1 0xFF AND DUP13 JUMP JUMPDEST PUSH1 0x0 DUP2 DUP2 MSTORE PUSH1 0x6 PUSH1 0x20 MSTORE PUSH1 0x40 SWAP1 KECCAK256 PUSH1 0x8 ADD SLOAD TIMESTAMP GT DUP1 ISZERO PUSH2 0x694 JUMPI POP PUSH1 0x0 DUP2 DUP2 MSTORE PUSH1 0x6 PUSH1 0x20 DUP2 SWAP1 MSTORE PUSH1 0x40 SWAP1 SWAP2 KECCAK256 SWAP1 DUP2 ADD SLOAD PUSH1 0x7 SWAP1 SWAP2 ADD SLOAD LT JUMPDEST PUSH2 0x6B9 JUMPI PUSH1 0x40 MLOAD PUSH3 0x461BCD PUSH1 0xE5 SHL DUP2 MSTORE PUSH1 0x4 ADD PUSH2 0x6B0 SWAP1 PUSH2 0x142A JUMP JUMPDEST PUSH1 0x40 MLOAD DUP1 SWAP2 SUB SWAP1 REVERT JUMPDEST PUSH1 0x0 JUMPDEST PUSH1 0x0 DUP3 DUP2 MSTORE PUSH1 0x6 PUSH1 0x20 MSTORE PUSH1 0x40 SWAP1 KECCAK256 PUSH1 0x9 ADD SLOAD DUP2 LT ISZERO PUSH2 0x7A8 JUMPI PUSH1 0x0 DUP3 DUP2 MSTORE PUSH1 0x8 PUSH1 0x20 SWAP1 DUP2 MSTORE PUSH1 0x40 DUP1 DUP4 KECCAK256 DUP5 DUP5 MSTORE SWAP1 SWAP2 MSTORE DUP1 DUP3 KECCAK256 DUP1 SLOAD PUSH1 0x1 SWAP1 SWAP2 ADD SLOAD SWAP2 MLOAD PUSH1 0x1 PUSH1 0x1 PUSH1 0xA0 SHL SUB SWAP1 SWAP2 AND SWAP3 SWAP1 DUP4 SWAP1 DUP4 SWAP1 PUSH2 0x713 SWAP1 PUSH2 0x143D JUMP JUMPDEST PUSH1 0x0 PUSH1 0x40 MLOAD DUP1 DUP4 SUB DUP2 DUP6 DUP8 GAS CALL SWAP3 POP POP POP RETURNDATASIZE DUP1 PUSH1 0x0 DUP2 EQ PUSH2 0x750 JUMPI PUSH1 0x40 MLOAD SWAP2 POP PUSH1 0x1F NOT PUSH1 0x3F RETURNDATASIZE ADD AND DUP3 ADD PUSH1 0x40 MSTORE RETURNDATASIZE DUP3 MSTORE RETURNDATASIZE PUSH1 0x0 PUSH1 0x20 DUP5 ADD RETURNDATACOPY PUSH2 0x755 JUMP JUMPDEST PUSH1 0x60 SWAP2 POP JUMPDEST POP POP SWAP1 POP DUP1 PUSH2 0x776 JUMPI PUSH1 0x40 MLOAD PUSH3 0x461BCD PUSH1 0xE5 SHL DUP2 MSTORE PUSH1 0x4 ADD PUSH2 0x6B0 SWAP1 PUSH2 0x149F JUMP JUMPDEST POP POP POP PUSH1 0x0 DUP3 DUP2 MSTORE PUSH1 0x8 PUSH1 0x20 SWAP1 DUP2 MSTORE PUSH1 0x40 DUP1 DUP4 KECCAK256 DUP5 DUP5 MSTORE SWAP1 SWAP2 MSTORE DUP2 KECCAK256 PUSH1 0x1 ADD SSTORE DUP1 PUSH2 0x7A0 DUP2 PUSH2 0x1371 JUMP JUMPDEST SWAP2 POP POP PUSH2 0x6BC JUMP JUMPDEST POP POP JUMP JUMPDEST PUSH1 0x0 DUP2 DUP2 MSTORE PUSH1 0x6 PUSH1 0x20 MSTORE PUSH1 0x40 SWAP1 KECCAK256 PUSH1 0x8 ADD SLOAD TIMESTAMP LT PUSH2 0x7DC JUMPI PUSH1 0x40 MLOAD PUSH3 0x461BCD PUSH1 0xE5 SHL DUP2 MSTORE PUSH1 0x4 ADD PUSH2 0x6B0 SWAP1 PUSH2 0x14E6 JUMP JUMPDEST PUSH1 0x0 DUP2 DUP2 MSTORE PUSH1 0x6 PUSH1 0x20 MSTORE PUSH1 0x40 SWAP1 KECCAK256 PUSH1 0x5 ADD SLOAD CALLVALUE LT ISZERO PUSH2 0x80D JUMPI PUSH1 0x40 MLOAD PUSH3 0x461BCD PUSH1 0xE5 SHL DUP2 MSTORE PUSH1 0x4 ADD PUSH2 0x6B0 SWAP1 PUSH2 0x1528 JUMP JUMPDEST PUSH1 0x40 DUP1 MLOAD DUP1 DUP3 ADD DUP3 MSTORE CALLER DUP1 DUP3 MSTORE CALLVALUE PUSH1 0x20 DUP1 DUP5 ADD DUP3 SWAP1 MSTORE PUSH1 0x0 SWAP3 DUP4 MSTORE PUSH1 0x9 DUP2 MSTORE DUP5 DUP4 KECCAK256 DUP7 DUP5 MSTORE SWAP1 MSTORE SWAP3 DUP2 KECCAK256 DUP1 SLOAD SWAP3 SWAP4 SWAP3 SWAP1 SWAP2 SWAP1 PUSH2 0x84A SWAP1 DUP5 SWAP1 PUSH2 0x1538 JUMP JUMPDEST SWAP1 SWAP2 SSTORE POP POP PUSH1 0x0 DUP3 DUP2 MSTORE PUSH1 0x8 PUSH1 0x20 SWAP1 DUP2 MSTORE PUSH1 0x40 DUP1 DUP4 KECCAK256 PUSH1 0x6 DUP1 DUP5 MSTORE DUP3 DUP6 KECCAK256 PUSH1 0x9 DUP2 ADD SLOAD DUP7 MSTORE SWAP2 DUP5 MSTORE SWAP2 DUP5 KECCAK256 DUP6 MLOAD DUP2 SLOAD PUSH32 0xFFFFFFFFFFFFFFFFFFFFFFFF0000000000000000000000000000000000000000 AND PUSH1 0x1 PUSH1 0x1 PUSH1 0xA0 SHL SUB SWAP1 SWAP2 AND OR DUP2 SSTORE DUP6 DUP5 ADD MLOAD PUSH1 0x1 SWAP1 SWAP2 ADD SSTORE DUP6 DUP5 MSTORE SWAP2 MSTORE PUSH1 0x7 ADD DUP1 SLOAD CALLVALUE SWAP3 SWAP1 PUSH2 0x8CB SWAP1 DUP5 SWAP1 PUSH2 0x1538 JUMP JUMPDEST SWAP1 SWAP2 SSTORE POP POP PUSH1 0x0 DUP3 DUP2 MSTORE PUSH1 0x6 PUSH1 0x20 MSTORE PUSH1 0x40 DUP2 KECCAK256 PUSH1 0x9 ADD DUP1 SLOAD SWAP2 PUSH2 0x8ED DUP4 PUSH2 0x1371 JUMP JUMPDEST SWAP2 SWAP1 POP SSTORE POP PUSH32 0x9DE0A6DD1DFD3E6EDA5E87572F845B6183A171DEBC4A266CF5C5EDDC77540983 DUP3 CALLER CALLVALUE PUSH1 0x40 MLOAD PUSH2 0x925 SWAP4 SWAP3 SWAP2 SWAP1 PUSH2 0x154B JUMP JUMPDEST PUSH1 0x40 MLOAD DUP1 SWAP2 SUB SWAP1 LOG1 POP POP JUMP JUMPDEST PUSH1 0x1 SLOAD PUSH1 0x1 PUSH1 0x1 PUSH1 0xA0 SHL SUB AND CALLER EQ PUSH2 0x948 JUMPI PUSH1 0x0 DUP1 REVERT JUMPDEST PUSH1 0x0 DUP2 DUP2 MSTORE PUSH1 0x6 PUSH1 0x20 MSTORE PUSH1 0x40 SWAP1 KECCAK256 PUSH1 0x8 ADD SLOAD TIMESTAMP GT DUP1 ISZERO PUSH2 0x980 JUMPI POP PUSH1 0x0 DUP2 DUP2 MSTORE PUSH1 0x6 PUSH1 0x20 DUP2 SWAP1 MSTORE PUSH1 0x40 SWAP1 SWAP2 KECCAK256 SWAP1 DUP2 ADD SLOAD PUSH1 0x7 SWAP1 SWAP2 ADD SLOAD GT JUMPDEST PUSH2 0x99C JUMPI PUSH1 0x40 MLOAD PUSH3 0x461BCD PUSH1 0xE5 SHL DUP2 MSTORE PUSH1 0x4 ADD PUSH2 0x6B0 SWAP1 PUSH2 0x142A JUMP JUMPDEST PUSH1 0x0 DUP2 DUP2 MSTORE PUSH1 0x6 PUSH1 0x20 MSTORE PUSH1 0x40 DUP1 DUP3 KECCAK256 PUSH1 0x7 ADD SLOAD SWAP1 MLOAD CALLER SWAP2 SWAP1 PUSH2 0x9BD SWAP1 PUSH2 0x143D JUMP JUMPDEST PUSH1 0x0 PUSH1 0x40 MLOAD DUP1 DUP4 SUB DUP2 DUP6 DUP8 GAS CALL SWAP3 POP POP POP RETURNDATASIZE DUP1 PUSH1 0x0 DUP2 EQ PUSH2 0x9FA JUMPI PUSH1 0x40 MLOAD SWAP2 POP PUSH1 0x1F NOT PUSH1 0x3F RETURNDATASIZE ADD AND DUP3 ADD PUSH1 0x40 MSTORE RETURNDATASIZE DUP3 MSTORE RETURNDATASIZE PUSH1 0x0 PUSH1 0x20 DUP5 ADD RETURNDATACOPY PUSH2 0x9FF JUMP JUMPDEST PUSH1 0x60 SWAP2 POP JUMPDEST POP POP SWAP1 POP DUP1 PUSH2 0x7A8 JUMPI PUSH1 0x40 MLOAD PUSH3 0x461BCD PUSH1 0xE5 SHL DUP2 MSTORE PUSH1 0x4 ADD PUSH2 0x6B0 SWAP1 PUSH2 0x149F JUMP JUMPDEST PUSH1 0x1 SLOAD PUSH1 0x1 PUSH1 0x1 PUSH1 0xA0 SHL SUB AND CALLER EQ PUSH2 0xA37 JUMPI PUSH1 0x0 DUP1 REVERT JUMPDEST PUSH1 0x40 DUP1 MLOAD PUSH2 0x180 DUP2 ADD DUP3 MSTORE DUP10 DUP2 MSTORE PUSH1 0x20 DUP1 DUP3 ADD DUP11 DUP2 MSTORE DUP3 DUP5 ADD DUP11 SWAP1 MSTORE PUSH1 0x60 DUP4 ADD DUP10 SWAP1 MSTORE PUSH1 0x80 DUP4 ADD DUP9 SWAP1 MSTORE PUSH1 0xA0 DUP4 ADD DUP8 SWAP1 MSTORE PUSH1 0xC0 DUP4 ADD DUP7 SWAP1 MSTORE PUSH1 0x0 PUSH1 0xE0 DUP5 ADD DUP2 SWAP1 MSTORE PUSH2 0x100 DUP5 ADD DUP7 SWAP1 MSTORE PUSH2 0x120 DUP5 ADD DUP2 SWAP1 MSTORE PUSH2 0x140 DUP5 ADD DUP2 SWAP1 MSTORE PUSH2 0x160 DUP5 ADD DUP2 SWAP1 MSTORE DUP13 DUP2 MSTORE PUSH1 0x6 SWAP1 SWAP3 MSTORE SWAP3 SWAP1 KECCAK256 DUP2 MLOAD DUP2 SSTORE SWAP2 MLOAD SWAP1 SWAP2 DUP3 SWAP2 PUSH1 0x1 DUP3 ADD SWAP1 PUSH2 0xABC SWAP1 DUP3 PUSH2 0x1615 JUMP JUMPDEST POP PUSH1 0x40 DUP3 ADD MLOAD PUSH1 0x2 DUP3 ADD SWAP1 PUSH2 0xAD1 SWAP1 DUP3 PUSH2 0x1615 JUMP JUMPDEST POP PUSH1 0x60 DUP3 ADD MLOAD PUSH1 0x3 DUP3 ADD SWAP1 PUSH2 0xAE6 SWAP1 DUP3 PUSH2 0x1615 JUMP JUMPDEST POP PUSH1 0x80 DUP3 ADD MLOAD PUSH1 0x4 DUP3 ADD SWAP1 PUSH2 0xAFB SWAP1 DUP3 PUSH2 0x1615 JUMP JUMPDEST POP PUSH1 0xA0 DUP3 ADD MLOAD PUSH1 0x5 DUP3 ADD SSTORE PUSH1 0xC0 DUP3 ADD MLOAD PUSH1 0x6 DUP3 ADD SSTORE PUSH1 0xE0 DUP3 ADD MLOAD PUSH1 0x7 DUP3 ADD SSTORE PUSH2 0x100 DUP3 ADD MLOAD PUSH1 0x8 DUP3 ADD SSTORE PUSH2 0x120 DUP3 ADD MLOAD PUSH1 0x9 DUP3 ADD SSTORE PUSH2 0x140 DUP3 ADD MLOAD PUSH1 0xA DUP3 ADD SSTORE PUSH2 0x160 SWAP1 SWAP2 ADD MLOAD PUSH1 0xB SWAP1 SWAP2 ADD DUP1 SLOAD PUSH1 0xFF NOT AND SWAP2 ISZERO ISZERO SWAP2 SWAP1 SWAP2 OR SWAP1 SSTORE PUSH1 0x2 SLOAD PUSH1 0x40 MLOAD PUSH32 0x8A9AC69DA6C9624863CC5677F1FFE445079DEB65237CCF9ADC3FA4B410B04268 SWAP2 PUSH2 0xB9A SWAP2 DUP12 SWAP1 DUP12 SWAP1 DUP12 SWAP1 DUP12 SWAP1 DUP12 SWAP1 DUP12 SWAP1 DUP12 SWAP1 PUSH1 0x0 SWAP1 DUP2 SWAP1 PUSH2 0x16E2 JUMP JUMPDEST PUSH1 0x40 MLOAD DUP1 SWAP2 SUB SWAP1 LOG1 PUSH1 0x2 DUP1 SLOAD SWAP1 PUSH1 0x0 PUSH2 0xBB2 DUP4 PUSH2 0x1371 JUMP JUMPDEST SWAP2 SWAP1 POP SSTORE POP POP POP POP POP POP POP POP POP POP JUMP JUMPDEST PUSH1 0x60 PUSH1 0x0 PUSH1 0x2 SLOAD PUSH8 0xFFFFFFFFFFFFFFFF DUP2 GT ISZERO PUSH2 0xBE1 JUMPI PUSH2 0xBE1 PUSH2 0xFFF JUMP JUMPDEST PUSH1 0x40 MLOAD SWAP1 DUP1 DUP3 MSTORE DUP1 PUSH1 0x20 MUL PUSH1 0x20 ADD DUP3 ADD PUSH1 0x40 MSTORE DUP1 ISZERO PUSH2 0xC0A JUMPI DUP2 PUSH1 0x20 ADD PUSH1 0x20 DUP3 MUL DUP1 CALLDATASIZE DUP4 CALLDATACOPY ADD SWAP1 POP JUMPDEST POP SWAP1 POP PUSH1 0x0 JUMPDEST PUSH1 0x2 SLOAD DUP2 LT ISZERO PUSH2 0xC6F JUMPI PUSH1 0x1 PUSH1 0x1 PUSH1 0xA0 SHL SUB DUP5 AND PUSH1 0x0 SWAP1 DUP2 MSTORE PUSH1 0x9 PUSH1 0x20 SWAP1 DUP2 MSTORE PUSH1 0x40 DUP1 DUP4 KECCAK256 DUP5 DUP5 MSTORE SWAP1 SWAP2 MSTORE SWAP1 KECCAK256 SLOAD DUP3 MLOAD DUP4 SWAP1 DUP4 SWAP1 DUP2 LT PUSH2 0xC52 JUMPI PUSH2 0xC52 PUSH2 0x1793 JUMP JUMPDEST PUSH1 0x20 SWAP1 DUP2 MUL SWAP2 SWAP1 SWAP2 ADD ADD MSTORE DUP1 PUSH2 0xC67 DUP2 PUSH2 0x1371 JUMP JUMPDEST SWAP2 POP POP PUSH2 0xC10 JUMP JUMPDEST POP SWAP3 SWAP2 POP POP JUMP JUMPDEST PUSH1 0x0 DUP2 DUP2 MSTORE PUSH1 0x6 PUSH1 0x20 MSTORE PUSH1 0x40 DUP2 KECCAK256 PUSH1 0x9 ADD SLOAD PUSH1 0x60 SWAP2 DUP3 SWAP2 PUSH8 0xFFFFFFFFFFFFFFFF DUP2 GT ISZERO PUSH2 0xCA5 JUMPI PUSH2 0xCA5 PUSH2 0xFFF JUMP JUMPDEST PUSH1 0x40 MLOAD SWAP1 DUP1 DUP3 MSTORE DUP1 PUSH1 0x20 MUL PUSH1 0x20 ADD DUP3 ADD PUSH1 0x40 MSTORE DUP1 ISZERO PUSH2 0xCCE JUMPI DUP2 PUSH1 0x20 ADD PUSH1 0x20 DUP3 MUL DUP1 CALLDATASIZE DUP4 CALLDATACOPY ADD SWAP1 POP JUMPDEST POP PUSH1 0x0 DUP6 DUP2 MSTORE PUSH1 0x6 PUSH1 0x20 MSTORE PUSH1 0x40 DUP2 KECCAK256 PUSH1 0x9 ADD SLOAD SWAP2 SWAP3 POP SWAP1 PUSH8 0xFFFFFFFFFFFFFFFF DUP2 GT ISZERO PUSH2 0xCFD JUMPI PUSH2 0xCFD PUSH2 0xFFF JUMP JUMPDEST PUSH1 0x40 MLOAD SWAP1 DUP1 DUP3 MSTORE DUP1 PUSH1 0x20 MUL PUSH1 0x20 ADD DUP3 ADD PUSH1 0x40 MSTORE DUP1 ISZERO PUSH2 0xD26 JUMPI DUP2 PUSH1 0x20 ADD PUSH1 0x20 DUP3 MUL DUP1 CALLDATASIZE DUP4 CALLDATACOPY ADD SWAP1 POP JUMPDEST POP SWAP1 POP PUSH1 0x0 JUMPDEST PUSH1 0x0 DUP7 DUP2 MSTORE PUSH1 0x6 PUSH1 0x20 MSTORE PUSH1 0x40 SWAP1 KECCAK256 PUSH1 0x9 ADD SLOAD DUP2 LT ISZERO PUSH2 0xDE0 JUMPI PUSH1 0x0 DUP7 DUP2 MSTORE PUSH1 0x8 PUSH1 0x20 SWAP1 DUP2 MSTORE PUSH1 0x40 DUP1 DUP4 KECCAK256 DUP5 DUP5 MSTORE SWAP1 SWAP2 MSTORE SWAP1 KECCAK256 SLOAD DUP4 MLOAD PUSH1 0x1 PUSH1 0x1 PUSH1 0xA0 SHL SUB SWAP1 SWAP2 AND SWAP1 DUP5 SWAP1 DUP4 SWAP1 DUP2 LT PUSH2 0xD7F JUMPI PUSH2 0xD7F PUSH2 0x1793 JUMP JUMPDEST PUSH1 0x1 PUSH1 0x1 PUSH1 0xA0 SHL SUB SWAP1 SWAP3 AND PUSH1 0x20 SWAP3 DUP4 MUL SWAP2 SWAP1 SWAP2 ADD DUP3 ADD MSTORE PUSH1 0x0 DUP8 DUP2 MSTORE PUSH1 0x8 DUP3 MSTORE PUSH1 0x40 DUP1 DUP3 KECCAK256 DUP5 DUP4 MSTORE SWAP1 SWAP3 MSTORE KECCAK256 PUSH1 0x1 ADD SLOAD DUP3 MLOAD DUP4 SWAP1 DUP4 SWAP1 DUP2 LT PUSH2 0xDC3 JUMPI PUSH2 0xDC3 PUSH2 0x1793 JUMP JUMPDEST PUSH1 0x20 SWAP1 DUP2 MUL SWAP2 SWAP1 SWAP2 ADD ADD MSTORE DUP1 PUSH2 0xDD8 DUP2 PUSH2 0x1371 JUMP JUMPDEST SWAP2 POP POP PUSH2 0xD2C JUMP JUMPDEST POP SWAP1 SWAP5 SWAP1 SWAP4 POP SWAP2 POP POP JUMP JUMPDEST DUP1 JUMPDEST DUP2 EQ PUSH2 0xDF8 JUMPI PUSH1 0x0 DUP1 REVERT JUMPDEST POP JUMP JUMPDEST DUP1 CALLDATALOAD PUSH2 0xE06 DUP2 PUSH2 0xDEB JUMP JUMPDEST SWAP3 SWAP2 POP POP JUMP JUMPDEST PUSH1 0x0 PUSH1 0x20 DUP3 DUP5 SUB SLT ISZERO PUSH2 0xE21 JUMPI PUSH2 0xE21 PUSH1 0x0 DUP1 REVERT JUMPDEST PUSH1 0x0 PUSH2 0xE2D DUP5 DUP5 PUSH2 0xDFB JUMP JUMPDEST SWAP5 SWAP4 POP POP POP POP JUMP JUMPDEST DUP1 JUMPDEST DUP3 MSTORE POP POP JUMP JUMPDEST PUSH1 0x0 JUMPDEST DUP4 DUP2 LT ISZERO PUSH2 0xE58 JUMPI DUP2 DUP2 ADD MLOAD DUP4 DUP3 ADD MSTORE PUSH1 0x20 ADD PUSH2 0xE40 JUMP JUMPDEST POP POP PUSH1 0x0 SWAP2 ADD MSTORE JUMP JUMPDEST PUSH1 0x0 PUSH2 0xE6B DUP3 MLOAD SWAP1 JUMP JUMPDEST DUP1 DUP5 MSTORE PUSH1 0x20 DUP5 ADD SWAP4 POP PUSH2 0xE82 DUP2 DUP6 PUSH1 0x20 DUP7 ADD PUSH2 0xE3D JUMP JUMPDEST PUSH1 0x1F ADD PUSH1 0x1F NOT AND SWAP3 SWAP1 SWAP3 ADD SWAP3 SWAP2 POP POP JUMP JUMPDEST DUP1 ISZERO ISZERO PUSH2 0xE37 JUMP JUMPDEST PUSH2 0x180 DUP2 ADD PUSH2 0xEAA DUP3 DUP16 PUSH2 0xE35 JUMP JUMPDEST DUP2 DUP2 SUB PUSH1 0x20 DUP4 ADD MSTORE PUSH2 0xEBC DUP2 DUP15 PUSH2 0xE61 JUMP JUMPDEST SWAP1 POP DUP2 DUP2 SUB PUSH1 0x40 DUP4 ADD MSTORE PUSH2 0xED0 DUP2 DUP14 PUSH2 0xE61 JUMP JUMPDEST SWAP1 POP DUP2 DUP2 SUB PUSH1 0x60 DUP4 ADD MSTORE PUSH2 0xEE4 DUP2 DUP13 PUSH2 0xE61 JUMP JUMPDEST SWAP1 POP DUP2 DUP2 SUB PUSH1 0x80 DUP4 ADD MSTORE PUSH2 0xEF8 DUP2 DUP12 PUSH2 0xE61 JUMP JUMPDEST SWAP1 POP PUSH2 0xF07 PUSH1 0xA0 DUP4 ADD DUP11 PUSH2 0xE35 JUMP JUMPDEST PUSH2 0xF14 PUSH1 0xC0 DUP4 ADD DUP10 PUSH2 0xE35 JUMP JUMPDEST PUSH2 0xF21 PUSH1 0xE0 DUP4 ADD DUP9 PUSH2 0xE35 JUMP JUMPDEST PUSH2 0xF2F PUSH2 0x100 DUP4 ADD DUP8 PUSH2 0xE35 JUMP JUMPDEST PUSH2 0xF3D PUSH2 0x120 DUP4 ADD DUP7 PUSH2 0xE35 JUMP JUMPDEST PUSH2 0xF4B PUSH2 0x140 DUP4 ADD DUP6 PUSH2 0xE35 JUMP JUMPDEST PUSH2 0xF59 PUSH2 0x160 DUP4 ADD DUP5 PUSH2 0xE93 JUMP JUMPDEST SWAP14 SWAP13 POP POP POP POP POP POP POP POP POP POP POP POP POP JUMP JUMPDEST PUSH1 0x20 DUP2 ADD PUSH2 0xE06 DUP3 DUP5 PUSH2 0xE35 JUMP JUMPDEST PUSH1 0x0 PUSH1 0x1 PUSH1 0x1 PUSH1 0xA0 SHL SUB DUP3 AND PUSH2 0xE06 JUMP JUMPDEST PUSH2 0xE37 DUP2 PUSH2 0xF78 JUMP JUMPDEST PUSH1 0x20 DUP2 ADD PUSH2 0xE06 DUP3 DUP5 PUSH2 0xF89 JUMP JUMPDEST PUSH1 0x0 DUP1 PUSH1 0x40 DUP4 DUP6 SUB SLT ISZERO PUSH2 0xFB6 JUMPI PUSH2 0xFB6 PUSH1 0x0 DUP1 REVERT JUMPDEST PUSH1 0x0 PUSH2 0xFC2 DUP6 DUP6 PUSH2 0xDFB JUMP JUMPDEST SWAP3 POP POP PUSH1 0x20 PUSH2 0xFD3 DUP6 DUP3 DUP7 ADD PUSH2 0xDFB JUMP JUMPDEST SWAP2 POP POP SWAP3 POP SWAP3 SWAP1 POP JUMP JUMPDEST PUSH1 0x40 DUP2 ADD PUSH2 0xFEB DUP3 DUP6 PUSH2 0xF89 JUMP JUMPDEST PUSH2 0xFF8 PUSH1 0x20 DUP4 ADD DUP5 PUSH2 0xE35 JUMP JUMPDEST SWAP4 SWAP3 POP POP POP JUMP JUMPDEST PUSH4 0x4E487B71 PUSH1 0xE0 SHL PUSH1 0x0 MSTORE PUSH1 0x41 PUSH1 0x4 MSTORE PUSH1 0x24 PUSH1 0x0 REVERT JUMPDEST PUSH1 0x1F NOT PUSH1 0x1F DUP4 ADD AND DUP2 ADD DUP2 DUP2 LT PUSH8 0xFFFFFFFFFFFFFFFF DUP3 GT OR ISZERO PUSH2 0x103B JUMPI PUSH2 0x103B PUSH2 0xFFF JUMP JUMPDEST PUSH1 0x40 MSTORE POP POP JUMP JUMPDEST PUSH1 0x0 PUSH2 0x104D PUSH1 0x40 MLOAD SWAP1 JUMP JUMPDEST SWAP1 POP PUSH2 0x1059 DUP3 DUP3 PUSH2 0x1015 JUMP JUMPDEST SWAP2 SWAP1 POP JUMP JUMPDEST PUSH1 0x0 PUSH8 0xFFFFFFFFFFFFFFFF DUP3 GT ISZERO PUSH2 0x1078 JUMPI PUSH2 0x1078 PUSH2 0xFFF JUMP JUMPDEST PUSH1 0x1F NOT PUSH1 0x1F DUP4 ADD AND PUSH1 0x20 ADD SWAP3 SWAP2 POP POP JUMP JUMPDEST DUP3 DUP2 DUP4 CALLDATACOPY POP PUSH1 0x0 SWAP2 ADD MSTORE JUMP JUMPDEST PUSH1 0x0 PUSH2 0x10A8 PUSH2 0x10A3 DUP5 PUSH2 0x105E JUMP JUMPDEST PUSH2 0x1042 JUMP JUMPDEST SWAP1 POP DUP3 DUP2 MSTORE PUSH1 0x20 DUP2 ADD DUP5 DUP5 DUP5 ADD GT ISZERO PUSH2 0x10C3 JUMPI PUSH2 0x10C3 PUSH1 0x0 DUP1 REVERT JUMPDEST PUSH2 0x10CE DUP5 DUP3 DUP6 PUSH2 0x1089 JUMP JUMPDEST POP SWAP4 SWAP3 POP POP POP JUMP JUMPDEST PUSH1 0x0 DUP3 PUSH1 0x1F DUP4 ADD SLT PUSH2 0x10EA JUMPI PUSH2 0x10EA PUSH1 0x0 DUP1 REVERT JUMPDEST DUP2 CALLDATALOAD PUSH2 0xE2D DUP5 DUP3 PUSH1 0x20 DUP7 ADD PUSH2 0x1095 JUMP JUMPDEST PUSH1 0x0 DUP1 PUSH1 0x0 DUP1 PUSH1 0x0 DUP1 PUSH1 0x0 DUP1 PUSH2 0x100 DUP10 DUP12 SUB SLT ISZERO PUSH2 0x111A JUMPI PUSH2 0x111A PUSH1 0x0 DUP1 REVERT JUMPDEST PUSH1 0x0 PUSH2 0x1126 DUP12 DUP12 PUSH2 0xDFB JUMP JUMPDEST SWAP9 POP POP PUSH1 0x20 DUP10 ADD CALLDATALOAD PUSH8 0xFFFFFFFFFFFFFFFF DUP2 GT ISZERO PUSH2 0x1146 JUMPI PUSH2 0x1146 PUSH1 0x0 DUP1 REVERT JUMPDEST PUSH2 0x1152 DUP12 DUP3 DUP13 ADD PUSH2 0x10D6 JUMP JUMPDEST SWAP8 POP POP PUSH1 0x40 DUP10 ADD CALLDATALOAD PUSH8 0xFFFFFFFFFFFFFFFF DUP2 GT ISZERO PUSH2 0x1172 JUMPI PUSH2 0x1172 PUSH1 0x0 DUP1 REVERT JUMPDEST PUSH2 0x117E DUP12 DUP3 DUP13 ADD PUSH2 0x10D6 JUMP JUMPDEST SWAP7 POP POP PUSH1 0x60 DUP10 ADD CALLDATALOAD PUSH8 0xFFFFFFFFFFFFFFFF DUP2 GT ISZERO PUSH2 0x119E JUMPI PUSH2 0x119E PUSH1 0x0 DUP1 REVERT JUMPDEST PUSH2 0x11AA DUP12 DUP3 DUP13 ADD PUSH2 0x10D6 JUMP JUMPDEST SWAP6 POP POP PUSH1 0x80 DUP10 ADD CALLDATALOAD PUSH8 0xFFFFFFFFFFFFFFFF DUP2 GT ISZERO PUSH2 0x11CA JUMPI PUSH2 0x11CA PUSH1 0x0 DUP1 REVERT JUMPDEST PUSH2 0x11D6 DUP12 DUP3 DUP13 ADD PUSH2 0x10D6 JUMP JUMPDEST SWAP5 POP POP PUSH1 0xA0 PUSH2 0x11E7 DUP12 DUP3 DUP13 ADD PUSH2 0xDFB JUMP JUMPDEST SWAP4 POP POP PUSH1 0xC0 PUSH2 0x11F8 DUP12 DUP3 DUP13 ADD PUSH2 0xDFB JUMP JUMPDEST SWAP3 POP POP PUSH1 0xE0 PUSH2 0x1209 DUP12 DUP3 DUP13 ADD PUSH2 0xDFB JUMP JUMPDEST SWAP2 POP POP SWAP3 SWAP6 SWAP9 POP SWAP3 SWAP6 SWAP9 SWAP1 SWAP4 SWAP7 POP JUMP JUMPDEST PUSH2 0xDED DUP2 PUSH2 0xF78 JUMP JUMPDEST DUP1 CALLDATALOAD PUSH2 0xE06 DUP2 PUSH2 0x1219 JUMP JUMPDEST PUSH1 0x0 DUP1 PUSH1 0x40 DUP4 DUP6 SUB SLT ISZERO PUSH2 0x1243 JUMPI PUSH2 0x1243 PUSH1 0x0 DUP1 REVERT JUMPDEST PUSH1 0x0 PUSH2 0xFC2 DUP6 DUP6 PUSH2 0x1222 JUMP JUMPDEST PUSH1 0x20 DUP2 ADD PUSH2 0xE06 DUP3 DUP5 PUSH2 0xE93 JUMP JUMPDEST PUSH1 0x0 PUSH1 0x20 DUP3 DUP5 SUB SLT ISZERO PUSH2 0x1272 JUMPI PUSH2 0x1272 PUSH1 0x0 DUP1 REVERT JUMPDEST PUSH1 0x0 PUSH2 0xE2D DUP5 DUP5 PUSH2 0x1222 JUMP JUMPDEST PUSH1 0x0 PUSH2 0x128A DUP4 DUP4 PUSH2 0xE35 JUMP JUMPDEST POP POP PUSH1 0x20 ADD SWAP1 JUMP JUMPDEST PUSH1 0x0 PUSH2 0x129C DUP3 MLOAD SWAP1 JUMP JUMPDEST DUP1 DUP5 MSTORE PUSH1 0x20 SWAP4 DUP5 ADD SWAP4 DUP4 ADD DUP1 PUSH1 0x0 JUMPDEST DUP4 DUP2 LT ISZERO PUSH2 0x12D0 JUMPI DUP2 MLOAD PUSH2 0x12BF DUP9 DUP3 PUSH2 0x127E JUMP JUMPDEST SWAP8 POP PUSH1 0x20 DUP4 ADD SWAP3 POP POP PUSH1 0x1 ADD PUSH2 0x12AB JUMP JUMPDEST POP SWAP5 SWAP6 SWAP5 POP POP POP POP POP JUMP JUMPDEST PUSH1 0x20 DUP1 DUP3 MSTORE DUP2 ADD PUSH2 0xFF8 DUP2 DUP5 PUSH2 0x1292 JUMP JUMPDEST PUSH1 0x0 PUSH2 0x128A DUP4 DUP4 PUSH2 0xF89 JUMP JUMPDEST PUSH1 0x0 PUSH2 0x1302 DUP3 MLOAD SWAP1 JUMP JUMPDEST DUP1 DUP5 MSTORE PUSH1 0x20 SWAP4 DUP5 ADD SWAP4 DUP4 ADD DUP1 PUSH1 0x0 JUMPDEST DUP4 DUP2 LT ISZERO PUSH2 0x12D0 JUMPI DUP2 MLOAD PUSH2 0x1325 DUP9 DUP3 PUSH2 0x12EC JUMP JUMPDEST SWAP8 POP PUSH1 0x20 DUP4 ADD SWAP3 POP POP PUSH1 0x1 ADD PUSH2 0x1311 JUMP JUMPDEST PUSH1 0x40 DUP1 DUP3 MSTORE DUP2 ADD PUSH2 0x1347 DUP2 DUP6 PUSH2 0x12F8 JUMP JUMPDEST SWAP1 POP DUP2 DUP2 SUB PUSH1 0x20 DUP4 ADD MSTORE PUSH2 0xE2D DUP2 DUP5 PUSH2 0x1292 JUMP JUMPDEST PUSH4 0x4E487B71 PUSH1 0xE0 SHL PUSH1 0x0 MSTORE PUSH1 0x11 PUSH1 0x4 MSTORE PUSH1 0x24 PUSH1 0x0 REVERT JUMPDEST PUSH1 0x0 PUSH1 0x0 NOT DUP3 SUB PUSH2 0x1384 JUMPI PUSH2 0x1384 PUSH2 0x135B JUMP JUMPDEST POP PUSH1 0x1 ADD SWAP1 JUMP JUMPDEST PUSH4 0x4E487B71 PUSH1 0xE0 SHL PUSH1 0x0 MSTORE PUSH1 0x22 PUSH1 0x4 MSTORE PUSH1 0x24 PUSH1 0x0 REVERT JUMPDEST PUSH1 0x2 DUP2 DIV PUSH1 0x1 DUP3 AND DUP1 PUSH2 0x13B5 JUMPI PUSH1 0x7F DUP3 AND SWAP2 POP JUMPDEST PUSH1 0x20 DUP3 LT DUP2 SUB PUSH2 0x13C7 JUMPI PUSH2 0x13C7 PUSH2 0x138B JUMP JUMPDEST POP SWAP2 SWAP1 POP JUMP JUMPDEST PUSH1 0x2C DUP2 MSTORE PUSH1 0x0 PUSH1 0x20 DUP3 ADD PUSH32 0x596F7520617265206E6F7420656C696769626C6520746F206765742072656675 DUP2 MSTORE PUSH32 0x6E64207269676874206E6F770000000000000000000000000000000000000000 PUSH1 0x20 DUP3 ADD MSTORE SWAP2 POP JUMPDEST POP PUSH1 0x40 ADD SWAP1 JUMP JUMPDEST PUSH1 0x20 DUP1 DUP3 MSTORE DUP2 ADD PUSH2 0xE06 DUP2 PUSH2 0x13CD JUMP JUMPDEST SWAP1 JUMP JUMPDEST PUSH1 0x0 DUP2 PUSH2 0xE06 JUMP JUMPDEST PUSH1 0x2C DUP2 MSTORE PUSH1 0x0 PUSH1 0x20 DUP3 ADD PUSH32 0x4661696C656420746F2073656E6420757365722062616C616E6365206261636B DUP2 MSTORE PUSH32 0x20746F2074686520757365720000000000000000000000000000000000000000 PUSH1 0x20 DUP3 ADD MSTORE SWAP2 POP PUSH2 0x1423 JUMP JUMPDEST PUSH1 0x20 DUP1 DUP3 MSTORE DUP2 ADD PUSH2 0xE06 DUP2 PUSH2 0x1445 JUMP JUMPDEST PUSH1 0x13 DUP2 MSTORE PUSH1 0x0 PUSH1 0x20 DUP3 ADD PUSH32 0x446561646C696E65206861732070617373656400000000000000000000000000 DUP2 MSTORE SWAP2 POP JUMPDEST POP PUSH1 0x20 ADD SWAP1 JUMP JUMPDEST PUSH1 0x20 DUP1 DUP3 MSTORE DUP2 ADD PUSH2 0xE06 DUP2 PUSH2 0x14AF JUMP JUMPDEST PUSH1 0x20 DUP1 DUP3 MSTORE PUSH32 0x4D696E696D756D20636F6E747269627574696F6E20686173206E6F74206D6574 SWAP2 ADD SWAP1 DUP2 MSTORE PUSH1 0x0 PUSH2 0x14DF JUMP JUMPDEST PUSH1 0x20 DUP1 DUP3 MSTORE DUP2 ADD PUSH2 0xE06 DUP2 PUSH2 0x14F6 JUMP JUMPDEST DUP1 DUP3 ADD DUP1 DUP3 GT ISZERO PUSH2 0xE06 JUMPI PUSH2 0xE06 PUSH2 0x135B JUMP JUMPDEST PUSH1 0x60 DUP2 ADD PUSH2 0x1559 DUP3 DUP7 PUSH2 0xE35 JUMP JUMPDEST PUSH2 0x1566 PUSH1 0x20 DUP4 ADD DUP6 PUSH2 0xF89 JUMP JUMPDEST PUSH2 0xE2D PUSH1 0x40 DUP4 ADD DUP5 PUSH2 0xE35 JUMP JUMPDEST PUSH1 0x0 PUSH2 0xE06 PUSH2 0x143A DUP4 DUP2 JUMP JUMPDEST PUSH2 0x1588 DUP4 PUSH2 0x1573 JUMP JUMPDEST DUP2 SLOAD PUSH1 0x8 DUP5 MUL DUP3 DUP2 SHL PUSH1 0x0 NOT SWAP1 SWAP2 SHL SWAP1 DUP2 AND SWAP1 NOT SWAP1 SWAP2 AND OR DUP3 SSTORE POP POP POP POP JUMP JUMPDEST PUSH1 0x0 PUSH2 0x15B5 DUP2 DUP5 DUP5 PUSH2 0x157F JUMP JUMPDEST POP POP POP JUMP JUMPDEST DUP2 DUP2 LT ISZERO PUSH2 0x7A8 JUMPI PUSH2 0x15CD PUSH1 0x0 DUP3 PUSH2 0x15A8 JUMP JUMPDEST PUSH1 0x1 ADD PUSH2 0x15BA JUMP JUMPDEST PUSH1 0x1F DUP3 GT ISZERO PUSH2 0x15B5 JUMPI PUSH1 0x0 DUP2 DUP2 MSTORE PUSH1 0x20 SWAP1 KECCAK256 PUSH1 0x20 PUSH1 0x1F DUP6 ADD DIV DUP2 ADD PUSH1 0x20 DUP6 LT ISZERO PUSH2 0x15FC JUMPI POP DUP1 JUMPDEST PUSH2 0x160E PUSH1 0x20 PUSH1 0x1F DUP7 ADD DIV DUP4 ADD DUP3 PUSH2 0x15BA JUMP JUMPDEST POP POP POP POP POP JUMP JUMPDEST DUP2 MLOAD PUSH8 0xFFFFFFFFFFFFFFFF DUP2 GT ISZERO PUSH2 0x162F JUMPI PUSH2 0x162F PUSH2 0xFFF JUMP JUMPDEST PUSH2 0x1639 DUP3 SLOAD PUSH2 0x13A1 JUMP JUMPDEST PUSH2 0x1644 DUP3 DUP3 DUP6 PUSH2 0x15D5 JUMP JUMPDEST PUSH1 0x20 PUSH1 0x1F DUP4 GT PUSH1 0x1 DUP2 EQ PUSH2 0x1678 JUMPI PUSH1 0x0 DUP5 ISZERO PUSH2 0x1660 JUMPI POP DUP6 DUP3 ADD MLOAD JUMPDEST PUSH1 0x0 NOT PUSH1 0x8 DUP7 MUL SHR NOT DUP2 AND PUSH1 0x2 DUP7 MUL OR DUP7 SSTORE POP PUSH2 0x16D1 JUMP JUMPDEST PUSH1 0x0 DUP6 DUP2 MSTORE PUSH1 0x20 DUP2 KECCAK256 PUSH1 0x1F NOT DUP7 AND SWAP2 JUMPDEST DUP3 DUP2 LT ISZERO PUSH2 0x16A8 JUMPI DUP9 DUP6 ADD MLOAD DUP3 SSTORE PUSH1 0x20 SWAP5 DUP6 ADD SWAP5 PUSH1 0x1 SWAP1 SWAP3 ADD SWAP2 ADD PUSH2 0x1688 JUMP JUMPDEST DUP7 DUP4 LT ISZERO PUSH2 0x16C4 JUMPI DUP5 DUP10 ADD MLOAD PUSH1 0x0 NOT PUSH1 0x1F DUP10 AND PUSH1 0x8 MUL SHR NOT AND DUP3 SSTORE JUMPDEST PUSH1 0x1 PUSH1 0x2 DUP9 MUL ADD DUP9 SSTORE POP POP POP JUMPDEST POP POP POP POP POP POP JUMP JUMPDEST PUSH2 0xE37 DUP2 PUSH2 0x1573 JUMP JUMPDEST PUSH2 0x140 DUP2 ADD PUSH2 0x16F1 DUP3 DUP14 PUSH2 0xE35 JUMP JUMPDEST DUP2 DUP2 SUB PUSH1 0x20 DUP4 ADD MSTORE PUSH2 0x1703 DUP2 DUP13 PUSH2 0xE61 JUMP JUMPDEST SWAP1 POP DUP2 DUP2 SUB PUSH1 0x40 DUP4 ADD MSTORE PUSH2 0x1717 DUP2 DUP12 PUSH2 0xE61 JUMP JUMPDEST SWAP1 POP DUP2 DUP2 SUB PUSH1 0x60 DUP4 ADD MSTORE PUSH2 0x172B DUP2 DUP11 PUSH2 0xE61 JUMP JUMPDEST SWAP1 POP DUP2 DUP2 SUB PUSH1 0x80 DUP4 ADD MSTORE PUSH2 0x173F DUP2 DUP10 PUSH2 0xE61 JUMP JUMPDEST SWAP1 POP PUSH2 0x174E PUSH1 0xA0 DUP4 ADD DUP9 PUSH2 0xE35 JUMP JUMPDEST PUSH2 0x175B PUSH1 0xC0 DUP4 ADD DUP8 PUSH2 0xE35 JUMP JUMPDEST PUSH2 0x1768 PUSH1 0xE0 DUP4 ADD DUP7 PUSH2 0xE35 JUMP JUMPDEST PUSH2 0x1776 PUSH2 0x100 DUP4 ADD DUP6 PUSH2 0x16D9 JUMP JUMPDEST PUSH2 0x1784 PUSH2 0x120 DUP4 ADD DUP5 PUSH2 0xE93 JUMP JUMPDEST SWAP12 SWAP11 POP POP POP POP POP POP POP POP POP POP POP JUMP JUMPDEST PUSH4 0x4E487B71 PUSH1 0xE0 SHL PUSH1 0x0 MSTORE PUSH1 0x32 PUSH1 0x4 MSTORE PUSH1 0x24 PUSH1 0x0 REVERT INVALID LOG2 PUSH5 0x6970667358 0x22 SLT KECCAK256 PUSH15 0xE03D4BDD2A3C3B6B5A02E08C33969D 0xC5 0xF7 SWAP15 0xE1 0xB3 0x4A 0x2F 0x27 PUSH28 0xA557B03916C67764736F6C6343000811003300000000000000000000 "},"gasEstimates":{"creation":{"codeDepositCost":"1222200","executionCost":"126226","totalCost":"1348426"},"external":{"campaignContributions(uint256,uint256)":"infinite","campaignSuccess(uint256)":"infinite","campaigns(uint256)":"infinite","contributorContributions(address,uint256)":"infinite","getCampaignContributions(uint256)":"infinite","getContributorContributions(address)":"infinite","manager()":"infinite","noOfCampaigns()":"2384","payCampaign(uint256)":"infinite","refundAmt(uint256)":"infinite","totalContributions()":"2406","totalTrustCoins()":"2405","uploadCampaign(uint256,string,string,string,string,uint256,uint256,uint256)":"infinite","vote(uint256)":"51326","votes(address,uint256)":"infinite"}},"methodIdentifiers":{"campaignContributions(uint256,uint256)":"539157bd","campaignSuccess(uint256)":"62b68dc4","campaigns(uint256)":"141961bc","contributorContributions(address,uint256)":"f6f219a5","getCampaignContributions(uint256)":"d3b0c32c","getContributorContributions(address)":"9f43f729","manager()":"481c6a75","noOfCampaigns()":"17818e59","payCampaign(uint256)":"42a4ed95","refundAmt(uint256)":"16559632","totalContributions()":"37c08923","totalTrustCoins()":"bef0cdaf","uploadCampaign(uint256,string,string,string,string,uint256,uint256,uint256)":"6897c137","vote(uint256)":"0121b93f","votes(address,uint256)":"9f2524ee"}},"storageLayout":{"storage":[{"astId":4,"contract":"contracts/Crowdfunding.sol:Crowdfunding","label":"onewei","offset":0,"slot":"0","type":"t_uint256"},{"astId":6,"contract":"contracts/Crowdfunding.sol:Crowdfunding","label":"manager","offset":0,"slot":"1","type":"t_address_payable"},{"astId":9,"contract":"contracts/Crowdfunding.sol:Crowdfunding","label":"noOfCampaigns","offset":0,"slot":"2","type":"t_uint256"},{"astId":12,"contract":"contracts/Crowdfunding.sol:Crowdfunding","label":"totalContributions","offset":0,"slot":"3","type":"t_uint256"},{"astId":15,"contract":"contracts/Crowdfunding.sol:Crowdfunding","label":"totalTrustCoins","offset":0,"slot":"4","type":"t_uint256"},{"astId":19,"contract":"contracts/Crowdfunding.sol:Crowdfunding","label":"managerTrust","offset":0,"slot":"5","type":"t_mapping(t_address,t_uint256)"},{"astId":77,"contract":"contracts/Crowdfunding.sol:Crowdfunding","label":"campaigns","offset":0,"slot":"6","type":"t_mapping(t_uint256,t_struct(Campaign)49_storage)"},{"astId":83,"contract":"contracts/Crowdfunding.sol:Crowdfunding","label":"votes","offset":0,"slot":"7","type":"t_mapping(t_address,t_mapping(t_uint256,t_bool))"},{"astId":90,"contract":"contracts/Crowdfunding.sol:Crowdfunding","label":"campaignContributions","offset":0,"slot":"8","type":"t_mapping(t_uint256,t_mapping(t_uint256,t_struct(Contributor)24_storage))"},{"astId":96,"contract":"contracts/Crowdfunding.sol:Crowdfunding","label":"contributorContributions","offset":0,"slot":"9","type":"t_mapping(t_address,t_mapping(t_uint256,t_uint256))"}],"types":{"t_address":{"encoding":"inplace","label":"address","numberOfBytes":"20"},"t_address_payable":{"encoding":"inplace","label":"address payable","numberOfBytes":"20"},"t_bool":{"encoding":"inplace","label":"bool","numberOfBytes":"1"},"t_mapping(t_address,t_mapping(t_uint256,t_bool))":{"encoding":"mapping","key":"t_address","label":"mapping(address => mapping(uint256 => bool))","numberOfBytes":"32","value":"t_mapping(t_uint256,t_bool)"},"t_mapping(t_address,t_mapping(t_uint256,t_uint256))":{"encoding":"mapping","key":"t_address","label":"mapping(address => mapping(uint256 => uint256))","numberOfBytes":"32","value":"t_mapping(t_uint256,t_uint256)"},"t_mapping(t_address,t_uint256)":{"encoding":"mapping","key":"t_address","label":"mapping(address => uint256)","numberOfBytes":"32","value":"t_uint256"},"t_mapping(t_uint256,t_bool)":{"encoding":"mapping","key":"t_uint256","label":"mapping(uint256 => bool)","numberOfBytes":"32","value":"t_bool"},"t_mapping(t_uint256,t_mapping(t_uint256,t_struct(Contributor)24_storage))":{"encoding":"mapping","key":"t_uint256","label":"mapping(uint256 => mapping(uint256 => struct Crowdfunding.Contributor))","numberOfBytes":"32","value":"t_mapping(t_uint256,t_struct(Contributor)24_storage)"},"t_mapping(t_uint256,t_struct(Campaign)49_storage)":{"encoding":"mapping","key":"t_uint256","label":"mapping(uint256 => struct Crowdfunding.Campaign)","numberOfBytes":"32","value":"t_struct(Campaign)49_storage"},"t_mapping(t_uint256,t_struct(Contributor)24_storage)":{"encoding":"mapping","key":"t_uint256","label":"mapping(uint256 => struct Crowdfunding.Contributor)","numberOfBytes":"32","value":"t_struct(Contributor)24_storage"},"t_mapping(t_uint256,t_uint256)":{"encoding":"mapping","key":"t_uint256","label":"mapping(uint256 => uint256)","numberOfBytes":"32","value":"t_uint256"},"t_string_storage":{"encoding":"bytes","label":"string","numberOfBytes":"32"},"t_struct(Campaign)49_storage":{"encoding":"inplace","label":"struct Crowdfunding.Campaign","members":[{"astId":26,"contract":"contracts/Crowdfunding.sol:Crowdfunding","label":"ID","offset":0,"slot":"0","type":"t_uint256"},{"astId":28,"contract":"contracts/Crowdfunding.sol:Crowdfunding","label":"title","offset":0,"slot":"1","type":"t_string_storage"},{"astId":30,"contract":"contracts/Crowdfunding.sol:Crowdfunding","label":"description","offset":0,"slot":"2","type":"t_string_storage"},{"astId":32,"contract":"contracts/Crowdfunding.sol:Crowdfunding","label":"location","offset":0,"slot":"3","type":"t_string_storage"},{"astId":34,"contract":"contracts/Crowdfunding.sol:Crowdfunding","label":"category","offset":0,"slot":"4","type":"t_string_storage"},{"astId":36,"contract":"contracts/Crowdfunding.sol:Crowdfunding","label":"minContribution","offset":0,"slot":"5","type":"t_uint256"},{"astId":38,"contract":"contracts/Crowdfunding.sol:Crowdfunding","label":"goal","offset":0,"slot":"6","type":"t_uint256"},{"astId":40,"contract":"contracts/Crowdfunding.sol:Crowdfunding","label":"pledgedAmt","offset":0,"slot":"7","type":"t_uint256"},{"astId":42,"contract":"contracts/Crowdfunding.sol:Crowdfunding","label":"campaignDeadline","offset":0,"slot":"8","type":"t_uint256"},{"astId":44,"contract":"contracts/Crowdfunding.sol:Crowdfunding","label":"noOfContributions","offset":0,"slot":"9","type":"t_uint256"},{"astId":46,"contract":"contracts/Crowdfunding.sol:Crowdfunding","label":"voteCount","offset":0,"slot":"10","type":"t_uint256"},{"astId":48,"contract":"contracts/Crowdfunding.sol:Crowdfunding","label":"claimed","offset":0,"slot":"11","type":"t_bool"}],"numberOfBytes":"384"},"t_struct(Contributor)24_storage":{"encoding":"inplace","label":"struct Crowdfunding.Contributor","members":[{"astId":21,"contract":"contracts/Crowdfunding.sol:Crowdfunding","label":"contributorAddress","offset":0,"slot":"0","type":"t_address"},{"astId":23,"contract":"contracts/Crowdfunding.sol:Crowdfunding","label":"amtContributed","offset":0,"slot":"1","type":"t_uint256"}],"numberOfBytes":"64"},"t_uint256":{"encoding":"inplace","label":"uint256","numberOfBytes":"32"}}},"userdoc":{"kind":"user","methods":{},"version":1}}}}