{
  "_format": "hh-sol-artifact-1",
  "contractName": "Crowdfunding",
  "sourceName": "contracts/Crowdfunding.sol",
  "abi": [
    {
      "inputs": [],
      "stateMutability": "payable",
      "type": "constructor"
    },
    {
      "anonymous": false,
      "inputs": [
        {
          "indexed": false,
          "internalType": "uint256",
          "name": "ID",
          "type": "uint256"
        },
        {
          "indexed": false,
          "internalType": "string",
          "name": "title",
          "type": "string"
        },
        {
          "indexed": false,
          "internalType": "string",
          "name": "description",
          "type": "string"
        },
        {
          "indexed": false,
          "internalType": "string",
          "name": "location",
          "type": "string"
        },
        {
          "indexed": false,
          "internalType": "string",
          "name": "category",
          "type": "string"
        },
        {
          "indexed": false,
          "internalType": "uint256",
          "name": "minContribution",
          "type": "uint256"
        },
        {
          "indexed": false,
          "internalType": "uint256",
          "name": "goal",
          "type": "uint256"
        },
        {
          "indexed": false,
          "internalType": "uint256",
          "name": "campaignDeadline",
          "type": "uint256"
        },
        {
          "indexed": false,
          "internalType": "uint256",
          "name": "noOfContributions",
          "type": "uint256"
        },
        {
          "indexed": false,
          "internalType": "bool",
          "name": "claimed",
          "type": "bool"
        }
      ],
      "name": "CampaignUploaded",
      "type": "event"
    },
    {
      "anonymous": false,
      "inputs": [
        {
          "indexed": false,
          "internalType": "uint256",
          "name": "id_",
          "type": "uint256"
        },
        {
          "indexed": false,
          "internalType": "address",
          "name": "contributor_",
          "type": "address"
        },
        {
          "indexed": false,
          "internalType": "uint256",
          "name": "amount_",
          "type": "uint256"
        }
      ],
      "name": "paidCampaign",
      "type": "event"
    },
    {
      "inputs": [
        {
          "internalType": "uint256",
          "name": "",
          "type": "uint256"
        },
        {
          "internalType": "uint256",
          "name": "",
          "type": "uint256"
        }
      ],
      "name": "campaignContributions",
      "outputs": [
        {
          "internalType": "address",
          "name": "contributorAddress",
          "type": "address"
        },
        {
          "internalType": "uint256",
          "name": "amtContributed",
          "type": "uint256"
        }
      ],
      "stateMutability": "view",
      "type": "function"
    },
    {
      "inputs": [
        {
          "internalType": "uint256",
          "name": "id_",
          "type": "uint256"
        }
      ],
      "name": "campaignSuccess",
      "outputs": [],
      "stateMutability": "nonpayable",
      "type": "function"
    },
    {
      "inputs": [
        {
          "internalType": "uint256",
          "name": "",
          "type": "uint256"
        }
      ],
      "name": "campaigns",
      "outputs": [
        {
          "internalType": "uint256",
          "name": "ID",
          "type": "uint256"
        },
        {
          "internalType": "string",
          "name": "title",
          "type": "string"
        },
        {
          "internalType": "string",
          "name": "description",
          "type": "string"
        },
        {
          "internalType": "string",
          "name": "location",
          "type": "string"
        },
        {
          "internalType": "string",
          "name": "category",
          "type": "string"
        },
        {
          "internalType": "uint256",
          "name": "minContribution",
          "type": "uint256"
        },
        {
          "internalType": "uint256",
          "name": "goal",
          "type": "uint256"
        },
        {
          "internalType": "uint256",
          "name": "pledgedAmt",
          "type": "uint256"
        },
        {
          "internalType": "uint256",
          "name": "campaignDeadline",
          "type": "uint256"
        },
        {
          "internalType": "uint256",
          "name": "noOfContributions",
          "type": "uint256"
        },
        {
          "internalType": "uint256",
          "name": "voteCount",
          "type": "uint256"
        },
        {
          "internalType": "bool",
          "name": "claimed",
          "type": "bool"
        }
      ],
      "stateMutability": "view",
      "type": "function"
    },
    {
      "inputs": [
        {
          "internalType": "address",
          "name": "",
          "type": "address"
        },
        {
          "internalType": "uint256",
          "name": "",
          "type": "uint256"
        }
      ],
      "name": "contributorContributions",
      "outputs": [
        {
          "internalType": "uint256",
          "name": "",
          "type": "uint256"
        }
      ],
      "stateMutability": "view",
      "type": "function"
    },
    {
      "inputs": [
        {
          "internalType": "uint256",
          "name": "id_",
          "type": "uint256"
        }
      ],
      "name": "getCampaignContributions",
      "outputs": [
        {
          "internalType": "address[]",
          "name": "",
          "type": "address[]"
        },
        {
          "internalType": "uint256[]",
          "name": "",
          "type": "uint256[]"
        }
      ],
      "stateMutability": "view",
      "type": "function"
    },
    {
      "inputs": [
        {
          "internalType": "address",
          "name": "contributorAddress_",
          "type": "address"
        }
      ],
      "name": "getContributorContributions",
      "outputs": [
        {
          "internalType": "uint256[]",
          "name": "",
          "type": "uint256[]"
        }
      ],
      "stateMutability": "view",
      "type": "function"
    },
    {
      "inputs": [],
      "name": "manager",
      "outputs": [
        {
          "internalType": "address payable",
          "name": "",
          "type": "address"
        }
      ],
      "stateMutability": "view",
      "type": "function"
    },
    {
      "inputs": [],
      "name": "noOfCampaigns",
      "outputs": [
        {
          "internalType": "uint256",
          "name": "",
          "type": "uint256"
        }
      ],
      "stateMutability": "view",
      "type": "function"
    },
    {
      "inputs": [
        {
          "internalType": "uint256",
          "name": "id_",
          "type": "uint256"
        }
      ],
      "name": "payCampaign",
      "outputs": [],
      "stateMutability": "payable",
      "type": "function"
    },
    {
      "inputs": [
        {
          "internalType": "uint256",
          "name": "id_",
          "type": "uint256"
        }
      ],
      "name": "refundAmt",
      "outputs": [],
      "stateMutability": "nonpayable",
      "type": "function"
    },
    {
      "inputs": [],
      "name": "totalContributions",
      "outputs": [
        {
          "internalType": "uint256",
          "name": "",
          "type": "uint256"
        }
      ],
      "stateMutability": "view",
      "type": "function"
    },
    {
      "inputs": [],
      "name": "totalTrustCoins",
      "outputs": [
        {
          "internalType": "uint256",
          "name": "",
          "type": "uint256"
        }
      ],
      "stateMutability": "view",
      "type": "function"
    },
    {
      "inputs": [
        {
          "internalType": "uint256",
          "name": "id_",
          "type": "uint256"
        },
        {
          "internalType": "string",
          "name": "title_",
          "type": "string"
        },
        {
          "internalType": "string",
          "name": "description_",
          "type": "string"
        },
        {
          "internalType": "string",
          "name": "location_",
          "type": "string"
        },
        {
          "internalType": "string",
          "name": "category_",
          "type": "string"
        },
        {
          "internalType": "uint256",
          "name": "minContribution_",
          "type": "uint256"
        },
        {
          "internalType": "uint256",
          "name": "goal_",
          "type": "uint256"
        },
        {
          "internalType": "uint256",
          "name": "deadline_",
          "type": "uint256"
        }
      ],
      "name": "uploadCampaign",
      "outputs": [],
      "stateMutability": "nonpayable",
      "type": "function"
    },
    {
      "inputs": [
        {
          "internalType": "uint256",
          "name": "campaignId",
          "type": "uint256"
        }
      ],
      "name": "vote",
      "outputs": [],
      "stateMutability": "nonpayable",
      "type": "function"
    },
    {
      "inputs": [
        {
          "internalType": "address",
          "name": "",
          "type": "address"
        },
        {
          "internalType": "uint256",
          "name": "",
          "type": "uint256"
        }
      ],
      "name": "votes",
      "outputs": [
        {
          "internalType": "bool",
          "name": "",
          "type": "bool"
        }
      ],
      "stateMutability": "view",
      "type": "function"
    }
  ],
  "bytecode": "0x608060409081526001600081815560028190556003819055620f4240600490815582546001600160a01b0319163390811790935591815260056020529182206101f4908190558154909290610055908490610076565b9091555061008f9050565b634e487b7160e01b600052601160045260246000fd5b8181038181111561008957610089610060565b92915050565b6117df8061009e6000396000f3fe6080604052600436106100e85760003560e01c8063539157bd1161008a5780639f43f729116100595780639f43f729146102ca578063bef0cdaf146102f7578063d3b0c32c1461030d578063f6f219a51461033b57600080fd5b8063539157bd146101e957806362b68dc4146102425780636897c137146102625780639f2524ee1461028257600080fd5b806317818e59116100c657806317818e591461017057806337c089231461019357806342a4ed95146101a9578063481c6a75146101bc57600080fd5b80630121b93f146100ed578063141961bc1461010f5780631655963214610150575b600080fd5b3480156100f957600080fd5b5061010d610108366004610e0c565b610373565b005b34801561011b57600080fd5b5061012f61012a366004610e0c565b6103de565b6040516101479c9b9a99989796959493929190610e9b565b60405180910390f35b34801561015c57600080fd5b5061010d61016b366004610e0c565b61065c565b34801561017c57600080fd5b5061018660025481565b6040516101479190610f6a565b34801561019f57600080fd5b5061018660035481565b61010d6101b7366004610e0c565b6107ac565b3480156101c857600080fd5b506001546101dc906001600160a01b031681565b6040516101479190610f92565b3480156101f557600080fd5b50610234610204366004610fa0565b6008602090815260009283526040808420909152908252902080546001909101546001600160a01b039091169082565b604051610147929190610fdd565b34801561024e57600080fd5b5061010d61025d366004610e0c565b610931565b34801561026e57600080fd5b5061010d61027d3660046110fa565b610a20565b34801561028e57600080fd5b506102bd61029d36600461122d565b600760209081526000928352604080842090915290825290205460ff1681565b604051610147919061124f565b3480156102d657600080fd5b506102ea6102e536600461125d565b610bc2565b60405161014791906112db565b34801561030357600080fd5b5061018660045481565b34801561031957600080fd5b5061032d610328366004610e0c565b610c76565b604051610147929190611336565b34801561034757600080fd5b5061018661035636600461122d565b600960209081526000928352604080842090915290825290205481565b33600090815260076020908152604080832084845290915290205460ff161561039b57600080fd5b3360009081526007602090815260408083208484528252808320805460ff1916600117905560069091528120600a018054916103d683611371565b919050555050565b60066020526000908152604090208054600182018054919291610400906113a1565b80601f016020809104026020016040519081016040528092919081815260200182805461042c906113a1565b80156104795780601f1061044e57610100808354040283529160200191610479565b820191906000526020600020905b81548152906001019060200180831161045c57829003601f168201915b50505050509080600201805461048e906113a1565b80601f01602080910402602001604051908101604052809291908181526020018280546104ba906113a1565b80156105075780601f106104dc57610100808354040283529160200191610507565b820191906000526020600020905b8154815290600101906020018083116104ea57829003601f168201915b50505050509080600301805461051c906113a1565b80601f0160208091040260200160405190810160405280929190818152602001828054610548906113a1565b80156105955780601f1061056a57610100808354040283529160200191610595565b820191906000526020600020905b81548152906001019060200180831161057857829003601f168201915b5050505050908060040180546105aa906113a1565b80601f01602080910402602001604051908101604052809291908181526020018280546105d6906113a1565b80156106235780601f106105f857610100808354040283529160200191610623565b820191906000526020600020905b81548152906001019060200180831161060657829003601f168201915b5050505060058301546006840154600785015460088601546009870154600a880154600b90980154969794969395509193909260ff168c565b600081815260066020526040902060080154421180156106945750600081815260066020819052604090912090810154600790910154105b6106b95760405162461bcd60e51b81526004016106b09061142a565b60405180910390fd5b60005b6000828152600660205260409020600901548110156107a8576000828152600860209081526040808320848452909152808220805460019091015491516001600160a01b039091169290839083906107139061143d565b60006040518083038185875af1925050503d8060008114610750576040519150601f19603f3d011682016040523d82523d6000602084013e610755565b606091505b50509050806107765760405162461bcd60e51b81526004016106b09061149f565b5050506000828152600860209081526040808320848452909152812060010155806107a081611371565b9150506106bc565b5050565b60008181526006602052604090206008015442106107dc5760405162461bcd60e51b81526004016106b0906114e6565b60008181526006602052604090206005015434101561080d5760405162461bcd60e51b81526004016106b090611528565b604080518082018252338082523460208084018290526000928352600981528483208684529052928120805492939290919061084a908490611538565b90915550506000828152600860209081526040808320600680845282852060098101548652918452918420855181547fffffffffffffffffffffffff0000000000000000000000000000000000000000166001600160a01b0390911617815585840151600190910155858452915260070180543492906108cb908490611538565b909155505060008281526006602052604081206009018054916108ed83611371565b91905055507f9de0a6dd1dfd3e6eda5e87572f845b6183a171debc4a266cf5c5eddc775409838233346040516109259392919061154b565b60405180910390a15050565b6001546001600160a01b0316331461094857600080fd5b600081815260066020526040902060080154421180156109805750600081815260066020819052604090912090810154600790910154115b61099c5760405162461bcd60e51b81526004016106b09061142a565b6000818152600660205260408082206007015490513391906109bd9061143d565b60006040518083038185875af1925050503d80600081146109fa576040519150601f19603f3d011682016040523d82523d6000602084013e6109ff565b606091505b50509050806107a85760405162461bcd60e51b81526004016106b09061149f565b6001546001600160a01b03163314610a3757600080fd5b604080516101808101825289815260208082018a81528284018a9052606083018990526080830188905260a0830187905260c08301869052600060e0840181905261010084018690526101208401819052610140840181905261016084018190528c81526006909252929020815181559151909182916001820190610abc9082611615565b5060408201516002820190610ad19082611615565b5060608201516003820190610ae69082611615565b5060808201516004820190610afb9082611615565b5060a0820151600582015560c0820151600682015560e0820151600782015561010082015160088201556101208201516009820155610140820151600a82015561016090910151600b909101805460ff19169115159190911790556002546040517f8a9ac69da6c9624863cc5677f1ffe445079deb65237ccf9adc3fa4b410b0426891610b9a918b908b908b908b908b908b908b9060009081906116e2565b60405180910390a160028054906000610bb283611371565b9190505550505050505050505050565b6060600060025467ffffffffffffffff811115610be157610be1610fff565b604051908082528060200260200182016040528015610c0a578160200160208202803683370190505b50905060005b600254811015610c6f576001600160a01b03841660009081526009602090815260408083208484529091529020548251839083908110610c5257610c52611793565b602090810291909101015280610c6781611371565b915050610c10565b5092915050565b600081815260066020526040812060090154606091829167ffffffffffffffff811115610ca557610ca5610fff565b604051908082528060200260200182016040528015610cce578160200160208202803683370190505b506000858152600660205260408120600901549192509067ffffffffffffffff811115610cfd57610cfd610fff565b604051908082528060200260200182016040528015610d26578160200160208202803683370190505b50905060005b600086815260066020526040902060090154811015610de057600086815260086020908152604080832084845290915290205483516001600160a01b0390911690849083908110610d7f57610d7f611793565b6001600160a01b03909216602092830291909101820152600087815260088252604080822084835290925220600101548251839083908110610dc357610dc3611793565b602090810291909101015280610dd881611371565b915050610d2c565b509094909350915050565b805b8114610df857600080fd5b50565b8035610e0681610deb565b92915050565b600060208284031215610e2157610e21600080fd5b6000610e2d8484610dfb565b949350505050565b805b82525050565b60005b83811015610e58578181015183820152602001610e40565b50506000910152565b6000610e6b825190565b808452602084019350610e82818560208601610e3d565b601f01601f19169290920192915050565b801515610e37565b6101808101610eaa828f610e35565b8181036020830152610ebc818e610e61565b90508181036040830152610ed0818d610e61565b90508181036060830152610ee4818c610e61565b90508181036080830152610ef8818b610e61565b9050610f0760a083018a610e35565b610f1460c0830189610e35565b610f2160e0830188610e35565b610f2f610100830187610e35565b610f3d610120830186610e35565b610f4b610140830185610e35565b610f59610160830184610e93565b9d9c50505050505050505050505050565b60208101610e068284610e35565b60006001600160a01b038216610e06565b610e3781610f78565b60208101610e068284610f89565b60008060408385031215610fb657610fb6600080fd5b6000610fc28585610dfb565b9250506020610fd385828601610dfb565b9150509250929050565b60408101610feb8285610f89565b610ff86020830184610e35565b9392505050565b634e487b7160e01b600052604160045260246000fd5b601f19601f830116810181811067ffffffffffffffff8211171561103b5761103b610fff565b6040525050565b600061104d60405190565b90506110598282611015565b919050565b600067ffffffffffffffff82111561107857611078610fff565b601f19601f83011660200192915050565b82818337506000910152565b60006110a86110a38461105e565b611042565b9050828152602081018484840111156110c3576110c3600080fd5b6110ce848285611089565b509392505050565b600082601f8301126110ea576110ea600080fd5b8135610e2d848260208601611095565b600080600080600080600080610100898b03121561111a5761111a600080fd5b60006111268b8b610dfb565b985050602089013567ffffffffffffffff81111561114657611146600080fd5b6111528b828c016110d6565b975050604089013567ffffffffffffffff81111561117257611172600080fd5b61117e8b828c016110d6565b965050606089013567ffffffffffffffff81111561119e5761119e600080fd5b6111aa8b828c016110d6565b955050608089013567ffffffffffffffff8111156111ca576111ca600080fd5b6111d68b828c016110d6565b94505060a06111e78b828c01610dfb565b93505060c06111f88b828c01610dfb565b92505060e06112098b828c01610dfb565b9150509295985092959890939650565b610ded81610f78565b8035610e0681611219565b6000806040838503121561124357611243600080fd5b6000610fc28585611222565b60208101610e068284610e93565b60006020828403121561127257611272600080fd5b6000610e2d8484611222565b600061128a8383610e35565b505060200190565b600061129c825190565b80845260209384019383018060005b838110156112d05781516112bf888261127e565b9750602083019250506001016112ab565b509495945050505050565b60208082528101610ff88184611292565b600061128a8383610f89565b6000611302825190565b80845260209384019383018060005b838110156112d057815161132588826112ec565b975060208301925050600101611311565b6040808252810161134781856112f8565b90508181036020830152610e2d8184611292565b634e487b7160e01b600052601160045260246000fd5b600060001982036113845761138461135b565b5060010190565b634e487b7160e01b600052602260045260246000fd5b6002810460018216806113b557607f821691505b6020821081036113c7576113c761138b565b50919050565b602c81526000602082017f596f7520617265206e6f7420656c696769626c6520746f20676574207265667581527f6e64207269676874206e6f770000000000000000000000000000000000000000602082015291505b5060400190565b60208082528101610e06816113cd565b90565b600081610e06565b602c81526000602082017f4661696c656420746f2073656e6420757365722062616c616e6365206261636b81527f20746f207468652075736572000000000000000000000000000000000000000060208201529150611423565b60208082528101610e0681611445565b601381526000602082017f446561646c696e65206861732070617373656400000000000000000000000000815291505b5060200190565b60208082528101610e06816114af565b60208082527f4d696e696d756d20636f6e747269627574696f6e20686173206e6f74206d6574910190815260006114df565b60208082528101610e06816114f6565b80820180821115610e0657610e0661135b565b606081016115598286610e35565b6115666020830185610f89565b610e2d6040830184610e35565b6000610e0661143a8381565b61158883611573565b81546008840282811b60001990911b908116901990911617825550505050565b60006115b581848461157f565b505050565b818110156107a8576115cd6000826115a8565b6001016115ba565b601f8211156115b5576000818152602090206020601f850104810160208510156115fc5750805b61160e6020601f8601048301826115ba565b5050505050565b815167ffffffffffffffff81111561162f5761162f610fff565b61163982546113a1565b6116448282856115d5565b6020601f83116001811461167857600084156116605750858201515b600019600886021c19811660028602178655506116d1565b600085815260208120601f198616915b828110156116a85788850151825560209485019460019092019101611688565b868310156116c45784890151600019601f89166008021c191682555b6001600288020188555050505b505050505050565b610e3781611573565b61014081016116f1828d610e35565b8181036020830152611703818c610e61565b90508181036040830152611717818b610e61565b9050818103606083015261172b818a610e61565b9050818103608083015261173f8189610e61565b905061174e60a0830188610e35565b61175b60c0830187610e35565b61176860e0830186610e35565b6117766101008301856116d9565b611784610120830184610e93565b9b9a5050505050505050505050565b634e487b7160e01b600052603260045260246000fdfea26469706673582212206ee03d4bdd2a3c3b6b5a02e08c33969dc5f79ee1b34a2f277ba557b03916c67764736f6c63430008110033",
  "linkReferences": {},
  "deployedLinkReferences": {}
}