{
  "_format": "hh-sol-artifact-1",
  "contractName": "Crowdfunding",
  "sourceName": "contracts/Crowdfunding.sol",
  "abi": [
    {
      "inputs": [],
      "stateMutability": "payable",
      "type": "constructor"
    },
    {
      "anonymous": false,
      "inputs": [
        {
          "indexed": false,
          "internalType": "uint256",
          "name": "ID",
          "type": "uint256"
        },
        {
          "indexed": false,
          "internalType": "string",
          "name": "title",
          "type": "string"
        },
        {
          "indexed": false,
          "internalType": "string",
          "name": "description",
          "type": "string"
        },
        {
          "indexed": false,
          "internalType": "string",
          "name": "location",
          "type": "string"
        },
        {
          "indexed": false,
          "internalType": "string",
          "name": "category",
          "type": "string"
        },
        {
          "indexed": false,
          "internalType": "uint256",
          "name": "minContribution",
          "type": "uint256"
        },
        {
          "indexed": false,
          "internalType": "uint256",
          "name": "goal",
          "type": "uint256"
        },
        {
          "indexed": false,
          "internalType": "uint256",
          "name": "campaignDeadline",
          "type": "uint256"
        },
        {
          "indexed": false,
          "internalType": "uint256",
          "name": "noOfContributions",
          "type": "uint256"
        },
        {
          "indexed": false,
          "internalType": "bool",
          "name": "claimed",
          "type": "bool"
        }
      ],
      "name": "CampaignUploaded",
      "type": "event"
    },
    {
      "anonymous": false,
      "inputs": [
        {
          "indexed": false,
          "internalType": "uint256",
          "name": "id_",
          "type": "uint256"
        },
        {
          "indexed": false,
          "internalType": "address",
          "name": "contributor_",
          "type": "address"
        },
        {
          "indexed": false,
          "internalType": "uint256",
          "name": "amount_",
          "type": "uint256"
        }
      ],
      "name": "paidCampaign",
      "type": "event"
    },
    {
      "inputs": [
        {
          "internalType": "uint256",
          "name": "",
          "type": "uint256"
        },
        {
          "internalType": "uint256",
          "name": "",
          "type": "uint256"
        }
      ],
      "name": "campaignContributions",
      "outputs": [
        {
          "internalType": "address",
          "name": "contributorAddress",
          "type": "address"
        },
        {
          "internalType": "uint256",
          "name": "amtContributed",
          "type": "uint256"
        }
      ],
      "stateMutability": "view",
      "type": "function"
    },
    {
      "inputs": [
        {
          "internalType": "uint256",
          "name": "id_",
          "type": "uint256"
        }
      ],
      "name": "campaignSuccess",
      "outputs": [],
      "stateMutability": "nonpayable",
      "type": "function"
    },
    {
      "inputs": [
        {
          "internalType": "uint256",
          "name": "",
          "type": "uint256"
        }
      ],
      "name": "campaigns",
      "outputs": [
        {
          "internalType": "uint256",
          "name": "ID",
          "type": "uint256"
        },
        {
          "internalType": "string",
          "name": "title",
          "type": "string"
        },
        {
          "internalType": "string",
          "name": "description",
          "type": "string"
        },
        {
          "internalType": "string",
          "name": "location",
          "type": "string"
        },
        {
          "internalType": "string",
          "name": "category",
          "type": "string"
        },
        {
          "internalType": "uint256",
          "name": "minContribution",
          "type": "uint256"
        },
        {
          "internalType": "uint256",
          "name": "goal",
          "type": "uint256"
        },
        {
          "internalType": "uint256",
          "name": "pledgedAmt",
          "type": "uint256"
        },
        {
          "internalType": "uint256",
          "name": "campaignDeadline",
          "type": "uint256"
        },
        {
          "internalType": "uint256",
          "name": "noOfContributions",
          "type": "uint256"
        },
        {
          "internalType": "bool",
          "name": "claimed",
          "type": "bool"
        }
      ],
      "stateMutability": "view",
      "type": "function"
    },
    {
      "inputs": [
        {
          "internalType": "address",
          "name": "",
          "type": "address"
        },
        {
          "internalType": "uint256",
          "name": "",
          "type": "uint256"
        }
      ],
      "name": "contributorContributions",
      "outputs": [
        {
          "internalType": "uint256",
          "name": "",
          "type": "uint256"
        }
      ],
      "stateMutability": "view",
      "type": "function"
    },
    {
      "inputs": [
        {
          "internalType": "uint256",
          "name": "id_",
          "type": "uint256"
        }
      ],
      "name": "getCampaignContributions",
      "outputs": [
        {
          "internalType": "address[]",
          "name": "",
          "type": "address[]"
        },
        {
          "internalType": "uint256[]",
          "name": "",
          "type": "uint256[]"
        }
      ],
      "stateMutability": "view",
      "type": "function"
    },
    {
      "inputs": [
        {
          "internalType": "address",
          "name": "contributorAddress_",
          "type": "address"
        }
      ],
      "name": "getContributorContributions",
      "outputs": [
        {
          "internalType": "uint256[]",
          "name": "",
          "type": "uint256[]"
        }
      ],
      "stateMutability": "view",
      "type": "function"
    },
    {
      "inputs": [],
      "name": "manager",
      "outputs": [
        {
          "internalType": "address payable",
          "name": "",
          "type": "address"
        }
      ],
      "stateMutability": "view",
      "type": "function"
    },
    {
      "inputs": [],
      "name": "noOfCampaigns",
      "outputs": [
        {
          "internalType": "uint256",
          "name": "",
          "type": "uint256"
        }
      ],
      "stateMutability": "view",
      "type": "function"
    },
    {
      "inputs": [
        {
          "internalType": "uint256",
          "name": "id_",
          "type": "uint256"
        }
      ],
      "name": "payCampaign",
      "outputs": [],
      "stateMutability": "payable",
      "type": "function"
    },
    {
      "inputs": [
        {
          "internalType": "uint256",
          "name": "id_",
          "type": "uint256"
        }
      ],
      "name": "refundAmt",
      "outputs": [],
      "stateMutability": "nonpayable",
      "type": "function"
    },
    {
      "inputs": [],
      "name": "totalContributions",
      "outputs": [
        {
          "internalType": "uint256",
          "name": "",
          "type": "uint256"
        }
      ],
      "stateMutability": "view",
      "type": "function"
    },
    {
      "inputs": [],
      "name": "totalTrustCoins",
      "outputs": [
        {
          "internalType": "uint256",
          "name": "",
          "type": "uint256"
        }
      ],
      "stateMutability": "view",
      "type": "function"
    },
    {
      "inputs": [
        {
          "internalType": "uint256",
          "name": "id_",
          "type": "uint256"
        },
        {
          "internalType": "string",
          "name": "title_",
          "type": "string"
        },
        {
          "internalType": "string",
          "name": "description_",
          "type": "string"
        },
        {
          "internalType": "string",
          "name": "location_",
          "type": "string"
        },
        {
          "internalType": "string",
          "name": "category_",
          "type": "string"
        },
        {
          "internalType": "uint256",
          "name": "minContribution_",
          "type": "uint256"
        },
        {
          "internalType": "uint256",
          "name": "goal_",
          "type": "uint256"
        },
        {
          "internalType": "uint256",
          "name": "deadline_",
          "type": "uint256"
        }
      ],
      "name": "uploadCampaign",
      "outputs": [],
      "stateMutability": "nonpayable",
      "type": "function"
    }
  ],
  "bytecode": "0x608060409081526001600081815560028190556003819055620f4240600490815582546001600160a01b0319163390811790935591815260056020529182206101f4908190558154909290610055908490610076565b9091555061008f9050565b634e487b7160e01b600052601160045260246000fd5b8181038181111561008957610089610060565b92915050565b6116dc8061009e6000396000f3fe6080604052600436106100d25760003560e01c8063539157bd1161007f5780639f43f729116100595780639f43f7291461024b578063bef0cdaf14610278578063d3b0c32c1461028e578063f6f219a5146102bc57600080fd5b8063539157bd146101b257806362b68dc41461020b5780636897c1371461022b57600080fd5b806337c08923116100b057806337c089231461015c57806342a4ed9514610172578063481c6a751461018557600080fd5b8063141961bc146100d7578063165596321461011757806317818e5914610139575b600080fd5b3480156100e357600080fd5b506100f76100f2366004610d26565b6102f4565b60405161010e9b9a99989796959493929190610db5565b60405180910390f35b34801561012357600080fd5b50610137610132366004610d26565b61056d565b005b34801561014557600080fd5b5061014f60025481565b60405161010e9190610e75565b34801561016857600080fd5b5061014f60035481565b610137610180366004610d26565b6106bd565b34801561019157600080fd5b506001546101a5906001600160a01b031681565b60405161010e9190610e9d565b3480156101be57600080fd5b506101fd6101cd366004610eab565b6007602090815260009283526040808420909152908252902080546001909101546001600160a01b039091169082565b60405161010e929190610ee8565b34801561021757600080fd5b50610137610226366004610d26565b610840565b34801561023757600080fd5b50610137610246366004611005565b61092f565b34801561025757600080fd5b5061026b610266366004611138565b610adc565b60405161010e91906111b6565b34801561028457600080fd5b5061014f60045481565b34801561029a57600080fd5b506102ae6102a9366004610d26565b610b90565b60405161010e929190611211565b3480156102c857600080fd5b5061014f6102d7366004611236565b600860209081526000928352604080842090915290825290205481565b600660205260009081526040902080546001820180549192916103169061126e565b80601f01602080910402602001604051908101604052809291908181526020018280546103429061126e565b801561038f5780601f106103645761010080835404028352916020019161038f565b820191906000526020600020905b81548152906001019060200180831161037257829003601f168201915b5050505050908060020180546103a49061126e565b80601f01602080910402602001604051908101604052809291908181526020018280546103d09061126e565b801561041d5780601f106103f25761010080835404028352916020019161041d565b820191906000526020600020905b81548152906001019060200180831161040057829003601f168201915b5050505050908060030180546104329061126e565b80601f016020809104026020016040519081016040528092919081815260200182805461045e9061126e565b80156104ab5780601f10610480576101008083540402835291602001916104ab565b820191906000526020600020905b81548152906001019060200180831161048e57829003601f168201915b5050505050908060040180546104c09061126e565b80601f01602080910402602001604051908101604052809291908181526020018280546104ec9061126e565b80156105395780601f1061050e57610100808354040283529160200191610539565b820191906000526020600020905b81548152906001019060200180831161051c57829003601f168201915b50505060058401546006850154600786015460088701546009880154600a9098015496979396929550909350919060ff168b565b600081815260066020526040902060080154421180156105a55750600081815260066020819052604090912090810154600790910154105b6105ca5760405162461bcd60e51b81526004016105c1906112f7565b60405180910390fd5b60005b6000828152600660205260409020600901548110156106b9576000828152600760209081526040808320848452909152808220805460019091015491516001600160a01b039091169290839083906106249061130a565b60006040518083038185875af1925050503d8060008114610661576040519150601f19603f3d011682016040523d82523d6000602084013e610666565b606091505b50509050806106875760405162461bcd60e51b81526004016105c19061136c565b5050506000828152600760209081526040808320848452909152812060010155806106b181611392565b9150506105cd565b5050565b60008181526006602052604090206008015442106106ed5760405162461bcd60e51b81526004016105c1906113e3565b60008181526006602052604090206005015434101561071e5760405162461bcd60e51b81526004016105c190611425565b604080518082018252338082523460208084018290526000928352600881528483208684529052928120805492939290919061075b908490611435565b90915550506000828152600760208181526040808420600680845282862060098101548752918452918520865181547fffffffffffffffffffffffff0000000000000000000000000000000000000000166001600160a01b039091161781558684015160019091015586855291520180543492906107da908490611435565b909155505060008281526006602052604081206009018054916107fc83611392565b91905055507f9de0a6dd1dfd3e6eda5e87572f845b6183a171debc4a266cf5c5eddc7754098382333460405161083493929190611448565b60405180910390a15050565b6001546001600160a01b0316331461085757600080fd5b6000818152600660205260409020600801544211801561088f5750600081815260066020819052604090912090810154600790910154115b6108ab5760405162461bcd60e51b81526004016105c1906112f7565b6000818152600660205260408082206007015490513391906108cc9061130a565b60006040518083038185875af1925050503d8060008114610909576040519150601f19603f3d011682016040523d82523d6000602084013e61090e565b606091505b50509050806106b95760405162461bcd60e51b81526004016105c19061136c565b6001546001600160a01b0316331461094657600080fd5b604080516101608101825289815260208082018a81528284018a9052606083018990526080830188905260a0830187905260c08301869052600060e084018190526101008401869052610120840181905261014084018190528c815260069092529290208151815591519091829160018201906109c39082611512565b50604082015160028201906109d89082611512565b50606082015160038201906109ed9082611512565b5060808201516004820190610a029082611512565b5060a0820151600582015560c0820151600682015560e082015160078201556101008201516008820155610120820151600982015561014090910151600a90910180547fffffffffffffffffffffffffffffffffffffffffffffffffffffffffffffff00169115159190911790556002546040517f8a9ac69da6c9624863cc5677f1ffe445079deb65237ccf9adc3fa4b410b0426891610ab4918b908b908b908b908b908b908b9060009081906115df565b60405180910390a160028054906000610acc83611392565b9190505550505050505050505050565b6060600060025467ffffffffffffffff811115610afb57610afb610f0a565b604051908082528060200260200182016040528015610b24578160200160208202803683370190505b50905060005b600254811015610b89576001600160a01b03841660009081526008602090815260408083208484529091529020548251839083908110610b6c57610b6c611690565b602090810291909101015280610b8181611392565b915050610b2a565b5092915050565b600081815260066020526040812060090154606091829167ffffffffffffffff811115610bbf57610bbf610f0a565b604051908082528060200260200182016040528015610be8578160200160208202803683370190505b506000858152600660205260408120600901549192509067ffffffffffffffff811115610c1757610c17610f0a565b604051908082528060200260200182016040528015610c40578160200160208202803683370190505b50905060005b600086815260066020526040902060090154811015610cfa57600086815260076020908152604080832084845290915290205483516001600160a01b0390911690849083908110610c9957610c99611690565b6001600160a01b03909216602092830291909101820152600087815260078252604080822084835290925220600101548251839083908110610cdd57610cdd611690565b602090810291909101015280610cf281611392565b915050610c46565b509094909350915050565b805b8114610d1257600080fd5b50565b8035610d2081610d05565b92915050565b600060208284031215610d3b57610d3b600080fd5b6000610d478484610d15565b949350505050565b805b82525050565b60005b83811015610d72578181015183820152602001610d5a565b50506000910152565b6000610d85825190565b808452602084019350610d9c818560208601610d57565b601f01601f19169290920192915050565b801515610d51565b6101608101610dc4828e610d4f565b8181036020830152610dd6818d610d7b565b90508181036040830152610dea818c610d7b565b90508181036060830152610dfe818b610d7b565b90508181036080830152610e12818a610d7b565b9050610e2160a0830189610d4f565b610e2e60c0830188610d4f565b610e3b60e0830187610d4f565b610e49610100830186610d4f565b610e57610120830185610d4f565b610e65610140830184610dad565b9c9b505050505050505050505050565b60208101610d208284610d4f565b60006001600160a01b038216610d20565b610d5181610e83565b60208101610d208284610e94565b60008060408385031215610ec157610ec1600080fd5b6000610ecd8585610d15565b9250506020610ede85828601610d15565b9150509250929050565b60408101610ef68285610e94565b610f036020830184610d4f565b9392505050565b634e487b7160e01b600052604160045260246000fd5b601f19601f830116810181811067ffffffffffffffff82111715610f4657610f46610f0a565b6040525050565b6000610f5860405190565b9050610f648282610f20565b919050565b600067ffffffffffffffff821115610f8357610f83610f0a565b601f19601f83011660200192915050565b82818337506000910152565b6000610fb3610fae84610f69565b610f4d565b905082815260208101848484011115610fce57610fce600080fd5b610fd9848285610f94565b509392505050565b600082601f830112610ff557610ff5600080fd5b8135610d47848260208601610fa0565b600080600080600080600080610100898b03121561102557611025600080fd5b60006110318b8b610d15565b985050602089013567ffffffffffffffff81111561105157611051600080fd5b61105d8b828c01610fe1565b975050604089013567ffffffffffffffff81111561107d5761107d600080fd5b6110898b828c01610fe1565b965050606089013567ffffffffffffffff8111156110a9576110a9600080fd5b6110b58b828c01610fe1565b955050608089013567ffffffffffffffff8111156110d5576110d5600080fd5b6110e18b828c01610fe1565b94505060a06110f28b828c01610d15565b93505060c06111038b828c01610d15565b92505060e06111148b828c01610d15565b9150509295985092959890939650565b610d0781610e83565b8035610d2081611124565b60006020828403121561114d5761114d600080fd5b6000610d47848461112d565b60006111658383610d4f565b505060200190565b6000611177825190565b80845260209384019383018060005b838110156111ab57815161119a8882611159565b975060208301925050600101611186565b509495945050505050565b60208082528101610f03818461116d565b60006111658383610e94565b60006111dd825190565b80845260209384019383018060005b838110156111ab57815161120088826111c7565b9750602083019250506001016111ec565b6040808252810161122281856111d3565b90508181036020830152610d47818461116d565b6000806040838503121561124c5761124c600080fd5b6000610ecd858561112d565b634e487b7160e01b600052602260045260246000fd5b60028104600182168061128257607f821691505b60208210810361129457611294611258565b50919050565b602c81526000602082017f596f7520617265206e6f7420656c696769626c6520746f20676574207265667581527f6e64207269676874206e6f770000000000000000000000000000000000000000602082015291505b5060400190565b60208082528101610d208161129a565b90565b600081610d20565b602c81526000602082017f4661696c656420746f2073656e6420757365722062616c616e6365206261636b81527f20746f2074686520757365720000000000000000000000000000000000000000602082015291506112f0565b60208082528101610d2081611312565b634e487b7160e01b600052601160045260246000fd5b600060001982036113a5576113a561137c565b5060010190565b601381526000602082017f446561646c696e65206861732070617373656400000000000000000000000000815291505b5060200190565b60208082528101610d20816113ac565b60208082527f4d696e696d756d20636f6e747269627574696f6e20686173206e6f74206d6574910190815260006113dc565b60208082528101610d20816113f3565b80820180821115610d2057610d2061137c565b606081016114568286610d4f565b6114636020830185610e94565b610d476040830184610d4f565b6000610d206113078381565b61148583611470565b81546008840282811b60001990911b908116901990911617825550505050565b60006114b281848461147c565b505050565b818110156106b9576114ca6000826114a5565b6001016114b7565b601f8211156114b2576000818152602090206020601f850104810160208510156114f95750805b61150b6020601f8601048301826114b7565b5050505050565b815167ffffffffffffffff81111561152c5761152c610f0a565b611536825461126e565b6115418282856114d2565b6020601f831160018114611575576000841561155d5750858201515b600019600886021c19811660028602178655506115ce565b600085815260208120601f198616915b828110156115a55788850151825560209485019460019092019101611585565b868310156115c15784890151600019601f89166008021c191682555b6001600288020188555050505b505050505050565b610d5181611470565b61014081016115ee828d610d4f565b8181036020830152611600818c610d7b565b90508181036040830152611614818b610d7b565b90508181036060830152611628818a610d7b565b9050818103608083015261163c8189610d7b565b905061164b60a0830188610d4f565b61165860c0830187610d4f565b61166560e0830186610d4f565b6116736101008301856115d6565b611681610120830184610dad565b9b9a5050505050505050505050565b634e487b7160e01b600052603260045260246000fdfea2646970667358221220976f7c5429d1ffd82aee2e9772e0aa42294dbf9449fddcce599d510d7febb23564736f6c63430008110033",
  "linkReferences": {},
  "deployedLinkReferences": {}
}