{
  "contractName": "Crowdfunding",
  "abi": [
    {
      "inputs": [],
      "stateMutability": "payable",
      "type": "constructor",
      "payable": true
    },
    {
      "anonymous": false,
      "inputs": [
        {
          "indexed": false,
          "internalType": "uint256",
          "name": "ID",
          "type": "uint256"
        },
        {
          "indexed": false,
          "internalType": "string",
          "name": "title",
          "type": "string"
        },
        {
          "indexed": false,
          "internalType": "string",
          "name": "description",
          "type": "string"
        },
        {
          "indexed": false,
          "internalType": "string",
          "name": "location",
          "type": "string"
        },
        {
          "indexed": false,
          "internalType": "string",
          "name": "category",
          "type": "string"
        },
        {
          "indexed": false,
          "internalType": "uint256",
          "name": "minContribution",
          "type": "uint256"
        },
        {
          "indexed": false,
          "internalType": "uint256",
          "name": "goal",
          "type": "uint256"
        },
        {
          "indexed": false,
          "internalType": "uint256",
          "name": "campaignDeadline",
          "type": "uint256"
        },
        {
          "indexed": false,
          "internalType": "uint256",
          "name": "noOfContributions",
          "type": "uint256"
        },
        {
          "indexed": false,
          "internalType": "bool",
          "name": "claimed",
          "type": "bool"
        }
      ],
      "name": "CampaignUploaded",
      "type": "event"
    },
    {
      "anonymous": false,
      "inputs": [
        {
          "indexed": false,
          "internalType": "uint256",
          "name": "id_",
          "type": "uint256"
        },
        {
          "indexed": false,
          "internalType": "address",
          "name": "contributor_",
          "type": "address"
        },
        {
          "indexed": false,
          "internalType": "uint256",
          "name": "amount_",
          "type": "uint256"
        }
      ],
      "name": "paidCampaign",
      "type": "event"
    },
    {
      "inputs": [
        {
          "internalType": "uint256",
          "name": "",
          "type": "uint256"
        },
        {
          "internalType": "uint256",
          "name": "",
          "type": "uint256"
        }
      ],
      "name": "campaignContributions",
      "outputs": [
        {
          "internalType": "address",
          "name": "contributorAddress",
          "type": "address"
        },
        {
          "internalType": "uint256",
          "name": "amtContributed",
          "type": "uint256"
        }
      ],
      "stateMutability": "view",
      "type": "function",
      "constant": true
    },
    {
      "inputs": [
        {
          "internalType": "uint256",
          "name": "",
          "type": "uint256"
        }
      ],
      "name": "campaigns",
      "outputs": [
        {
          "internalType": "uint256",
          "name": "ID",
          "type": "uint256"
        },
        {
          "internalType": "string",
          "name": "title",
          "type": "string"
        },
        {
          "internalType": "string",
          "name": "description",
          "type": "string"
        },
        {
          "internalType": "string",
          "name": "location",
          "type": "string"
        },
        {
          "internalType": "string",
          "name": "category",
          "type": "string"
        },
        {
          "internalType": "uint256",
          "name": "minContribution",
          "type": "uint256"
        },
        {
          "internalType": "uint256",
          "name": "goal",
          "type": "uint256"
        },
        {
          "internalType": "uint256",
          "name": "pledgedAmt",
          "type": "uint256"
        },
        {
          "internalType": "uint256",
          "name": "campaignDeadline",
          "type": "uint256"
        },
        {
          "internalType": "uint256",
          "name": "noOfContributions",
          "type": "uint256"
        },
        {
          "internalType": "bool",
          "name": "claimed",
          "type": "bool"
        }
      ],
      "stateMutability": "view",
      "type": "function",
      "constant": true
    },
    {
      "inputs": [
        {
          "internalType": "address",
          "name": "",
          "type": "address"
        },
        {
          "internalType": "uint256",
          "name": "",
          "type": "uint256"
        }
      ],
      "name": "contributorContributions",
      "outputs": [
        {
          "internalType": "uint256",
          "name": "",
          "type": "uint256"
        }
      ],
      "stateMutability": "view",
      "type": "function",
      "constant": true
    },
    {
      "inputs": [],
      "name": "manager",
      "outputs": [
        {
          "internalType": "address payable",
          "name": "",
          "type": "address"
        }
      ],
      "stateMutability": "view",
      "type": "function",
      "constant": true
    },
    {
      "inputs": [],
      "name": "noOfCampaigns",
      "outputs": [
        {
          "internalType": "uint256",
          "name": "",
          "type": "uint256"
        }
      ],
      "stateMutability": "view",
      "type": "function",
      "constant": true
    },
    {
      "inputs": [],
      "name": "totalContributions",
      "outputs": [
        {
          "internalType": "uint256",
          "name": "",
          "type": "uint256"
        }
      ],
      "stateMutability": "view",
      "type": "function",
      "constant": true
    },
    {
      "inputs": [],
      "name": "totalTrustCoins",
      "outputs": [
        {
          "internalType": "uint256",
          "name": "",
          "type": "uint256"
        }
      ],
      "stateMutability": "view",
      "type": "function",
      "constant": true
    },
    {
      "inputs": [
        {
          "internalType": "uint256",
          "name": "id_",
          "type": "uint256"
        },
        {
          "internalType": "string",
          "name": "title_",
          "type": "string"
        },
        {
          "internalType": "string",
          "name": "description_",
          "type": "string"
        },
        {
          "internalType": "string",
          "name": "location_",
          "type": "string"
        },
        {
          "internalType": "string",
          "name": "category_",
          "type": "string"
        },
        {
          "internalType": "uint256",
          "name": "minContribution_",
          "type": "uint256"
        },
        {
          "internalType": "uint256",
          "name": "goal_",
          "type": "uint256"
        },
        {
          "internalType": "uint256",
          "name": "deadline_",
          "type": "uint256"
        }
      ],
      "name": "uploadCampaign",
      "outputs": [],
      "stateMutability": "nonpayable",
      "type": "function"
    },
    {
      "inputs": [
        {
          "internalType": "uint256",
          "name": "id_",
          "type": "uint256"
        }
      ],
      "name": "payCampaign",
      "outputs": [],
      "stateMutability": "payable",
      "type": "function",
      "payable": true
    },
    {
      "inputs": [
        {
          "internalType": "uint256",
          "name": "id_",
          "type": "uint256"
        }
      ],
      "name": "getCampaignContributions",
      "outputs": [
        {
          "internalType": "address[]",
          "name": "",
          "type": "address[]"
        },
        {
          "internalType": "uint256[]",
          "name": "",
          "type": "uint256[]"
        }
      ],
      "stateMutability": "view",
      "type": "function",
      "constant": true
    },
    {
      "inputs": [
        {
          "internalType": "address",
          "name": "contributorAddress_",
          "type": "address"
        }
      ],
      "name": "getContributorContributions",
      "outputs": [
        {
          "internalType": "uint256[]",
          "name": "",
          "type": "uint256[]"
        }
      ],
      "stateMutability": "view",
      "type": "function",
      "constant": true
    },
    {
      "inputs": [
        {
          "internalType": "uint256",
          "name": "id_",
          "type": "uint256"
        }
      ],
      "name": "campaignSuccess",
      "outputs": [],
      "stateMutability": "nonpayable",
      "type": "function"
    },
    {
      "inputs": [
        {
          "internalType": "uint256",
          "name": "id_",
          "type": "uint256"
        }
      ],
      "name": "refundAmt",
      "outputs": [],
      "stateMutability": "nonpayable",
      "type": "function"
    }
  ],
  "bytecode": "0x6080604052600160005560006002556000600355620f424060045533600160006101000a81548173ffffffffffffffffffffffffffffffffffffffff021916908373ffffffffffffffffffffffffffffffffffffffff1602179055506101f4600560003373ffffffffffffffffffffffffffffffffffffffff1673ffffffffffffffffffffffffffffffffffffffff168152602001908152602001600020819055506101f460046000828254620000b79190620000fd565b9250508190555062000138565b6000819050919050565b7f4e487b7100000000000000000000000000000000000000000000000000000000600052601160045260246000fd5b60006200010a82620000c4565b91506200011783620000c4565b9250828203905081811115620001325762000131620000ce565b5b92915050565b61208e80620001486000396000f3fe6080604052600436106100c25760003560e01c8063539157bd1161007f5780639f43f729116100595780639f43f72914610264578063bef0cdaf146102a1578063d3b0c32c146102cc578063f6f219a51461030a576100c2565b8063539157bd146101d457806362b68dc4146102125780636897c1371461023b576100c2565b8063141961bc146100c7578063165596321461010e57806317818e591461013757806337c089231461016257806342a4ed951461018d578063481c6a75146101a9575b600080fd5b3480156100d357600080fd5b506100ee60048036038101906100e991906111bc565b610347565b6040516101059b9a999897969594939291906112a3565b60405180910390f35b34801561011a57600080fd5b50610135600480360381019061013091906111bc565b6105ce565b005b34801561014357600080fd5b5061014c6107e9565b604051610159919061136a565b60405180910390f35b34801561016e57600080fd5b506101776107ef565b604051610184919061136a565b60405180910390f35b6101a760048036038101906101a291906111bc565b6107f5565b005b3480156101b557600080fd5b506101be610a63565b6040516101cb91906113c6565b60405180910390f35b3480156101e057600080fd5b506101fb60048036038101906101f691906113e1565b610a89565b604051610209929190611442565b60405180910390f35b34801561021e57600080fd5b50610239600480360381019061023491906111bc565b610ada565b005b34801561024757600080fd5b50610262600480360381019061025d91906115a0565b610c89565b005b34801561027057600080fd5b5061028b600480360381019061028691906116f2565b610e75565b60405161029891906117dd565b60405180910390f35b3480156102ad57600080fd5b506102b6610f60565b6040516102c3919061136a565b60405180910390f35b3480156102d857600080fd5b506102f360048036038101906102ee91906111bc565b610f66565b6040516103019291906118bd565b60405180910390f35b34801561031657600080fd5b50610331600480360381019061032c91906118f4565b61114d565b60405161033e919061136a565b60405180910390f35b600660205280600052604060002060009150905080600001549080600101805461037090611963565b80601f016020809104026020016040519081016040528092919081815260200182805461039c90611963565b80156103e95780601f106103be576101008083540402835291602001916103e9565b820191906000526020600020905b8154815290600101906020018083116103cc57829003601f168201915b5050505050908060020180546103fe90611963565b80601f016020809104026020016040519081016040528092919081815260200182805461042a90611963565b80156104775780601f1061044c57610100808354040283529160200191610477565b820191906000526020600020905b81548152906001019060200180831161045a57829003601f168201915b50505050509080600301805461048c90611963565b80601f01602080910402602001604051908101604052809291908181526020018280546104b890611963565b80156105055780601f106104da57610100808354040283529160200191610505565b820191906000526020600020905b8154815290600101906020018083116104e857829003601f168201915b50505050509080600401805461051a90611963565b80601f016020809104026020016040519081016040528092919081815260200182805461054690611963565b80156105935780601f1061056857610100808354040283529160200191610593565b820191906000526020600020905b81548152906001019060200180831161057657829003601f168201915b50505050509080600501549080600601549080600701549080600801549080600901549080600a0160009054906101000a900460ff1690508b565b60066000828152602001908152602001600020600801544211801561061e575060066000828152602001908152602001600020600601546006600083815260200190815260200160002060070154105b61065d576040517f08c379a000000000000000000000000000000000000000000000000000000000815260040161065490611a06565b60405180910390fd5b60005b60066000838152602001908152602001600020600901548110156107e557600060076000848152602001908152602001600020600083815260200190815260200160002060000160009054906101000a900473ffffffffffffffffffffffffffffffffffffffff169050600060076000858152602001908152602001600020600084815260200190815260200160002060010154905060008273ffffffffffffffffffffffffffffffffffffffff168260405161071c90611a57565b60006040518083038185875af1925050503d8060008114610759576040519150601f19603f3d011682016040523d82523d6000602084013e61075e565b606091505b50509050806107a2576040517f08c379a000000000000000000000000000000000000000000000000000000000815260040161079990611ade565b60405180910390fd5b60006007600087815260200190815260200160002060008681526020019081526020016000206001018190555050505080806107dd90611b2d565b915050610660565b5050565b60025481565b60035481565b6006600082815260200190815260200160002060080154421061084d576040517f08c379a000000000000000000000000000000000000000000000000000000000815260040161084490611bc1565b60405180910390fd5b60066000828152602001908152602001600020600501543410156108a6576040517f08c379a000000000000000000000000000000000000000000000000000000000815260040161089d90611c2d565b60405180910390fd5b600060405180604001604052803373ffffffffffffffffffffffffffffffffffffffff16815260200134815250905034600860003373ffffffffffffffffffffffffffffffffffffffff1673ffffffffffffffffffffffffffffffffffffffff168152602001908152602001600020600084815260200190815260200160002060008282546109359190611c4d565b92505081905550806007600084815260200190815260200160002060006006600086815260200190815260200160002060090154815260200190815260200160002060008201518160000160006101000a81548173ffffffffffffffffffffffffffffffffffffffff021916908373ffffffffffffffffffffffffffffffffffffffff16021790555060208201518160010155905050346006600084815260200190815260200160002060070160008282546109f19190611c4d565b92505081905550600660008381526020019081526020016000206009016000815480929190610a1f90611b2d565b91905055507f9de0a6dd1dfd3e6eda5e87572f845b6183a171debc4a266cf5c5eddc77540983823334604051610a5793929190611c81565b60405180910390a15050565b600160009054906101000a900473ffffffffffffffffffffffffffffffffffffffff1681565b6007602052816000526040600020602052806000526040600020600091509150508060000160009054906101000a900473ffffffffffffffffffffffffffffffffffffffff16908060010154905082565b600160009054906101000a900473ffffffffffffffffffffffffffffffffffffffff1673ffffffffffffffffffffffffffffffffffffffff163373ffffffffffffffffffffffffffffffffffffffff1614610b3457600080fd5b600660008281526020019081526020016000206008015442118015610b84575060066000828152602001908152602001600020600601546006600083815260200190815260200160002060070154115b610bc3576040517f08c379a0000000000000000000000000000000000000000000000000000000008152600401610bba90611a06565b60405180910390fd5b60003373ffffffffffffffffffffffffffffffffffffffff166006600084815260200190815260200160002060070154604051610bff90611a57565b60006040518083038185875af1925050503d8060008114610c3c576040519150601f19603f3d011682016040523d82523d6000602084013e610c41565b606091505b5050905080610c85576040517f08c379a0000000000000000000000000000000000000000000000000000000008152600401610c7c90611ade565b60405180910390fd5b5050565b600160009054906101000a900473ffffffffffffffffffffffffffffffffffffffff1673ffffffffffffffffffffffffffffffffffffffff163373ffffffffffffffffffffffffffffffffffffffff1614610ce357600080fd5b60006040518061016001604052808a8152602001898152602001888152602001878152602001868152602001858152602001848152602001600081526020018381526020016000815260200160001515815250905080600660008b8152602001908152602001600020600082015181600001556020820151816001019081610d6b9190611e64565b506040820151816002019081610d819190611e64565b506060820151816003019081610d979190611e64565b506080820151816004019081610dad9190611e64565b5060a0820151816005015560c0820151816006015560e082015181600701556101008201518160080155610120820151816009015561014082015181600a0160006101000a81548160ff0219169083151502179055509050507f8a9ac69da6c9624863cc5677f1ffe445079deb65237ccf9adc3fa4b410b0426860025489898989898989600080604051610e4a9a99989796959493929190611f71565b60405180910390a160026000815480929190610e6590611b2d565b9190505550505050505050505050565b6060600060025467ffffffffffffffff811115610e9557610e94611475565b5b604051908082528060200260200182016040528015610ec35781602001602082028036833780820191505090505b50905060005b600254811015610f5657600860008573ffffffffffffffffffffffffffffffffffffffff1673ffffffffffffffffffffffffffffffffffffffff168152602001908152602001600020600082815260200190815260200160002054828281518110610f3757610f36612029565b5b6020026020010181815250508080610f4e90611b2d565b915050610ec9565b5080915050919050565b60045481565b6060806000600660008581526020019081526020016000206009015467ffffffffffffffff811115610f9b57610f9a611475565b5b604051908082528060200260200182016040528015610fc95781602001602082028036833780820191505090505b5090506000600660008681526020019081526020016000206009015467ffffffffffffffff811115610ffe57610ffd611475565b5b60405190808252806020026020018201604052801561102c5781602001602082028036833780820191505090505b50905060005b600660008781526020019081526020016000206009015481101561113f5760076000878152602001908152602001600020600082815260200190815260200160002060000160009054906101000a900473ffffffffffffffffffffffffffffffffffffffff168382815181106110ab576110aa612029565b5b602002602001019073ffffffffffffffffffffffffffffffffffffffff16908173ffffffffffffffffffffffffffffffffffffffff1681525050600760008781526020019081526020016000206000828152602001908152602001600020600101548282815181106111205761111f612029565b5b602002602001018181525050808061113790611b2d565b915050611032565b508181935093505050915091565b6008602052816000526040600020602052806000526040600020600091509150505481565b6000604051905090565b600080fd5b600080fd5b6000819050919050565b61119981611186565b81146111a457600080fd5b50565b6000813590506111b681611190565b92915050565b6000602082840312156111d2576111d161117c565b5b60006111e0848285016111a7565b91505092915050565b6111f281611186565b82525050565b600081519050919050565b600082825260208201905092915050565b60005b83811015611232578082015181840152602081019050611217565b60008484015250505050565b6000601f19601f8301169050919050565b600061125a826111f8565b6112648185611203565b9350611274818560208601611214565b61127d8161123e565b840191505092915050565b60008115159050919050565b61129d81611288565b82525050565b6000610160820190506112b9600083018e6111e9565b81810360208301526112cb818d61124f565b905081810360408301526112df818c61124f565b905081810360608301526112f3818b61124f565b90508181036080830152611307818a61124f565b905061131660a08301896111e9565b61132360c08301886111e9565b61133060e08301876111e9565b61133e6101008301866111e9565b61134c6101208301856111e9565b61135a610140830184611294565b9c9b505050505050505050505050565b600060208201905061137f60008301846111e9565b92915050565b600073ffffffffffffffffffffffffffffffffffffffff82169050919050565b60006113b082611385565b9050919050565b6113c0816113a5565b82525050565b60006020820190506113db60008301846113b7565b92915050565b600080604083850312156113f8576113f761117c565b5b6000611406858286016111a7565b9250506020611417858286016111a7565b9150509250929050565b600061142c82611385565b9050919050565b61143c81611421565b82525050565b60006040820190506114576000830185611433565b61146460208301846111e9565b9392505050565b600080fd5b600080fd5b7f4e487b7100000000000000000000000000000000000000000000000000000000600052604160045260246000fd5b6114ad8261123e565b810181811067ffffffffffffffff821117156114cc576114cb611475565b5b80604052505050565b60006114df611172565b90506114eb82826114a4565b919050565b600067ffffffffffffffff82111561150b5761150a611475565b5b6115148261123e565b9050602081019050919050565b82818337600083830152505050565b600061154361153e846114f0565b6114d5565b90508281526020810184848401111561155f5761155e611470565b5b61156a848285611521565b509392505050565b600082601f8301126115875761158661146b565b5b8135611597848260208601611530565b91505092915050565b600080600080600080600080610100898b0312156115c1576115c061117c565b5b60006115cf8b828c016111a7565b985050602089013567ffffffffffffffff8111156115f0576115ef611181565b5b6115fc8b828c01611572565b975050604089013567ffffffffffffffff81111561161d5761161c611181565b5b6116298b828c01611572565b965050606089013567ffffffffffffffff81111561164a57611649611181565b5b6116568b828c01611572565b955050608089013567ffffffffffffffff81111561167757611676611181565b5b6116838b828c01611572565b94505060a06116948b828c016111a7565b93505060c06116a58b828c016111a7565b92505060e06116b68b828c016111a7565b9150509295985092959890939650565b6116cf81611421565b81146116da57600080fd5b50565b6000813590506116ec816116c6565b92915050565b6000602082840312156117085761170761117c565b5b6000611716848285016116dd565b91505092915050565b600081519050919050565b600082825260208201905092915050565b6000819050602082019050919050565b61175481611186565b82525050565b6000611766838361174b565b60208301905092915050565b6000602082019050919050565b600061178a8261171f565b611794818561172a565b935061179f8361173b565b8060005b838110156117d05781516117b7888261175a565b97506117c283611772565b9250506001810190506117a3565b5085935050505092915050565b600060208201905081810360008301526117f7818461177f565b905092915050565b600081519050919050565b600082825260208201905092915050565b6000819050602082019050919050565b61183481611421565b82525050565b6000611846838361182b565b60208301905092915050565b6000602082019050919050565b600061186a826117ff565b611874818561180a565b935061187f8361181b565b8060005b838110156118b0578151611897888261183a565b97506118a283611852565b925050600181019050611883565b5085935050505092915050565b600060408201905081810360008301526118d7818561185f565b905081810360208301526118eb818461177f565b90509392505050565b6000806040838503121561190b5761190a61117c565b5b6000611919858286016116dd565b925050602061192a858286016111a7565b9150509250929050565b7f4e487b7100000000000000000000000000000000000000000000000000000000600052602260045260246000fd5b6000600282049050600182168061197b57607f821691505b60208210810361198e5761198d611934565b5b50919050565b7f596f7520617265206e6f7420656c696769626c6520746f20676574207265667560008201527f6e64207269676874206e6f770000000000000000000000000000000000000000602082015250565b60006119f0602c83611203565b91506119fb82611994565b604082019050919050565b60006020820190508181036000830152611a1f816119e3565b9050919050565b600081905092915050565b50565b6000611a41600083611a26565b9150611a4c82611a31565b600082019050919050565b6000611a6282611a34565b9150819050919050565b7f4661696c656420746f2073656e6420757365722062616c616e6365206261636b60008201527f20746f2074686520757365720000000000000000000000000000000000000000602082015250565b6000611ac8602c83611203565b9150611ad382611a6c565b604082019050919050565b60006020820190508181036000830152611af781611abb565b9050919050565b7f4e487b7100000000000000000000000000000000000000000000000000000000600052601160045260246000fd5b6000611b3882611186565b91507fffffffffffffffffffffffffffffffffffffffffffffffffffffffffffffffff8203611b6a57611b69611afe565b5b600182019050919050565b7f446561646c696e65206861732070617373656400000000000000000000000000600082015250565b6000611bab601383611203565b9150611bb682611b75565b602082019050919050565b60006020820190508181036000830152611bda81611b9e565b9050919050565b7f4d696e696d756d20636f6e747269627574696f6e20686173206e6f74206d6574600082015250565b6000611c17602083611203565b9150611c2282611be1565b602082019050919050565b60006020820190508181036000830152611c4681611c0a565b9050919050565b6000611c5882611186565b9150611c6383611186565b9250828201905080821115611c7b57611c7a611afe565b5b92915050565b6000606082019050611c9660008301866111e9565b611ca36020830185611433565b611cb060408301846111e9565b949350505050565b60008190508160005260206000209050919050565b60006020601f8301049050919050565b600082821b905092915050565b600060088302611d1a7fffffffffffffffffffffffffffffffffffffffffffffffffffffffffffffffff82611cdd565b611d248683611cdd565b95508019841693508086168417925050509392505050565b6000819050919050565b6000611d61611d5c611d5784611186565b611d3c565b611186565b9050919050565b6000819050919050565b611d7b83611d46565b611d8f611d8782611d68565b848454611cea565b825550505050565b600090565b611da4611d97565b611daf818484611d72565b505050565b5b81811015611dd357611dc8600082611d9c565b600181019050611db5565b5050565b601f821115611e1857611de981611cb8565b611df284611ccd565b81016020851015611e01578190505b611e15611e0d85611ccd565b830182611db4565b50505b505050565b600082821c905092915050565b6000611e3b60001984600802611e1d565b1980831691505092915050565b6000611e548383611e2a565b9150826002028217905092915050565b611e6d826111f8565b67ffffffffffffffff811115611e8657611e85611475565b5b611e908254611963565b611e9b828285611dd7565b600060209050601f831160018114611ece5760008415611ebc578287015190505b611ec68582611e48565b865550611f2e565b601f198416611edc86611cb8565b60005b82811015611f0457848901518255600182019150602085019450602081019050611edf565b86831015611f215784890151611f1d601f891682611e2a565b8355505b6001600288020188555050505b505050505050565b6000819050919050565b6000611f5b611f56611f5184611f36565b611d3c565b611186565b9050919050565b611f6b81611f40565b82525050565b600061014082019050611f87600083018d6111e9565b8181036020830152611f99818c61124f565b90508181036040830152611fad818b61124f565b90508181036060830152611fc1818a61124f565b90508181036080830152611fd5818961124f565b9050611fe460a08301886111e9565b611ff160c08301876111e9565b611ffe60e08301866111e9565b61200c610100830185611f62565b61201a610120830184611294565b9b9a5050505050505050505050565b7f4e487b7100000000000000000000000000000000000000000000000000000000600052603260045260246000fdfea26469706673582212209d98781712913b15f1b4e9aac7cd2578dd9ae8376dc87411bb470d7130b344bc64736f6c63430008130033",
  "immutableReferences": {},
  "source": "// SPDX-License-Identifier: GPL-3.0\r\n\r\npragma solidity >=0.7.0 <0.9.0;\r\n\r\ncontract Crowdfunding {\r\n  uint256 onewei = 1 wei;\r\n\r\n  address payable public manager;\r\n  uint256 public noOfCampaigns = 0;\r\n  uint256 public totalContributions = 0;\r\n  uint256 public totalTrustCoins = 1000000;\r\n  mapping(address => uint256) managerTrust;\r\n\r\n  struct Contributor {\r\n    address contributorAddress;\r\n    uint256 amtContributed;\r\n  }\r\n\r\n  struct Campaign {\r\n    uint256 ID;\r\n    string title;\r\n    string description;\r\n    string location;\r\n    string category;\r\n    uint256 minContribution;\r\n    uint256 goal;\r\n    uint256 pledgedAmt;\r\n    uint256 campaignDeadline;\r\n    uint256 noOfContributions;\r\n    bool claimed;\r\n  }\r\n\r\n  constructor() payable {\r\n    manager = payable(msg.sender);\r\n    managerTrust[msg.sender] = 500;\r\n    totalTrustCoins -= 500;\r\n  }\r\n\r\n  // ALL THE FOLLOWING BS IS BECAUSE\r\n  // THERE WERE ISSUES WITH USING A MAPPING OR ARRAY OF STRUCT INSIDE A STRUCT\r\n  // TRY TO SOLVE I GUESS\r\n\r\n  // mapping from total number of campaigns as campaign_id to Campaign\r\n  mapping(uint256 => Campaign) public campaigns;\r\n\r\n  // // mapping from total number of contributions on platform as id to campaign id\r\n  // mapping(uint256 => uint256) platformContributions;\r\n  // // mapping from campaign id to ( mapping from contribution id to contributor address)\r\n  // mapping(uint256 => mapping(uint256 => address)) campaignContributions;\r\n  // // mapping from contributor address to (mapping from campaign id to (mapping from contribution id to amount paid))\r\n  // mapping(address => mapping(uint256 => mapping(uint256 => uint256256))) public contributorContributions;\r\n\r\n  // mapping from campaign id to (mapping from contribution id to contributor))\r\n  mapping(uint256 => mapping(uint256 => Contributor)) public campaignContributions;\r\n  // mapping from contributor address to (mapping from campaign id to amount contributed))\r\n  mapping(address => mapping(uint256 => uint256)) public contributorContributions;\r\n\r\n  event CampaignUploaded(\r\n    uint256 ID,\r\n    string title,\r\n    string description,\r\n    string location,\r\n    string category,\r\n    uint256 minContribution,\r\n    uint256 goal,\r\n    uint256 campaignDeadline,\r\n    uint256 noOfContributions,\r\n    bool claimed\r\n  );\r\n\r\n  event paidCampaign(uint256 id_, address contributor_, uint256 amount_);\r\n\r\n  modifier onlyManager() {\r\n    require(msg.sender == manager);\r\n    _;\r\n  }\r\n\r\n  function uploadCampaign(\r\n    uint256 id_,\r\n    string memory title_,\r\n    string memory description_,\r\n    string memory location_,\r\n    string memory category_,\r\n    uint256 minContribution_,\r\n    uint256 goal_,\r\n    uint256 deadline_\r\n  ) public onlyManager {\r\n    // require(msg.sender == manager, 'Only manager can create this Campaign');\r\n    Campaign memory campaign = Campaign(\r\n      id_,\r\n      title_,\r\n      description_,\r\n      location_,\r\n      category_,\r\n      minContribution_,\r\n      goal_,\r\n      0,\r\n      deadline_,\r\n      0,\r\n      false\r\n    );\r\n\r\n    campaigns[id_] = campaign;\r\n\r\n    emit CampaignUploaded(\r\n      noOfCampaigns,\r\n      title_,\r\n      description_,\r\n      // imageHash_,\r\n      location_,\r\n      category_,\r\n      minContribution_,\r\n      goal_,\r\n      deadline_,\r\n      0,\r\n      false\r\n    );\r\n\r\n    noOfCampaigns++;\r\n  }\r\n\r\n  function payCampaign(uint256 id_) public payable {\r\n    require(\r\n      block.timestamp < campaigns[id_].campaignDeadline,\r\n      'Deadline has passed'\r\n    );\r\n    require(\r\n      msg.value >= campaigns[id_].minContribution,\r\n      'Minimum contribution has not met'\r\n    );\r\n\r\n    // address payable user = payable(manager);\r\n    // user.transfer(msg.value);\r\n\r\n    Contributor memory contributor = Contributor(msg.sender, msg.value);\r\n\r\n    contributorContributions[msg.sender][id_] += msg.value;\r\n    campaignContributions[id_][campaigns[id_].noOfContributions] = contributor;\r\n\r\n    campaigns[id_].pledgedAmt += msg.value;\r\n    campaigns[id_].noOfContributions++;\r\n\r\n    // platformContributions[totalContributions] = id_;\r\n    // campaignContributions[id_][totalContributions] = msg.sender;\r\n    // contributorContributions[msg.sender][id_][totalContributions] = msg.value;\r\n\r\n    emit paidCampaign(id_, msg.sender, msg.value);\r\n\r\n    // totalContributions++;\r\n  }\r\n\r\n  function getCampaignContributions(\r\n    uint256 id_\r\n  ) public view returns (address[] memory, uint256[] memory) {\r\n    address[] memory returnAddress = new address[](\r\n      campaigns[id_].noOfContributions\r\n    );\r\n    uint256[] memory returnAmount = new uint256[](campaigns[id_].noOfContributions);\r\n    for (uint256 i = 0; i < campaigns[id_].noOfContributions; i++) {\r\n      returnAddress[i] = campaignContributions[id_][i].contributorAddress;\r\n      returnAmount[i] = campaignContributions[id_][i].amtContributed;\r\n    }\r\n    return (returnAddress, returnAmount);\r\n  }\r\n\r\n  function getContributorContributions(\r\n    address contributorAddress_\r\n  ) public view returns (uint256[] memory) {\r\n    uint256[] memory returnAmount = new uint256[](noOfCampaigns);\r\n    for (uint256 i = 0; i < noOfCampaigns; i++) {\r\n      returnAmount[i] = contributorContributions[contributorAddress_][i];\r\n    }\r\n    return (returnAmount);\r\n  }\r\n\r\n  function campaignSuccess(uint256 id_) public onlyManager {\r\n    require(\r\n      block.timestamp > campaigns[id_].campaignDeadline &&\r\n      campaigns[id_].pledgedAmt > campaigns[id_].goal,\r\n      'You are not eligible to get refund right now'\r\n    );\r\n\r\n    // address payable user = payable(manager);\r\n    // manager.transfer(campaigns[id_].pledgedAmt);\r\n    (bool success, ) = msg.sender.call{ value: campaigns[id_].pledgedAmt }('');\r\n    // if (!success) {\r\n    //   revert();\r\n    // }\r\n    require(success, 'Failed to send user balance back to the user');\r\n  }\r\n\r\n  function refundAmt(uint256 id_) public {\r\n    require(\r\n      block.timestamp > campaigns[id_].campaignDeadline &&\r\n      campaigns[id_].pledgedAmt < campaigns[id_].goal,\r\n      'You are not eligible to get refund right now'\r\n    );\r\n\r\n    for (uint256 i = 0; i < campaigns[id_].noOfContributions; i++) {\r\n      address payable user = payable(\r\n        campaignContributions[id_][i].contributorAddress\r\n      );\r\n      uint256 amountPayable = campaignContributions[id_][i].amtContributed;\r\n      // user.transfer(amountPayable);\r\n      (bool success, ) = user.call{ value: amountPayable }('');\r\n      // if (!success) {\r\n      //   revert();\r\n      // }\r\n      require(success, 'Failed to send user balance back to the user');\r\n      campaignContributions[id_][i].amtContributed = 0;\r\n    }\r\n  }\r\n}\r\n",
  "sourcePath": "C:\\Users\\91905\\Desktop\\crowdfunding\\crowdfunding\\web-final\\contracts\\Crowdfunding.sol",
  "compiler": {
    "name": "solc",
    "version": "0.8.19+commit.7dd6d404.Emscripten.clang"
  },
  "schemaVersion": "3.4.13",
  "updatedAt": "2023-04-01T16:25:57.177Z",
  "networkType": "ethereum",
  "devdoc": {
    "kind": "dev",
    "methods": {},
    "version": 1
  },
  "userdoc": {
    "kind": "user",
    "methods": {},
    "version": 1
  }
}