{
  "contractName": "Crowdfunding",
  "abi": [
    {
      "inputs": [],
      "stateMutability": "payable",
      "type": "constructor"
    },
    {
      "anonymous": false,
      "inputs": [
        {
          "indexed": false,
          "internalType": "uint256",
          "name": "ID",
          "type": "uint256"
        },
        {
          "indexed": false,
          "internalType": "string",
          "name": "title",
          "type": "string"
        },
        {
          "indexed": false,
          "internalType": "string",
          "name": "description",
          "type": "string"
        },
        {
          "indexed": false,
          "internalType": "string",
          "name": "location",
          "type": "string"
        },
        {
          "indexed": false,
          "internalType": "string",
          "name": "category",
          "type": "string"
        },
        {
          "indexed": false,
          "internalType": "uint256",
          "name": "minContribution",
          "type": "uint256"
        },
        {
          "indexed": false,
          "internalType": "uint256",
          "name": "goal",
          "type": "uint256"
        },
        {
          "indexed": false,
          "internalType": "uint256",
          "name": "campaignDeadline",
          "type": "uint256"
        },
        {
          "indexed": false,
          "internalType": "uint256",
          "name": "noOfContributions",
          "type": "uint256"
        },
        {
          "indexed": false,
          "internalType": "bool",
          "name": "claimed",
          "type": "bool"
        }
      ],
      "name": "CampaignUploaded",
      "type": "event"
    },
    {
      "anonymous": false,
      "inputs": [
        {
          "indexed": false,
          "internalType": "uint256",
          "name": "id_",
          "type": "uint256"
        },
        {
          "indexed": false,
          "internalType": "address",
          "name": "contributor_",
          "type": "address"
        },
        {
          "indexed": false,
          "internalType": "uint256",
          "name": "amount_",
          "type": "uint256"
        }
      ],
      "name": "paidCampaign",
      "type": "event"
    },
    {
      "inputs": [
        {
          "internalType": "uint256",
          "name": "",
          "type": "uint256"
        },
        {
          "internalType": "uint256",
          "name": "",
          "type": "uint256"
        }
      ],
      "name": "campaignContributions",
      "outputs": [
        {
          "internalType": "address",
          "name": "contributorAddress",
          "type": "address"
        },
        {
          "internalType": "uint256",
          "name": "amtContributed",
          "type": "uint256"
        }
      ],
      "stateMutability": "view",
      "type": "function"
    },
    {
      "inputs": [
        {
          "internalType": "uint256",
          "name": "",
          "type": "uint256"
        }
      ],
      "name": "campaigns",
      "outputs": [
        {
          "internalType": "uint256",
          "name": "ID",
          "type": "uint256"
        },
        {
          "internalType": "string",
          "name": "title",
          "type": "string"
        },
        {
          "internalType": "string",
          "name": "description",
          "type": "string"
        },
        {
          "internalType": "string",
          "name": "location",
          "type": "string"
        },
        {
          "internalType": "string",
          "name": "category",
          "type": "string"
        },
        {
          "internalType": "uint256",
          "name": "minContribution",
          "type": "uint256"
        },
        {
          "internalType": "uint256",
          "name": "goal",
          "type": "uint256"
        },
        {
          "internalType": "uint256",
          "name": "pledgedAmt",
          "type": "uint256"
        },
        {
          "internalType": "uint256",
          "name": "campaignDeadline",
          "type": "uint256"
        },
        {
          "internalType": "uint256",
          "name": "noOfContributions",
          "type": "uint256"
        },
        {
          "internalType": "bool",
          "name": "claimed",
          "type": "bool"
        }
      ],
      "stateMutability": "view",
      "type": "function"
    },
    {
      "inputs": [
        {
          "internalType": "address",
          "name": "",
          "type": "address"
        },
        {
          "internalType": "uint256",
          "name": "",
          "type": "uint256"
        }
      ],
      "name": "contributorContributions",
      "outputs": [
        {
          "internalType": "uint256",
          "name": "",
          "type": "uint256"
        }
      ],
      "stateMutability": "view",
      "type": "function"
    },
    {
      "inputs": [],
      "name": "manager",
      "outputs": [
        {
          "internalType": "address payable",
          "name": "",
          "type": "address"
        }
      ],
      "stateMutability": "view",
      "type": "function"
    },
    {
      "inputs": [],
      "name": "noOfCampaigns",
      "outputs": [
        {
          "internalType": "uint256",
          "name": "",
          "type": "uint256"
        }
      ],
      "stateMutability": "view",
      "type": "function"
    },
    {
      "inputs": [],
      "name": "totalContributions",
      "outputs": [
        {
          "internalType": "uint256",
          "name": "",
          "type": "uint256"
        }
      ],
      "stateMutability": "view",
      "type": "function"
    },
    {
      "inputs": [],
      "name": "totalTrustCoins",
      "outputs": [
        {
          "internalType": "uint256",
          "name": "",
          "type": "uint256"
        }
      ],
      "stateMutability": "view",
      "type": "function"
    },
    {
      "inputs": [
        {
          "internalType": "uint256",
          "name": "id_",
          "type": "uint256"
        },
        {
          "internalType": "string",
          "name": "title_",
          "type": "string"
        },
        {
          "internalType": "string",
          "name": "description_",
          "type": "string"
        },
        {
          "internalType": "string",
          "name": "location_",
          "type": "string"
        },
        {
          "internalType": "string",
          "name": "category_",
          "type": "string"
        },
        {
          "internalType": "uint256",
          "name": "minContribution_",
          "type": "uint256"
        },
        {
          "internalType": "uint256",
          "name": "goal_",
          "type": "uint256"
        },
        {
          "internalType": "uint256",
          "name": "deadline_",
          "type": "uint256"
        }
      ],
      "name": "uploadCampaign",
      "outputs": [],
      "stateMutability": "nonpayable",
      "type": "function"
    },
    {
      "inputs": [
        {
          "internalType": "uint256",
          "name": "id_",
          "type": "uint256"
        }
      ],
      "name": "payCampaign",
      "outputs": [],
      "stateMutability": "payable",
      "type": "function"
    },
    {
      "inputs": [
        {
          "internalType": "uint256",
          "name": "id_",
          "type": "uint256"
        }
      ],
      "name": "campaignSuccess",
      "outputs": [],
      "stateMutability": "nonpayable",
      "type": "function"
    },
    {
      "inputs": [
        {
          "internalType": "uint256",
          "name": "id_",
          "type": "uint256"
        }
      ],
      "name": "refundAmt",
      "outputs": [],
      "stateMutability": "nonpayable",
      "type": "function"
    }
  ],
  "bytecode": "0x6080604052600160005560006002556000600355620f424060045533600160006101000a81548173ffffffffffffffffffffffffffffffffffffffff021916908373ffffffffffffffffffffffffffffffffffffffff1602179055506101f4600560003373ffffffffffffffffffffffffffffffffffffffff1673ffffffffffffffffffffffffffffffffffffffff168152602001908152602001600020819055506101f460046000828254620000b79190620000fd565b9250508190555062000138565b6000819050919050565b7f4e487b7100000000000000000000000000000000000000000000000000000000600052601160045260246000fd5b60006200010a82620000c4565b91506200011783620000c4565b9250828203905081811115620001325762000131620000ce565b5b92915050565b611b3680620001486000396000f3fe60806040526004361061009c5760003560e01c8063481c6a7511610064578063481c6a7514610183578063539157bd146101ae57806362b68dc4146101ec5780636897c13714610215578063bef0cdaf1461023e578063f6f219a5146102695761009c565b8063141961bc146100a157806316559632146100e857806317818e591461011157806337c089231461013c57806342a4ed9514610167575b600080fd5b3480156100ad57600080fd5b506100c860048036038101906100c39190610e53565b6102a6565b6040516100df9b9a99989796959493929190610f3a565b60405180910390f35b3480156100f457600080fd5b5061010f600480360381019061010a9190610e53565b61052d565b005b34801561011d57600080fd5b50610126610727565b6040516101339190611001565b60405180910390f35b34801561014857600080fd5b5061015161072d565b60405161015e9190611001565b60405180910390f35b610181600480360381019061017c9190610e53565b610733565b005b34801561018f57600080fd5b506101986109d5565b6040516101a5919061105d565b60405180910390f35b3480156101ba57600080fd5b506101d560048036038101906101d09190611078565b6109fb565b6040516101e39291906110d9565b60405180910390f35b3480156101f857600080fd5b50610213600480360381019061020e9190610e53565b610a4c565b005b34801561022157600080fd5b5061023c60048036038101906102379190611237565b610bda565b005b34801561024a57600080fd5b50610253610dde565b6040516102609190611001565b60405180910390f35b34801561027557600080fd5b50610290600480360381019061028b9190611389565b610de4565b60405161029d9190611001565b60405180910390f35b60066020528060005260406000206000915090508060000154908060010180546102cf906113f8565b80601f01602080910402602001604051908101604052809291908181526020018280546102fb906113f8565b80156103485780601f1061031d57610100808354040283529160200191610348565b820191906000526020600020905b81548152906001019060200180831161032b57829003601f168201915b50505050509080600201805461035d906113f8565b80601f0160208091040260200160405190810160405280929190818152602001828054610389906113f8565b80156103d65780601f106103ab576101008083540402835291602001916103d6565b820191906000526020600020905b8154815290600101906020018083116103b957829003601f168201915b5050505050908060030180546103eb906113f8565b80601f0160208091040260200160405190810160405280929190818152602001828054610417906113f8565b80156104645780601f1061043957610100808354040283529160200191610464565b820191906000526020600020905b81548152906001019060200180831161044757829003601f168201915b505050505090806004018054610479906113f8565b80601f01602080910402602001604051908101604052809291908181526020018280546104a5906113f8565b80156104f25780601f106104c7576101008083540402835291602001916104f2565b820191906000526020600020905b8154815290600101906020018083116104d557829003601f168201915b50505050509080600501549080600601549080600701549080600801549080600901549080600a0160009054906101000a900460ff1690508b565b600660008281526020019081526020016000206006015460066000838152602001908152602001600020600701541061059b576040517f08c379a00000000000000000000000000000000000000000000000000000000081526004016105929061149b565b60405180910390fd5b60005b600660008381526020019081526020016000206009015481101561072357600060076000848152602001908152602001600020600083815260200190815260200160002060000160009054906101000a900473ffffffffffffffffffffffffffffffffffffffff169050600060076000858152602001908152602001600020600084815260200190815260200160002060010154905060008273ffffffffffffffffffffffffffffffffffffffff168260405161065a906114ec565b60006040518083038185875af1925050503d8060008114610697576040519150601f19603f3d011682016040523d82523d6000602084013e61069c565b606091505b50509050806106e0576040517f08c379a00000000000000000000000000000000000000000000000000000000081526004016106d790611573565b60405180910390fd5b600060076000878152602001908152602001600020600086815260200190815260200160002060010181905550505050808061071b906115c2565b91505061059e565b5050565b60025481565b60035481565b6006600082815260200190815260200160002060080154421061078b576040517f08c379a000000000000000000000000000000000000000000000000000000000815260040161078290611656565b60405180910390fd5b60066000828152602001908152602001600020600501543410156107e4576040517f08c379a00000000000000000000000000000000000000000000000000000000081526004016107db906116c2565b60405180910390fd5b600060405180604001604052803373ffffffffffffffffffffffffffffffffffffffff1681526020016000543461081b91906116e2565b81525090506000543461082e91906116e2565b600860003373ffffffffffffffffffffffffffffffffffffffff1673ffffffffffffffffffffffffffffffffffffffff1681526020019081526020016000206000848152602001908152602001600020600082825461088d9190611724565b92505081905550806007600084815260200190815260200160002060006006600086815260200190815260200160002060090154815260200190815260200160002060008201518160000160006101000a81548173ffffffffffffffffffffffffffffffffffffffff021916908373ffffffffffffffffffffffffffffffffffffffff160217905550602082015181600101559050506000543461093191906116e2565b6006600084815260200190815260200160002060070160008282546109569190611724565b92505081905550600660008381526020019081526020016000206009016000815480929190610984906115c2565b91905055507f9de0a6dd1dfd3e6eda5e87572f845b6183a171debc4a266cf5c5eddc775409838233600054346109ba91906116e2565b6040516109c993929190611758565b60405180910390a15050565b600160009054906101000a900473ffffffffffffffffffffffffffffffffffffffff1681565b6007602052816000526040600020602052806000526040600020600091509150508060000160009054906101000a900473ffffffffffffffffffffffffffffffffffffffff16908060010154905082565b600160009054906101000a900473ffffffffffffffffffffffffffffffffffffffff1673ffffffffffffffffffffffffffffffffffffffff163373ffffffffffffffffffffffffffffffffffffffff1614610aa657600080fd5b6006600082815260200190815260200160002060060154600660008381526020019081526020016000206007015411610b14576040517f08c379a0000000000000000000000000000000000000000000000000000000008152600401610b0b9061149b565b60405180910390fd5b60003373ffffffffffffffffffffffffffffffffffffffff166006600084815260200190815260200160002060070154604051610b50906114ec565b60006040518083038185875af1925050503d8060008114610b8d576040519150601f19603f3d011682016040523d82523d6000602084013e610b92565b606091505b5050905080610bd6576040517f08c379a0000000000000000000000000000000000000000000000000000000008152600401610bcd90611573565b60405180910390fd5b5050565b600160009054906101000a900473ffffffffffffffffffffffffffffffffffffffff1673ffffffffffffffffffffffffffffffffffffffff163373ffffffffffffffffffffffffffffffffffffffff1614610c3457600080fd5b60006040518061016001604052808a815260200189815260200188815260200187815260200186815260200160005486610c6e91906116e2565b8152602001848152602001600081526020018342610c8c9190611724565b81526020016000815260200160001515815250905080600660008b8152602001908152602001600020600082015181600001556020820151816001019081610cd4919061193b565b506040820151816002019081610cea919061193b565b506060820151816003019081610d00919061193b565b506080820151816004019081610d16919061193b565b5060a0820151816005015560c0820151816006015560e082015181600701556101008201518160080155610120820151816009015561014082015181600a0160006101000a81548160ff0219169083151502179055509050507f8a9ac69da6c9624863cc5677f1ffe445079deb65237ccf9adc3fa4b410b0426860025489898989898989600080604051610db39a99989796959493929190611a48565b60405180910390a160026000815480929190610dce906115c2565b9190505550505050505050505050565b60045481565b6008602052816000526040600020602052806000526040600020600091509150505481565b6000604051905090565b600080fd5b600080fd5b6000819050919050565b610e3081610e1d565b8114610e3b57600080fd5b50565b600081359050610e4d81610e27565b92915050565b600060208284031215610e6957610e68610e13565b5b6000610e7784828501610e3e565b91505092915050565b610e8981610e1d565b82525050565b600081519050919050565b600082825260208201905092915050565b60005b83811015610ec9578082015181840152602081019050610eae565b60008484015250505050565b6000601f19601f8301169050919050565b6000610ef182610e8f565b610efb8185610e9a565b9350610f0b818560208601610eab565b610f1481610ed5565b840191505092915050565b60008115159050919050565b610f3481610f1f565b82525050565b600061016082019050610f50600083018e610e80565b8181036020830152610f62818d610ee6565b90508181036040830152610f76818c610ee6565b90508181036060830152610f8a818b610ee6565b90508181036080830152610f9e818a610ee6565b9050610fad60a0830189610e80565b610fba60c0830188610e80565b610fc760e0830187610e80565b610fd5610100830186610e80565b610fe3610120830185610e80565b610ff1610140830184610f2b565b9c9b505050505050505050505050565b60006020820190506110166000830184610e80565b92915050565b600073ffffffffffffffffffffffffffffffffffffffff82169050919050565b60006110478261101c565b9050919050565b6110578161103c565b82525050565b6000602082019050611072600083018461104e565b92915050565b6000806040838503121561108f5761108e610e13565b5b600061109d85828601610e3e565b92505060206110ae85828601610e3e565b9150509250929050565b60006110c38261101c565b9050919050565b6110d3816110b8565b82525050565b60006040820190506110ee60008301856110ca565b6110fb6020830184610e80565b9392505050565b600080fd5b600080fd5b7f4e487b7100000000000000000000000000000000000000000000000000000000600052604160045260246000fd5b61114482610ed5565b810181811067ffffffffffffffff821117156111635761116261110c565b5b80604052505050565b6000611176610e09565b9050611182828261113b565b919050565b600067ffffffffffffffff8211156111a2576111a161110c565b5b6111ab82610ed5565b9050602081019050919050565b82818337600083830152505050565b60006111da6111d584611187565b61116c565b9050828152602081018484840111156111f6576111f5611107565b5b6112018482856111b8565b509392505050565b600082601f83011261121e5761121d611102565b5b813561122e8482602086016111c7565b91505092915050565b600080600080600080600080610100898b03121561125857611257610e13565b5b60006112668b828c01610e3e565b985050602089013567ffffffffffffffff81111561128757611286610e18565b5b6112938b828c01611209565b975050604089013567ffffffffffffffff8111156112b4576112b3610e18565b5b6112c08b828c01611209565b965050606089013567ffffffffffffffff8111156112e1576112e0610e18565b5b6112ed8b828c01611209565b955050608089013567ffffffffffffffff81111561130e5761130d610e18565b5b61131a8b828c01611209565b94505060a061132b8b828c01610e3e565b93505060c061133c8b828c01610e3e565b92505060e061134d8b828c01610e3e565b9150509295985092959890939650565b611366816110b8565b811461137157600080fd5b50565b6000813590506113838161135d565b92915050565b600080604083850312156113a05761139f610e13565b5b60006113ae85828601611374565b92505060206113bf85828601610e3e565b9150509250929050565b7f4e487b7100000000000000000000000000000000000000000000000000000000600052602260045260246000fd5b6000600282049050600182168061141057607f821691505b602082108103611423576114226113c9565b5b50919050565b7f596f7520617265206e6f7420656c696769626c6520746f20676574207265667560008201527f6e64207269676874206e6f770000000000000000000000000000000000000000602082015250565b6000611485602c83610e9a565b915061149082611429565b604082019050919050565b600060208201905081810360008301526114b481611478565b9050919050565b600081905092915050565b50565b60006114d66000836114bb565b91506114e1826114c6565b600082019050919050565b60006114f7826114c9565b9150819050919050565b7f4661696c656420746f2073656e6420757365722062616c616e6365206261636b60008201527f20746f2074686520757365720000000000000000000000000000000000000000602082015250565b600061155d602c83610e9a565b915061156882611501565b604082019050919050565b6000602082019050818103600083015261158c81611550565b9050919050565b7f4e487b7100000000000000000000000000000000000000000000000000000000600052601160045260246000fd5b60006115cd82610e1d565b91507fffffffffffffffffffffffffffffffffffffffffffffffffffffffffffffffff82036115ff576115fe611593565b5b600182019050919050565b7f446561646c696e65206861732070617373656400000000000000000000000000600082015250565b6000611640601383610e9a565b915061164b8261160a565b602082019050919050565b6000602082019050818103600083015261166f81611633565b9050919050565b7f4d696e696d756d20636f6e747269627574696f6e20686173206e6f74206d6574600082015250565b60006116ac602083610e9a565b91506116b782611676565b602082019050919050565b600060208201905081810360008301526116db8161169f565b9050919050565b60006116ed82610e1d565b91506116f883610e1d565b925082820261170681610e1d565b9150828204841483151761171d5761171c611593565b5b5092915050565b600061172f82610e1d565b915061173a83610e1d565b925082820190508082111561175257611751611593565b5b92915050565b600060608201905061176d6000830186610e80565b61177a60208301856110ca565b6117876040830184610e80565b949350505050565b60008190508160005260206000209050919050565b60006020601f8301049050919050565b600082821b905092915050565b6000600883026117f17fffffffffffffffffffffffffffffffffffffffffffffffffffffffffffffffff826117b4565b6117fb86836117b4565b95508019841693508086168417925050509392505050565b6000819050919050565b600061183861183361182e84610e1d565b611813565b610e1d565b9050919050565b6000819050919050565b6118528361181d565b61186661185e8261183f565b8484546117c1565b825550505050565b600090565b61187b61186e565b611886818484611849565b505050565b5b818110156118aa5761189f600082611873565b60018101905061188c565b5050565b601f8211156118ef576118c08161178f565b6118c9846117a4565b810160208510156118d8578190505b6118ec6118e4856117a4565b83018261188b565b50505b505050565b600082821c905092915050565b6000611912600019846008026118f4565b1980831691505092915050565b600061192b8383611901565b9150826002028217905092915050565b61194482610e8f565b67ffffffffffffffff81111561195d5761195c61110c565b5b61196782546113f8565b6119728282856118ae565b600060209050601f8311600181146119a55760008415611993578287015190505b61199d858261191f565b865550611a05565b601f1984166119b38661178f565b60005b828110156119db578489015182556001820191506020850194506020810190506119b6565b868310156119f857848901516119f4601f891682611901565b8355505b6001600288020188555050505b505050505050565b6000819050919050565b6000611a32611a2d611a2884611a0d565b611813565b610e1d565b9050919050565b611a4281611a17565b82525050565b600061014082019050611a5e600083018d610e80565b8181036020830152611a70818c610ee6565b90508181036040830152611a84818b610ee6565b90508181036060830152611a98818a610ee6565b90508181036080830152611aac8189610ee6565b9050611abb60a0830188610e80565b611ac860c0830187610e80565b611ad560e0830186610e80565b611ae3610100830185611a39565b611af1610120830184610f2b565b9b9a505050505050505050505056fea2646970667358221220bd798ce9170e83b42cfebf11b66a2d6ad9db021235ff713b81348fd932a7f58164736f6c63430008130033",
  "immutableReferences": {},
  "source": "pragma solidity ^0.8.0;\n\ncontract Crowdfunding {\n  uint onewei = 1 wei;\n\n  address payable public manager;\n  uint public noOfCampaigns = 0;\n  uint public totalContributions = 0;\n  uint public totalTrustCoins = 1000000;\n  mapping(address => uint) managerTrust;\n\n  struct Contributor {\n    address contributorAddress;\n    uint amtContributed;\n  }\n\n  struct Campaign {\n    uint ID;\n    string title;\n    string description;\n    string location;\n    string category;\n    uint minContribution;\n    uint goal;\n    uint pledgedAmt;\n    uint campaignDeadline;\n    uint noOfContributions;\n    bool claimed;\n  }\n\n  constructor() payable {\n    manager = payable(msg.sender);\n    managerTrust[msg.sender] = 500;\n    totalTrustCoins -= 500;\n  }\n\n  // mapping from total number of campaigns as campaign_id to Campaign\n  mapping(uint => Campaign) public campaigns;\n\n  // // mapping from total number of contributions on platform as id to campaign id\n  // mapping(uint => uint) platformContributions;\n  // // mapping from campaign id to ( mapping from contribution id to contributor address)\n  // mapping(uint => mapping(uint => address)) campaignContributions;\n  // // mapping from contributor address to (mapping from campaign id to (mapping from contribution id to amount paid))\n  // mapping(address => mapping(uint => mapping(uint => uint256))) public contributorContributions;\n\n  mapping(uint => mapping(uint => Contributor)) public campaignContributions;\n  mapping(address => mapping(uint => uint)) public contributorContributions;\n\n  event CampaignUploaded(\n    uint ID,\n    string title,\n    string description,\n    string location,\n    string category,\n    uint minContribution,\n    uint goal,\n    uint campaignDeadline,\n    uint noOfContributions,\n    bool claimed\n  );\n\n  event paidCampaign(uint id_, address contributor_, uint256 amount_);\n\n  modifier onlyManager() {\n    require(msg.sender == manager);\n    _;\n  }\n\n  function uploadCampaign(\n    uint id_,\n    string memory title_,\n    string memory description_,\n    string memory location_,\n    string memory category_,\n    uint minContribution_,\n    uint goal_,\n    uint deadline_\n  ) public onlyManager {\n    // require(msg.sender == manager, 'Only manager can create this Campaign');\n    Campaign memory campaign = Campaign(\n      id_,\n      title_,\n      description_,\n      location_,\n      category_,\n      minContribution_ * onewei,\n      goal_,\n      0,\n      block.timestamp + deadline_,\n      0,\n      false\n    );\n\n    campaigns[id_] = campaign;\n\n    emit CampaignUploaded(\n      noOfCampaigns,\n      title_,\n      description_,\n      // imageHash_,\n      location_,\n      category_,\n      minContribution_,\n      goal_,\n      deadline_,\n      0,\n      false\n    );\n\n    noOfCampaigns++;\n  }\n\n  function payCampaign(uint id_) public payable {\n    require(\n      block.timestamp < campaigns[id_].campaignDeadline,\n      'Deadline has passed'\n    );\n    require(\n      msg.value >= campaigns[id_].minContribution,\n      'Minimum contribution has not met'\n    );\n\n    // address payable user = payable(manager);\n    // user.transfer(msg.value);\n\n    Contributor memory contributor = Contributor(\n      msg.sender,\n      msg.value * onewei\n    );\n\n    contributorContributions[msg.sender][id_] += msg.value * onewei;\n    campaignContributions[id_][campaigns[id_].noOfContributions] = contributor;\n\n    campaigns[id_].pledgedAmt += msg.value * onewei;\n    campaigns[id_].noOfContributions++;\n\n    // platformContributions[totalContributions] = id_;\n    // campaignContributions[id_][totalContributions] = msg.sender;\n    // contributorContributions[msg.sender][id_][totalContributions] = msg.value;\n\n    emit paidCampaign(id_, msg.sender, msg.value * onewei);\n\n    // totalContributions++;\n  }\n\n  function campaignSuccess(uint id_) public onlyManager {\n    require(\n      // block.timestamp > campaigns[id_].campaignDeadline &&\n      campaigns[id_].pledgedAmt > campaigns[id_].goal,\n      'You are not eligible to get refund right now'\n    );\n\n    // address payable user = payable(manager);\n    // manager.transfer(campaigns[id_].pledgedAmt);\n    (bool success, ) = msg.sender.call{ value: campaigns[id_].pledgedAmt }('');\n    // if (!success) {\n    //   revert();\n    // }\n    require(success, 'Failed to send user balance back to the user');\n  }\n\n  function refundAmt(uint id_) public {\n    require(\n      // block.timestamp > campaigns[id_].campaignDeadline &&\n      campaigns[id_].pledgedAmt < campaigns[id_].goal,\n      'You are not eligible to get refund right now'\n    );\n\n    for (uint i = 0; i < campaigns[id_].noOfContributions; i++) {\n      address payable user = payable(\n        campaignContributions[id_][i].contributorAddress\n      );\n      uint amountPayable = campaignContributions[id_][i].amtContributed;\n      // user.transfer(amountPayable);\n      (bool success, ) = user.call{ value: amountPayable }('');\n      // if (!success) {\n      //   revert();\n      // }\n      require(success, 'Failed to send user balance back to the user');\n      campaignContributions[id_][i].amtContributed = 0;\n    }\n  }\n}",
  "sourcePath": "/home/tijin/Desktop/Projects/crowdfunding-platform/crowdfunding/web-final/contracts/Campaigns.sol",
  "compiler": {
    "name": "solc",
    "version": "0.8.19+commit.7dd6d404.Emscripten.clang"
  },
  "schemaVersion": "3.4.13",
  "updatedAt": "2023-03-29T12:24:40.127Z",
  "devdoc": {
    "kind": "dev",
    "methods": {},
    "version": 1
  },
  "userdoc": {
    "kind": "user",
    "methods": {},
    "version": 1
  }
}