{
  "contractName": "Crowdfunding",
  "abi": [
    {
      "inputs": [],
      "stateMutability": "payable",
      "type": "constructor",
      "payable": true
    },
    {
      "anonymous": false,
      "inputs": [
        {
          "indexed": false,
          "internalType": "uint256",
          "name": "ID",
          "type": "uint256"
        },
        {
          "indexed": false,
          "internalType": "string",
          "name": "title",
          "type": "string"
        },
        {
          "indexed": false,
          "internalType": "string",
          "name": "description",
          "type": "string"
        },
        {
          "indexed": false,
          "internalType": "string",
          "name": "location",
          "type": "string"
        },
        {
          "indexed": false,
          "internalType": "string",
          "name": "category",
          "type": "string"
        },
        {
          "indexed": false,
          "internalType": "uint256",
          "name": "minContribution",
          "type": "uint256"
        },
        {
          "indexed": false,
          "internalType": "uint256",
          "name": "goal",
          "type": "uint256"
        },
        {
          "indexed": false,
          "internalType": "uint256",
          "name": "campaignDeadline",
          "type": "uint256"
        },
        {
          "indexed": false,
          "internalType": "uint256",
          "name": "noOfContributions",
          "type": "uint256"
        },
        {
          "indexed": false,
          "internalType": "bool",
          "name": "claimed",
          "type": "bool"
        }
      ],
      "name": "CampaignUploaded",
      "type": "event"
    },
    {
      "anonymous": false,
      "inputs": [
        {
          "indexed": false,
          "internalType": "uint256",
          "name": "id_",
          "type": "uint256"
        },
        {
          "indexed": false,
          "internalType": "address",
          "name": "contributor_",
          "type": "address"
        },
        {
          "indexed": false,
          "internalType": "uint256",
          "name": "amount_",
          "type": "uint256"
        }
      ],
      "name": "paidCampaign",
      "type": "event"
    },
    {
      "inputs": [
        {
          "internalType": "uint256",
          "name": "",
          "type": "uint256"
        },
        {
          "internalType": "uint256",
          "name": "",
          "type": "uint256"
        }
      ],
      "name": "campaignContributions",
      "outputs": [
        {
          "internalType": "address",
          "name": "contributorAddress",
          "type": "address"
        },
        {
          "internalType": "uint256",
          "name": "amtContributed",
          "type": "uint256"
        }
      ],
      "stateMutability": "view",
      "type": "function",
      "constant": true
    },
    {
      "inputs": [
        {
          "internalType": "uint256",
          "name": "",
          "type": "uint256"
        }
      ],
      "name": "campaigns",
      "outputs": [
        {
          "internalType": "uint256",
          "name": "ID",
          "type": "uint256"
        },
        {
          "internalType": "string",
          "name": "title",
          "type": "string"
        },
        {
          "internalType": "string",
          "name": "description",
          "type": "string"
        },
        {
          "internalType": "string",
          "name": "location",
          "type": "string"
        },
        {
          "internalType": "string",
          "name": "category",
          "type": "string"
        },
        {
          "internalType": "uint256",
          "name": "minContribution",
          "type": "uint256"
        },
        {
          "internalType": "uint256",
          "name": "goal",
          "type": "uint256"
        },
        {
          "internalType": "uint256",
          "name": "pledgedAmt",
          "type": "uint256"
        },
        {
          "internalType": "uint256",
          "name": "campaignDeadline",
          "type": "uint256"
        },
        {
          "internalType": "uint256",
          "name": "noOfContributions",
          "type": "uint256"
        },
        {
          "internalType": "uint256",
          "name": "voteCount",
          "type": "uint256"
        },
        {
          "internalType": "bool",
          "name": "claimed",
          "type": "bool"
        }
      ],
      "stateMutability": "view",
      "type": "function",
      "constant": true
    },
    {
      "inputs": [
        {
          "internalType": "address",
          "name": "",
          "type": "address"
        },
        {
          "internalType": "uint256",
          "name": "",
          "type": "uint256"
        }
      ],
      "name": "contributorContributions",
      "outputs": [
        {
          "internalType": "uint256",
          "name": "",
          "type": "uint256"
        }
      ],
      "stateMutability": "view",
      "type": "function",
      "constant": true
    },
    {
      "inputs": [],
      "name": "manager",
      "outputs": [
        {
          "internalType": "address payable",
          "name": "",
          "type": "address"
        }
      ],
      "stateMutability": "view",
      "type": "function",
      "constant": true
    },
    {
      "inputs": [],
      "name": "noOfCampaigns",
      "outputs": [
        {
          "internalType": "uint256",
          "name": "",
          "type": "uint256"
        }
      ],
      "stateMutability": "view",
      "type": "function",
      "constant": true
    },
    {
      "inputs": [],
      "name": "totalContributions",
      "outputs": [
        {
          "internalType": "uint256",
          "name": "",
          "type": "uint256"
        }
      ],
      "stateMutability": "view",
      "type": "function",
      "constant": true
    },
    {
      "inputs": [],
      "name": "totalTrustCoins",
      "outputs": [
        {
          "internalType": "uint256",
          "name": "",
          "type": "uint256"
        }
      ],
      "stateMutability": "view",
      "type": "function",
      "constant": true
    },
    {
      "inputs": [
        {
          "internalType": "address",
          "name": "",
          "type": "address"
        },
        {
          "internalType": "uint256",
          "name": "",
          "type": "uint256"
        }
      ],
      "name": "votes",
      "outputs": [
        {
          "internalType": "bool",
          "name": "",
          "type": "bool"
        }
      ],
      "stateMutability": "view",
      "type": "function",
      "constant": true
    },
    {
      "inputs": [
        {
          "internalType": "uint256",
          "name": "id_",
          "type": "uint256"
        },
        {
          "internalType": "string",
          "name": "title_",
          "type": "string"
        },
        {
          "internalType": "string",
          "name": "description_",
          "type": "string"
        },
        {
          "internalType": "string",
          "name": "location_",
          "type": "string"
        },
        {
          "internalType": "string",
          "name": "category_",
          "type": "string"
        },
        {
          "internalType": "uint256",
          "name": "minContribution_",
          "type": "uint256"
        },
        {
          "internalType": "uint256",
          "name": "goal_",
          "type": "uint256"
        },
        {
          "internalType": "uint256",
          "name": "deadline_",
          "type": "uint256"
        }
      ],
      "name": "uploadCampaign",
      "outputs": [],
      "stateMutability": "nonpayable",
      "type": "function"
    },
    {
      "inputs": [
        {
          "internalType": "uint256",
          "name": "id_",
          "type": "uint256"
        }
      ],
      "name": "payCampaign",
      "outputs": [],
      "stateMutability": "payable",
      "type": "function",
      "payable": true
    },
    {
      "inputs": [
        {
          "internalType": "uint256",
          "name": "id_",
          "type": "uint256"
        }
      ],
      "name": "getCampaignContributions",
      "outputs": [
        {
          "internalType": "address[]",
          "name": "",
          "type": "address[]"
        },
        {
          "internalType": "uint256[]",
          "name": "",
          "type": "uint256[]"
        }
      ],
      "stateMutability": "view",
      "type": "function",
      "constant": true
    },
    {
      "inputs": [
        {
          "internalType": "address",
          "name": "contributorAddress_",
          "type": "address"
        }
      ],
      "name": "getContributorContributions",
      "outputs": [
        {
          "internalType": "uint256[]",
          "name": "",
          "type": "uint256[]"
        }
      ],
      "stateMutability": "view",
      "type": "function",
      "constant": true
    },
    {
      "inputs": [
        {
          "internalType": "uint256",
          "name": "id_",
          "type": "uint256"
        }
      ],
      "name": "campaignSuccess",
      "outputs": [],
      "stateMutability": "nonpayable",
      "type": "function"
    },
    {
      "inputs": [
        {
          "internalType": "uint256",
          "name": "id_",
          "type": "uint256"
        }
      ],
      "name": "refundAmt",
      "outputs": [],
      "stateMutability": "nonpayable",
      "type": "function"
    },
    {
      "inputs": [
        {
          "internalType": "uint256",
          "name": "campaignId",
          "type": "uint256"
        }
      ],
      "name": "vote",
      "outputs": [],
      "stateMutability": "nonpayable",
      "type": "function"
    }
  ],
  "bytecode": "0x6080604052600160005560006002556000600355620f424060045533600160006101000a81548173ffffffffffffffffffffffffffffffffffffffff021916908373ffffffffffffffffffffffffffffffffffffffff1602179055506101f4600560003373ffffffffffffffffffffffffffffffffffffffff1673ffffffffffffffffffffffffffffffffffffffff168152602001908152602001600020819055506101f460046000828254620000b79190620000fd565b9250508190555062000138565b6000819050919050565b7f4e487b7100000000000000000000000000000000000000000000000000000000600052601160045260246000fd5b60006200010a82620000c4565b91506200011783620000c4565b9250828203905081811115620001325762000131620000ce565b5b92915050565b61228c80620001486000396000f3fe6080604052600436106100e85760003560e01c8063539157bd1161008a5780639f43f729116100595780639f43f729146102f1578063bef0cdaf1461032e578063d3b0c32c14610359578063f6f219a514610397576100e8565b8063539157bd1461022457806362b68dc4146102625780636897c1371461028b5780639f2524ee146102b4576100e8565b806317818e59116100c657806317818e591461018757806337c08923146101b257806342a4ed95146101dd578063481c6a75146101f9576100e8565b80630121b93f146100ed578063141961bc14610116578063165596321461015e575b600080fd5b3480156100f957600080fd5b50610114600480360381019061010f9190611390565b6103d4565b005b34801561012257600080fd5b5061013d60048036038101906101389190611390565b6104d4565b6040516101559c9b9a99989796959493929190611477565b60405180910390f35b34801561016a57600080fd5b5061018560048036038101906101809190611390565b610761565b005b34801561019357600080fd5b5061019c61097c565b6040516101a9919061154d565b60405180910390f35b3480156101be57600080fd5b506101c7610982565b6040516101d4919061154d565b60405180910390f35b6101f760048036038101906101f29190611390565b610988565b005b34801561020557600080fd5b5061020e610bf6565b60405161021b91906115a9565b60405180910390f35b34801561023057600080fd5b5061024b600480360381019061024691906115c4565b610c1c565b604051610259929190611625565b60405180910390f35b34801561026e57600080fd5b5061028960048036038101906102849190611390565b610c6d565b005b34801561029757600080fd5b506102b260048036038101906102ad9190611783565b610e1c565b005b3480156102c057600080fd5b506102db60048036038101906102d691906118d5565b61101a565b6040516102e89190611915565b60405180910390f35b3480156102fd57600080fd5b5061031860048036038101906103139190611930565b611049565b6040516103259190611a1b565b60405180910390f35b34801561033a57600080fd5b50610343611134565b604051610350919061154d565b60405180910390f35b34801561036557600080fd5b50610380600480360381019061037b9190611390565b61113a565b60405161038e929190611afb565b60405180910390f35b3480156103a357600080fd5b506103be60048036038101906103b991906118d5565b611321565b6040516103cb919061154d565b60405180910390f35b600760003373ffffffffffffffffffffffffffffffffffffffff1673ffffffffffffffffffffffffffffffffffffffff168152602001908152602001600020600082815260200190815260200160002060009054906101000a900460ff161561043c57600080fd5b6001600760003373ffffffffffffffffffffffffffffffffffffffff1673ffffffffffffffffffffffffffffffffffffffff168152602001908152602001600020600083815260200190815260200160002060006101000a81548160ff02191690831515021790555060066000828152602001908152602001600020600a0160008154809291906104cc90611b61565b919050555050565b60066020528060005260406000206000915090508060000154908060010180546104fd90611bd8565b80601f016020809104026020016040519081016040528092919081815260200182805461052990611bd8565b80156105765780601f1061054b57610100808354040283529160200191610576565b820191906000526020600020905b81548152906001019060200180831161055957829003601f168201915b50505050509080600201805461058b90611bd8565b80601f01602080910402602001604051908101604052809291908181526020018280546105b790611bd8565b80156106045780601f106105d957610100808354040283529160200191610604565b820191906000526020600020905b8154815290600101906020018083116105e757829003601f168201915b50505050509080600301805461061990611bd8565b80601f016020809104026020016040519081016040528092919081815260200182805461064590611bd8565b80156106925780601f1061066757610100808354040283529160200191610692565b820191906000526020600020905b81548152906001019060200180831161067557829003601f168201915b5050505050908060040180546106a790611bd8565b80601f01602080910402602001604051908101604052809291908181526020018280546106d390611bd8565b80156107205780601f106106f557610100808354040283529160200191610720565b820191906000526020600020905b81548152906001019060200180831161070357829003601f168201915b50505050509080600501549080600601549080600701549080600801549080600901549080600a01549080600b0160009054906101000a900460ff1690508c565b6006600082815260200190815260200160002060080154421180156107b1575060066000828152602001908152602001600020600601546006600083815260200190815260200160002060070154105b6107f0576040517f08c379a00000000000000000000000000000000000000000000000000000000081526004016107e790611c7b565b60405180910390fd5b60005b600660008381526020019081526020016000206009015481101561097857600060086000848152602001908152602001600020600083815260200190815260200160002060000160009054906101000a900473ffffffffffffffffffffffffffffffffffffffff169050600060086000858152602001908152602001600020600084815260200190815260200160002060010154905060008273ffffffffffffffffffffffffffffffffffffffff16826040516108af90611ccc565b60006040518083038185875af1925050503d80600081146108ec576040519150601f19603f3d011682016040523d82523d6000602084013e6108f1565b606091505b5050905080610935576040517f08c379a000000000000000000000000000000000000000000000000000000000815260040161092c90611d53565b60405180910390fd5b600060086000878152602001908152602001600020600086815260200190815260200160002060010181905550505050808061097090611b61565b9150506107f3565b5050565b60025481565b60035481565b600660008281526020019081526020016000206008015442106109e0576040517f08c379a00000000000000000000000000000000000000000000000000000000081526004016109d790611dbf565b60405180910390fd5b6006600082815260200190815260200160002060050154341015610a39576040517f08c379a0000000000000000000000000000000000000000000000000000000008152600401610a3090611e2b565b60405180910390fd5b600060405180604001604052803373ffffffffffffffffffffffffffffffffffffffff16815260200134815250905034600960003373ffffffffffffffffffffffffffffffffffffffff1673ffffffffffffffffffffffffffffffffffffffff16815260200190815260200160002060008481526020019081526020016000206000828254610ac89190611e4b565b92505081905550806008600084815260200190815260200160002060006006600086815260200190815260200160002060090154815260200190815260200160002060008201518160000160006101000a81548173ffffffffffffffffffffffffffffffffffffffff021916908373ffffffffffffffffffffffffffffffffffffffff1602179055506020820151816001015590505034600660008481526020019081526020016000206007016000828254610b849190611e4b565b92505081905550600660008381526020019081526020016000206009016000815480929190610bb290611b61565b91905055507f9de0a6dd1dfd3e6eda5e87572f845b6183a171debc4a266cf5c5eddc77540983823334604051610bea93929190611e7f565b60405180910390a15050565b600160009054906101000a900473ffffffffffffffffffffffffffffffffffffffff1681565b6008602052816000526040600020602052806000526040600020600091509150508060000160009054906101000a900473ffffffffffffffffffffffffffffffffffffffff16908060010154905082565b600160009054906101000a900473ffffffffffffffffffffffffffffffffffffffff1673ffffffffffffffffffffffffffffffffffffffff163373ffffffffffffffffffffffffffffffffffffffff1614610cc757600080fd5b600660008281526020019081526020016000206008015442118015610d17575060066000828152602001908152602001600020600601546006600083815260200190815260200160002060070154115b610d56576040517f08c379a0000000000000000000000000000000000000000000000000000000008152600401610d4d90611c7b565b60405180910390fd5b60003373ffffffffffffffffffffffffffffffffffffffff166006600084815260200190815260200160002060070154604051610d9290611ccc565b60006040518083038185875af1925050503d8060008114610dcf576040519150601f19603f3d011682016040523d82523d6000602084013e610dd4565b606091505b5050905080610e18576040517f08c379a0000000000000000000000000000000000000000000000000000000008152600401610e0f90611d53565b60405180910390fd5b5050565b600160009054906101000a900473ffffffffffffffffffffffffffffffffffffffff1673ffffffffffffffffffffffffffffffffffffffff163373ffffffffffffffffffffffffffffffffffffffff1614610e7657600080fd5b60006040518061018001604052808a815260200189815260200188815260200187815260200186815260200185815260200184815260200160008152602001838152602001600081526020016000815260200160001515815250905080600660008b8152602001908152602001600020600082015181600001556020820151816001019081610f059190612062565b506040820151816002019081610f1b9190612062565b506060820151816003019081610f319190612062565b506080820151816004019081610f479190612062565b5060a0820151816005015560c0820151816006015560e082015181600701556101008201518160080155610120820151816009015561014082015181600a015561016082015181600b0160006101000a81548160ff0219169083151502179055509050507f8a9ac69da6c9624863cc5677f1ffe445079deb65237ccf9adc3fa4b410b0426860025489898989898989600080604051610fef9a9998979695949392919061216f565b60405180910390a16002600081548092919061100a90611b61565b9190505550505050505050505050565b60076020528160005260406000206020528060005260406000206000915091509054906101000a900460ff1681565b6060600060025467ffffffffffffffff81111561106957611068611658565b5b6040519080825280602002602001820160405280156110975781602001602082028036833780820191505090505b50905060005b60025481101561112a57600960008573ffffffffffffffffffffffffffffffffffffffff1673ffffffffffffffffffffffffffffffffffffffff16815260200190815260200160002060008281526020019081526020016000205482828151811061110b5761110a612227565b5b602002602001018181525050808061112290611b61565b91505061109d565b5080915050919050565b60045481565b6060806000600660008581526020019081526020016000206009015467ffffffffffffffff81111561116f5761116e611658565b5b60405190808252806020026020018201604052801561119d5781602001602082028036833780820191505090505b5090506000600660008681526020019081526020016000206009015467ffffffffffffffff8111156111d2576111d1611658565b5b6040519080825280602002602001820160405280156112005781602001602082028036833780820191505090505b50905060005b60066000878152602001908152602001600020600901548110156113135760086000878152602001908152602001600020600082815260200190815260200160002060000160009054906101000a900473ffffffffffffffffffffffffffffffffffffffff1683828151811061127f5761127e612227565b5b602002602001019073ffffffffffffffffffffffffffffffffffffffff16908173ffffffffffffffffffffffffffffffffffffffff1681525050600860008781526020019081526020016000206000828152602001908152602001600020600101548282815181106112f4576112f3612227565b5b602002602001018181525050808061130b90611b61565b915050611206565b508181935093505050915091565b6009602052816000526040600020602052806000526040600020600091509150505481565b6000604051905090565b600080fd5b600080fd5b6000819050919050565b61136d8161135a565b811461137857600080fd5b50565b60008135905061138a81611364565b92915050565b6000602082840312156113a6576113a5611350565b5b60006113b48482850161137b565b91505092915050565b6113c68161135a565b82525050565b600081519050919050565b600082825260208201905092915050565b60005b838110156114065780820151818401526020810190506113eb565b60008484015250505050565b6000601f19601f8301169050919050565b600061142e826113cc565b61143881856113d7565b93506114488185602086016113e8565b61145181611412565b840191505092915050565b60008115159050919050565b6114718161145c565b82525050565b60006101808201905061148d600083018f6113bd565b818103602083015261149f818e611423565b905081810360408301526114b3818d611423565b905081810360608301526114c7818c611423565b905081810360808301526114db818b611423565b90506114ea60a083018a6113bd565b6114f760c08301896113bd565b61150460e08301886113bd565b6115126101008301876113bd565b6115206101208301866113bd565b61152e6101408301856113bd565b61153c610160830184611468565b9d9c50505050505050505050505050565b600060208201905061156260008301846113bd565b92915050565b600073ffffffffffffffffffffffffffffffffffffffff82169050919050565b600061159382611568565b9050919050565b6115a381611588565b82525050565b60006020820190506115be600083018461159a565b92915050565b600080604083850312156115db576115da611350565b5b60006115e98582860161137b565b92505060206115fa8582860161137b565b9150509250929050565b600061160f82611568565b9050919050565b61161f81611604565b82525050565b600060408201905061163a6000830185611616565b61164760208301846113bd565b9392505050565b600080fd5b600080fd5b7f4e487b7100000000000000000000000000000000000000000000000000000000600052604160045260246000fd5b61169082611412565b810181811067ffffffffffffffff821117156116af576116ae611658565b5b80604052505050565b60006116c2611346565b90506116ce8282611687565b919050565b600067ffffffffffffffff8211156116ee576116ed611658565b5b6116f782611412565b9050602081019050919050565b82818337600083830152505050565b6000611726611721846116d3565b6116b8565b90508281526020810184848401111561174257611741611653565b5b61174d848285611704565b509392505050565b600082601f83011261176a5761176961164e565b5b813561177a848260208601611713565b91505092915050565b600080600080600080600080610100898b0312156117a4576117a3611350565b5b60006117b28b828c0161137b565b985050602089013567ffffffffffffffff8111156117d3576117d2611355565b5b6117df8b828c01611755565b975050604089013567ffffffffffffffff811115611800576117ff611355565b5b61180c8b828c01611755565b965050606089013567ffffffffffffffff81111561182d5761182c611355565b5b6118398b828c01611755565b955050608089013567ffffffffffffffff81111561185a57611859611355565b5b6118668b828c01611755565b94505060a06118778b828c0161137b565b93505060c06118888b828c0161137b565b92505060e06118998b828c0161137b565b9150509295985092959890939650565b6118b281611604565b81146118bd57600080fd5b50565b6000813590506118cf816118a9565b92915050565b600080604083850312156118ec576118eb611350565b5b60006118fa858286016118c0565b925050602061190b8582860161137b565b9150509250929050565b600060208201905061192a6000830184611468565b92915050565b60006020828403121561194657611945611350565b5b6000611954848285016118c0565b91505092915050565b600081519050919050565b600082825260208201905092915050565b6000819050602082019050919050565b6119928161135a565b82525050565b60006119a48383611989565b60208301905092915050565b6000602082019050919050565b60006119c88261195d565b6119d28185611968565b93506119dd83611979565b8060005b83811015611a0e5781516119f58882611998565b9750611a00836119b0565b9250506001810190506119e1565b5085935050505092915050565b60006020820190508181036000830152611a3581846119bd565b905092915050565b600081519050919050565b600082825260208201905092915050565b6000819050602082019050919050565b611a7281611604565b82525050565b6000611a848383611a69565b60208301905092915050565b6000602082019050919050565b6000611aa882611a3d565b611ab28185611a48565b9350611abd83611a59565b8060005b83811015611aee578151611ad58882611a78565b9750611ae083611a90565b925050600181019050611ac1565b5085935050505092915050565b60006040820190508181036000830152611b158185611a9d565b90508181036020830152611b2981846119bd565b90509392505050565b7f4e487b7100000000000000000000000000000000000000000000000000000000600052601160045260246000fd5b6000611b6c8261135a565b91507fffffffffffffffffffffffffffffffffffffffffffffffffffffffffffffffff8203611b9e57611b9d611b32565b5b600182019050919050565b7f4e487b7100000000000000000000000000000000000000000000000000000000600052602260045260246000fd5b60006002820490506001821680611bf057607f821691505b602082108103611c0357611c02611ba9565b5b50919050565b7f596f7520617265206e6f7420656c696769626c6520746f20676574207265667560008201527f6e64207269676874206e6f770000000000000000000000000000000000000000602082015250565b6000611c65602c836113d7565b9150611c7082611c09565b604082019050919050565b60006020820190508181036000830152611c9481611c58565b9050919050565b600081905092915050565b50565b6000611cb6600083611c9b565b9150611cc182611ca6565b600082019050919050565b6000611cd782611ca9565b9150819050919050565b7f4661696c656420746f2073656e6420757365722062616c616e6365206261636b60008201527f20746f2074686520757365720000000000000000000000000000000000000000602082015250565b6000611d3d602c836113d7565b9150611d4882611ce1565b604082019050919050565b60006020820190508181036000830152611d6c81611d30565b9050919050565b7f446561646c696e65206861732070617373656400000000000000000000000000600082015250565b6000611da96013836113d7565b9150611db482611d73565b602082019050919050565b60006020820190508181036000830152611dd881611d9c565b9050919050565b7f4d696e696d756d20636f6e747269627574696f6e20686173206e6f74206d6574600082015250565b6000611e156020836113d7565b9150611e2082611ddf565b602082019050919050565b60006020820190508181036000830152611e4481611e08565b9050919050565b6000611e568261135a565b9150611e618361135a565b9250828201905080821115611e7957611e78611b32565b5b92915050565b6000606082019050611e9460008301866113bd565b611ea16020830185611616565b611eae60408301846113bd565b949350505050565b60008190508160005260206000209050919050565b60006020601f8301049050919050565b600082821b905092915050565b600060088302611f187fffffffffffffffffffffffffffffffffffffffffffffffffffffffffffffffff82611edb565b611f228683611edb565b95508019841693508086168417925050509392505050565b6000819050919050565b6000611f5f611f5a611f558461135a565b611f3a565b61135a565b9050919050565b6000819050919050565b611f7983611f44565b611f8d611f8582611f66565b848454611ee8565b825550505050565b600090565b611fa2611f95565b611fad818484611f70565b505050565b5b81811015611fd157611fc6600082611f9a565b600181019050611fb3565b5050565b601f82111561201657611fe781611eb6565b611ff084611ecb565b81016020851015611fff578190505b61201361200b85611ecb565b830182611fb2565b50505b505050565b600082821c905092915050565b60006120396000198460080261201b565b1980831691505092915050565b60006120528383612028565b9150826002028217905092915050565b61206b826113cc565b67ffffffffffffffff81111561208457612083611658565b5b61208e8254611bd8565b612099828285611fd5565b600060209050601f8311600181146120cc57600084156120ba578287015190505b6120c48582612046565b86555061212c565b601f1984166120da86611eb6565b60005b82811015612102578489015182556001820191506020850194506020810190506120dd565b8683101561211f578489015161211b601f891682612028565b8355505b6001600288020188555050505b505050505050565b6000819050919050565b600061215961215461214f84612134565b611f3a565b61135a565b9050919050565b6121698161213e565b82525050565b600061014082019050612185600083018d6113bd565b8181036020830152612197818c611423565b905081810360408301526121ab818b611423565b905081810360608301526121bf818a611423565b905081810360808301526121d38189611423565b90506121e260a08301886113bd565b6121ef60c08301876113bd565b6121fc60e08301866113bd565b61220a610100830185612160565b612218610120830184611468565b9b9a5050505050505050505050565b7f4e487b7100000000000000000000000000000000000000000000000000000000600052603260045260246000fdfea2646970667358221220c2f4edc520233bd97c07cf6eae3c6cc35f369eed2e1d84a8396f39878fb0411264736f6c63430008130033",
  "immutableReferences": {},
  "source": "// SPDX-License-Identifier: GPL-3.0\r\n\r\npragma solidity >=0.7.0 <0.9.0;\r\n\r\ncontract Crowdfunding {\r\n  uint256 onewei = 1 wei;\r\n\r\n  address payable public manager;\r\n  uint256 public noOfCampaigns = 0;\r\n  uint256 public totalContributions = 0;\r\n  uint256 public totalTrustCoins = 1000000;\r\n  mapping(address => uint256) managerTrust;\r\n\r\n  struct Contributor {\r\n    address contributorAddress;\r\n    uint256 amtContributed;\r\n  }\r\n\r\n  struct Campaign {\r\n    uint256 ID;\r\n    string title;\r\n    string description;\r\n    string location;\r\n    string category;\r\n    uint256 minContribution;\r\n    uint256 goal;\r\n    uint256 pledgedAmt;\r\n    uint256 campaignDeadline;\r\n    uint256 noOfContributions;\r\n    uint256 voteCount;\r\n    bool claimed;\r\n  }\r\n\r\n  constructor() payable {\r\n    manager = payable(msg.sender);\r\n    managerTrust[msg.sender] = 500;\r\n    totalTrustCoins -= 500;\r\n  }\r\n\r\n  // ALL THE FOLLOWING BS IS BECAUSE\r\n  // THERE WERE ISSUES WITH USING A MAPPING OR ARRAY OF STRUCT INSIDE A STRUCT\r\n  // TRY TO SOLVE I GUESS\r\n\r\n  // mapping from total number of campaigns as campaign_id to Campaign\r\n  mapping(uint256 => Campaign) public campaigns;\r\n  //mapping from contributor address to (mapping from campaign id to boolean value for voted or not)\r\n  mapping(address => mapping(uint256 => bool)) public votes;\r\n\r\n  // // mapping from total number of contributions on platform as id to campaign id\r\n  // mapping(uint256 => uint256) platformContributions;\r\n  // // mapping from campaign id to ( mapping from contribution id to contributor address)\r\n  // mapping(uint256 => mapping(uint256 => address)) campaignContributions;\r\n  // // mapping from contributor address to (mapping from campaign id to (mapping from contribution id to amount paid))\r\n  // mapping(address => mapping(uint256 => mapping(uint256 => uint256256))) public contributorContributions;\r\n\r\n  // mapping from campaign id to (mapping from contribution id to contributor))\r\n  mapping(uint256 => mapping(uint256 => Contributor)) public campaignContributions;\r\n  // mapping from contributor address to (mapping from campaign id to amount contributed))\r\n  mapping(address => mapping(uint256 => uint256)) public contributorContributions;\r\n\r\n  event CampaignUploaded(\r\n    uint256 ID,\r\n    string title,\r\n    string description,\r\n    string location,\r\n    string category,\r\n    uint256 minContribution,\r\n    uint256 goal,\r\n    uint256 campaignDeadline,\r\n    uint256 noOfContributions,\r\n    bool claimed\r\n  );\r\n\r\n  event paidCampaign(uint256 id_, address contributor_, uint256 amount_);\r\n\r\n  modifier onlyManager() {\r\n    require(msg.sender == manager);\r\n    _;\r\n  }\r\n\r\n  function uploadCampaign(\r\n    uint256 id_,\r\n    string memory title_,\r\n    string memory description_,\r\n    string memory location_,\r\n    string memory category_,\r\n    uint256 minContribution_,\r\n    uint256 goal_,\r\n    uint256 deadline_\r\n  ) public onlyManager {\r\n    // require(msg.sender == manager, 'Only manager can create this Campaign');\r\n    Campaign memory campaign = Campaign(\r\n      id_,\r\n      title_,\r\n      description_,\r\n      location_,\r\n      category_,\r\n      minContribution_,\r\n      goal_,\r\n      0,\r\n      deadline_,\r\n      0,\r\n      0,\r\n      false\r\n    );\r\n\r\n    campaigns[id_] = campaign;\r\n\r\n    emit CampaignUploaded(\r\n      noOfCampaigns,\r\n      title_,\r\n      description_,\r\n      // imageHash_,\r\n      location_,\r\n      category_,\r\n      minContribution_,\r\n      goal_,\r\n      deadline_,\r\n      0,\r\n      false\r\n    );\r\n\r\n    noOfCampaigns++;\r\n  }\r\n\r\n  function payCampaign(uint256 id_) public payable {\r\n    require(\r\n      block.timestamp < campaigns[id_].campaignDeadline,\r\n      'Deadline has passed'\r\n    );\r\n    require(\r\n      msg.value >= campaigns[id_].minContribution,\r\n      'Minimum contribution has not met'\r\n    );\r\n\r\n    // address payable user = payable(manager);\r\n    // user.transfer(msg.value);\r\n\r\n    Contributor memory contributor = Contributor(msg.sender, msg.value);\r\n\r\n    contributorContributions[msg.sender][id_] += msg.value;\r\n    campaignContributions[id_][campaigns[id_].noOfContributions] = contributor;\r\n\r\n    campaigns[id_].pledgedAmt += msg.value;\r\n    campaigns[id_].noOfContributions++;\r\n\r\n    // platformContributions[totalContributions] = id_;\r\n    // campaignContributions[id_][totalContributions] = msg.sender;\r\n    // contributorContributions[msg.sender][id_][totalContributions] = msg.value;\r\n\r\n    emit paidCampaign(id_, msg.sender, msg.value);\r\n\r\n    // totalContributions++;\r\n  }\r\n\r\n  function getCampaignContributions(\r\n    uint256 id_\r\n  ) public view returns (address[] memory, uint256[] memory) {\r\n    address[] memory returnAddress = new address[](\r\n      campaigns[id_].noOfContributions\r\n    );\r\n    uint256[] memory returnAmount = new uint256[](campaigns[id_].noOfContributions);\r\n    for (uint256 i = 0; i < campaigns[id_].noOfContributions; i++) {\r\n      returnAddress[i] = campaignContributions[id_][i].contributorAddress;\r\n      returnAmount[i] = campaignContributions[id_][i].amtContributed;\r\n    }\r\n    return (returnAddress, returnAmount);\r\n  }\r\n\r\n  function getContributorContributions(\r\n    address contributorAddress_\r\n  ) public view returns (uint256[] memory) {\r\n    uint256[] memory returnAmount = new uint256[](noOfCampaigns);\r\n    for (uint256 i = 0; i < noOfCampaigns; i++) {\r\n      returnAmount[i] = contributorContributions[contributorAddress_][i];\r\n    }\r\n    return (returnAmount);\r\n  }\r\n\r\n  function campaignSuccess(uint256 id_) public onlyManager {\r\n    require(\r\n      block.timestamp > campaigns[id_].campaignDeadline &&\r\n      campaigns[id_].pledgedAmt > campaigns[id_].goal,\r\n      'You are not eligible to get refund right now'\r\n    );\r\n\r\n    // address payable user = payable(manager);\r\n    // manager.transfer(campaigns[id_].pledgedAmt);\r\n    (bool success, ) = msg.sender.call{ value: campaigns[id_].pledgedAmt }('');\r\n    // if (!success) {\r\n    //   revert();\r\n    // }\r\n    require(success, 'Failed to send user balance back to the user');\r\n  }\r\n\r\n  function refundAmt(uint256 id_) public {\r\n    require(\r\n      block.timestamp > campaigns[id_].campaignDeadline &&\r\n      campaigns[id_].pledgedAmt < campaigns[id_].goal,\r\n      'You are not eligible to get refund right now'\r\n    );\r\n\r\n    for (uint256 i = 0; i < campaigns[id_].noOfContributions; i++) {\r\n      address payable user = payable(\r\n        campaignContributions[id_][i].contributorAddress\r\n      );\r\n      uint256 amountPayable = campaignContributions[id_][i].amtContributed;\r\n      // user.transfer(amountPayable);\r\n      (bool success, ) = user.call{ value: amountPayable }('');\r\n      // if (!success) {\r\n      //   revert();\r\n      // }\r\n      require(success, 'Failed to send user balance back to the user');\r\n      campaignContributions[id_][i].amtContributed = 0;\r\n    }\r\n  }\r\n\r\n  function vote (uint256 campaignId) public {\r\n    require(!votes[msg.sender][campaignId]);\r\n    votes[msg.sender][campaignId] = true;\r\n    campaigns[campaignId].voteCount++;\r\n  }\r\n}\r\n",
  "sourcePath": "C:\\Users\\91905\\Desktop\\crowdfunding\\crowdfunding\\web-final\\contracts\\Crowdfunding.sol",
  "compiler": {
    "name": "solc",
    "version": "0.8.19+commit.7dd6d404.Emscripten.clang"
  },
  "schemaVersion": "3.4.13",
  "updatedAt": "2023-04-03T09:58:41.550Z",
  "networkType": "ethereum",
  "devdoc": {
    "kind": "dev",
    "methods": {},
    "version": 1
  },
  "userdoc": {
    "kind": "user",
    "methods": {},
    "version": 1
  }
}