{
  "contractName": "User",
  "abi": [
    {
      "inputs": [
        {
          "internalType": "address",
          "name": "id",
          "type": "address"
        },
        {
          "internalType": "string",
          "name": "name",
          "type": "string"
        }
      ],
      "name": "setName",
      "outputs": [],
      "stateMutability": "nonpayable",
      "type": "function"
    },
    {
      "inputs": [
        {
          "internalType": "address",
          "name": "id",
          "type": "address"
        }
      ],
      "name": "getName",
      "outputs": [
        {
          "internalType": "string",
          "name": "",
          "type": "string"
        }
      ],
      "stateMutability": "view",
      "type": "function",
      "constant": true
    }
  ],
  "bytecode": "0x608060405234801561001057600080fd5b506107a7806100206000396000f3fe608060405234801561001057600080fd5b50600436106100365760003560e01c80633121db1c1461003b5780635fd4b08a14610057575b600080fd5b6100556004803603810190610050919061035f565b610087565b005b610071600480360381019061006c91906103bb565b6100d7565b60405161007e9190610467565b60405180910390f35b806000808473ffffffffffffffffffffffffffffffffffffffff1673ffffffffffffffffffffffffffffffffffffffff16815260200190815260200160002090816100d2919061069f565b505050565b60606000808373ffffffffffffffffffffffffffffffffffffffff1673ffffffffffffffffffffffffffffffffffffffff1681526020019081526020016000208054610122906104b8565b80601f016020809104026020016040519081016040528092919081815260200182805461014e906104b8565b801561019b5780601f106101705761010080835404028352916020019161019b565b820191906000526020600020905b81548152906001019060200180831161017e57829003601f168201915b50505050509050919050565b6000604051905090565b600080fd5b600080fd5b600073ffffffffffffffffffffffffffffffffffffffff82169050919050565b60006101e6826101bb565b9050919050565b6101f6816101db565b811461020157600080fd5b50565b600081359050610213816101ed565b92915050565b600080fd5b600080fd5b6000601f19601f8301169050919050565b7f4e487b7100000000000000000000000000000000000000000000000000000000600052604160045260246000fd5b61026c82610223565b810181811067ffffffffffffffff8211171561028b5761028a610234565b5b80604052505050565b600061029e6101a7565b90506102aa8282610263565b919050565b600067ffffffffffffffff8211156102ca576102c9610234565b5b6102d382610223565b9050602081019050919050565b82818337600083830152505050565b60006103026102fd846102af565b610294565b90508281526020810184848401111561031e5761031d61021e565b5b6103298482856102e0565b509392505050565b600082601f83011261034657610345610219565b5b81356103568482602086016102ef565b91505092915050565b60008060408385031215610376576103756101b1565b5b600061038485828601610204565b925050602083013567ffffffffffffffff8111156103a5576103a46101b6565b5b6103b185828601610331565b9150509250929050565b6000602082840312156103d1576103d06101b1565b5b60006103df84828501610204565b91505092915050565b600081519050919050565b600082825260208201905092915050565b60005b83811015610422578082015181840152602081019050610407565b60008484015250505050565b6000610439826103e8565b61044381856103f3565b9350610453818560208601610404565b61045c81610223565b840191505092915050565b60006020820190508181036000830152610481818461042e565b905092915050565b7f4e487b7100000000000000000000000000000000000000000000000000000000600052602260045260246000fd5b600060028204905060018216806104d057607f821691505b6020821081036104e3576104e2610489565b5b50919050565b60008190508160005260206000209050919050565b60006020601f8301049050919050565b600082821b905092915050565b60006008830261054b7fffffffffffffffffffffffffffffffffffffffffffffffffffffffffffffffff8261050e565b610555868361050e565b95508019841693508086168417925050509392505050565b6000819050919050565b6000819050919050565b600061059c6105976105928461056d565b610577565b61056d565b9050919050565b6000819050919050565b6105b683610581565b6105ca6105c2826105a3565b84845461051b565b825550505050565b600090565b6105df6105d2565b6105ea8184846105ad565b505050565b5b8181101561060e576106036000826105d7565b6001810190506105f0565b5050565b601f82111561065357610624816104e9565b61062d846104fe565b8101602085101561063c578190505b610650610648856104fe565b8301826105ef565b50505b505050565b600082821c905092915050565b600061067660001984600802610658565b1980831691505092915050565b600061068f8383610665565b9150826002028217905092915050565b6106a8826103e8565b67ffffffffffffffff8111156106c1576106c0610234565b5b6106cb82546104b8565b6106d6828285610612565b600060209050601f83116001811461070957600084156106f7578287015190505b6107018582610683565b865550610769565b601f198416610717866104e9565b60005b8281101561073f5784890151825560018201915060208501945060208101905061071a565b8683101561075c5784890151610758601f891682610665565b8355505b6001600288020188555050505b50505050505056fea26469706673582212201e4168bbc15794b060f8d7afd156e32eda50a639e6a0e93cc504af23a61b9eba64736f6c63430008130033",
  "immutableReferences": {},
  "source": "pragma solidity ^0.8.0;\n\ncontract User {\n    \n    mapping(address => string) private idToName;\n    \n    function setName(address id, string memory name) public {\n        idToName[id] = name;\n    }\n    \n    function getName(address id) public view returns (string memory) {\n        return idToName[id];\n    }\n    \n}",
  "sourcePath": "/home/tijin/Desktop/Projects/crowdfunding-platform/crowdfunding/web-final/contracts/User.sol",
  "compiler": {
    "name": "solc",
    "version": "0.8.19+commit.7dd6d404.Emscripten.clang"
  },
  "schemaVersion": "3.4.13",
  "updatedAt": "2023-03-25T06:47:44.093Z",
  "networkType": "ethereum",
  "devdoc": {
    "kind": "dev",
    "methods": {},
    "version": 1
  },
  "userdoc": {
    "kind": "user",
    "methods": {},
    "version": 1
  }
}