{
  "_format": "hh-sol-artifact-1",
  "contractName": "User",
  "sourceName": "contracts/User.sol",
  "abi": [
    {
      "inputs": [
        {
          "internalType": "address",
          "name": "id",
          "type": "address"
        }
      ],
      "name": "getName",
      "outputs": [
        {
          "internalType": "string",
          "name": "",
          "type": "string"
        }
      ],
      "stateMutability": "view",
      "type": "function"
    },
    {
      "inputs": [
        {
          "internalType": "address",
          "name": "id",
          "type": "address"
        },
        {
          "internalType": "string",
          "name": "name",
          "type": "string"
        }
      ],
      "name": "setName",
      "outputs": [],
      "stateMutability": "nonpayable",
      "type": "function"
    }
  ],
  "bytecode": "0x608060405234801561001057600080fd5b506105a4806100206000396000f3fe608060405234801561001057600080fd5b50600436106100365760003560e01c80633121db1c1461003b5780635fd4b08a14610050575b600080fd5b61004e6100493660046102c4565b610079565b005b61006361005e36600461031c565b6100ad565b6040516100709190610393565b60405180910390f35b73ffffffffffffffffffffffffffffffffffffffff821660009081526020819052604090206100a882826104aa565b505050565b73ffffffffffffffffffffffffffffffffffffffff811660009081526020819052604090208054606091906100e1906103da565b80601f016020809104026020016040519081016040528092919081815260200182805461010d906103da565b801561015a5780601f1061012f5761010080835404028352916020019161015a565b820191906000526020600020905b81548152906001019060200180831161013d57829003601f168201915b50505050509050919050565b600073ffffffffffffffffffffffffffffffffffffffff82165b92915050565b61018f81610166565b811461019a57600080fd5b50565b803561018081610186565b7f4e487b7100000000000000000000000000000000000000000000000000000000600052604160045260246000fd5b601f19601f830116810181811067ffffffffffffffff821117156101fd576101fd6101a8565b6040525050565b600061020f60405190565b905061021b82826101d7565b919050565b600067ffffffffffffffff82111561023a5761023a6101a8565b601f19601f83011660200192915050565b82818337506000910152565b600061026a61026584610220565b610204565b90508281526020810184848401111561028557610285600080fd5b61029084828561024b565b509392505050565b600082601f8301126102ac576102ac600080fd5b81356102bc848260208601610257565b949350505050565b600080604083850312156102da576102da600080fd5b60006102e6858561019d565b925050602083013567ffffffffffffffff81111561030657610306600080fd5b61031285828601610298565b9150509250929050565b60006020828403121561033157610331600080fd5b60006102bc848461019d565b60005b83811015610358578181015183820152602001610340565b50506000910152565b600061036b825190565b80845260208401935061038281856020860161033d565b601f01601f19169290920192915050565b602080825281016103a48184610361565b9392505050565b7f4e487b7100000000000000000000000000000000000000000000000000000000600052602260045260246000fd5b6002810460018216806103ee57607f821691505b602082108103610400576104006103ab565b50919050565b60006101806104128381565b90565b61041e83610406565b81546008840282811b60001990911b908116901990911617825550505050565b60006100a8818484610415565b818110156104665761045e60008261043e565b60010161044b565b5050565b601f8211156100a8576000818152602090206020601f850104810160208510156104915750805b6104a36020601f86010483018261044b565b5050505050565b815167ffffffffffffffff8111156104c4576104c46101a8565b6104ce82546103da565b6104d982828561046a565b6020601f83116001811461050d57600084156104f55750858201515b600019600886021c1981166002860217865550610566565b600085815260208120601f198616915b8281101561053d578885015182556020948501946001909201910161051d565b868310156105595784890151600019601f89166008021c191682555b6001600288020188555050505b50505050505056fea2646970667358221220bfdffa59dec81c2684655f623b501516b50a50d7bbc2a9399cb693afa63e2c6064736f6c63430008110033",
  "linkReferences": {},
  "deployedLinkReferences": {}
}